{
	"contracts/DogNFT.sol": {
		"DogNFT": {
			"abi": [
				{
					"inputs": [],
					"stateMutability": "nonpayable",
					"type": "constructor"
				},
				{
					"anonymous": false,
					"inputs": [
						{
							"indexed": true,
							"internalType": "address",
							"name": "owner",
							"type": "address"
						},
						{
							"indexed": true,
							"internalType": "address",
							"name": "approved",
							"type": "address"
						},
						{
							"indexed": true,
							"internalType": "uint256",
							"name": "tokenId",
							"type": "uint256"
						}
					],
					"name": "Approval",
					"type": "event"
				},
				{
					"anonymous": false,
					"inputs": [
						{
							"indexed": true,
							"internalType": "address",
							"name": "owner",
							"type": "address"
						},
						{
							"indexed": true,
							"internalType": "address",
							"name": "operator",
							"type": "address"
						},
						{
							"indexed": false,
							"internalType": "bool",
							"name": "approved",
							"type": "bool"
						}
					],
					"name": "ApprovalForAll",
					"type": "event"
				},
				{
					"anonymous": false,
					"inputs": [
						{
							"indexed": true,
							"internalType": "address",
							"name": "from",
							"type": "address"
						},
						{
							"indexed": true,
							"internalType": "address",
							"name": "to",
							"type": "address"
						},
						{
							"indexed": true,
							"internalType": "uint256",
							"name": "tokenId",
							"type": "uint256"
						}
					],
					"name": "Transfer",
					"type": "event"
				},
				{
					"inputs": [],
					"name": "_tokenIds",
					"outputs": [
						{
							"internalType": "uint256",
							"name": "_value",
							"type": "uint256"
						}
					],
					"stateMutability": "view",
					"type": "function"
				},
				{
					"inputs": [
						{
							"internalType": "address",
							"name": "to",
							"type": "address"
						},
						{
							"internalType": "uint256",
							"name": "tokenId",
							"type": "uint256"
						}
					],
					"name": "approve",
					"outputs": [],
					"stateMutability": "nonpayable",
					"type": "function"
				},
				{
					"inputs": [
						{
							"internalType": "address",
							"name": "owner",
							"type": "address"
						}
					],
					"name": "balanceOf",
					"outputs": [
						{
							"internalType": "uint256",
							"name": "",
							"type": "uint256"
						}
					],
					"stateMutability": "view",
					"type": "function"
				},
				{
					"inputs": [],
					"name": "baseURI",
					"outputs": [
						{
							"internalType": "string",
							"name": "",
							"type": "string"
						}
					],
					"stateMutability": "view",
					"type": "function"
				},
				{
					"inputs": [
						{
							"internalType": "uint256",
							"name": "tokenId",
							"type": "uint256"
						}
					],
					"name": "getApproved",
					"outputs": [
						{
							"internalType": "address",
							"name": "",
							"type": "address"
						}
					],
					"stateMutability": "view",
					"type": "function"
				},
				{
					"inputs": [
						{
							"internalType": "address",
							"name": "owner",
							"type": "address"
						},
						{
							"internalType": "address",
							"name": "operator",
							"type": "address"
						}
					],
					"name": "isApprovedForAll",
					"outputs": [
						{
							"internalType": "bool",
							"name": "",
							"type": "bool"
						}
					],
					"stateMutability": "view",
					"type": "function"
				},
				{
					"inputs": [
						{
							"internalType": "address",
							"name": "_receipentAddress",
							"type": "address"
						},
						{
							"internalType": "string",
							"name": "tokenURI",
							"type": "string"
						}
					],
					"name": "mintNFT",
					"outputs": [
						{
							"internalType": "uint256",
							"name": "",
							"type": "uint256"
						}
					],
					"stateMutability": "nonpayable",
					"type": "function"
				},
				{
					"inputs": [],
					"name": "name",
					"outputs": [
						{
							"internalType": "string",
							"name": "",
							"type": "string"
						}
					],
					"stateMutability": "view",
					"type": "function"
				},
				{
					"inputs": [
						{
							"internalType": "uint256",
							"name": "tokenId",
							"type": "uint256"
						}
					],
					"name": "ownerOf",
					"outputs": [
						{
							"internalType": "address",
							"name": "",
							"type": "address"
						}
					],
					"stateMutability": "view",
					"type": "function"
				},
				{
					"inputs": [
						{
							"internalType": "address",
							"name": "from",
							"type": "address"
						},
						{
							"internalType": "address",
							"name": "to",
							"type": "address"
						},
						{
							"internalType": "uint256",
							"name": "tokenId",
							"type": "uint256"
						}
					],
					"name": "safeTransferFrom",
					"outputs": [],
					"stateMutability": "nonpayable",
					"type": "function"
				},
				{
					"inputs": [
						{
							"internalType": "address",
							"name": "from",
							"type": "address"
						},
						{
							"internalType": "address",
							"name": "to",
							"type": "address"
						},
						{
							"internalType": "uint256",
							"name": "tokenId",
							"type": "uint256"
						},
						{
							"internalType": "bytes",
							"name": "_data",
							"type": "bytes"
						}
					],
					"name": "safeTransferFrom",
					"outputs": [],
					"stateMutability": "nonpayable",
					"type": "function"
				},
				{
					"inputs": [
						{
							"internalType": "address",
							"name": "operator",
							"type": "address"
						},
						{
							"internalType": "bool",
							"name": "approved",
							"type": "bool"
						}
					],
					"name": "setApprovalForAll",
					"outputs": [],
					"stateMutability": "nonpayable",
					"type": "function"
				},
				{
					"inputs": [
						{
							"internalType": "bytes4",
							"name": "interfaceId",
							"type": "bytes4"
						}
					],
					"name": "supportsInterface",
					"outputs": [
						{
							"internalType": "bool",
							"name": "",
							"type": "bool"
						}
					],
					"stateMutability": "view",
					"type": "function"
				},
				{
					"inputs": [],
					"name": "symbol",
					"outputs": [
						{
							"internalType": "string",
							"name": "",
							"type": "string"
						}
					],
					"stateMutability": "view",
					"type": "function"
				},
				{
					"inputs": [
						{
							"internalType": "uint256",
							"name": "index",
							"type": "uint256"
						}
					],
					"name": "tokenByIndex",
					"outputs": [
						{
							"internalType": "uint256",
							"name": "",
							"type": "uint256"
						}
					],
					"stateMutability": "view",
					"type": "function"
				},
				{
					"inputs": [
						{
							"internalType": "address",
							"name": "owner",
							"type": "address"
						},
						{
							"internalType": "uint256",
							"name": "index",
							"type": "uint256"
						}
					],
					"name": "tokenOfOwnerByIndex",
					"outputs": [
						{
							"internalType": "uint256",
							"name": "",
							"type": "uint256"
						}
					],
					"stateMutability": "view",
					"type": "function"
				},
				{
					"inputs": [
						{
							"internalType": "uint256",
							"name": "tokenId",
							"type": "uint256"
						}
					],
					"name": "tokenURI",
					"outputs": [
						{
							"internalType": "string",
							"name": "",
							"type": "string"
						}
					],
					"stateMutability": "view",
					"type": "function"
				},
				{
					"inputs": [],
					"name": "totalSupply",
					"outputs": [
						{
							"internalType": "uint256",
							"name": "",
							"type": "uint256"
						}
					],
					"stateMutability": "view",
					"type": "function"
				},
				{
					"inputs": [
						{
							"internalType": "address",
							"name": "from",
							"type": "address"
						},
						{
							"internalType": "address",
							"name": "to",
							"type": "address"
						},
						{
							"internalType": "uint256",
							"name": "tokenId",
							"type": "uint256"
						}
					],
					"name": "transferFrom",
					"outputs": [],
					"stateMutability": "nonpayable",
					"type": "function"
				}
			],
			"devdoc": {
				"kind": "dev",
				"methods": {
					"approve(address,uint256)": {
						"details": "See {IERC721-approve}."
					},
					"balanceOf(address)": {
						"details": "See {IERC721-balanceOf}."
					},
					"baseURI()": {
						"details": "Returns the base URI set via {_setBaseURI}. This will be automatically added as a prefix in {tokenURI} to each token's URI, or to the token ID if no specific URI is set for that token ID."
					},
					"getApproved(uint256)": {
						"details": "See {IERC721-getApproved}."
					},
					"isApprovedForAll(address,address)": {
						"details": "See {IERC721-isApprovedForAll}."
					},
					"name()": {
						"details": "See {IERC721Metadata-name}."
					},
					"ownerOf(uint256)": {
						"details": "See {IERC721-ownerOf}."
					},
					"safeTransferFrom(address,address,uint256)": {
						"details": "See {IERC721-safeTransferFrom}."
					},
					"safeTransferFrom(address,address,uint256,bytes)": {
						"details": "See {IERC721-safeTransferFrom}."
					},
					"setApprovalForAll(address,bool)": {
						"details": "See {IERC721-setApprovalForAll}."
					},
					"supportsInterface(bytes4)": {
						"details": "See {IERC165-supportsInterface}. Time complexity O(1), guaranteed to always use less than 30 000 gas."
					},
					"symbol()": {
						"details": "See {IERC721Metadata-symbol}."
					},
					"tokenByIndex(uint256)": {
						"details": "See {IERC721Enumerable-tokenByIndex}."
					},
					"tokenOfOwnerByIndex(address,uint256)": {
						"details": "See {IERC721Enumerable-tokenOfOwnerByIndex}."
					},
					"tokenURI(uint256)": {
						"details": "See {IERC721Metadata-tokenURI}."
					},
					"totalSupply()": {
						"details": "See {IERC721Enumerable-totalSupply}."
					},
					"transferFrom(address,address,uint256)": {
						"details": "See {IERC721-transferFrom}."
					}
				},
				"version": 1
			},
			"evm": {
				"assembly": "    /* \"contracts/DogNFT.sol\":419:453  string private nftName = \"DOGGIES\" */\n  0xc0\n    /* \"contracts/DogNFT.sol\":301:897  contract DogNFT is ERC721 {\r... */\n  0x40\n    /* \"contracts/DogNFT.sol\":419:453  string private nftName = \"DOGGIES\" */\n  mstore\n  0x07\n    /* \"contracts/DogNFT.sol\":301:897  contract DogNFT is ERC721 {\r... */\n  0x80\n    /* \"contracts/DogNFT.sol\":419:453  string private nftName = \"DOGGIES\" */\n  dup2\n  swap1\n  mstore\n  shl(0xc8, 0x444f4747494553)\n  0xa0\n  swap1\n  dup2\n  mstore\n  tag_1\n  swap2\n  0x0b\n  swap2\n  swap1\n  tag_2\n  jump\t// in\ntag_1:\n  pop\n    /* \"contracts/DogNFT.sol\":460:496  string private nftIdentifier = \"DOG\" */\n  0x40\n  dup1\n  mload\n  dup1\n  dup3\n  add\n  swap1\n  swap2\n  mstore\n  0x03\n  dup1\n  dup3\n  mstore\n  shl(0xe8, 0x444f47)\n  0x20\n  swap1\n  swap3\n  add\n  swap2\n  dup3\n  mstore\n  tag_3\n  swap2\n  0x0c\n  swap2\n  tag_2\n  jump\t// in\ntag_3:\n  pop\n    /* \"contracts/DogNFT.sol\":505:552  constructor() ERC721(nftName, nftIdentifier) {} */\n  callvalue\n  dup1\n  iszero\n  tag_4\n  jumpi\n  0x00\n  dup1\n  revert\ntag_4:\n  pop\n    /* \"contracts/DogNFT.sol\":526:533  nftName */\n  0x0b\n    /* \"https://raw.githubusercontent.com/OpenZeppelin/openzeppelin-contracts/v3.4.0/contracts/token/ERC721/ERC721.sol\":3577:3946  constructor (string memory name_, string memory symbol_) public {... */\n  dup1\n  sload\n  0x40\n  dup1\n  mload\n  0x20\n  0x02\n  0x01\n  dup6\n  and\n  iszero\n  0x0100\n  mul\n  not(0x00)\n  add\n  swap1\n  swap5\n  and\n  swap4\n  swap1\n  swap4\n  div\n  0x1f\n  dup2\n  add\n  dup5\n  swap1\n  div\n  dup5\n  mul\n  dup3\n  add\n  dup5\n  add\n  swap1\n  swap3\n  mstore\n  dup2\n  dup2\n  mstore\n  swap3\n    /* \"contracts/DogNFT.sol\":526:533  nftName */\n  swap2\n    /* \"https://raw.githubusercontent.com/OpenZeppelin/openzeppelin-contracts/v3.4.0/contracts/token/ERC721/ERC721.sol\":3577:3946  constructor (string memory name_, string memory symbol_) public {... */\n  dup4\n  add\n    /* \"contracts/DogNFT.sol\":526:533  nftName */\n  dup3\n    /* \"https://raw.githubusercontent.com/OpenZeppelin/openzeppelin-contracts/v3.4.0/contracts/token/ERC721/ERC721.sol\":3577:3946  constructor (string memory name_, string memory symbol_) public {... */\n  dup3\n  dup1\n  iszero\n  tag_6\n  jumpi\n  dup1\n  0x1f\n  lt\n  tag_7\n  jumpi\n  0x0100\n  dup1\n  dup4\n  sload\n  div\n  mul\n  dup4\n  mstore\n  swap2\n  0x20\n  add\n  swap2\n  jump(tag_6)\ntag_7:\n  dup3\n  add\n  swap2\n  swap1\n  0x00\n  mstore\n  keccak256(0x00, 0x20)\n  swap1\ntag_8:\n  dup2\n  sload\n  dup2\n  mstore\n  swap1\n  0x01\n  add\n  swap1\n  0x20\n  add\n  dup1\n  dup4\n  gt\n  tag_8\n  jumpi\n  dup3\n  swap1\n  sub\n  0x1f\n  and\n  dup3\n  add\n  swap2\ntag_6:\n  pop\n  pop\n    /* \"contracts/DogNFT.sol\":535:548  nftIdentifier */\n  0x0c\n    /* \"https://raw.githubusercontent.com/OpenZeppelin/openzeppelin-contracts/v3.4.0/contracts/token/ERC721/ERC721.sol\":3577:3946  constructor (string memory name_, string memory symbol_) public {... */\n  dup1\n  sload\n  0x40\n  dup1\n  mload\n  0x20\n  0x1f\n  0x02\n  not(0x00)\n  0x0100\n  0x01\n  dup9\n  and\n  iszero\n  mul\n  add\n  swap1\n  swap6\n  and\n  swap5\n  swap1\n  swap5\n  div\n  swap4\n  dup5\n  add\n  dup2\n  swap1\n  div\n  dup2\n  mul\n  dup3\n  add\n  dup2\n  add\n  swap1\n  swap3\n  mstore\n  dup3\n  dup2\n  mstore\n  swap6\n  pop\n    /* \"contracts/DogNFT.sol\":535:548  nftIdentifier */\n  swap2\n  swap4\n  pop\n    /* \"https://raw.githubusercontent.com/OpenZeppelin/openzeppelin-contracts/v3.4.0/contracts/token/ERC721/ERC721.sol\":3577:3946  constructor (string memory name_, string memory symbol_) public {... */\n  swap2\n  pop\n  dup4\n  add\n    /* \"contracts/DogNFT.sol\":535:548  nftIdentifier */\n  dup3\n    /* \"https://raw.githubusercontent.com/OpenZeppelin/openzeppelin-contracts/v3.4.0/contracts/token/ERC721/ERC721.sol\":3577:3946  constructor (string memory name_, string memory symbol_) public {... */\n  dup3\n  dup1\n  iszero\n  tag_9\n  jumpi\n  dup1\n  0x1f\n  lt\n  tag_10\n  jumpi\n  0x0100\n  dup1\n  dup4\n  sload\n  div\n  mul\n  dup4\n  mstore\n  swap2\n  0x20\n  add\n  swap2\n  jump(tag_9)\ntag_10:\n  dup3\n  add\n  swap2\n  swap1\n  0x00\n  mstore\n  keccak256(0x00, 0x20)\n  swap1\ntag_11:\n  dup2\n  sload\n  dup2\n  mstore\n  swap1\n  0x01\n  add\n  swap1\n  0x20\n  add\n  dup1\n  dup4\n  gt\n  tag_11\n  jumpi\n  dup3\n  swap1\n  sub\n  0x1f\n  and\n  dup3\n  add\n  swap2\ntag_9:\n  pop\n    /* \"https://raw.githubusercontent.com/OpenZeppelin/openzeppelin-contracts/v3.4.0/contracts/introspection/ERC165.sol\":768:808  _registerInterface(_INTERFACE_ID_ERC165) */\n  tag_15\n  swap4\n  pop\n  shl(0xe0, 0x01ffc9a7)\n    /* \"https://raw.githubusercontent.com/OpenZeppelin/openzeppelin-contracts/v3.4.0/contracts/introspection/ERC165.sol\":787:807  _INTERFACE_ID_ERC165 */\n  swap3\n  pop\n  pop\n    /* \"https://raw.githubusercontent.com/OpenZeppelin/openzeppelin-contracts/v3.4.0/contracts/introspection/ERC165.sol\":768:786  _registerInterface */\n  tag_16\n    /* \"https://raw.githubusercontent.com/OpenZeppelin/openzeppelin-contracts/v3.4.0/contracts/introspection/ERC165.sol\":768:808  _registerInterface(_INTERFACE_ID_ERC165) */\n  swap1\n  pop\n  jump\t// in\ntag_15:\n    /* \"https://raw.githubusercontent.com/OpenZeppelin/openzeppelin-contracts/v3.4.0/contracts/token/ERC721/ERC721.sol\":3651:3664  _name = name_ */\n  dup2\n  mload\n  tag_18\n  swap1\n    /* \"https://raw.githubusercontent.com/OpenZeppelin/openzeppelin-contracts/v3.4.0/contracts/token/ERC721/ERC721.sol\":3651:3656  _name */\n  0x06\n  swap1\n    /* \"https://raw.githubusercontent.com/OpenZeppelin/openzeppelin-contracts/v3.4.0/contracts/token/ERC721/ERC721.sol\":3651:3664  _name = name_ */\n  0x20\n  dup6\n  add\n  swap1\n  tag_2\n  jump\t// in\ntag_18:\n  pop\n    /* \"https://raw.githubusercontent.com/OpenZeppelin/openzeppelin-contracts/v3.4.0/contracts/token/ERC721/ERC721.sol\":3674:3691  _symbol = symbol_ */\n  dup1\n  mload\n  tag_19\n  swap1\n    /* \"https://raw.githubusercontent.com/OpenZeppelin/openzeppelin-contracts/v3.4.0/contracts/token/ERC721/ERC721.sol\":3674:3681  _symbol */\n  0x07\n  swap1\n    /* \"https://raw.githubusercontent.com/OpenZeppelin/openzeppelin-contracts/v3.4.0/contracts/token/ERC721/ERC721.sol\":3674:3691  _symbol = symbol_ */\n  0x20\n  dup5\n  add\n  swap1\n  tag_2\n  jump\t// in\ntag_19:\n  pop\n    /* \"https://raw.githubusercontent.com/OpenZeppelin/openzeppelin-contracts/v3.4.0/contracts/token/ERC721/ERC721.sol\":3779:3819  _registerInterface(_INTERFACE_ID_ERC721) */\n  tag_20\n  shl(0xe0, 0x80ac58cd)\n    /* \"https://raw.githubusercontent.com/OpenZeppelin/openzeppelin-contracts/v3.4.0/contracts/token/ERC721/ERC721.sol\":3779:3797  _registerInterface */\n  tag_16\n    /* \"https://raw.githubusercontent.com/OpenZeppelin/openzeppelin-contracts/v3.4.0/contracts/token/ERC721/ERC721.sol\":3779:3819  _registerInterface(_INTERFACE_ID_ERC721) */\n  jump\t// in\ntag_20:\n    /* \"https://raw.githubusercontent.com/OpenZeppelin/openzeppelin-contracts/v3.4.0/contracts/token/ERC721/ERC721.sol\":3829:3878  _registerInterface(_INTERFACE_ID_ERC721_METADATA) */\n  tag_21\n  shl(0xe0, 0x5b5e139f)\n    /* \"https://raw.githubusercontent.com/OpenZeppelin/openzeppelin-contracts/v3.4.0/contracts/token/ERC721/ERC721.sol\":3829:3847  _registerInterface */\n  tag_16\n    /* \"https://raw.githubusercontent.com/OpenZeppelin/openzeppelin-contracts/v3.4.0/contracts/token/ERC721/ERC721.sol\":3829:3878  _registerInterface(_INTERFACE_ID_ERC721_METADATA) */\n  jump\t// in\ntag_21:\n    /* \"https://raw.githubusercontent.com/OpenZeppelin/openzeppelin-contracts/v3.4.0/contracts/token/ERC721/ERC721.sol\":3888:3939  _registerInterface(_INTERFACE_ID_ERC721_ENUMERABLE) */\n  tag_22\n  shl(0xe0, 0x780e9d63)\n    /* \"https://raw.githubusercontent.com/OpenZeppelin/openzeppelin-contracts/v3.4.0/contracts/token/ERC721/ERC721.sol\":3888:3906  _registerInterface */\n  tag_16\n    /* \"https://raw.githubusercontent.com/OpenZeppelin/openzeppelin-contracts/v3.4.0/contracts/token/ERC721/ERC721.sol\":3888:3939  _registerInterface(_INTERFACE_ID_ERC721_ENUMERABLE) */\n  jump\t// in\ntag_22:\n    /* \"https://raw.githubusercontent.com/OpenZeppelin/openzeppelin-contracts/v3.4.0/contracts/token/ERC721/ERC721.sol\":3577:3946  constructor (string memory name_, string memory symbol_) public {... */\n  pop\n  pop\n    /* \"contracts/DogNFT.sol\":301:897  contract DogNFT is ERC721 {\r... */\n  jump(tag_24)\n    /* \"https://raw.githubusercontent.com/OpenZeppelin/openzeppelin-contracts/v3.4.0/contracts/introspection/ERC165.sol\":1507:1705  function _registerInterface(bytes4 interfaceId) internal virtual {... */\ntag_16:\n  not(sub(shl(0xe0, 0x01), 0x01))\n    /* \"https://raw.githubusercontent.com/OpenZeppelin/openzeppelin-contracts/v3.4.0/contracts/introspection/ERC165.sol\":1590:1615  interfaceId != 0xffffffff */\n  dup1\n  dup3\n  and\n  eq\n  iszero\n    /* \"https://raw.githubusercontent.com/OpenZeppelin/openzeppelin-contracts/v3.4.0/contracts/introspection/ERC165.sol\":1582:1648  require(interfaceId != 0xffffffff, \"ERC165: invalid interface id\") */\n  tag_26\n  jumpi\n  0x40\n  dup1\n  mload\n  shl(0xe5, 0x461bcd)\n  dup2\n  mstore\n  0x20\n  0x04\n  dup3\n  add\n  mstore\n  0x1c\n  0x24\n  dup3\n  add\n  mstore\n  0x4552433136353a20696e76616c696420696e7465726661636520696400000000\n  0x44\n  dup3\n  add\n  mstore\n  swap1\n  mload\n  swap1\n  dup2\n  swap1\n  sub\n  0x64\n  add\n  swap1\n  revert\ntag_26:\n  not(sub(shl(0xe0, 0x01), 0x01))\n    /* \"https://raw.githubusercontent.com/OpenZeppelin/openzeppelin-contracts/v3.4.0/contracts/introspection/ERC165.sol\":1658:1691  _supportedInterfaces[interfaceId] */\n  and\n    /* \"https://raw.githubusercontent.com/OpenZeppelin/openzeppelin-contracts/v3.4.0/contracts/introspection/ERC165.sol\":1658:1678  _supportedInterfaces */\n  0x00\n    /* \"https://raw.githubusercontent.com/OpenZeppelin/openzeppelin-contracts/v3.4.0/contracts/introspection/ERC165.sol\":1658:1691  _supportedInterfaces[interfaceId] */\n  swap1\n  dup2\n  mstore\n  0x20\n  dup2\n  swap1\n  mstore\n  0x40\n  swap1\n  keccak256\n    /* \"https://raw.githubusercontent.com/OpenZeppelin/openzeppelin-contracts/v3.4.0/contracts/introspection/ERC165.sol\":1658:1698  _supportedInterfaces[interfaceId] = true */\n  dup1\n  sload\n  not(0xff)\n  and\n    /* \"https://raw.githubusercontent.com/OpenZeppelin/openzeppelin-contracts/v3.4.0/contracts/introspection/ERC165.sol\":1694:1698  true */\n  0x01\n    /* \"https://raw.githubusercontent.com/OpenZeppelin/openzeppelin-contracts/v3.4.0/contracts/introspection/ERC165.sol\":1658:1698  _supportedInterfaces[interfaceId] = true */\n  or\n  swap1\n  sstore\n    /* \"https://raw.githubusercontent.com/OpenZeppelin/openzeppelin-contracts/v3.4.0/contracts/introspection/ERC165.sol\":1507:1705  function _registerInterface(bytes4 interfaceId) internal virtual {... */\n  jump\t// out\n    /* \"contracts/DogNFT.sol\":301:897  contract DogNFT is ERC721 {\r... */\ntag_2:\n  dup3\n  dup1\n  sload\n  0x01\n  dup2\n  0x01\n  and\n  iszero\n  0x0100\n  mul\n  sub\n  and\n  0x02\n  swap1\n  div\n  swap1\n  0x00\n  mstore\n  keccak256(0x00, 0x20)\n  swap1\n  0x1f\n  add\n  0x20\n  swap1\n  div\n  dup2\n  add\n  swap3\n  dup3\n  tag_28\n  jumpi\n  0x00\n  dup6\n  sstore\n  jump(tag_31)\ntag_28:\n  dup3\n  0x1f\n  lt\n  tag_29\n  jumpi\n  dup1\n  mload\n  not(0xff)\n  and\n  dup4\n  dup1\n  add\n  or\n  dup6\n  sstore\n  jump(tag_31)\ntag_29:\n  dup3\n  dup1\n  add\n  0x01\n  add\n  dup6\n  sstore\n  dup3\n  iszero\n  tag_31\n  jumpi\n  swap2\n  dup3\n  add\ntag_30:\n  dup3\n  dup2\n  gt\n  iszero\n  tag_31\n  jumpi\n  dup3\n  mload\n  dup3\n  sstore\n  swap2\n  0x20\n  add\n  swap2\n  swap1\n  0x01\n  add\n  swap1\n  jump(tag_30)\ntag_31:\n  pop\n  tag_32\n  swap3\n  swap2\n  pop\n  tag_33\n  jump\t// in\ntag_32:\n  pop\n  swap1\n  jump\t// out\ntag_33:\ntag_34:\n  dup1\n  dup3\n  gt\n  iszero\n  tag_32\n  jumpi\n  0x00\n  dup2\n  sstore\n  0x01\n  add\n  jump(tag_34)\ntag_24:\n  dataSize(sub_0)\n  dup1\n  dataOffset(sub_0)\n  0x00\n  codecopy\n  0x00\n  return\nstop\n\nsub_0: assembly {\n        /* \"contracts/DogNFT.sol\":301:897  contract DogNFT is ERC721 {\r... */\n      mstore(0x40, 0x80)\n      callvalue\n      dup1\n      iszero\n      tag_1\n      jumpi\n      0x00\n      dup1\n      revert\n    tag_1:\n      pop\n      jumpi(tag_2, lt(calldatasize, 0x04))\n      shr(0xe0, calldataload(0x00))\n      dup1\n      0x6352211e\n      gt\n      tag_22\n      jumpi\n      dup1\n      0xaa46a400\n      gt\n      tag_23\n      jumpi\n      dup1\n      0xaa46a400\n      eq\n      tag_17\n      jumpi\n      dup1\n      0xb88d4fde\n      eq\n      tag_18\n      jumpi\n      dup1\n      0xc87b56dd\n      eq\n      tag_19\n      jumpi\n      dup1\n      0xe985e9c5\n      eq\n      tag_20\n      jumpi\n      dup1\n      0xeacabe14\n      eq\n      tag_21\n      jumpi\n      jump(tag_2)\n    tag_23:\n      dup1\n      0x6352211e\n      eq\n      tag_12\n      jumpi\n      dup1\n      0x6c0360eb\n      eq\n      tag_13\n      jumpi\n      dup1\n      0x70a08231\n      eq\n      tag_14\n      jumpi\n      dup1\n      0x95d89b41\n      eq\n      tag_15\n      jumpi\n      dup1\n      0xa22cb465\n      eq\n      tag_16\n      jumpi\n      jump(tag_2)\n    tag_22:\n      dup1\n      0x18160ddd\n      gt\n      tag_24\n      jumpi\n      dup1\n      0x18160ddd\n      eq\n      tag_7\n      jumpi\n      dup1\n      0x23b872dd\n      eq\n      tag_8\n      jumpi\n      dup1\n      0x2f745c59\n      eq\n      tag_9\n      jumpi\n      dup1\n      0x42842e0e\n      eq\n      tag_10\n      jumpi\n      dup1\n      0x4f6ccce7\n      eq\n      tag_11\n      jumpi\n      jump(tag_2)\n    tag_24:\n      dup1\n      0x01ffc9a7\n      eq\n      tag_3\n      jumpi\n      dup1\n      0x06fdde03\n      eq\n      tag_4\n      jumpi\n      dup1\n      0x081812fc\n      eq\n      tag_5\n      jumpi\n      dup1\n      0x095ea7b3\n      eq\n      tag_6\n      jumpi\n    tag_2:\n      0x00\n      dup1\n      revert\n        /* \"https://raw.githubusercontent.com/OpenZeppelin/openzeppelin-contracts/v3.4.0/contracts/introspection/ERC165.sol\":965:1113  function supportsInterface(bytes4 interfaceId) public view virtual override returns (bool) {... */\n    tag_3:\n      tag_25\n      0x04\n      dup1\n      calldatasize\n      sub\n      0x20\n      dup2\n      lt\n      iszero\n      tag_26\n      jumpi\n      0x00\n      dup1\n      revert\n    tag_26:\n      pop\n      calldataload\n      not(sub(shl(0xe0, 0x01), 0x01))\n      and\n      tag_27\n      jump\t// in\n    tag_25:\n      0x40\n      dup1\n      mload\n      swap2\n      iszero\n      iszero\n      dup3\n      mstore\n      mload\n      swap1\n      dup2\n      swap1\n      sub\n      0x20\n      add\n      swap1\n      return\n        /* \"https://raw.githubusercontent.com/OpenZeppelin/openzeppelin-contracts/v3.4.0/contracts/token/ERC721/ERC721.sol\":4517:4615  function name() public view virtual override returns (string memory) {... */\n    tag_4:\n      tag_28\n      tag_29\n      jump\t// in\n    tag_28:\n      0x40\n      dup1\n      mload\n      0x20\n      dup1\n      dup3\n      mstore\n      dup4\n      mload\n      dup2\n      dup4\n      add\n      mstore\n      dup4\n      mload\n      swap2\n      swap3\n      dup4\n      swap3\n      swap1\n      dup4\n      add\n      swap2\n      dup6\n      add\n      swap1\n      dup1\n      dup4\n      dup4\n      0x00\n    tag_30:\n      dup4\n      dup2\n      lt\n      iszero\n      tag_32\n      jumpi\n      dup2\n      dup2\n      add\n      mload\n      dup4\n      dup3\n      add\n      mstore\n      0x20\n      add\n      jump(tag_30)\n    tag_32:\n      pop\n      pop\n      pop\n      pop\n      swap1\n      pop\n      swap1\n      dup2\n      add\n      swap1\n      0x1f\n      and\n      dup1\n      iszero\n      tag_33\n      jumpi\n      dup1\n      dup3\n      sub\n      dup1\n      mload\n      0x01\n      dup4\n      0x20\n      sub\n      0x0100\n      exp\n      sub\n      not\n      and\n      dup2\n      mstore\n      0x20\n      add\n      swap2\n      pop\n    tag_33:\n      pop\n      swap3\n      pop\n      pop\n      pop\n      mload(0x40)\n      dup1\n      swap2\n      sub\n      swap1\n      return\n        /* \"https://raw.githubusercontent.com/OpenZeppelin/openzeppelin-contracts/v3.4.0/contracts/token/ERC721/ERC721.sol\":7222:7439  function getApproved(uint256 tokenId) public view virtual override returns (address) {... */\n    tag_5:\n      tag_34\n      0x04\n      dup1\n      calldatasize\n      sub\n      0x20\n      dup2\n      lt\n      iszero\n      tag_35\n      jumpi\n      0x00\n      dup1\n      revert\n    tag_35:\n      pop\n      calldataload\n      tag_36\n      jump\t// in\n    tag_34:\n      0x40\n      dup1\n      mload\n      sub(shl(0xa0, 0x01), 0x01)\n      swap1\n      swap3\n      and\n      dup3\n      mstore\n      mload\n      swap1\n      dup2\n      swap1\n      sub\n      0x20\n      add\n      swap1\n      return\n        /* \"https://raw.githubusercontent.com/OpenZeppelin/openzeppelin-contracts/v3.4.0/contracts/token/ERC721/ERC721.sol\":6766:7161  function approve(address to, uint256 tokenId) public virtual override {... */\n    tag_6:\n      tag_37\n      0x04\n      dup1\n      calldatasize\n      sub\n      0x40\n      dup2\n      lt\n      iszero\n      tag_38\n      jumpi\n      0x00\n      dup1\n      revert\n    tag_38:\n      pop\n      sub(shl(0xa0, 0x01), 0x01)\n      dup2\n      calldataload\n      and\n      swap1\n      0x20\n      add\n      calldataload\n      tag_39\n      jump\t// in\n    tag_37:\n      stop\n        /* \"https://raw.githubusercontent.com/OpenZeppelin/openzeppelin-contracts/v3.4.0/contracts/token/ERC721/ERC721.sol\":6260:6468  function totalSupply() public view virtual override returns (uint256) {... */\n    tag_7:\n      tag_40\n      tag_41\n      jump\t// in\n    tag_40:\n      0x40\n      dup1\n      mload\n      swap2\n      dup3\n      mstore\n      mload\n      swap1\n      dup2\n      swap1\n      sub\n      0x20\n      add\n      swap1\n      return\n        /* \"https://raw.githubusercontent.com/OpenZeppelin/openzeppelin-contracts/v3.4.0/contracts/token/ERC721/ERC721.sol\":8086:8386  function transferFrom(address from, address to, uint256 tokenId) public virtual override {... */\n    tag_8:\n      tag_37\n      0x04\n      dup1\n      calldatasize\n      sub\n      0x60\n      dup2\n      lt\n      iszero\n      tag_43\n      jumpi\n      0x00\n      dup1\n      revert\n    tag_43:\n      pop\n      sub(shl(0xa0, 0x01), 0x01)\n      dup2\n      calldataload\n      dup2\n      and\n      swap2\n      0x20\n      dup2\n      add\n      calldataload\n      swap1\n      swap2\n      and\n      swap1\n      0x40\n      add\n      calldataload\n      tag_44\n      jump\t// in\n        /* \"https://raw.githubusercontent.com/OpenZeppelin/openzeppelin-contracts/v3.4.0/contracts/token/ERC721/ERC721.sol\":6029:6189  function tokenOfOwnerByIndex(address owner, uint256 index) public view virtual override returns (uint256) {... */\n    tag_9:\n      tag_40\n      0x04\n      dup1\n      calldatasize\n      sub\n      0x40\n      dup2\n      lt\n      iszero\n      tag_46\n      jumpi\n      0x00\n      dup1\n      revert\n    tag_46:\n      pop\n      sub(shl(0xa0, 0x01), 0x01)\n      dup2\n      calldataload\n      and\n      swap1\n      0x20\n      add\n      calldataload\n      tag_47\n      jump\t// in\n        /* \"https://raw.githubusercontent.com/OpenZeppelin/openzeppelin-contracts/v3.4.0/contracts/token/ERC721/ERC721.sol\":8452:8601  function safeTransferFrom(address from, address to, uint256 tokenId) public virtual override {... */\n    tag_10:\n      tag_37\n      0x04\n      dup1\n      calldatasize\n      sub\n      0x60\n      dup2\n      lt\n      iszero\n      tag_49\n      jumpi\n      0x00\n      dup1\n      revert\n    tag_49:\n      pop\n      sub(shl(0xa0, 0x01), 0x01)\n      dup2\n      calldataload\n      dup2\n      and\n      swap2\n      0x20\n      dup2\n      add\n      calldataload\n      swap1\n      swap2\n      and\n      swap1\n      0x40\n      add\n      calldataload\n      tag_50\n      jump\t// in\n        /* \"https://raw.githubusercontent.com/OpenZeppelin/openzeppelin-contracts/v3.4.0/contracts/token/ERC721/ERC721.sol\":6540:6709  function tokenByIndex(uint256 index) public view virtual override returns (uint256) {... */\n    tag_11:\n      tag_40\n      0x04\n      dup1\n      calldatasize\n      sub\n      0x20\n      dup2\n      lt\n      iszero\n      tag_52\n      jumpi\n      0x00\n      dup1\n      revert\n    tag_52:\n      pop\n      calldataload\n      tag_53\n      jump\t// in\n        /* \"https://raw.githubusercontent.com/OpenZeppelin/openzeppelin-contracts/v3.4.0/contracts/token/ERC721/ERC721.sol\":4280:4455  function ownerOf(uint256 tokenId) public view virtual override returns (address) {... */\n    tag_12:\n      tag_34\n      0x04\n      dup1\n      calldatasize\n      sub\n      0x20\n      dup2\n      lt\n      iszero\n      tag_55\n      jumpi\n      0x00\n      dup1\n      revert\n    tag_55:\n      pop\n      calldataload\n      tag_56\n      jump\t// in\n        /* \"https://raw.githubusercontent.com/OpenZeppelin/openzeppelin-contracts/v3.4.0/contracts/token/ERC721/ERC721.sol\":5855:5950  function baseURI() public view virtual returns (string memory) {... */\n    tag_13:\n      tag_28\n      tag_58\n      jump\t// in\n        /* \"https://raw.githubusercontent.com/OpenZeppelin/openzeppelin-contracts/v3.4.0/contracts/token/ERC721/ERC721.sol\":4005:4223  function balanceOf(address owner) public view virtual override returns (uint256) {... */\n    tag_14:\n      tag_40\n      0x04\n      dup1\n      calldatasize\n      sub\n      0x20\n      dup2\n      lt\n      iszero\n      tag_64\n      jumpi\n      0x00\n      dup1\n      revert\n    tag_64:\n      pop\n      calldataload\n      sub(shl(0xa0, 0x01), 0x01)\n      and\n      tag_65\n      jump\t// in\n        /* \"https://raw.githubusercontent.com/OpenZeppelin/openzeppelin-contracts/v3.4.0/contracts/token/ERC721/ERC721.sol\":4679:4781  function symbol() public view virtual override returns (string memory) {... */\n    tag_15:\n      tag_28\n      tag_67\n      jump\t// in\n        /* \"https://raw.githubusercontent.com/OpenZeppelin/openzeppelin-contracts/v3.4.0/contracts/token/ERC721/ERC721.sol\":7506:7796  function setApprovalForAll(address operator, bool approved) public virtual override {... */\n    tag_16:\n      tag_37\n      0x04\n      dup1\n      calldatasize\n      sub\n      0x40\n      dup2\n      lt\n      iszero\n      tag_73\n      jumpi\n      0x00\n      dup1\n      revert\n    tag_73:\n      pop\n      sub(shl(0xa0, 0x01), 0x01)\n      dup2\n      calldataload\n      and\n      swap1\n      0x20\n      add\n      calldataload\n      iszero\n      iszero\n      tag_74\n      jump\t// in\n        /* \"contracts/DogNFT.sol\":377:410  Counters.Counter public _tokenIds */\n    tag_17:\n      tag_40\n      tag_76\n      jump\t// in\n        /* \"https://raw.githubusercontent.com/OpenZeppelin/openzeppelin-contracts/v3.4.0/contracts/token/ERC721/ERC721.sol\":8667:8949  function safeTransferFrom(address from, address to, uint256 tokenId, bytes memory _data) public virtual override {... */\n    tag_18:\n      tag_37\n      0x04\n      dup1\n      calldatasize\n      sub\n      0x80\n      dup2\n      lt\n      iszero\n      tag_78\n      jumpi\n      0x00\n      dup1\n      revert\n    tag_78:\n      sub(shl(0xa0, 0x01), 0x01)\n      dup3\n      calldataload\n      dup2\n      and\n      swap3\n      0x20\n      dup2\n      add\n      calldataload\n      swap1\n      swap2\n      and\n      swap2\n      0x40\n      dup3\n      add\n      calldataload\n      swap2\n      swap1\n      dup2\n      add\n      swap1\n      0x80\n      dup2\n      add\n      0x60\n      dup3\n      add\n      calldataload\n      0x0100000000\n      dup2\n      gt\n      iszero\n      tag_79\n      jumpi\n      0x00\n      dup1\n      revert\n    tag_79:\n      dup3\n      add\n      dup4\n      0x20\n      dup3\n      add\n      gt\n      iszero\n      tag_80\n      jumpi\n      0x00\n      dup1\n      revert\n    tag_80:\n      dup1\n      calldataload\n      swap1\n      0x20\n      add\n      swap2\n      dup5\n      0x01\n      dup4\n      mul\n      dup5\n      add\n      gt\n      0x0100000000\n      dup4\n      gt\n      or\n      iszero\n      tag_81\n      jumpi\n      0x00\n      dup1\n      revert\n    tag_81:\n      swap2\n      swap1\n      dup1\n      dup1\n      0x1f\n      add\n      0x20\n      dup1\n      swap2\n      div\n      mul\n      0x20\n      add\n      mload(0x40)\n      swap1\n      dup2\n      add\n      0x40\n      mstore\n      dup1\n      swap4\n      swap3\n      swap2\n      swap1\n      dup2\n      dup2\n      mstore\n      0x20\n      add\n      dup4\n      dup4\n      dup1\n      dup3\n      dup5\n      calldatacopy\n      0x00\n      swap3\n      add\n      swap2\n      swap1\n      swap2\n      mstore\n      pop\n      swap3\n      swap6\n      pop\n      tag_82\n      swap5\n      pop\n      pop\n      pop\n      pop\n      pop\n      jump\t// in\n        /* \"https://raw.githubusercontent.com/OpenZeppelin/openzeppelin-contracts/v3.4.0/contracts/token/ERC721/ERC721.sol\":4847:5623  function tokenURI(uint256 tokenId) public view virtual override returns (string memory) {... */\n    tag_19:\n      tag_28\n      0x04\n      dup1\n      calldatasize\n      sub\n      0x20\n      dup2\n      lt\n      iszero\n      tag_84\n      jumpi\n      0x00\n      dup1\n      revert\n    tag_84:\n      pop\n      calldataload\n      tag_85\n      jump\t// in\n        /* \"https://raw.githubusercontent.com/OpenZeppelin/openzeppelin-contracts/v3.4.0/contracts/token/ERC721/ERC721.sol\":7862:8024  function isApprovedForAll(address owner, address operator) public view virtual override returns (bool) {... */\n    tag_20:\n      tag_25\n      0x04\n      dup1\n      calldatasize\n      sub\n      0x40\n      dup2\n      lt\n      iszero\n      tag_91\n      jumpi\n      0x00\n      dup1\n      revert\n    tag_91:\n      pop\n      sub(shl(0xa0, 0x01), 0x01)\n      dup2\n      calldataload\n      dup2\n      and\n      swap2\n      0x20\n      add\n      calldataload\n      and\n      tag_92\n      jump\t// in\n        /* \"contracts/DogNFT.sol\":560:894  function mintNFT(address _receipentAddress, string calldata tokenURI) public returns (uint256) {\r... */\n    tag_21:\n      tag_40\n      0x04\n      dup1\n      calldatasize\n      sub\n      0x40\n      dup2\n      lt\n      iszero\n      tag_94\n      jumpi\n      0x00\n      dup1\n      revert\n    tag_94:\n      sub(shl(0xa0, 0x01), 0x01)\n      dup3\n      calldataload\n      and\n      swap2\n      swap1\n      dup2\n      add\n      swap1\n      0x40\n      dup2\n      add\n      0x20\n      dup3\n      add\n      calldataload\n      0x0100000000\n      dup2\n      gt\n      iszero\n      tag_95\n      jumpi\n      0x00\n      dup1\n      revert\n    tag_95:\n      dup3\n      add\n      dup4\n      0x20\n      dup3\n      add\n      gt\n      iszero\n      tag_96\n      jumpi\n      0x00\n      dup1\n      revert\n    tag_96:\n      dup1\n      calldataload\n      swap1\n      0x20\n      add\n      swap2\n      dup5\n      0x01\n      dup4\n      mul\n      dup5\n      add\n      gt\n      0x0100000000\n      dup4\n      gt\n      or\n      iszero\n      tag_97\n      jumpi\n      0x00\n      dup1\n      revert\n    tag_97:\n      pop\n      swap1\n      swap3\n      pop\n      swap1\n      pop\n      tag_98\n      jump\t// in\n        /* \"https://raw.githubusercontent.com/OpenZeppelin/openzeppelin-contracts/v3.4.0/contracts/introspection/ERC165.sol\":965:1113  function supportsInterface(bytes4 interfaceId) public view virtual override returns (bool) {... */\n    tag_27:\n      not(sub(shl(0xe0, 0x01), 0x01))\n        /* \"https://raw.githubusercontent.com/OpenZeppelin/openzeppelin-contracts/v3.4.0/contracts/introspection/ERC165.sol\":1073:1106  _supportedInterfaces[interfaceId] */\n      dup2\n      and\n        /* \"https://raw.githubusercontent.com/OpenZeppelin/openzeppelin-contracts/v3.4.0/contracts/introspection/ERC165.sol\":1050:1054  bool */\n      0x00\n        /* \"https://raw.githubusercontent.com/OpenZeppelin/openzeppelin-contracts/v3.4.0/contracts/introspection/ERC165.sol\":1073:1106  _supportedInterfaces[interfaceId] */\n      swap1\n      dup2\n      mstore\n      0x20\n      dup2\n      swap1\n      mstore\n      0x40\n      swap1\n      keccak256\n      sload\n      0xff\n      and\n        /* \"https://raw.githubusercontent.com/OpenZeppelin/openzeppelin-contracts/v3.4.0/contracts/introspection/ERC165.sol\":965:1113  function supportsInterface(bytes4 interfaceId) public view virtual override returns (bool) {... */\n    tag_99:\n      swap2\n      swap1\n      pop\n      jump\t// out\n        /* \"https://raw.githubusercontent.com/OpenZeppelin/openzeppelin-contracts/v3.4.0/contracts/token/ERC721/ERC721.sol\":4517:4615  function name() public view virtual override returns (string memory) {... */\n    tag_29:\n        /* \"https://raw.githubusercontent.com/OpenZeppelin/openzeppelin-contracts/v3.4.0/contracts/token/ERC721/ERC721.sol\":4603:4608  _name */\n      0x06\n        /* \"https://raw.githubusercontent.com/OpenZeppelin/openzeppelin-contracts/v3.4.0/contracts/token/ERC721/ERC721.sol\":4596:4608  return _name */\n      dup1\n      sload\n      0x40\n      dup1\n      mload\n      0x20\n      0x1f\n      0x02\n      not(0x00)\n      0x0100\n      0x01\n      dup9\n      and\n      iszero\n      mul\n      add\n      swap1\n      swap6\n      and\n      swap5\n      swap1\n      swap5\n      div\n      swap4\n      dup5\n      add\n      dup2\n      swap1\n      div\n      dup2\n      mul\n      dup3\n      add\n      dup2\n      add\n      swap1\n      swap3\n      mstore\n      dup3\n      dup2\n      mstore\n        /* \"https://raw.githubusercontent.com/OpenZeppelin/openzeppelin-contracts/v3.4.0/contracts/token/ERC721/ERC721.sol\":4571:4584  string memory */\n      0x60\n      swap4\n        /* \"https://raw.githubusercontent.com/OpenZeppelin/openzeppelin-contracts/v3.4.0/contracts/token/ERC721/ERC721.sol\":4596:4608  return _name */\n      swap1\n      swap3\n        /* \"https://raw.githubusercontent.com/OpenZeppelin/openzeppelin-contracts/v3.4.0/contracts/token/ERC721/ERC721.sol\":4603:4608  _name */\n      swap1\n      swap2\n        /* \"https://raw.githubusercontent.com/OpenZeppelin/openzeppelin-contracts/v3.4.0/contracts/token/ERC721/ERC721.sol\":4596:4608  return _name */\n      dup4\n      add\n        /* \"https://raw.githubusercontent.com/OpenZeppelin/openzeppelin-contracts/v3.4.0/contracts/token/ERC721/ERC721.sol\":4603:4608  _name */\n      dup3\n        /* \"https://raw.githubusercontent.com/OpenZeppelin/openzeppelin-contracts/v3.4.0/contracts/token/ERC721/ERC721.sol\":4596:4608  return _name */\n      dup3\n      dup1\n      iszero\n      tag_101\n      jumpi\n      dup1\n      0x1f\n      lt\n      tag_102\n      jumpi\n      0x0100\n      dup1\n      dup4\n      sload\n      div\n      mul\n      dup4\n      mstore\n      swap2\n      0x20\n      add\n      swap2\n      jump(tag_101)\n    tag_102:\n      dup3\n      add\n      swap2\n      swap1\n      0x00\n      mstore\n      keccak256(0x00, 0x20)\n      swap1\n    tag_103:\n      dup2\n      sload\n      dup2\n      mstore\n      swap1\n      0x01\n      add\n      swap1\n      0x20\n      add\n      dup1\n      dup4\n      gt\n      tag_103\n      jumpi\n      dup3\n      swap1\n      sub\n      0x1f\n      and\n      dup3\n      add\n      swap2\n    tag_101:\n      pop\n      pop\n      pop\n      pop\n      pop\n      swap1\n      pop\n        /* \"https://raw.githubusercontent.com/OpenZeppelin/openzeppelin-contracts/v3.4.0/contracts/token/ERC721/ERC721.sol\":4517:4615  function name() public view virtual override returns (string memory) {... */\n      swap1\n      jump\t// out\n        /* \"https://raw.githubusercontent.com/OpenZeppelin/openzeppelin-contracts/v3.4.0/contracts/token/ERC721/ERC721.sol\":7222:7439  function getApproved(uint256 tokenId) public view virtual override returns (address) {... */\n    tag_36:\n        /* \"https://raw.githubusercontent.com/OpenZeppelin/openzeppelin-contracts/v3.4.0/contracts/token/ERC721/ERC721.sol\":7298:7305  address */\n      0x00\n        /* \"https://raw.githubusercontent.com/OpenZeppelin/openzeppelin-contracts/v3.4.0/contracts/token/ERC721/ERC721.sol\":7325:7341  _exists(tokenId) */\n      tag_105\n        /* \"https://raw.githubusercontent.com/OpenZeppelin/openzeppelin-contracts/v3.4.0/contracts/token/ERC721/ERC721.sol\":7333:7340  tokenId */\n      dup3\n        /* \"https://raw.githubusercontent.com/OpenZeppelin/openzeppelin-contracts/v3.4.0/contracts/token/ERC721/ERC721.sol\":7325:7332  _exists */\n      tag_106\n        /* \"https://raw.githubusercontent.com/OpenZeppelin/openzeppelin-contracts/v3.4.0/contracts/token/ERC721/ERC721.sol\":7325:7341  _exists(tokenId) */\n      jump\t// in\n    tag_105:\n        /* \"https://raw.githubusercontent.com/OpenZeppelin/openzeppelin-contracts/v3.4.0/contracts/token/ERC721/ERC721.sol\":7317:7390  require(_exists(tokenId), \"ERC721: approved query for nonexistent token\") */\n      tag_107\n      jumpi\n      mload(0x40)\n      shl(0xe5, 0x461bcd)\n      dup2\n      mstore\n      0x04\n      add\n      dup1\n      dup1\n      0x20\n      add\n      dup3\n      dup2\n      sub\n      dup3\n      mstore\n      0x2c\n      dup2\n      mstore\n      0x20\n      add\n      dup1\n      data_9291e0f44949204f2e9b40e6be090924979d6047b2365868f4e9f027722eb89d\n      0x2c\n      swap2\n      codecopy\n      0x40\n      add\n      swap2\n      pop\n      pop\n      mload(0x40)\n      dup1\n      swap2\n      sub\n      swap1\n      revert\n    tag_107:\n      pop\n        /* \"https://raw.githubusercontent.com/OpenZeppelin/openzeppelin-contracts/v3.4.0/contracts/token/ERC721/ERC721.sol\":7408:7432  _tokenApprovals[tokenId] */\n      0x00\n      swap1\n      dup2\n      mstore\n        /* \"https://raw.githubusercontent.com/OpenZeppelin/openzeppelin-contracts/v3.4.0/contracts/token/ERC721/ERC721.sol\":7408:7423  _tokenApprovals */\n      0x04\n        /* \"https://raw.githubusercontent.com/OpenZeppelin/openzeppelin-contracts/v3.4.0/contracts/token/ERC721/ERC721.sol\":7408:7432  _tokenApprovals[tokenId] */\n      0x20\n      mstore\n      0x40\n      swap1\n      keccak256\n      sload\n      sub(shl(0xa0, 0x01), 0x01)\n      and\n      swap1\n        /* \"https://raw.githubusercontent.com/OpenZeppelin/openzeppelin-contracts/v3.4.0/contracts/token/ERC721/ERC721.sol\":7222:7439  function getApproved(uint256 tokenId) public view virtual override returns (address) {... */\n      jump\t// out\n        /* \"https://raw.githubusercontent.com/OpenZeppelin/openzeppelin-contracts/v3.4.0/contracts/token/ERC721/ERC721.sol\":6766:7161  function approve(address to, uint256 tokenId) public virtual override {... */\n    tag_39:\n        /* \"https://raw.githubusercontent.com/OpenZeppelin/openzeppelin-contracts/v3.4.0/contracts/token/ERC721/ERC721.sol\":6846:6859  address owner */\n      0x00\n        /* \"https://raw.githubusercontent.com/OpenZeppelin/openzeppelin-contracts/v3.4.0/contracts/token/ERC721/ERC721.sol\":6862:6885  ERC721.ownerOf(tokenId) */\n      tag_109\n        /* \"https://raw.githubusercontent.com/OpenZeppelin/openzeppelin-contracts/v3.4.0/contracts/token/ERC721/ERC721.sol\":6877:6884  tokenId */\n      dup3\n        /* \"https://raw.githubusercontent.com/OpenZeppelin/openzeppelin-contracts/v3.4.0/contracts/token/ERC721/ERC721.sol\":6862:6876  ERC721.ownerOf */\n      tag_56\n        /* \"https://raw.githubusercontent.com/OpenZeppelin/openzeppelin-contracts/v3.4.0/contracts/token/ERC721/ERC721.sol\":6862:6885  ERC721.ownerOf(tokenId) */\n      jump\t// in\n    tag_109:\n        /* \"https://raw.githubusercontent.com/OpenZeppelin/openzeppelin-contracts/v3.4.0/contracts/token/ERC721/ERC721.sol\":6846:6885  address owner = ERC721.ownerOf(tokenId) */\n      swap1\n      pop\n        /* \"https://raw.githubusercontent.com/OpenZeppelin/openzeppelin-contracts/v3.4.0/contracts/token/ERC721/ERC721.sol\":6909:6914  owner */\n      dup1\n      sub(shl(0xa0, 0x01), 0x01)\n        /* \"https://raw.githubusercontent.com/OpenZeppelin/openzeppelin-contracts/v3.4.0/contracts/token/ERC721/ERC721.sol\":6903:6914  to != owner */\n      and\n        /* \"https://raw.githubusercontent.com/OpenZeppelin/openzeppelin-contracts/v3.4.0/contracts/token/ERC721/ERC721.sol\":6903:6905  to */\n      dup4\n      sub(shl(0xa0, 0x01), 0x01)\n        /* \"https://raw.githubusercontent.com/OpenZeppelin/openzeppelin-contracts/v3.4.0/contracts/token/ERC721/ERC721.sol\":6903:6914  to != owner */\n      and\n      eq\n      iszero\n        /* \"https://raw.githubusercontent.com/OpenZeppelin/openzeppelin-contracts/v3.4.0/contracts/token/ERC721/ERC721.sol\":6895:6952  require(to != owner, \"ERC721: approval to current owner\") */\n      tag_110\n      jumpi\n      mload(0x40)\n      shl(0xe5, 0x461bcd)\n      dup2\n      mstore\n      0x04\n      add\n      dup1\n      dup1\n      0x20\n      add\n      dup3\n      dup2\n      sub\n      dup3\n      mstore\n      0x21\n      dup2\n      mstore\n      0x20\n      add\n      dup1\n      data_b51b4875eede07862961e8f9365c6749f5fe55c6ee5d7a9e42b6912ad0b15942\n      0x21\n      swap2\n      codecopy\n      0x40\n      add\n      swap2\n      pop\n      pop\n      mload(0x40)\n      dup1\n      swap2\n      sub\n      swap1\n      revert\n    tag_110:\n        /* \"https://raw.githubusercontent.com/OpenZeppelin/openzeppelin-contracts/v3.4.0/contracts/token/ERC721/ERC721.sol\":6987:6992  owner */\n      dup1\n      sub(shl(0xa0, 0x01), 0x01)\n        /* \"https://raw.githubusercontent.com/OpenZeppelin/openzeppelin-contracts/v3.4.0/contracts/token/ERC721/ERC721.sol\":6971:6992  _msgSender() == owner */\n      and\n        /* \"https://raw.githubusercontent.com/OpenZeppelin/openzeppelin-contracts/v3.4.0/contracts/token/ERC721/ERC721.sol\":6971:6983  _msgSender() */\n      tag_111\n        /* \"https://raw.githubusercontent.com/OpenZeppelin/openzeppelin-contracts/v3.4.0/contracts/token/ERC721/ERC721.sol\":6971:6981  _msgSender */\n      tag_112\n        /* \"https://raw.githubusercontent.com/OpenZeppelin/openzeppelin-contracts/v3.4.0/contracts/token/ERC721/ERC721.sol\":6971:6983  _msgSender() */\n      jump\t// in\n    tag_111:\n      sub(shl(0xa0, 0x01), 0x01)\n        /* \"https://raw.githubusercontent.com/OpenZeppelin/openzeppelin-contracts/v3.4.0/contracts/token/ERC721/ERC721.sol\":6971:6992  _msgSender() == owner */\n      and\n      eq\n        /* \"https://raw.githubusercontent.com/OpenZeppelin/openzeppelin-contracts/v3.4.0/contracts/token/ERC721/ERC721.sol\":6971:7040  _msgSender() == owner || ERC721.isApprovedForAll(owner, _msgSender()) */\n      dup1\n      tag_114\n      jumpi\n      pop\n        /* \"https://raw.githubusercontent.com/OpenZeppelin/openzeppelin-contracts/v3.4.0/contracts/token/ERC721/ERC721.sol\":6996:7040  ERC721.isApprovedForAll(owner, _msgSender()) */\n      tag_114\n        /* \"https://raw.githubusercontent.com/OpenZeppelin/openzeppelin-contracts/v3.4.0/contracts/token/ERC721/ERC721.sol\":7020:7025  owner */\n      dup2\n        /* \"https://raw.githubusercontent.com/OpenZeppelin/openzeppelin-contracts/v3.4.0/contracts/token/ERC721/ERC721.sol\":7027:7039  _msgSender() */\n      tag_115\n        /* \"https://raw.githubusercontent.com/OpenZeppelin/openzeppelin-contracts/v3.4.0/contracts/token/ERC721/ERC721.sol\":7027:7037  _msgSender */\n      tag_112\n        /* \"https://raw.githubusercontent.com/OpenZeppelin/openzeppelin-contracts/v3.4.0/contracts/token/ERC721/ERC721.sol\":7027:7039  _msgSender() */\n      jump\t// in\n    tag_115:\n        /* \"https://raw.githubusercontent.com/OpenZeppelin/openzeppelin-contracts/v3.4.0/contracts/token/ERC721/ERC721.sol\":6996:7019  ERC721.isApprovedForAll */\n      tag_92\n        /* \"https://raw.githubusercontent.com/OpenZeppelin/openzeppelin-contracts/v3.4.0/contracts/token/ERC721/ERC721.sol\":6996:7040  ERC721.isApprovedForAll(owner, _msgSender()) */\n      jump\t// in\n    tag_114:\n        /* \"https://raw.githubusercontent.com/OpenZeppelin/openzeppelin-contracts/v3.4.0/contracts/token/ERC721/ERC721.sol\":6963:7122  require(_msgSender() == owner || ERC721.isApprovedForAll(owner, _msgSender()),... */\n      tag_116\n      jumpi\n      mload(0x40)\n      shl(0xe5, 0x461bcd)\n      dup2\n      mstore\n      0x04\n      add\n      dup1\n      dup1\n      0x20\n      add\n      dup3\n      dup2\n      sub\n      dup3\n      mstore\n      0x38\n      dup2\n      mstore\n      0x20\n      add\n      dup1\n      data_6d83cef3e0cb19b8320a9c5feb26b56bbb08f152a8e61b12eca3302d8d68b23d\n      0x38\n      swap2\n      codecopy\n      0x40\n      add\n      swap2\n      pop\n      pop\n      mload(0x40)\n      dup1\n      swap2\n      sub\n      swap1\n      revert\n    tag_116:\n        /* \"https://raw.githubusercontent.com/OpenZeppelin/openzeppelin-contracts/v3.4.0/contracts/token/ERC721/ERC721.sol\":7133:7154  _approve(to, tokenId) */\n      tag_117\n        /* \"https://raw.githubusercontent.com/OpenZeppelin/openzeppelin-contracts/v3.4.0/contracts/token/ERC721/ERC721.sol\":7142:7144  to */\n      dup4\n        /* \"https://raw.githubusercontent.com/OpenZeppelin/openzeppelin-contracts/v3.4.0/contracts/token/ERC721/ERC721.sol\":7146:7153  tokenId */\n      dup4\n        /* \"https://raw.githubusercontent.com/OpenZeppelin/openzeppelin-contracts/v3.4.0/contracts/token/ERC721/ERC721.sol\":7133:7141  _approve */\n      tag_118\n        /* \"https://raw.githubusercontent.com/OpenZeppelin/openzeppelin-contracts/v3.4.0/contracts/token/ERC721/ERC721.sol\":7133:7154  _approve(to, tokenId) */\n      jump\t// in\n    tag_117:\n        /* \"https://raw.githubusercontent.com/OpenZeppelin/openzeppelin-contracts/v3.4.0/contracts/token/ERC721/ERC721.sol\":6766:7161  function approve(address to, uint256 tokenId) public virtual override {... */\n      pop\n      pop\n      pop\n      jump\t// out\n        /* \"https://raw.githubusercontent.com/OpenZeppelin/openzeppelin-contracts/v3.4.0/contracts/token/ERC721/ERC721.sol\":6260:6468  function totalSupply() public view virtual override returns (uint256) {... */\n    tag_41:\n        /* \"https://raw.githubusercontent.com/OpenZeppelin/openzeppelin-contracts/v3.4.0/contracts/token/ERC721/ERC721.sol\":6321:6328  uint256 */\n      0x00\n        /* \"https://raw.githubusercontent.com/OpenZeppelin/openzeppelin-contracts/v3.4.0/contracts/token/ERC721/ERC721.sol\":6440:6461  _tokenOwners.length() */\n      tag_120\n        /* \"https://raw.githubusercontent.com/OpenZeppelin/openzeppelin-contracts/v3.4.0/contracts/token/ERC721/ERC721.sol\":6440:6452  _tokenOwners */\n      0x02\n        /* \"https://raw.githubusercontent.com/OpenZeppelin/openzeppelin-contracts/v3.4.0/contracts/token/ERC721/ERC721.sol\":6440:6459  _tokenOwners.length */\n      tag_121\n        /* \"https://raw.githubusercontent.com/OpenZeppelin/openzeppelin-contracts/v3.4.0/contracts/token/ERC721/ERC721.sol\":6440:6461  _tokenOwners.length() */\n      jump\t// in\n    tag_120:\n        /* \"https://raw.githubusercontent.com/OpenZeppelin/openzeppelin-contracts/v3.4.0/contracts/token/ERC721/ERC721.sol\":6433:6461  return _tokenOwners.length() */\n      swap1\n      pop\n        /* \"https://raw.githubusercontent.com/OpenZeppelin/openzeppelin-contracts/v3.4.0/contracts/token/ERC721/ERC721.sol\":6260:6468  function totalSupply() public view virtual override returns (uint256) {... */\n      swap1\n      jump\t// out\n        /* \"https://raw.githubusercontent.com/OpenZeppelin/openzeppelin-contracts/v3.4.0/contracts/token/ERC721/ERC721.sol\":8086:8386  function transferFrom(address from, address to, uint256 tokenId) public virtual override {... */\n    tag_44:\n        /* \"https://raw.githubusercontent.com/OpenZeppelin/openzeppelin-contracts/v3.4.0/contracts/token/ERC721/ERC721.sol\":8245:8286  _isApprovedOrOwner(_msgSender(), tokenId) */\n      tag_123\n        /* \"https://raw.githubusercontent.com/OpenZeppelin/openzeppelin-contracts/v3.4.0/contracts/token/ERC721/ERC721.sol\":8264:8276  _msgSender() */\n      tag_124\n        /* \"https://raw.githubusercontent.com/OpenZeppelin/openzeppelin-contracts/v3.4.0/contracts/token/ERC721/ERC721.sol\":8264:8274  _msgSender */\n      tag_112\n        /* \"https://raw.githubusercontent.com/OpenZeppelin/openzeppelin-contracts/v3.4.0/contracts/token/ERC721/ERC721.sol\":8264:8276  _msgSender() */\n      jump\t// in\n    tag_124:\n        /* \"https://raw.githubusercontent.com/OpenZeppelin/openzeppelin-contracts/v3.4.0/contracts/token/ERC721/ERC721.sol\":8278:8285  tokenId */\n      dup3\n        /* \"https://raw.githubusercontent.com/OpenZeppelin/openzeppelin-contracts/v3.4.0/contracts/token/ERC721/ERC721.sol\":8245:8263  _isApprovedOrOwner */\n      tag_125\n        /* \"https://raw.githubusercontent.com/OpenZeppelin/openzeppelin-contracts/v3.4.0/contracts/token/ERC721/ERC721.sol\":8245:8286  _isApprovedOrOwner(_msgSender(), tokenId) */\n      jump\t// in\n    tag_123:\n        /* \"https://raw.githubusercontent.com/OpenZeppelin/openzeppelin-contracts/v3.4.0/contracts/token/ERC721/ERC721.sol\":8237:8340  require(_isApprovedOrOwner(_msgSender(), tokenId), \"ERC721: transfer caller is not owner nor approved\") */\n      tag_126\n      jumpi\n      mload(0x40)\n      shl(0xe5, 0x461bcd)\n      dup2\n      mstore\n      0x04\n      add\n      dup1\n      dup1\n      0x20\n      add\n      dup3\n      dup2\n      sub\n      dup3\n      mstore\n      0x31\n      dup2\n      mstore\n      0x20\n      add\n      dup1\n      data_c8682f3ad98807db59a6ec6bb812b72fed0a66e3150fa8239699ee83885247f2\n      0x31\n      swap2\n      codecopy\n      0x40\n      add\n      swap2\n      pop\n      pop\n      mload(0x40)\n      dup1\n      swap2\n      sub\n      swap1\n      revert\n    tag_126:\n        /* \"https://raw.githubusercontent.com/OpenZeppelin/openzeppelin-contracts/v3.4.0/contracts/token/ERC721/ERC721.sol\":8351:8379  _transfer(from, to, tokenId) */\n      tag_117\n        /* \"https://raw.githubusercontent.com/OpenZeppelin/openzeppelin-contracts/v3.4.0/contracts/token/ERC721/ERC721.sol\":8361:8365  from */\n      dup4\n        /* \"https://raw.githubusercontent.com/OpenZeppelin/openzeppelin-contracts/v3.4.0/contracts/token/ERC721/ERC721.sol\":8367:8369  to */\n      dup4\n        /* \"https://raw.githubusercontent.com/OpenZeppelin/openzeppelin-contracts/v3.4.0/contracts/token/ERC721/ERC721.sol\":8371:8378  tokenId */\n      dup4\n        /* \"https://raw.githubusercontent.com/OpenZeppelin/openzeppelin-contracts/v3.4.0/contracts/token/ERC721/ERC721.sol\":8351:8360  _transfer */\n      tag_128\n        /* \"https://raw.githubusercontent.com/OpenZeppelin/openzeppelin-contracts/v3.4.0/contracts/token/ERC721/ERC721.sol\":8351:8379  _transfer(from, to, tokenId) */\n      jump\t// in\n        /* \"https://raw.githubusercontent.com/OpenZeppelin/openzeppelin-contracts/v3.4.0/contracts/token/ERC721/ERC721.sol\":6029:6189  function tokenOfOwnerByIndex(address owner, uint256 index) public view virtual override returns (uint256) {... */\n    tag_47:\n      sub(shl(0xa0, 0x01), 0x01)\n        /* \"https://raw.githubusercontent.com/OpenZeppelin/openzeppelin-contracts/v3.4.0/contracts/token/ERC721/ERC721.sol\":6152:6172  _holderTokens[owner] */\n      dup3\n      and\n        /* \"https://raw.githubusercontent.com/OpenZeppelin/openzeppelin-contracts/v3.4.0/contracts/token/ERC721/ERC721.sol\":6126:6133  uint256 */\n      0x00\n        /* \"https://raw.githubusercontent.com/OpenZeppelin/openzeppelin-contracts/v3.4.0/contracts/token/ERC721/ERC721.sol\":6152:6172  _holderTokens[owner] */\n      swap1\n      dup2\n      mstore\n        /* \"https://raw.githubusercontent.com/OpenZeppelin/openzeppelin-contracts/v3.4.0/contracts/token/ERC721/ERC721.sol\":6152:6165  _holderTokens */\n      0x01\n        /* \"https://raw.githubusercontent.com/OpenZeppelin/openzeppelin-contracts/v3.4.0/contracts/token/ERC721/ERC721.sol\":6152:6172  _holderTokens[owner] */\n      0x20\n      mstore\n      0x40\n      dup2\n      keccak256\n        /* \"https://raw.githubusercontent.com/OpenZeppelin/openzeppelin-contracts/v3.4.0/contracts/token/ERC721/ERC721.sol\":6152:6182  _holderTokens[owner].at(index) */\n      tag_130\n      swap1\n        /* \"https://raw.githubusercontent.com/OpenZeppelin/openzeppelin-contracts/v3.4.0/contracts/token/ERC721/ERC721.sol\":6176:6181  index */\n      dup4\n        /* \"https://raw.githubusercontent.com/OpenZeppelin/openzeppelin-contracts/v3.4.0/contracts/token/ERC721/ERC721.sol\":6152:6175  _holderTokens[owner].at */\n      tag_131\n        /* \"https://raw.githubusercontent.com/OpenZeppelin/openzeppelin-contracts/v3.4.0/contracts/token/ERC721/ERC721.sol\":6152:6182  _holderTokens[owner].at(index) */\n      jump\t// in\n    tag_130:\n        /* \"https://raw.githubusercontent.com/OpenZeppelin/openzeppelin-contracts/v3.4.0/contracts/token/ERC721/ERC721.sol\":6145:6182  return _holderTokens[owner].at(index) */\n      swap1\n      pop\n        /* \"https://raw.githubusercontent.com/OpenZeppelin/openzeppelin-contracts/v3.4.0/contracts/token/ERC721/ERC721.sol\":6029:6189  function tokenOfOwnerByIndex(address owner, uint256 index) public view virtual override returns (uint256) {... */\n    tag_129:\n      swap3\n      swap2\n      pop\n      pop\n      jump\t// out\n        /* \"https://raw.githubusercontent.com/OpenZeppelin/openzeppelin-contracts/v3.4.0/contracts/token/ERC721/ERC721.sol\":8452:8601  function safeTransferFrom(address from, address to, uint256 tokenId) public virtual override {... */\n    tag_50:\n        /* \"https://raw.githubusercontent.com/OpenZeppelin/openzeppelin-contracts/v3.4.0/contracts/token/ERC721/ERC721.sol\":8555:8594  safeTransferFrom(from, to, tokenId, \"\") */\n      tag_117\n        /* \"https://raw.githubusercontent.com/OpenZeppelin/openzeppelin-contracts/v3.4.0/contracts/token/ERC721/ERC721.sol\":8572:8576  from */\n      dup4\n        /* \"https://raw.githubusercontent.com/OpenZeppelin/openzeppelin-contracts/v3.4.0/contracts/token/ERC721/ERC721.sol\":8578:8580  to */\n      dup4\n        /* \"https://raw.githubusercontent.com/OpenZeppelin/openzeppelin-contracts/v3.4.0/contracts/token/ERC721/ERC721.sol\":8582:8589  tokenId */\n      dup4\n        /* \"https://raw.githubusercontent.com/OpenZeppelin/openzeppelin-contracts/v3.4.0/contracts/token/ERC721/ERC721.sol\":8555:8594  safeTransferFrom(from, to, tokenId, \"\") */\n      mload(0x40)\n      dup1\n      0x20\n      add\n      0x40\n      mstore\n      dup1\n      0x00\n      dup2\n      mstore\n      pop\n        /* \"https://raw.githubusercontent.com/OpenZeppelin/openzeppelin-contracts/v3.4.0/contracts/token/ERC721/ERC721.sol\":8555:8571  safeTransferFrom */\n      tag_82\n        /* \"https://raw.githubusercontent.com/OpenZeppelin/openzeppelin-contracts/v3.4.0/contracts/token/ERC721/ERC721.sol\":8555:8594  safeTransferFrom(from, to, tokenId, \"\") */\n      jump\t// in\n        /* \"https://raw.githubusercontent.com/OpenZeppelin/openzeppelin-contracts/v3.4.0/contracts/token/ERC721/ERC721.sol\":6540:6709  function tokenByIndex(uint256 index) public view virtual override returns (uint256) {... */\n    tag_53:\n        /* \"https://raw.githubusercontent.com/OpenZeppelin/openzeppelin-contracts/v3.4.0/contracts/token/ERC721/ERC721.sol\":6615:6622  uint256 */\n      0x00\n      dup1\n        /* \"https://raw.githubusercontent.com/OpenZeppelin/openzeppelin-contracts/v3.4.0/contracts/token/ERC721/ERC721.sol\":6656:6678  _tokenOwners.at(index) */\n      tag_135\n        /* \"https://raw.githubusercontent.com/OpenZeppelin/openzeppelin-contracts/v3.4.0/contracts/token/ERC721/ERC721.sol\":6656:6668  _tokenOwners */\n      0x02\n        /* \"https://raw.githubusercontent.com/OpenZeppelin/openzeppelin-contracts/v3.4.0/contracts/token/ERC721/ERC721.sol\":6672:6677  index */\n      dup5\n        /* \"https://raw.githubusercontent.com/OpenZeppelin/openzeppelin-contracts/v3.4.0/contracts/token/ERC721/ERC721.sol\":6656:6671  _tokenOwners.at */\n      tag_136\n        /* \"https://raw.githubusercontent.com/OpenZeppelin/openzeppelin-contracts/v3.4.0/contracts/token/ERC721/ERC721.sol\":6656:6678  _tokenOwners.at(index) */\n      jump\t// in\n    tag_135:\n      pop\n        /* \"https://raw.githubusercontent.com/OpenZeppelin/openzeppelin-contracts/v3.4.0/contracts/token/ERC721/ERC721.sol\":6634:6678  (uint256 tokenId, ) = _tokenOwners.at(index) */\n      swap4\n        /* \"https://raw.githubusercontent.com/OpenZeppelin/openzeppelin-contracts/v3.4.0/contracts/token/ERC721/ERC721.sol\":6540:6709  function tokenByIndex(uint256 index) public view virtual override returns (uint256) {... */\n      swap3\n      pop\n      pop\n      pop\n      jump\t// out\n        /* \"https://raw.githubusercontent.com/OpenZeppelin/openzeppelin-contracts/v3.4.0/contracts/token/ERC721/ERC721.sol\":4280:4455  function ownerOf(uint256 tokenId) public view virtual override returns (address) {... */\n    tag_56:\n        /* \"https://raw.githubusercontent.com/OpenZeppelin/openzeppelin-contracts/v3.4.0/contracts/token/ERC721/ERC721.sol\":4352:4359  address */\n      0x00\n        /* \"https://raw.githubusercontent.com/OpenZeppelin/openzeppelin-contracts/v3.4.0/contracts/token/ERC721/ERC721.sol\":4378:4448  _tokenOwners.get(tokenId, \"ERC721: owner query for nonexistent token\") */\n      tag_129\n        /* \"https://raw.githubusercontent.com/OpenZeppelin/openzeppelin-contracts/v3.4.0/contracts/token/ERC721/ERC721.sol\":4395:4402  tokenId */\n      dup3\n        /* \"https://raw.githubusercontent.com/OpenZeppelin/openzeppelin-contracts/v3.4.0/contracts/token/ERC721/ERC721.sol\":4378:4448  _tokenOwners.get(tokenId, \"ERC721: owner query for nonexistent token\") */\n      mload(0x40)\n      dup1\n      0x60\n      add\n      0x40\n      mstore\n      dup1\n      0x29\n      dup2\n      mstore\n      0x20\n      add\n      data_7481f3df2a424c0755a1ad2356614e9a5a358d461ea2eae1f89cb21cbad00397\n      0x29\n      swap2\n      codecopy\n        /* \"https://raw.githubusercontent.com/OpenZeppelin/openzeppelin-contracts/v3.4.0/contracts/token/ERC721/ERC721.sol\":4378:4390  _tokenOwners */\n      0x02\n      swap2\n        /* \"https://raw.githubusercontent.com/OpenZeppelin/openzeppelin-contracts/v3.4.0/contracts/token/ERC721/ERC721.sol\":4378:4448  _tokenOwners.get(tokenId, \"ERC721: owner query for nonexistent token\") */\n      swap1\n        /* \"https://raw.githubusercontent.com/OpenZeppelin/openzeppelin-contracts/v3.4.0/contracts/token/ERC721/ERC721.sol\":4378:4394  _tokenOwners.get */\n      tag_139\n        /* \"https://raw.githubusercontent.com/OpenZeppelin/openzeppelin-contracts/v3.4.0/contracts/token/ERC721/ERC721.sol\":4378:4448  _tokenOwners.get(tokenId, \"ERC721: owner query for nonexistent token\") */\n      jump\t// in\n        /* \"https://raw.githubusercontent.com/OpenZeppelin/openzeppelin-contracts/v3.4.0/contracts/token/ERC721/ERC721.sol\":5855:5950  function baseURI() public view virtual returns (string memory) {... */\n    tag_58:\n        /* \"https://raw.githubusercontent.com/OpenZeppelin/openzeppelin-contracts/v3.4.0/contracts/token/ERC721/ERC721.sol\":5935:5943  _baseURI */\n      0x09\n        /* \"https://raw.githubusercontent.com/OpenZeppelin/openzeppelin-contracts/v3.4.0/contracts/token/ERC721/ERC721.sol\":5928:5943  return _baseURI */\n      dup1\n      sload\n      0x40\n      dup1\n      mload\n      0x20\n      0x1f\n      0x02\n      not(0x00)\n      0x0100\n      0x01\n      dup9\n      and\n      iszero\n      mul\n      add\n      swap1\n      swap6\n      and\n      swap5\n      swap1\n      swap5\n      div\n      swap4\n      dup5\n      add\n      dup2\n      swap1\n      div\n      dup2\n      mul\n      dup3\n      add\n      dup2\n      add\n      swap1\n      swap3\n      mstore\n      dup3\n      dup2\n      mstore\n        /* \"https://raw.githubusercontent.com/OpenZeppelin/openzeppelin-contracts/v3.4.0/contracts/token/ERC721/ERC721.sol\":5903:5916  string memory */\n      0x60\n      swap4\n        /* \"https://raw.githubusercontent.com/OpenZeppelin/openzeppelin-contracts/v3.4.0/contracts/token/ERC721/ERC721.sol\":5928:5943  return _baseURI */\n      swap1\n      swap3\n        /* \"https://raw.githubusercontent.com/OpenZeppelin/openzeppelin-contracts/v3.4.0/contracts/token/ERC721/ERC721.sol\":5935:5943  _baseURI */\n      swap1\n      swap2\n        /* \"https://raw.githubusercontent.com/OpenZeppelin/openzeppelin-contracts/v3.4.0/contracts/token/ERC721/ERC721.sol\":5928:5943  return _baseURI */\n      dup4\n      add\n        /* \"https://raw.githubusercontent.com/OpenZeppelin/openzeppelin-contracts/v3.4.0/contracts/token/ERC721/ERC721.sol\":5935:5943  _baseURI */\n      dup3\n        /* \"https://raw.githubusercontent.com/OpenZeppelin/openzeppelin-contracts/v3.4.0/contracts/token/ERC721/ERC721.sol\":5928:5943  return _baseURI */\n      dup3\n      dup1\n      iszero\n      tag_101\n      jumpi\n      dup1\n      0x1f\n      lt\n      tag_102\n      jumpi\n      0x0100\n      dup1\n      dup4\n      sload\n      div\n      mul\n      dup4\n      mstore\n      swap2\n      0x20\n      add\n      swap2\n      jump(tag_101)\n        /* \"https://raw.githubusercontent.com/OpenZeppelin/openzeppelin-contracts/v3.4.0/contracts/token/ERC721/ERC721.sol\":4005:4223  function balanceOf(address owner) public view virtual override returns (uint256) {... */\n    tag_65:\n        /* \"https://raw.githubusercontent.com/OpenZeppelin/openzeppelin-contracts/v3.4.0/contracts/token/ERC721/ERC721.sol\":4077:4084  uint256 */\n      0x00\n      sub(shl(0xa0, 0x01), 0x01)\n        /* \"https://raw.githubusercontent.com/OpenZeppelin/openzeppelin-contracts/v3.4.0/contracts/token/ERC721/ERC721.sol\":4104:4123  owner != address(0) */\n      dup3\n      and\n        /* \"https://raw.githubusercontent.com/OpenZeppelin/openzeppelin-contracts/v3.4.0/contracts/token/ERC721/ERC721.sol\":4096:4170  require(owner != address(0), \"ERC721: balance query for the zero address\") */\n      tag_145\n      jumpi\n      mload(0x40)\n      shl(0xe5, 0x461bcd)\n      dup2\n      mstore\n      0x04\n      add\n      dup1\n      dup1\n      0x20\n      add\n      dup3\n      dup2\n      sub\n      dup3\n      mstore\n      0x2a\n      dup2\n      mstore\n      0x20\n      add\n      dup1\n      data_7395d4d3901c50cdfcab223d072f9aa36241df5d883e62cbf147ee1b05a9e6ba\n      0x2a\n      swap2\n      codecopy\n      0x40\n      add\n      swap2\n      pop\n      pop\n      mload(0x40)\n      dup1\n      swap2\n      sub\n      swap1\n      revert\n    tag_145:\n      sub(shl(0xa0, 0x01), 0x01)\n        /* \"https://raw.githubusercontent.com/OpenZeppelin/openzeppelin-contracts/v3.4.0/contracts/token/ERC721/ERC721.sol\":4187:4207  _holderTokens[owner] */\n      dup3\n      and\n      0x00\n      swap1\n      dup2\n      mstore\n        /* \"https://raw.githubusercontent.com/OpenZeppelin/openzeppelin-contracts/v3.4.0/contracts/token/ERC721/ERC721.sol\":4187:4200  _holderTokens */\n      0x01\n        /* \"https://raw.githubusercontent.com/OpenZeppelin/openzeppelin-contracts/v3.4.0/contracts/token/ERC721/ERC721.sol\":4187:4207  _holderTokens[owner] */\n      0x20\n      mstore\n      0x40\n      swap1\n      keccak256\n        /* \"https://raw.githubusercontent.com/OpenZeppelin/openzeppelin-contracts/v3.4.0/contracts/token/ERC721/ERC721.sol\":4187:4216  _holderTokens[owner].length() */\n      tag_129\n      swap1\n        /* \"https://raw.githubusercontent.com/OpenZeppelin/openzeppelin-contracts/v3.4.0/contracts/token/ERC721/ERC721.sol\":4187:4214  _holderTokens[owner].length */\n      tag_121\n        /* \"https://raw.githubusercontent.com/OpenZeppelin/openzeppelin-contracts/v3.4.0/contracts/token/ERC721/ERC721.sol\":4187:4216  _holderTokens[owner].length() */\n      jump\t// in\n        /* \"https://raw.githubusercontent.com/OpenZeppelin/openzeppelin-contracts/v3.4.0/contracts/token/ERC721/ERC721.sol\":4679:4781  function symbol() public view virtual override returns (string memory) {... */\n    tag_67:\n        /* \"https://raw.githubusercontent.com/OpenZeppelin/openzeppelin-contracts/v3.4.0/contracts/token/ERC721/ERC721.sol\":4767:4774  _symbol */\n      0x07\n        /* \"https://raw.githubusercontent.com/OpenZeppelin/openzeppelin-contracts/v3.4.0/contracts/token/ERC721/ERC721.sol\":4760:4774  return _symbol */\n      dup1\n      sload\n      0x40\n      dup1\n      mload\n      0x20\n      0x1f\n      0x02\n      not(0x00)\n      0x0100\n      0x01\n      dup9\n      and\n      iszero\n      mul\n      add\n      swap1\n      swap6\n      and\n      swap5\n      swap1\n      swap5\n      div\n      swap4\n      dup5\n      add\n      dup2\n      swap1\n      div\n      dup2\n      mul\n      dup3\n      add\n      dup2\n      add\n      swap1\n      swap3\n      mstore\n      dup3\n      dup2\n      mstore\n        /* \"https://raw.githubusercontent.com/OpenZeppelin/openzeppelin-contracts/v3.4.0/contracts/token/ERC721/ERC721.sol\":4735:4748  string memory */\n      0x60\n      swap4\n        /* \"https://raw.githubusercontent.com/OpenZeppelin/openzeppelin-contracts/v3.4.0/contracts/token/ERC721/ERC721.sol\":4760:4774  return _symbol */\n      swap1\n      swap3\n        /* \"https://raw.githubusercontent.com/OpenZeppelin/openzeppelin-contracts/v3.4.0/contracts/token/ERC721/ERC721.sol\":4767:4774  _symbol */\n      swap1\n      swap2\n        /* \"https://raw.githubusercontent.com/OpenZeppelin/openzeppelin-contracts/v3.4.0/contracts/token/ERC721/ERC721.sol\":4760:4774  return _symbol */\n      dup4\n      add\n        /* \"https://raw.githubusercontent.com/OpenZeppelin/openzeppelin-contracts/v3.4.0/contracts/token/ERC721/ERC721.sol\":4767:4774  _symbol */\n      dup3\n        /* \"https://raw.githubusercontent.com/OpenZeppelin/openzeppelin-contracts/v3.4.0/contracts/token/ERC721/ERC721.sol\":4760:4774  return _symbol */\n      dup3\n      dup1\n      iszero\n      tag_101\n      jumpi\n      dup1\n      0x1f\n      lt\n      tag_102\n      jumpi\n      0x0100\n      dup1\n      dup4\n      sload\n      div\n      mul\n      dup4\n      mstore\n      swap2\n      0x20\n      add\n      swap2\n      jump(tag_101)\n        /* \"https://raw.githubusercontent.com/OpenZeppelin/openzeppelin-contracts/v3.4.0/contracts/token/ERC721/ERC721.sol\":7506:7796  function setApprovalForAll(address operator, bool approved) public virtual override {... */\n    tag_74:\n        /* \"https://raw.githubusercontent.com/OpenZeppelin/openzeppelin-contracts/v3.4.0/contracts/token/ERC721/ERC721.sol\":7620:7632  _msgSender() */\n      tag_153\n        /* \"https://raw.githubusercontent.com/OpenZeppelin/openzeppelin-contracts/v3.4.0/contracts/token/ERC721/ERC721.sol\":7620:7630  _msgSender */\n      tag_112\n        /* \"https://raw.githubusercontent.com/OpenZeppelin/openzeppelin-contracts/v3.4.0/contracts/token/ERC721/ERC721.sol\":7620:7632  _msgSender() */\n      jump\t// in\n    tag_153:\n      sub(shl(0xa0, 0x01), 0x01)\n        /* \"https://raw.githubusercontent.com/OpenZeppelin/openzeppelin-contracts/v3.4.0/contracts/token/ERC721/ERC721.sol\":7608:7632  operator != _msgSender() */\n      and\n        /* \"https://raw.githubusercontent.com/OpenZeppelin/openzeppelin-contracts/v3.4.0/contracts/token/ERC721/ERC721.sol\":7608:7616  operator */\n      dup3\n      sub(shl(0xa0, 0x01), 0x01)\n        /* \"https://raw.githubusercontent.com/OpenZeppelin/openzeppelin-contracts/v3.4.0/contracts/token/ERC721/ERC721.sol\":7608:7632  operator != _msgSender() */\n      and\n      eq\n      iszero\n        /* \"https://raw.githubusercontent.com/OpenZeppelin/openzeppelin-contracts/v3.4.0/contracts/token/ERC721/ERC721.sol\":7600:7662  require(operator != _msgSender(), \"ERC721: approve to caller\") */\n      tag_154\n      jumpi\n      0x40\n      dup1\n      mload\n      shl(0xe5, 0x461bcd)\n      dup2\n      mstore\n      0x20\n      0x04\n      dup3\n      add\n      mstore\n      0x19\n      0x24\n      dup3\n      add\n      mstore\n      0x4552433732313a20617070726f766520746f2063616c6c657200000000000000\n      0x44\n      dup3\n      add\n      mstore\n      swap1\n      mload\n      swap1\n      dup2\n      swap1\n      sub\n      0x64\n      add\n      swap1\n      revert\n    tag_154:\n        /* \"https://raw.githubusercontent.com/OpenZeppelin/openzeppelin-contracts/v3.4.0/contracts/token/ERC721/ERC721.sol\":7718:7726  approved */\n      dup1\n        /* \"https://raw.githubusercontent.com/OpenZeppelin/openzeppelin-contracts/v3.4.0/contracts/token/ERC721/ERC721.sol\":7673:7691  _operatorApprovals */\n      0x05\n        /* \"https://raw.githubusercontent.com/OpenZeppelin/openzeppelin-contracts/v3.4.0/contracts/token/ERC721/ERC721.sol\":7673:7705  _operatorApprovals[_msgSender()] */\n      0x00\n        /* \"https://raw.githubusercontent.com/OpenZeppelin/openzeppelin-contracts/v3.4.0/contracts/token/ERC721/ERC721.sol\":7692:7704  _msgSender() */\n      tag_155\n        /* \"https://raw.githubusercontent.com/OpenZeppelin/openzeppelin-contracts/v3.4.0/contracts/token/ERC721/ERC721.sol\":7692:7702  _msgSender */\n      tag_112\n        /* \"https://raw.githubusercontent.com/OpenZeppelin/openzeppelin-contracts/v3.4.0/contracts/token/ERC721/ERC721.sol\":7692:7704  _msgSender() */\n      jump\t// in\n    tag_155:\n      sub(shl(0xa0, 0x01), 0x01)\n        /* \"https://raw.githubusercontent.com/OpenZeppelin/openzeppelin-contracts/v3.4.0/contracts/token/ERC721/ERC721.sol\":7673:7705  _operatorApprovals[_msgSender()] */\n      swap1\n      dup2\n      and\n      dup3\n      mstore\n      0x20\n      dup1\n      dup4\n      add\n      swap4\n      swap1\n      swap4\n      mstore\n      0x40\n      swap2\n      dup3\n      add\n      0x00\n      swap1\n      dup2\n      keccak256\n        /* \"https://raw.githubusercontent.com/OpenZeppelin/openzeppelin-contracts/v3.4.0/contracts/token/ERC721/ERC721.sol\":7673:7715  _operatorApprovals[_msgSender()][operator] */\n      swap2\n      dup8\n      and\n      dup1\n      dup3\n      mstore\n      swap2\n      swap1\n      swap4\n      mstore\n      swap2\n      keccak256\n        /* \"https://raw.githubusercontent.com/OpenZeppelin/openzeppelin-contracts/v3.4.0/contracts/token/ERC721/ERC721.sol\":7673:7726  _operatorApprovals[_msgSender()][operator] = approved */\n      dup1\n      sload\n      not(0xff)\n      and\n      swap3\n      iszero\n      iszero\n      swap3\n      swap1\n      swap3\n      or\n      swap1\n      swap2\n      sstore\n        /* \"https://raw.githubusercontent.com/OpenZeppelin/openzeppelin-contracts/v3.4.0/contracts/token/ERC721/ERC721.sol\":7756:7768  _msgSender() */\n      tag_156\n        /* \"https://raw.githubusercontent.com/OpenZeppelin/openzeppelin-contracts/v3.4.0/contracts/token/ERC721/ERC721.sol\":7756:7766  _msgSender */\n      tag_112\n        /* \"https://raw.githubusercontent.com/OpenZeppelin/openzeppelin-contracts/v3.4.0/contracts/token/ERC721/ERC721.sol\":7756:7768  _msgSender() */\n      jump\t// in\n    tag_156:\n      sub(shl(0xa0, 0x01), 0x01)\n        /* \"https://raw.githubusercontent.com/OpenZeppelin/openzeppelin-contracts/v3.4.0/contracts/token/ERC721/ERC721.sol\":7741:7789  ApprovalForAll(_msgSender(), operator, approved) */\n      and\n      0x17307eab39ab6107e8899845ad3d59bd9653f200f220920489ca2b5937696c31\n        /* \"https://raw.githubusercontent.com/OpenZeppelin/openzeppelin-contracts/v3.4.0/contracts/token/ERC721/ERC721.sol\":7780:7788  approved */\n      dup4\n        /* \"https://raw.githubusercontent.com/OpenZeppelin/openzeppelin-contracts/v3.4.0/contracts/token/ERC721/ERC721.sol\":7741:7789  ApprovalForAll(_msgSender(), operator, approved) */\n      mload(0x40)\n      dup1\n      dup3\n      iszero\n      iszero\n      dup2\n      mstore\n      0x20\n      add\n      swap2\n      pop\n      pop\n      mload(0x40)\n      dup1\n      swap2\n      sub\n      swap1\n      log3\n        /* \"https://raw.githubusercontent.com/OpenZeppelin/openzeppelin-contracts/v3.4.0/contracts/token/ERC721/ERC721.sol\":7506:7796  function setApprovalForAll(address operator, bool approved) public virtual override {... */\n      pop\n      pop\n      jump\t// out\n        /* \"contracts/DogNFT.sol\":377:410  Counters.Counter public _tokenIds */\n    tag_76:\n      sload(0x0a)\n      dup2\n      jump\t// out\n        /* \"https://raw.githubusercontent.com/OpenZeppelin/openzeppelin-contracts/v3.4.0/contracts/token/ERC721/ERC721.sol\":8667:8949  function safeTransferFrom(address from, address to, uint256 tokenId, bytes memory _data) public virtual override {... */\n    tag_82:\n        /* \"https://raw.githubusercontent.com/OpenZeppelin/openzeppelin-contracts/v3.4.0/contracts/token/ERC721/ERC721.sol\":8798:8839  _isApprovedOrOwner(_msgSender(), tokenId) */\n      tag_158\n        /* \"https://raw.githubusercontent.com/OpenZeppelin/openzeppelin-contracts/v3.4.0/contracts/token/ERC721/ERC721.sol\":8817:8829  _msgSender() */\n      tag_159\n        /* \"https://raw.githubusercontent.com/OpenZeppelin/openzeppelin-contracts/v3.4.0/contracts/token/ERC721/ERC721.sol\":8817:8827  _msgSender */\n      tag_112\n        /* \"https://raw.githubusercontent.com/OpenZeppelin/openzeppelin-contracts/v3.4.0/contracts/token/ERC721/ERC721.sol\":8817:8829  _msgSender() */\n      jump\t// in\n    tag_159:\n        /* \"https://raw.githubusercontent.com/OpenZeppelin/openzeppelin-contracts/v3.4.0/contracts/token/ERC721/ERC721.sol\":8831:8838  tokenId */\n      dup4\n        /* \"https://raw.githubusercontent.com/OpenZeppelin/openzeppelin-contracts/v3.4.0/contracts/token/ERC721/ERC721.sol\":8798:8816  _isApprovedOrOwner */\n      tag_125\n        /* \"https://raw.githubusercontent.com/OpenZeppelin/openzeppelin-contracts/v3.4.0/contracts/token/ERC721/ERC721.sol\":8798:8839  _isApprovedOrOwner(_msgSender(), tokenId) */\n      jump\t// in\n    tag_158:\n        /* \"https://raw.githubusercontent.com/OpenZeppelin/openzeppelin-contracts/v3.4.0/contracts/token/ERC721/ERC721.sol\":8790:8893  require(_isApprovedOrOwner(_msgSender(), tokenId), \"ERC721: transfer caller is not owner nor approved\") */\n      tag_160\n      jumpi\n      mload(0x40)\n      shl(0xe5, 0x461bcd)\n      dup2\n      mstore\n      0x04\n      add\n      dup1\n      dup1\n      0x20\n      add\n      dup3\n      dup2\n      sub\n      dup3\n      mstore\n      0x31\n      dup2\n      mstore\n      0x20\n      add\n      dup1\n      data_c8682f3ad98807db59a6ec6bb812b72fed0a66e3150fa8239699ee83885247f2\n      0x31\n      swap2\n      codecopy\n      0x40\n      add\n      swap2\n      pop\n      pop\n      mload(0x40)\n      dup1\n      swap2\n      sub\n      swap1\n      revert\n    tag_160:\n        /* \"https://raw.githubusercontent.com/OpenZeppelin/openzeppelin-contracts/v3.4.0/contracts/token/ERC721/ERC721.sol\":8903:8942  _safeTransfer(from, to, tokenId, _data) */\n      tag_161\n        /* \"https://raw.githubusercontent.com/OpenZeppelin/openzeppelin-contracts/v3.4.0/contracts/token/ERC721/ERC721.sol\":8917:8921  from */\n      dup5\n        /* \"https://raw.githubusercontent.com/OpenZeppelin/openzeppelin-contracts/v3.4.0/contracts/token/ERC721/ERC721.sol\":8923:8925  to */\n      dup5\n        /* \"https://raw.githubusercontent.com/OpenZeppelin/openzeppelin-contracts/v3.4.0/contracts/token/ERC721/ERC721.sol\":8927:8934  tokenId */\n      dup5\n        /* \"https://raw.githubusercontent.com/OpenZeppelin/openzeppelin-contracts/v3.4.0/contracts/token/ERC721/ERC721.sol\":8936:8941  _data */\n      dup5\n        /* \"https://raw.githubusercontent.com/OpenZeppelin/openzeppelin-contracts/v3.4.0/contracts/token/ERC721/ERC721.sol\":8903:8916  _safeTransfer */\n      tag_162\n        /* \"https://raw.githubusercontent.com/OpenZeppelin/openzeppelin-contracts/v3.4.0/contracts/token/ERC721/ERC721.sol\":8903:8942  _safeTransfer(from, to, tokenId, _data) */\n      jump\t// in\n    tag_161:\n        /* \"https://raw.githubusercontent.com/OpenZeppelin/openzeppelin-contracts/v3.4.0/contracts/token/ERC721/ERC721.sol\":8667:8949  function safeTransferFrom(address from, address to, uint256 tokenId, bytes memory _data) public virtual override {... */\n      pop\n      pop\n      pop\n      pop\n      jump\t// out\n        /* \"https://raw.githubusercontent.com/OpenZeppelin/openzeppelin-contracts/v3.4.0/contracts/token/ERC721/ERC721.sol\":4847:5623  function tokenURI(uint256 tokenId) public view virtual override returns (string memory) {... */\n    tag_85:\n        /* \"https://raw.githubusercontent.com/OpenZeppelin/openzeppelin-contracts/v3.4.0/contracts/token/ERC721/ERC721.sol\":4920:4933  string memory */\n      0x60\n        /* \"https://raw.githubusercontent.com/OpenZeppelin/openzeppelin-contracts/v3.4.0/contracts/token/ERC721/ERC721.sol\":4953:4969  _exists(tokenId) */\n      tag_164\n        /* \"https://raw.githubusercontent.com/OpenZeppelin/openzeppelin-contracts/v3.4.0/contracts/token/ERC721/ERC721.sol\":4961:4968  tokenId */\n      dup3\n        /* \"https://raw.githubusercontent.com/OpenZeppelin/openzeppelin-contracts/v3.4.0/contracts/token/ERC721/ERC721.sol\":4953:4960  _exists */\n      tag_106\n        /* \"https://raw.githubusercontent.com/OpenZeppelin/openzeppelin-contracts/v3.4.0/contracts/token/ERC721/ERC721.sol\":4953:4969  _exists(tokenId) */\n      jump\t// in\n    tag_164:\n        /* \"https://raw.githubusercontent.com/OpenZeppelin/openzeppelin-contracts/v3.4.0/contracts/token/ERC721/ERC721.sol\":4945:5021  require(_exists(tokenId), \"ERC721Metadata: URI query for nonexistent token\") */\n      tag_165\n      jumpi\n      mload(0x40)\n      shl(0xe5, 0x461bcd)\n      dup2\n      mstore\n      0x04\n      add\n      dup1\n      dup1\n      0x20\n      add\n      dup3\n      dup2\n      sub\n      dup3\n      mstore\n      0x2f\n      dup2\n      mstore\n      0x20\n      add\n      dup1\n      data_a2d45c0fba603d40d82d590051761ca952d1ab9d78cca6d0d464d7b6e961a9cb\n      0x2f\n      swap2\n      codecopy\n      0x40\n      add\n      swap2\n      pop\n      pop\n      mload(0x40)\n      dup1\n      swap2\n      sub\n      swap1\n      revert\n    tag_165:\n        /* \"https://raw.githubusercontent.com/OpenZeppelin/openzeppelin-contracts/v3.4.0/contracts/token/ERC721/ERC721.sol\":5032:5055  string memory _tokenURI */\n      0x00\n        /* \"https://raw.githubusercontent.com/OpenZeppelin/openzeppelin-contracts/v3.4.0/contracts/token/ERC721/ERC721.sol\":5058:5077  _tokenURIs[tokenId] */\n      dup3\n      dup2\n      mstore\n        /* \"https://raw.githubusercontent.com/OpenZeppelin/openzeppelin-contracts/v3.4.0/contracts/token/ERC721/ERC721.sol\":5058:5068  _tokenURIs */\n      0x08\n        /* \"https://raw.githubusercontent.com/OpenZeppelin/openzeppelin-contracts/v3.4.0/contracts/token/ERC721/ERC721.sol\":5058:5077  _tokenURIs[tokenId] */\n      0x20\n      swap1\n      dup2\n      mstore\n      0x40\n      dup1\n      dup4\n      keccak256\n        /* \"https://raw.githubusercontent.com/OpenZeppelin/openzeppelin-contracts/v3.4.0/contracts/token/ERC721/ERC721.sol\":5032:5077  string memory _tokenURI = _tokenURIs[tokenId] */\n      dup1\n      sload\n      dup3\n      mload\n      0x02\n      0x01\n      dup4\n      and\n      iszero\n      0x0100\n      mul\n      not(0x00)\n      add\n      swap1\n      swap3\n      and\n      swap2\n      swap1\n      swap2\n      div\n      0x1f\n      dup2\n      add\n      dup6\n      swap1\n      div\n      dup6\n      mul\n      dup3\n      add\n      dup6\n      add\n      swap1\n      swap4\n      mstore\n      dup3\n      dup2\n      mstore\n      swap3\n        /* \"https://raw.githubusercontent.com/OpenZeppelin/openzeppelin-contracts/v3.4.0/contracts/token/ERC721/ERC721.sol\":5058:5077  _tokenURIs[tokenId] */\n      swap1\n      swap2\n        /* \"https://raw.githubusercontent.com/OpenZeppelin/openzeppelin-contracts/v3.4.0/contracts/token/ERC721/ERC721.sol\":5032:5077  string memory _tokenURI = _tokenURIs[tokenId] */\n      swap1\n      dup4\n      add\n        /* \"https://raw.githubusercontent.com/OpenZeppelin/openzeppelin-contracts/v3.4.0/contracts/token/ERC721/ERC721.sol\":5058:5077  _tokenURIs[tokenId] */\n      dup3\n        /* \"https://raw.githubusercontent.com/OpenZeppelin/openzeppelin-contracts/v3.4.0/contracts/token/ERC721/ERC721.sol\":5032:5077  string memory _tokenURI = _tokenURIs[tokenId] */\n      dup3\n      dup1\n      iszero\n      tag_166\n      jumpi\n      dup1\n      0x1f\n      lt\n      tag_167\n      jumpi\n      0x0100\n      dup1\n      dup4\n      sload\n      div\n      mul\n      dup4\n      mstore\n      swap2\n      0x20\n      add\n      swap2\n      jump(tag_166)\n    tag_167:\n      dup3\n      add\n      swap2\n      swap1\n      0x00\n      mstore\n      keccak256(0x00, 0x20)\n      swap1\n    tag_168:\n      dup2\n      sload\n      dup2\n      mstore\n      swap1\n      0x01\n      add\n      swap1\n      0x20\n      add\n      dup1\n      dup4\n      gt\n      tag_168\n      jumpi\n      dup3\n      swap1\n      sub\n      0x1f\n      and\n      dup3\n      add\n      swap2\n    tag_166:\n      pop\n      pop\n      pop\n      pop\n      pop\n      swap1\n      pop\n        /* \"https://raw.githubusercontent.com/OpenZeppelin/openzeppelin-contracts/v3.4.0/contracts/token/ERC721/ERC721.sol\":5087:5105  string memory base */\n      0x00\n        /* \"https://raw.githubusercontent.com/OpenZeppelin/openzeppelin-contracts/v3.4.0/contracts/token/ERC721/ERC721.sol\":5108:5117  baseURI() */\n      tag_169\n        /* \"https://raw.githubusercontent.com/OpenZeppelin/openzeppelin-contracts/v3.4.0/contracts/token/ERC721/ERC721.sol\":5108:5115  baseURI */\n      tag_58\n        /* \"https://raw.githubusercontent.com/OpenZeppelin/openzeppelin-contracts/v3.4.0/contracts/token/ERC721/ERC721.sol\":5108:5117  baseURI() */\n      jump\t// in\n    tag_169:\n        /* \"https://raw.githubusercontent.com/OpenZeppelin/openzeppelin-contracts/v3.4.0/contracts/token/ERC721/ERC721.sol\":5087:5117  string memory base = baseURI() */\n      swap1\n      pop\n        /* \"https://raw.githubusercontent.com/OpenZeppelin/openzeppelin-contracts/v3.4.0/contracts/token/ERC721/ERC721.sol\":5196:5200  base */\n      dup1\n        /* \"https://raw.githubusercontent.com/OpenZeppelin/openzeppelin-contracts/v3.4.0/contracts/token/ERC721/ERC721.sol\":5190:5208  bytes(base).length */\n      mload\n        /* \"https://raw.githubusercontent.com/OpenZeppelin/openzeppelin-contracts/v3.4.0/contracts/token/ERC721/ERC721.sol\":5212:5213  0 */\n      0x00\n        /* \"https://raw.githubusercontent.com/OpenZeppelin/openzeppelin-contracts/v3.4.0/contracts/token/ERC721/ERC721.sol\":5190:5213  bytes(base).length == 0 */\n      eq\n        /* \"https://raw.githubusercontent.com/OpenZeppelin/openzeppelin-contracts/v3.4.0/contracts/token/ERC721/ERC721.sol\":5186:5256  if (bytes(base).length == 0) {... */\n      iszero\n      tag_170\n      jumpi\n      pop\n        /* \"https://raw.githubusercontent.com/OpenZeppelin/openzeppelin-contracts/v3.4.0/contracts/token/ERC721/ERC721.sol\":5236:5245  _tokenURI */\n      swap1\n      pop\n        /* \"https://raw.githubusercontent.com/OpenZeppelin/openzeppelin-contracts/v3.4.0/contracts/token/ERC721/ERC721.sol\":5229:5245  return _tokenURI */\n      jump(tag_99)\n        /* \"https://raw.githubusercontent.com/OpenZeppelin/openzeppelin-contracts/v3.4.0/contracts/token/ERC721/ERC721.sol\":5186:5256  if (bytes(base).length == 0) {... */\n    tag_170:\n        /* \"https://raw.githubusercontent.com/OpenZeppelin/openzeppelin-contracts/v3.4.0/contracts/token/ERC721/ERC721.sol\":5358:5381  bytes(_tokenURI).length */\n      dup2\n      mload\n        /* \"https://raw.githubusercontent.com/OpenZeppelin/openzeppelin-contracts/v3.4.0/contracts/token/ERC721/ERC721.sol\":5358:5385  bytes(_tokenURI).length > 0 */\n      iszero\n        /* \"https://raw.githubusercontent.com/OpenZeppelin/openzeppelin-contracts/v3.4.0/contracts/token/ERC721/ERC721.sol\":5354:5460  if (bytes(_tokenURI).length > 0) {... */\n      tag_171\n      jumpi\n        /* \"https://raw.githubusercontent.com/OpenZeppelin/openzeppelin-contracts/v3.4.0/contracts/token/ERC721/ERC721.sol\":5432:5436  base */\n      dup1\n        /* \"https://raw.githubusercontent.com/OpenZeppelin/openzeppelin-contracts/v3.4.0/contracts/token/ERC721/ERC721.sol\":5438:5447  _tokenURI */\n      dup3\n        /* \"https://raw.githubusercontent.com/OpenZeppelin/openzeppelin-contracts/v3.4.0/contracts/token/ERC721/ERC721.sol\":5415:5448  abi.encodePacked(base, _tokenURI) */\n      add(0x20, mload(0x40))\n      dup1\n      dup4\n      dup1\n      mload\n      swap1\n      0x20\n      add\n      swap1\n      dup1\n      dup4\n      dup4\n    tag_172:\n      0x20\n      dup4\n      lt\n      tag_174\n      jumpi\n      dup1\n      mload\n      dup3\n      mstore\n      not(0x1f)\n      swap1\n      swap3\n      add\n      swap2\n      0x20\n      swap2\n      dup3\n      add\n      swap2\n      add\n      jump(tag_172)\n    tag_174:\n      mload\n      dup2\n      mload\n      0x20\n      swap4\n      dup5\n      sub\n      0x0100\n      exp\n      not(0x00)\n      add\n      dup1\n      not\n      swap1\n      swap3\n      and\n      swap2\n      and\n      or\n      swap1\n      mstore\n      dup6\n      mload\n      swap2\n      swap1\n      swap4\n      add\n      swap3\n      dup6\n      add\n      swap2\n      pop\n      dup1\n      dup4\n      dup4\n    tag_175:\n      0x20\n      dup4\n      lt\n      tag_177\n      jumpi\n      dup1\n      mload\n      dup3\n      mstore\n      not(0x1f)\n      swap1\n      swap3\n      add\n      swap2\n      0x20\n      swap2\n      dup3\n      add\n      swap2\n      add\n      jump(tag_175)\n    tag_177:\n      0x01\n      dup4\n      0x20\n      sub\n      0x0100\n      exp\n      sub\n      dup1\n      not\n      dup3\n      mload\n      and\n      dup2\n      dup5\n      mload\n      and\n      dup1\n      dup3\n      or\n      dup6\n      mstore\n      pop\n      pop\n      pop\n      pop\n      pop\n      pop\n      swap1\n      pop\n      add\n      swap3\n      pop\n      pop\n      pop\n      mload(0x40)\n      0x20\n      dup2\n      dup4\n      sub\n      sub\n      dup2\n      mstore\n      swap1\n      0x40\n      mstore\n        /* \"https://raw.githubusercontent.com/OpenZeppelin/openzeppelin-contracts/v3.4.0/contracts/token/ERC721/ERC721.sol\":5401:5449  return string(abi.encodePacked(base, _tokenURI)) */\n      swap3\n      pop\n      pop\n      pop\n      jump(tag_99)\n        /* \"https://raw.githubusercontent.com/OpenZeppelin/openzeppelin-contracts/v3.4.0/contracts/token/ERC721/ERC721.sol\":5354:5460  if (bytes(_tokenURI).length > 0) {... */\n    tag_171:\n        /* \"https://raw.githubusercontent.com/OpenZeppelin/openzeppelin-contracts/v3.4.0/contracts/token/ERC721/ERC721.sol\":5590:5594  base */\n      dup1\n        /* \"https://raw.githubusercontent.com/OpenZeppelin/openzeppelin-contracts/v3.4.0/contracts/token/ERC721/ERC721.sol\":5596:5614  tokenId.toString() */\n      tag_178\n        /* \"https://raw.githubusercontent.com/OpenZeppelin/openzeppelin-contracts/v3.4.0/contracts/token/ERC721/ERC721.sol\":5596:5603  tokenId */\n      dup6\n        /* \"https://raw.githubusercontent.com/OpenZeppelin/openzeppelin-contracts/v3.4.0/contracts/token/ERC721/ERC721.sol\":5596:5612  tokenId.toString */\n      tag_179\n        /* \"https://raw.githubusercontent.com/OpenZeppelin/openzeppelin-contracts/v3.4.0/contracts/token/ERC721/ERC721.sol\":5596:5614  tokenId.toString() */\n      jump\t// in\n    tag_178:\n        /* \"https://raw.githubusercontent.com/OpenZeppelin/openzeppelin-contracts/v3.4.0/contracts/token/ERC721/ERC721.sol\":5573:5615  abi.encodePacked(base, tokenId.toString()) */\n      add(0x20, mload(0x40))\n      dup1\n      dup4\n      dup1\n      mload\n      swap1\n      0x20\n      add\n      swap1\n      dup1\n      dup4\n      dup4\n    tag_180:\n      0x20\n      dup4\n      lt\n      tag_182\n      jumpi\n      dup1\n      mload\n      dup3\n      mstore\n      not(0x1f)\n      swap1\n      swap3\n      add\n      swap2\n      0x20\n      swap2\n      dup3\n      add\n      swap2\n      add\n      jump(tag_180)\n    tag_182:\n      mload\n      dup2\n      mload\n      0x20\n      swap4\n      dup5\n      sub\n      0x0100\n      exp\n      not(0x00)\n      add\n      dup1\n      not\n      swap1\n      swap3\n      and\n      swap2\n      and\n      or\n      swap1\n      mstore\n      dup6\n      mload\n      swap2\n      swap1\n      swap4\n      add\n      swap3\n      dup6\n      add\n      swap2\n      pop\n      dup1\n      dup4\n      dup4\n    tag_183:\n      0x20\n      dup4\n      lt\n      tag_185\n      jumpi\n      dup1\n      mload\n      dup3\n      mstore\n      not(0x1f)\n      swap1\n      swap3\n      add\n      swap2\n      0x20\n      swap2\n      dup3\n      add\n      swap2\n      add\n      jump(tag_183)\n    tag_185:\n      0x01\n      dup4\n      0x20\n      sub\n      0x0100\n      exp\n      sub\n      dup1\n      not\n      dup3\n      mload\n      and\n      dup2\n      dup5\n      mload\n      and\n      dup1\n      dup3\n      or\n      dup6\n      mstore\n      pop\n      pop\n      pop\n      pop\n      pop\n      pop\n      swap1\n      pop\n      add\n      swap3\n      pop\n      pop\n      pop\n      mload(0x40)\n      0x20\n      dup2\n      dup4\n      sub\n      sub\n      dup2\n      mstore\n      swap1\n      0x40\n      mstore\n        /* \"https://raw.githubusercontent.com/OpenZeppelin/openzeppelin-contracts/v3.4.0/contracts/token/ERC721/ERC721.sol\":5559:5616  return string(abi.encodePacked(base, tokenId.toString())) */\n      swap3\n      pop\n      pop\n      pop\n        /* \"https://raw.githubusercontent.com/OpenZeppelin/openzeppelin-contracts/v3.4.0/contracts/token/ERC721/ERC721.sol\":4847:5623  function tokenURI(uint256 tokenId) public view virtual override returns (string memory) {... */\n      swap2\n      swap1\n      pop\n      jump\t// out\n        /* \"https://raw.githubusercontent.com/OpenZeppelin/openzeppelin-contracts/v3.4.0/contracts/token/ERC721/ERC721.sol\":7862:8024  function isApprovedForAll(address owner, address operator) public view virtual override returns (bool) {... */\n    tag_92:\n      sub(shl(0xa0, 0x01), 0x01)\n        /* \"https://raw.githubusercontent.com/OpenZeppelin/openzeppelin-contracts/v3.4.0/contracts/token/ERC721/ERC721.sol\":7982:8007  _operatorApprovals[owner] */\n      swap2\n      dup3\n      and\n        /* \"https://raw.githubusercontent.com/OpenZeppelin/openzeppelin-contracts/v3.4.0/contracts/token/ERC721/ERC721.sol\":7959:7963  bool */\n      0x00\n        /* \"https://raw.githubusercontent.com/OpenZeppelin/openzeppelin-contracts/v3.4.0/contracts/token/ERC721/ERC721.sol\":7982:8007  _operatorApprovals[owner] */\n      swap1\n      dup2\n      mstore\n        /* \"https://raw.githubusercontent.com/OpenZeppelin/openzeppelin-contracts/v3.4.0/contracts/token/ERC721/ERC721.sol\":7982:8000  _operatorApprovals */\n      0x05\n        /* \"https://raw.githubusercontent.com/OpenZeppelin/openzeppelin-contracts/v3.4.0/contracts/token/ERC721/ERC721.sol\":7982:8007  _operatorApprovals[owner] */\n      0x20\n      swap1\n      dup2\n      mstore\n      0x40\n      dup1\n      dup4\n      keccak256\n        /* \"https://raw.githubusercontent.com/OpenZeppelin/openzeppelin-contracts/v3.4.0/contracts/token/ERC721/ERC721.sol\":7982:8017  _operatorApprovals[owner][operator] */\n      swap4\n      swap1\n      swap5\n      and\n      dup3\n      mstore\n      swap2\n      swap1\n      swap2\n      mstore\n      keccak256\n      sload\n      0xff\n      and\n      swap1\n        /* \"https://raw.githubusercontent.com/OpenZeppelin/openzeppelin-contracts/v3.4.0/contracts/token/ERC721/ERC721.sol\":7862:8024  function isApprovedForAll(address owner, address operator) public view virtual override returns (bool) {... */\n      jump\t// out\n        /* \"contracts/DogNFT.sol\":560:894  function mintNFT(address _receipentAddress, string calldata tokenURI) public returns (uint256) {\r... */\n    tag_98:\n        /* \"contracts/DogNFT.sol\":646:653  uint256 */\n      0x00\n        /* \"contracts/DogNFT.sol\":696:717  _tokenIds.increment() */\n      tag_188\n        /* \"contracts/DogNFT.sol\":696:705  _tokenIds */\n      0x0a\n        /* \"contracts/DogNFT.sol\":696:715  _tokenIds.increment */\n      tag_189\n        /* \"contracts/DogNFT.sol\":696:717  _tokenIds.increment() */\n      jump\t// in\n    tag_188:\n        /* \"contracts/DogNFT.sol\":728:745  uint256 newItemId */\n      0x00\n        /* \"contracts/DogNFT.sol\":748:767  _tokenIds.current() */\n      tag_190\n        /* \"contracts/DogNFT.sol\":748:757  _tokenIds */\n      0x0a\n        /* \"contracts/DogNFT.sol\":748:765  _tokenIds.current */\n      tag_191\n        /* \"contracts/DogNFT.sol\":748:767  _tokenIds.current() */\n      jump\t// in\n    tag_190:\n        /* \"contracts/DogNFT.sol\":728:767  uint256 newItemId = _tokenIds.current() */\n      swap1\n      pop\n        /* \"contracts/DogNFT.sol\":778:813  _mint(_receipentAddress, newItemId) */\n      tag_192\n        /* \"contracts/DogNFT.sol\":784:801  _receipentAddress */\n      dup6\n        /* \"contracts/DogNFT.sol\":803:812  newItemId */\n      dup3\n        /* \"contracts/DogNFT.sol\":778:783  _mint */\n      tag_193\n        /* \"contracts/DogNFT.sol\":778:813  _mint(_receipentAddress, newItemId) */\n      jump\t// in\n    tag_192:\n        /* \"contracts/DogNFT.sol\":824:857  _setTokenURI(newItemId, tokenURI) */\n      tag_194\n        /* \"contracts/DogNFT.sol\":837:846  newItemId */\n      dup2\n        /* \"contracts/DogNFT.sol\":848:856  tokenURI */\n      dup6\n      dup6\n        /* \"contracts/DogNFT.sol\":824:857  _setTokenURI(newItemId, tokenURI) */\n      dup1\n      dup1\n      0x1f\n      add\n      0x20\n      dup1\n      swap2\n      div\n      mul\n      0x20\n      add\n      mload(0x40)\n      swap1\n      dup2\n      add\n      0x40\n      mstore\n      dup1\n      swap4\n      swap3\n      swap2\n      swap1\n      dup2\n      dup2\n      mstore\n      0x20\n      add\n      dup4\n      dup4\n      dup1\n      dup3\n      dup5\n      calldatacopy\n      0x00\n      swap3\n      add\n      swap2\n      swap1\n      swap2\n      mstore\n      pop\n        /* \"contracts/DogNFT.sol\":824:836  _setTokenURI */\n      tag_195\n      swap3\n      pop\n      pop\n      pop\n        /* \"contracts/DogNFT.sol\":824:857  _setTokenURI(newItemId, tokenURI) */\n      jump\t// in\n    tag_194:\n        /* \"contracts/DogNFT.sol\":877:886  newItemId */\n      swap1\n      pop\n        /* \"contracts/DogNFT.sol\":560:894  function mintNFT(address _receipentAddress, string calldata tokenURI) public returns (uint256) {\r... */\n    tag_187:\n      swap4\n      swap3\n      pop\n      pop\n      pop\n      jump\t// out\n        /* \"https://raw.githubusercontent.com/OpenZeppelin/openzeppelin-contracts/v3.4.0/contracts/token/ERC721/ERC721.sol\":10383:10508  function _exists(uint256 tokenId) internal view virtual returns (bool) {... */\n    tag_106:\n        /* \"https://raw.githubusercontent.com/OpenZeppelin/openzeppelin-contracts/v3.4.0/contracts/token/ERC721/ERC721.sol\":10448:10452  bool */\n      0x00\n        /* \"https://raw.githubusercontent.com/OpenZeppelin/openzeppelin-contracts/v3.4.0/contracts/token/ERC721/ERC721.sol\":10471:10501  _tokenOwners.contains(tokenId) */\n      tag_129\n        /* \"https://raw.githubusercontent.com/OpenZeppelin/openzeppelin-contracts/v3.4.0/contracts/token/ERC721/ERC721.sol\":10471:10483  _tokenOwners */\n      0x02\n        /* \"https://raw.githubusercontent.com/OpenZeppelin/openzeppelin-contracts/v3.4.0/contracts/token/ERC721/ERC721.sol\":10493:10500  tokenId */\n      dup4\n        /* \"https://raw.githubusercontent.com/OpenZeppelin/openzeppelin-contracts/v3.4.0/contracts/token/ERC721/ERC721.sol\":10471:10492  _tokenOwners.contains */\n      tag_198\n        /* \"https://raw.githubusercontent.com/OpenZeppelin/openzeppelin-contracts/v3.4.0/contracts/token/ERC721/ERC721.sol\":10471:10501  _tokenOwners.contains(tokenId) */\n      jump\t// in\n        /* \"https://raw.githubusercontent.com/OpenZeppelin/openzeppelin-contracts/v3.4.0/contracts/utils/Context.sol\":598:702  function _msgSender() internal view virtual returns (address payable) {... */\n    tag_112:\n        /* \"https://raw.githubusercontent.com/OpenZeppelin/openzeppelin-contracts/v3.4.0/contracts/utils/Context.sol\":685:695  msg.sender */\n      caller\n        /* \"https://raw.githubusercontent.com/OpenZeppelin/openzeppelin-contracts/v3.4.0/contracts/utils/Context.sol\":598:702  function _msgSender() internal view virtual returns (address payable) {... */\n      swap1\n      jump\t// out\n        /* \"https://raw.githubusercontent.com/OpenZeppelin/openzeppelin-contracts/v3.4.0/contracts/token/ERC721/ERC721.sol\":16119:16299  function _approve(address to, uint256 tokenId) private {... */\n    tag_118:\n        /* \"https://raw.githubusercontent.com/OpenZeppelin/openzeppelin-contracts/v3.4.0/contracts/token/ERC721/ERC721.sol\":16184:16208  _tokenApprovals[tokenId] */\n      0x00\n      dup2\n      dup2\n      mstore\n        /* \"https://raw.githubusercontent.com/OpenZeppelin/openzeppelin-contracts/v3.4.0/contracts/token/ERC721/ERC721.sol\":16184:16199  _tokenApprovals */\n      0x04\n        /* \"https://raw.githubusercontent.com/OpenZeppelin/openzeppelin-contracts/v3.4.0/contracts/token/ERC721/ERC721.sol\":16184:16208  _tokenApprovals[tokenId] */\n      0x20\n      mstore\n      0x40\n      swap1\n      keccak256\n        /* \"https://raw.githubusercontent.com/OpenZeppelin/openzeppelin-contracts/v3.4.0/contracts/token/ERC721/ERC721.sol\":16184:16213  _tokenApprovals[tokenId] = to */\n      dup1\n      sload\n      not(sub(shl(0xa0, 0x01), 0x01))\n      and\n      sub(shl(0xa0, 0x01), 0x01)\n      dup5\n      and\n      swap1\n      dup2\n      or\n      swap1\n      swap2\n      sstore\n        /* \"https://raw.githubusercontent.com/OpenZeppelin/openzeppelin-contracts/v3.4.0/contracts/token/ERC721/ERC721.sol\":16184:16208  _tokenApprovals[tokenId] */\n      dup2\n      swap1\n        /* \"https://raw.githubusercontent.com/OpenZeppelin/openzeppelin-contracts/v3.4.0/contracts/token/ERC721/ERC721.sol\":16237:16260  ERC721.ownerOf(tokenId) */\n      tag_201\n        /* \"https://raw.githubusercontent.com/OpenZeppelin/openzeppelin-contracts/v3.4.0/contracts/token/ERC721/ERC721.sol\":16184:16208  _tokenApprovals[tokenId] */\n      dup3\n        /* \"https://raw.githubusercontent.com/OpenZeppelin/openzeppelin-contracts/v3.4.0/contracts/token/ERC721/ERC721.sol\":16237:16251  ERC721.ownerOf */\n      tag_56\n        /* \"https://raw.githubusercontent.com/OpenZeppelin/openzeppelin-contracts/v3.4.0/contracts/token/ERC721/ERC721.sol\":16237:16260  ERC721.ownerOf(tokenId) */\n      jump\t// in\n    tag_201:\n      sub(shl(0xa0, 0x01), 0x01)\n        /* \"https://raw.githubusercontent.com/OpenZeppelin/openzeppelin-contracts/v3.4.0/contracts/token/ERC721/ERC721.sol\":16228:16274  Approval(ERC721.ownerOf(tokenId), to, tokenId) */\n      and\n      0x8c5be1e5ebec7d5bd14f71427d1e84f3dd0314c0f7b2291e5b200ac8c7c3b925\n      mload(0x40)\n      mload(0x40)\n      dup1\n      swap2\n      sub\n      swap1\n      log4\n        /* \"https://raw.githubusercontent.com/OpenZeppelin/openzeppelin-contracts/v3.4.0/contracts/token/ERC721/ERC721.sol\":16119:16299  function _approve(address to, uint256 tokenId) private {... */\n      pop\n      pop\n      jump\t// out\n        /* \"https://raw.githubusercontent.com/OpenZeppelin/openzeppelin-contracts/v3.4.0/contracts/utils/EnumerableMap.sol\":7820:7941  function length(UintToAddressMap storage map) internal view returns (uint256) {... */\n    tag_121:\n        /* \"https://raw.githubusercontent.com/OpenZeppelin/openzeppelin-contracts/v3.4.0/contracts/utils/EnumerableMap.sol\":7889:7896  uint256 */\n      0x00\n        /* \"https://raw.githubusercontent.com/OpenZeppelin/openzeppelin-contracts/v3.4.0/contracts/utils/EnumerableMap.sol\":7915:7934  _length(map._inner) */\n      tag_129\n        /* \"https://raw.githubusercontent.com/OpenZeppelin/openzeppelin-contracts/v3.4.0/contracts/utils/EnumerableMap.sol\":7923:7926  map */\n      dup3\n        /* \"https://raw.githubusercontent.com/OpenZeppelin/openzeppelin-contracts/v3.4.0/contracts/utils/EnumerableMap.sol\":7915:7922  _length */\n      tag_191\n        /* \"https://raw.githubusercontent.com/OpenZeppelin/openzeppelin-contracts/v3.4.0/contracts/utils/EnumerableMap.sol\":7915:7934  _length(map._inner) */\n      jump\t// in\n        /* \"https://raw.githubusercontent.com/OpenZeppelin/openzeppelin-contracts/v3.4.0/contracts/token/ERC721/ERC721.sol\":10666:11017  function _isApprovedOrOwner(address spender, uint256 tokenId) internal view virtual returns (bool) {... */\n    tag_125:\n        /* \"https://raw.githubusercontent.com/OpenZeppelin/openzeppelin-contracts/v3.4.0/contracts/token/ERC721/ERC721.sol\":10759:10763  bool */\n      0x00\n        /* \"https://raw.githubusercontent.com/OpenZeppelin/openzeppelin-contracts/v3.4.0/contracts/token/ERC721/ERC721.sol\":10783:10799  _exists(tokenId) */\n      tag_206\n        /* \"https://raw.githubusercontent.com/OpenZeppelin/openzeppelin-contracts/v3.4.0/contracts/token/ERC721/ERC721.sol\":10791:10798  tokenId */\n      dup3\n        /* \"https://raw.githubusercontent.com/OpenZeppelin/openzeppelin-contracts/v3.4.0/contracts/token/ERC721/ERC721.sol\":10783:10790  _exists */\n      tag_106\n        /* \"https://raw.githubusercontent.com/OpenZeppelin/openzeppelin-contracts/v3.4.0/contracts/token/ERC721/ERC721.sol\":10783:10799  _exists(tokenId) */\n      jump\t// in\n    tag_206:\n        /* \"https://raw.githubusercontent.com/OpenZeppelin/openzeppelin-contracts/v3.4.0/contracts/token/ERC721/ERC721.sol\":10775:10848  require(_exists(tokenId), \"ERC721: operator query for nonexistent token\") */\n      tag_207\n      jumpi\n      mload(0x40)\n      shl(0xe5, 0x461bcd)\n      dup2\n      mstore\n      0x04\n      add\n      dup1\n      dup1\n      0x20\n      add\n      dup3\n      dup2\n      sub\n      dup3\n      mstore\n      0x2c\n      dup2\n      mstore\n      0x20\n      add\n      dup1\n      data_5797d1ccb08b83980dd0c07ea40d8f6a64d35fff736a19bdd17522954cb0899c\n      0x2c\n      swap2\n      codecopy\n      0x40\n      add\n      swap2\n      pop\n      pop\n      mload(0x40)\n      dup1\n      swap2\n      sub\n      swap1\n      revert\n    tag_207:\n        /* \"https://raw.githubusercontent.com/OpenZeppelin/openzeppelin-contracts/v3.4.0/contracts/token/ERC721/ERC721.sol\":10858:10871  address owner */\n      0x00\n        /* \"https://raw.githubusercontent.com/OpenZeppelin/openzeppelin-contracts/v3.4.0/contracts/token/ERC721/ERC721.sol\":10874:10897  ERC721.ownerOf(tokenId) */\n      tag_208\n        /* \"https://raw.githubusercontent.com/OpenZeppelin/openzeppelin-contracts/v3.4.0/contracts/token/ERC721/ERC721.sol\":10889:10896  tokenId */\n      dup4\n        /* \"https://raw.githubusercontent.com/OpenZeppelin/openzeppelin-contracts/v3.4.0/contracts/token/ERC721/ERC721.sol\":10874:10888  ERC721.ownerOf */\n      tag_56\n        /* \"https://raw.githubusercontent.com/OpenZeppelin/openzeppelin-contracts/v3.4.0/contracts/token/ERC721/ERC721.sol\":10874:10897  ERC721.ownerOf(tokenId) */\n      jump\t// in\n    tag_208:\n        /* \"https://raw.githubusercontent.com/OpenZeppelin/openzeppelin-contracts/v3.4.0/contracts/token/ERC721/ERC721.sol\":10858:10897  address owner = ERC721.ownerOf(tokenId) */\n      swap1\n      pop\n        /* \"https://raw.githubusercontent.com/OpenZeppelin/openzeppelin-contracts/v3.4.0/contracts/token/ERC721/ERC721.sol\":10926:10931  owner */\n      dup1\n      sub(shl(0xa0, 0x01), 0x01)\n        /* \"https://raw.githubusercontent.com/OpenZeppelin/openzeppelin-contracts/v3.4.0/contracts/token/ERC721/ERC721.sol\":10915:10931  spender == owner */\n      and\n        /* \"https://raw.githubusercontent.com/OpenZeppelin/openzeppelin-contracts/v3.4.0/contracts/token/ERC721/ERC721.sol\":10915:10922  spender */\n      dup5\n      sub(shl(0xa0, 0x01), 0x01)\n        /* \"https://raw.githubusercontent.com/OpenZeppelin/openzeppelin-contracts/v3.4.0/contracts/token/ERC721/ERC721.sol\":10915:10931  spender == owner */\n      and\n      eq\n        /* \"https://raw.githubusercontent.com/OpenZeppelin/openzeppelin-contracts/v3.4.0/contracts/token/ERC721/ERC721.sol\":10915:10966  spender == owner || getApproved(tokenId) == spender */\n      dup1\n      tag_209\n      jumpi\n      pop\n        /* \"https://raw.githubusercontent.com/OpenZeppelin/openzeppelin-contracts/v3.4.0/contracts/token/ERC721/ERC721.sol\":10959:10966  spender */\n      dup4\n      sub(shl(0xa0, 0x01), 0x01)\n        /* \"https://raw.githubusercontent.com/OpenZeppelin/openzeppelin-contracts/v3.4.0/contracts/token/ERC721/ERC721.sol\":10935:10966  getApproved(tokenId) == spender */\n      and\n        /* \"https://raw.githubusercontent.com/OpenZeppelin/openzeppelin-contracts/v3.4.0/contracts/token/ERC721/ERC721.sol\":10935:10955  getApproved(tokenId) */\n      tag_210\n        /* \"https://raw.githubusercontent.com/OpenZeppelin/openzeppelin-contracts/v3.4.0/contracts/token/ERC721/ERC721.sol\":10947:10954  tokenId */\n      dup5\n        /* \"https://raw.githubusercontent.com/OpenZeppelin/openzeppelin-contracts/v3.4.0/contracts/token/ERC721/ERC721.sol\":10935:10946  getApproved */\n      tag_36\n        /* \"https://raw.githubusercontent.com/OpenZeppelin/openzeppelin-contracts/v3.4.0/contracts/token/ERC721/ERC721.sol\":10935:10955  getApproved(tokenId) */\n      jump\t// in\n    tag_210:\n      sub(shl(0xa0, 0x01), 0x01)\n        /* \"https://raw.githubusercontent.com/OpenZeppelin/openzeppelin-contracts/v3.4.0/contracts/token/ERC721/ERC721.sol\":10935:10966  getApproved(tokenId) == spender */\n      and\n      eq\n        /* \"https://raw.githubusercontent.com/OpenZeppelin/openzeppelin-contracts/v3.4.0/contracts/token/ERC721/ERC721.sol\":10915:10966  spender == owner || getApproved(tokenId) == spender */\n    tag_209:\n        /* \"https://raw.githubusercontent.com/OpenZeppelin/openzeppelin-contracts/v3.4.0/contracts/token/ERC721/ERC721.sol\":10915:11009  spender == owner || getApproved(tokenId) == spender || ERC721.isApprovedForAll(owner, spender) */\n      dup1\n      tag_212\n      jumpi\n      pop\n        /* \"https://raw.githubusercontent.com/OpenZeppelin/openzeppelin-contracts/v3.4.0/contracts/token/ERC721/ERC721.sol\":10970:11009  ERC721.isApprovedForAll(owner, spender) */\n      tag_212\n        /* \"https://raw.githubusercontent.com/OpenZeppelin/openzeppelin-contracts/v3.4.0/contracts/token/ERC721/ERC721.sol\":10994:10999  owner */\n      dup2\n        /* \"https://raw.githubusercontent.com/OpenZeppelin/openzeppelin-contracts/v3.4.0/contracts/token/ERC721/ERC721.sol\":11001:11008  spender */\n      dup6\n        /* \"https://raw.githubusercontent.com/OpenZeppelin/openzeppelin-contracts/v3.4.0/contracts/token/ERC721/ERC721.sol\":10970:10993  ERC721.isApprovedForAll */\n      tag_92\n        /* \"https://raw.githubusercontent.com/OpenZeppelin/openzeppelin-contracts/v3.4.0/contracts/token/ERC721/ERC721.sol\":10970:11009  ERC721.isApprovedForAll(owner, spender) */\n      jump\t// in\n    tag_212:\n        /* \"https://raw.githubusercontent.com/OpenZeppelin/openzeppelin-contracts/v3.4.0/contracts/token/ERC721/ERC721.sol\":10907:11010  return (spender == owner || getApproved(tokenId) == spender || ERC721.isApprovedForAll(owner, spender)) */\n      swap5\n        /* \"https://raw.githubusercontent.com/OpenZeppelin/openzeppelin-contracts/v3.4.0/contracts/token/ERC721/ERC721.sol\":10666:11017  function _isApprovedOrOwner(address spender, uint256 tokenId) internal view virtual returns (bool) {... */\n      swap4\n      pop\n      pop\n      pop\n      pop\n      jump\t// out\n        /* \"https://raw.githubusercontent.com/OpenZeppelin/openzeppelin-contracts/v3.4.0/contracts/token/ERC721/ERC721.sol\":13707:14291  function _transfer(address from, address to, uint256 tokenId) internal virtual {... */\n    tag_128:\n        /* \"https://raw.githubusercontent.com/OpenZeppelin/openzeppelin-contracts/v3.4.0/contracts/token/ERC721/ERC721.sol\":13831:13835  from */\n      dup3\n      sub(shl(0xa0, 0x01), 0x01)\n        /* \"https://raw.githubusercontent.com/OpenZeppelin/openzeppelin-contracts/v3.4.0/contracts/token/ERC721/ERC721.sol\":13804:13835  ERC721.ownerOf(tokenId) == from */\n      and\n        /* \"https://raw.githubusercontent.com/OpenZeppelin/openzeppelin-contracts/v3.4.0/contracts/token/ERC721/ERC721.sol\":13804:13827  ERC721.ownerOf(tokenId) */\n      tag_214\n        /* \"https://raw.githubusercontent.com/OpenZeppelin/openzeppelin-contracts/v3.4.0/contracts/token/ERC721/ERC721.sol\":13819:13826  tokenId */\n      dup3\n        /* \"https://raw.githubusercontent.com/OpenZeppelin/openzeppelin-contracts/v3.4.0/contracts/token/ERC721/ERC721.sol\":13804:13818  ERC721.ownerOf */\n      tag_56\n        /* \"https://raw.githubusercontent.com/OpenZeppelin/openzeppelin-contracts/v3.4.0/contracts/token/ERC721/ERC721.sol\":13804:13827  ERC721.ownerOf(tokenId) */\n      jump\t// in\n    tag_214:\n      sub(shl(0xa0, 0x01), 0x01)\n        /* \"https://raw.githubusercontent.com/OpenZeppelin/openzeppelin-contracts/v3.4.0/contracts/token/ERC721/ERC721.sol\":13804:13835  ERC721.ownerOf(tokenId) == from */\n      and\n      eq\n        /* \"https://raw.githubusercontent.com/OpenZeppelin/openzeppelin-contracts/v3.4.0/contracts/token/ERC721/ERC721.sol\":13796:13881  require(ERC721.ownerOf(tokenId) == from, \"ERC721: transfer of token that is not own\") */\n      tag_215\n      jumpi\n      mload(0x40)\n      shl(0xe5, 0x461bcd)\n      dup2\n      mstore\n      0x04\n      add\n      dup1\n      dup1\n      0x20\n      add\n      dup3\n      dup2\n      sub\n      dup3\n      mstore\n      0x29\n      dup2\n      mstore\n      0x20\n      add\n      dup1\n      data_a01073130a885d6c1c1af6ac75fc3b1c4f9403c235362962bbf528e2bd87d950\n      0x29\n      swap2\n      codecopy\n      0x40\n      add\n      swap2\n      pop\n      pop\n      mload(0x40)\n      dup1\n      swap2\n      sub\n      swap1\n      revert\n    tag_215:\n      sub(shl(0xa0, 0x01), 0x01)\n        /* \"https://raw.githubusercontent.com/OpenZeppelin/openzeppelin-contracts/v3.4.0/contracts/token/ERC721/ERC721.sol\":13917:13933  to != address(0) */\n      dup3\n      and\n        /* \"https://raw.githubusercontent.com/OpenZeppelin/openzeppelin-contracts/v3.4.0/contracts/token/ERC721/ERC721.sol\":13909:13974  require(to != address(0), \"ERC721: transfer to the zero address\") */\n      tag_216\n      jumpi\n      mload(0x40)\n      shl(0xe5, 0x461bcd)\n      dup2\n      mstore\n      0x04\n      add\n      dup1\n      dup1\n      0x20\n      add\n      dup3\n      dup2\n      sub\n      dup3\n      mstore\n      0x24\n      dup2\n      mstore\n      0x20\n      add\n      dup1\n      data_455fea98ea03c32d7dd1a6f1426917d80529bf47b3ccbde74e7206e889e709f4\n      0x24\n      swap2\n      codecopy\n      0x40\n      add\n      swap2\n      pop\n      pop\n      mload(0x40)\n      dup1\n      swap2\n      sub\n      swap1\n      revert\n    tag_216:\n        /* \"https://raw.githubusercontent.com/OpenZeppelin/openzeppelin-contracts/v3.4.0/contracts/token/ERC721/ERC721.sol\":13985:14024  _beforeTokenTransfer(from, to, tokenId) */\n      tag_217\n        /* \"https://raw.githubusercontent.com/OpenZeppelin/openzeppelin-contracts/v3.4.0/contracts/token/ERC721/ERC721.sol\":14006:14010  from */\n      dup4\n        /* \"https://raw.githubusercontent.com/OpenZeppelin/openzeppelin-contracts/v3.4.0/contracts/token/ERC721/ERC721.sol\":14012:14014  to */\n      dup4\n        /* \"https://raw.githubusercontent.com/OpenZeppelin/openzeppelin-contracts/v3.4.0/contracts/token/ERC721/ERC721.sol\":14016:14023  tokenId */\n      dup4\n        /* \"https://raw.githubusercontent.com/OpenZeppelin/openzeppelin-contracts/v3.4.0/contracts/token/ERC721/ERC721.sol\":13985:14005  _beforeTokenTransfer */\n      tag_117\n        /* \"https://raw.githubusercontent.com/OpenZeppelin/openzeppelin-contracts/v3.4.0/contracts/token/ERC721/ERC721.sol\":13985:14024  _beforeTokenTransfer(from, to, tokenId) */\n      jump\t// in\n    tag_217:\n        /* \"https://raw.githubusercontent.com/OpenZeppelin/openzeppelin-contracts/v3.4.0/contracts/token/ERC721/ERC721.sol\":14086:14115  _approve(address(0), tokenId) */\n      tag_219\n        /* \"https://raw.githubusercontent.com/OpenZeppelin/openzeppelin-contracts/v3.4.0/contracts/token/ERC721/ERC721.sol\":14103:14104  0 */\n      0x00\n        /* \"https://raw.githubusercontent.com/OpenZeppelin/openzeppelin-contracts/v3.4.0/contracts/token/ERC721/ERC721.sol\":14107:14114  tokenId */\n      dup3\n        /* \"https://raw.githubusercontent.com/OpenZeppelin/openzeppelin-contracts/v3.4.0/contracts/token/ERC721/ERC721.sol\":14086:14094  _approve */\n      tag_118\n        /* \"https://raw.githubusercontent.com/OpenZeppelin/openzeppelin-contracts/v3.4.0/contracts/token/ERC721/ERC721.sol\":14086:14115  _approve(address(0), tokenId) */\n      jump\t// in\n    tag_219:\n      sub(shl(0xa0, 0x01), 0x01)\n        /* \"https://raw.githubusercontent.com/OpenZeppelin/openzeppelin-contracts/v3.4.0/contracts/token/ERC721/ERC721.sol\":14126:14145  _holderTokens[from] */\n      dup4\n      and\n      0x00\n      swap1\n      dup2\n      mstore\n        /* \"https://raw.githubusercontent.com/OpenZeppelin/openzeppelin-contracts/v3.4.0/contracts/token/ERC721/ERC721.sol\":14126:14139  _holderTokens */\n      0x01\n        /* \"https://raw.githubusercontent.com/OpenZeppelin/openzeppelin-contracts/v3.4.0/contracts/token/ERC721/ERC721.sol\":14126:14145  _holderTokens[from] */\n      0x20\n      mstore\n      0x40\n      swap1\n      keccak256\n        /* \"https://raw.githubusercontent.com/OpenZeppelin/openzeppelin-contracts/v3.4.0/contracts/token/ERC721/ERC721.sol\":14126:14161  _holderTokens[from].remove(tokenId) */\n      tag_220\n      swap1\n        /* \"https://raw.githubusercontent.com/OpenZeppelin/openzeppelin-contracts/v3.4.0/contracts/token/ERC721/ERC721.sol\":14153:14160  tokenId */\n      dup3\n        /* \"https://raw.githubusercontent.com/OpenZeppelin/openzeppelin-contracts/v3.4.0/contracts/token/ERC721/ERC721.sol\":14126:14152  _holderTokens[from].remove */\n      tag_221\n        /* \"https://raw.githubusercontent.com/OpenZeppelin/openzeppelin-contracts/v3.4.0/contracts/token/ERC721/ERC721.sol\":14126:14161  _holderTokens[from].remove(tokenId) */\n      jump\t// in\n    tag_220:\n      pop\n      sub(shl(0xa0, 0x01), 0x01)\n        /* \"https://raw.githubusercontent.com/OpenZeppelin/openzeppelin-contracts/v3.4.0/contracts/token/ERC721/ERC721.sol\":14171:14188  _holderTokens[to] */\n      dup3\n      and\n      0x00\n      swap1\n      dup2\n      mstore\n        /* \"https://raw.githubusercontent.com/OpenZeppelin/openzeppelin-contracts/v3.4.0/contracts/token/ERC721/ERC721.sol\":14171:14184  _holderTokens */\n      0x01\n        /* \"https://raw.githubusercontent.com/OpenZeppelin/openzeppelin-contracts/v3.4.0/contracts/token/ERC721/ERC721.sol\":14171:14188  _holderTokens[to] */\n      0x20\n      mstore\n      0x40\n      swap1\n      keccak256\n        /* \"https://raw.githubusercontent.com/OpenZeppelin/openzeppelin-contracts/v3.4.0/contracts/token/ERC721/ERC721.sol\":14171:14201  _holderTokens[to].add(tokenId) */\n      tag_222\n      swap1\n        /* \"https://raw.githubusercontent.com/OpenZeppelin/openzeppelin-contracts/v3.4.0/contracts/token/ERC721/ERC721.sol\":14193:14200  tokenId */\n      dup3\n        /* \"https://raw.githubusercontent.com/OpenZeppelin/openzeppelin-contracts/v3.4.0/contracts/token/ERC721/ERC721.sol\":14171:14192  _holderTokens[to].add */\n      tag_223\n        /* \"https://raw.githubusercontent.com/OpenZeppelin/openzeppelin-contracts/v3.4.0/contracts/token/ERC721/ERC721.sol\":14171:14201  _holderTokens[to].add(tokenId) */\n      jump\t// in\n    tag_222:\n      pop\n        /* \"https://raw.githubusercontent.com/OpenZeppelin/openzeppelin-contracts/v3.4.0/contracts/token/ERC721/ERC721.sol\":14212:14241  _tokenOwners.set(tokenId, to) */\n      tag_224\n        /* \"https://raw.githubusercontent.com/OpenZeppelin/openzeppelin-contracts/v3.4.0/contracts/token/ERC721/ERC721.sol\":14212:14224  _tokenOwners */\n      0x02\n        /* \"https://raw.githubusercontent.com/OpenZeppelin/openzeppelin-contracts/v3.4.0/contracts/token/ERC721/ERC721.sol\":14229:14236  tokenId */\n      dup3\n        /* \"https://raw.githubusercontent.com/OpenZeppelin/openzeppelin-contracts/v3.4.0/contracts/token/ERC721/ERC721.sol\":14238:14240  to */\n      dup5\n        /* \"https://raw.githubusercontent.com/OpenZeppelin/openzeppelin-contracts/v3.4.0/contracts/token/ERC721/ERC721.sol\":14212:14228  _tokenOwners.set */\n      tag_225\n        /* \"https://raw.githubusercontent.com/OpenZeppelin/openzeppelin-contracts/v3.4.0/contracts/token/ERC721/ERC721.sol\":14212:14241  _tokenOwners.set(tokenId, to) */\n      jump\t// in\n    tag_224:\n      pop\n        /* \"https://raw.githubusercontent.com/OpenZeppelin/openzeppelin-contracts/v3.4.0/contracts/token/ERC721/ERC721.sol\":14276:14283  tokenId */\n      dup1\n        /* \"https://raw.githubusercontent.com/OpenZeppelin/openzeppelin-contracts/v3.4.0/contracts/token/ERC721/ERC721.sol\":14272:14274  to */\n      dup3\n      sub(shl(0xa0, 0x01), 0x01)\n        /* \"https://raw.githubusercontent.com/OpenZeppelin/openzeppelin-contracts/v3.4.0/contracts/token/ERC721/ERC721.sol\":14257:14284  Transfer(from, to, tokenId) */\n      and\n        /* \"https://raw.githubusercontent.com/OpenZeppelin/openzeppelin-contracts/v3.4.0/contracts/token/ERC721/ERC721.sol\":14266:14270  from */\n      dup5\n      sub(shl(0xa0, 0x01), 0x01)\n        /* \"https://raw.githubusercontent.com/OpenZeppelin/openzeppelin-contracts/v3.4.0/contracts/token/ERC721/ERC721.sol\":14257:14284  Transfer(from, to, tokenId) */\n      and\n      0xddf252ad1be2c89b69c2b068fc378daa952ba7f163c4a11628f55a4df523b3ef\n      mload(0x40)\n      mload(0x40)\n      dup1\n      swap2\n      sub\n      swap1\n      log4\n        /* \"https://raw.githubusercontent.com/OpenZeppelin/openzeppelin-contracts/v3.4.0/contracts/token/ERC721/ERC721.sol\":13707:14291  function _transfer(address from, address to, uint256 tokenId) internal virtual {... */\n      pop\n      pop\n      pop\n      jump\t// out\n        /* \"https://raw.githubusercontent.com/OpenZeppelin/openzeppelin-contracts/v3.4.0/contracts/utils/EnumerableSet.sol\":9250:9385  function at(UintSet storage set, uint256 index) internal view returns (uint256) {... */\n    tag_131:\n        /* \"https://raw.githubusercontent.com/OpenZeppelin/openzeppelin-contracts/v3.4.0/contracts/utils/EnumerableSet.sol\":9321:9328  uint256 */\n      0x00\n        /* \"https://raw.githubusercontent.com/OpenZeppelin/openzeppelin-contracts/v3.4.0/contracts/utils/EnumerableSet.sol\":9355:9377  _at(set._inner, index) */\n      tag_130\n        /* \"https://raw.githubusercontent.com/OpenZeppelin/openzeppelin-contracts/v3.4.0/contracts/utils/EnumerableSet.sol\":9359:9362  set */\n      dup4\n        /* \"https://raw.githubusercontent.com/OpenZeppelin/openzeppelin-contracts/v3.4.0/contracts/utils/EnumerableSet.sol\":9371:9376  index */\n      dup4\n        /* \"https://raw.githubusercontent.com/OpenZeppelin/openzeppelin-contracts/v3.4.0/contracts/utils/EnumerableSet.sol\":9355:9358  _at */\n      tag_228\n        /* \"https://raw.githubusercontent.com/OpenZeppelin/openzeppelin-contracts/v3.4.0/contracts/utils/EnumerableSet.sol\":9355:9377  _at(set._inner, index) */\n      jump\t// in\n        /* \"https://raw.githubusercontent.com/OpenZeppelin/openzeppelin-contracts/v3.4.0/contracts/utils/EnumerableMap.sol\":8269:8502  function at(UintToAddressMap storage map, uint256 index) internal view returns (uint256, address) {... */\n    tag_136:\n        /* \"https://raw.githubusercontent.com/OpenZeppelin/openzeppelin-contracts/v3.4.0/contracts/utils/EnumerableMap.sol\":8349:8356  uint256 */\n      0x00\n      dup1\n      dup1\n      dup1\n        /* \"https://raw.githubusercontent.com/OpenZeppelin/openzeppelin-contracts/v3.4.0/contracts/utils/EnumerableMap.sol\":8408:8430  _at(map._inner, index) */\n      tag_230\n        /* \"https://raw.githubusercontent.com/OpenZeppelin/openzeppelin-contracts/v3.4.0/contracts/utils/EnumerableMap.sol\":8412:8415  map */\n      dup7\n        /* \"https://raw.githubusercontent.com/OpenZeppelin/openzeppelin-contracts/v3.4.0/contracts/utils/EnumerableMap.sol\":8424:8429  index */\n      dup7\n        /* \"https://raw.githubusercontent.com/OpenZeppelin/openzeppelin-contracts/v3.4.0/contracts/utils/EnumerableMap.sol\":8408:8411  _at */\n      tag_231\n        /* \"https://raw.githubusercontent.com/OpenZeppelin/openzeppelin-contracts/v3.4.0/contracts/utils/EnumerableMap.sol\":8408:8430  _at(map._inner, index) */\n      jump\t// in\n    tag_230:\n        /* \"https://raw.githubusercontent.com/OpenZeppelin/openzeppelin-contracts/v3.4.0/contracts/utils/EnumerableMap.sol\":8377:8430  (bytes32 key, bytes32 value) = _at(map._inner, index) */\n      swap1\n      swap8\n      swap1\n      swap7\n      pop\n        /* \"https://raw.githubusercontent.com/OpenZeppelin/openzeppelin-contracts/v3.4.0/contracts/utils/EnumerableMap.sol\":8269:8502  function at(UintToAddressMap storage map, uint256 index) internal view returns (uint256, address) {... */\n      swap5\n      pop\n      pop\n      pop\n      pop\n      pop\n      jump\t// out\n        /* \"https://raw.githubusercontent.com/OpenZeppelin/openzeppelin-contracts/v3.4.0/contracts/utils/EnumerableMap.sol\":9522:9733  function get(UintToAddressMap storage map, uint256 key, string memory errorMessage) internal view returns (address) {... */\n    tag_139:\n        /* \"https://raw.githubusercontent.com/OpenZeppelin/openzeppelin-contracts/v3.4.0/contracts/utils/EnumerableMap.sol\":9629:9636  address */\n      0x00\n        /* \"https://raw.githubusercontent.com/OpenZeppelin/openzeppelin-contracts/v3.4.0/contracts/utils/EnumerableMap.sol\":9679:9723  _get(map._inner, bytes32(key), errorMessage) */\n      tag_194\n        /* \"https://raw.githubusercontent.com/OpenZeppelin/openzeppelin-contracts/v3.4.0/contracts/utils/EnumerableMap.sol\":9684:9687  map */\n      dup5\n        /* \"https://raw.githubusercontent.com/OpenZeppelin/openzeppelin-contracts/v3.4.0/contracts/utils/EnumerableMap.sol\":9704:9707  key */\n      dup5\n        /* \"https://raw.githubusercontent.com/OpenZeppelin/openzeppelin-contracts/v3.4.0/contracts/utils/EnumerableMap.sol\":9710:9722  errorMessage */\n      dup5\n        /* \"https://raw.githubusercontent.com/OpenZeppelin/openzeppelin-contracts/v3.4.0/contracts/utils/EnumerableMap.sol\":9679:9683  _get */\n      tag_234\n        /* \"https://raw.githubusercontent.com/OpenZeppelin/openzeppelin-contracts/v3.4.0/contracts/utils/EnumerableMap.sol\":9679:9723  _get(map._inner, bytes32(key), errorMessage) */\n      jump\t// in\n        /* \"https://raw.githubusercontent.com/OpenZeppelin/openzeppelin-contracts/v3.4.0/contracts/token/ERC721/ERC721.sol\":9811:10080  function _safeTransfer(address from, address to, uint256 tokenId, bytes memory _data) internal virtual {... */\n    tag_162:\n        /* \"https://raw.githubusercontent.com/OpenZeppelin/openzeppelin-contracts/v3.4.0/contracts/token/ERC721/ERC721.sol\":9924:9952  _transfer(from, to, tokenId) */\n      tag_239\n        /* \"https://raw.githubusercontent.com/OpenZeppelin/openzeppelin-contracts/v3.4.0/contracts/token/ERC721/ERC721.sol\":9934:9938  from */\n      dup5\n        /* \"https://raw.githubusercontent.com/OpenZeppelin/openzeppelin-contracts/v3.4.0/contracts/token/ERC721/ERC721.sol\":9940:9942  to */\n      dup5\n        /* \"https://raw.githubusercontent.com/OpenZeppelin/openzeppelin-contracts/v3.4.0/contracts/token/ERC721/ERC721.sol\":9944:9951  tokenId */\n      dup5\n        /* \"https://raw.githubusercontent.com/OpenZeppelin/openzeppelin-contracts/v3.4.0/contracts/token/ERC721/ERC721.sol\":9924:9933  _transfer */\n      tag_128\n        /* \"https://raw.githubusercontent.com/OpenZeppelin/openzeppelin-contracts/v3.4.0/contracts/token/ERC721/ERC721.sol\":9924:9952  _transfer(from, to, tokenId) */\n      jump\t// in\n    tag_239:\n        /* \"https://raw.githubusercontent.com/OpenZeppelin/openzeppelin-contracts/v3.4.0/contracts/token/ERC721/ERC721.sol\":9970:10018  _checkOnERC721Received(from, to, tokenId, _data) */\n      tag_240\n        /* \"https://raw.githubusercontent.com/OpenZeppelin/openzeppelin-contracts/v3.4.0/contracts/token/ERC721/ERC721.sol\":9993:9997  from */\n      dup5\n        /* \"https://raw.githubusercontent.com/OpenZeppelin/openzeppelin-contracts/v3.4.0/contracts/token/ERC721/ERC721.sol\":9999:10001  to */\n      dup5\n        /* \"https://raw.githubusercontent.com/OpenZeppelin/openzeppelin-contracts/v3.4.0/contracts/token/ERC721/ERC721.sol\":10003:10010  tokenId */\n      dup5\n        /* \"https://raw.githubusercontent.com/OpenZeppelin/openzeppelin-contracts/v3.4.0/contracts/token/ERC721/ERC721.sol\":10012:10017  _data */\n      dup5\n        /* \"https://raw.githubusercontent.com/OpenZeppelin/openzeppelin-contracts/v3.4.0/contracts/token/ERC721/ERC721.sol\":9970:9992  _checkOnERC721Received */\n      tag_241\n        /* \"https://raw.githubusercontent.com/OpenZeppelin/openzeppelin-contracts/v3.4.0/contracts/token/ERC721/ERC721.sol\":9970:10018  _checkOnERC721Received(from, to, tokenId, _data) */\n      jump\t// in\n    tag_240:\n        /* \"https://raw.githubusercontent.com/OpenZeppelin/openzeppelin-contracts/v3.4.0/contracts/token/ERC721/ERC721.sol\":9962:10073  require(_checkOnERC721Received(from, to, tokenId, _data), \"ERC721: transfer to non ERC721Receiver implementer\") */\n      tag_161\n      jumpi\n      mload(0x40)\n      shl(0xe5, 0x461bcd)\n      dup2\n      mstore\n      0x04\n      add\n      dup1\n      dup1\n      0x20\n      add\n      dup3\n      dup2\n      sub\n      dup3\n      mstore\n      0x32\n      dup2\n      mstore\n      0x20\n      add\n      dup1\n      data_1e766a06da43a53d0f4c380e06e5a342e14d5af1bf8501996c844905530ca84e\n      0x32\n      swap2\n      codecopy\n      0x40\n      add\n      swap2\n      pop\n      pop\n      mload(0x40)\n      dup1\n      swap2\n      sub\n      swap1\n      revert\n        /* \"https://raw.githubusercontent.com/OpenZeppelin/openzeppelin-contracts/v3.4.0/contracts/utils/Strings.sol\":210:935  function toString(uint256 value) internal pure returns (string memory) {... */\n    tag_179:\n        /* \"https://raw.githubusercontent.com/OpenZeppelin/openzeppelin-contracts/v3.4.0/contracts/utils/Strings.sol\":266:279  string memory */\n      0x60\n        /* \"https://raw.githubusercontent.com/OpenZeppelin/openzeppelin-contracts/v3.4.0/contracts/utils/Strings.sol\":483:493  value == 0 */\n      dup2\n        /* \"https://raw.githubusercontent.com/OpenZeppelin/openzeppelin-contracts/v3.4.0/contracts/utils/Strings.sol\":479:530  if (value == 0) {... */\n      tag_244\n      jumpi\n      pop\n        /* \"https://raw.githubusercontent.com/OpenZeppelin/openzeppelin-contracts/v3.4.0/contracts/utils/Strings.sol\":509:519  return \"0\" */\n      0x40\n      dup1\n      mload\n      dup1\n      dup3\n      add\n      swap1\n      swap2\n      mstore\n      0x01\n      dup2\n      mstore\n      shl(0xfc, 0x03)\n      0x20\n      dup3\n      add\n      mstore\n      jump(tag_99)\n        /* \"https://raw.githubusercontent.com/OpenZeppelin/openzeppelin-contracts/v3.4.0/contracts/utils/Strings.sol\":479:530  if (value == 0) {... */\n    tag_244:\n        /* \"https://raw.githubusercontent.com/OpenZeppelin/openzeppelin-contracts/v3.4.0/contracts/utils/Strings.sol\":554:559  value */\n      dup2\n        /* \"https://raw.githubusercontent.com/OpenZeppelin/openzeppelin-contracts/v3.4.0/contracts/utils/Strings.sol\":539:551  uint256 temp */\n      0x00\n        /* \"https://raw.githubusercontent.com/OpenZeppelin/openzeppelin-contracts/v3.4.0/contracts/utils/Strings.sol\":593:668  while (temp != 0) {... */\n    tag_245:\n        /* \"https://raw.githubusercontent.com/OpenZeppelin/openzeppelin-contracts/v3.4.0/contracts/utils/Strings.sol\":600:609  temp != 0 */\n      dup2\n      iszero\n        /* \"https://raw.githubusercontent.com/OpenZeppelin/openzeppelin-contracts/v3.4.0/contracts/utils/Strings.sol\":593:668  while (temp != 0) {... */\n      tag_246\n      jumpi\n        /* \"https://raw.githubusercontent.com/OpenZeppelin/openzeppelin-contracts/v3.4.0/contracts/utils/Strings.sol\":625:633  digits++ */\n      0x01\n      add\n        /* \"https://raw.githubusercontent.com/OpenZeppelin/openzeppelin-contracts/v3.4.0/contracts/utils/Strings.sol\":655:657  10 */\n      0x0a\n        /* \"https://raw.githubusercontent.com/OpenZeppelin/openzeppelin-contracts/v3.4.0/contracts/utils/Strings.sol\":647:657  temp /= 10 */\n      dup3\n      div\n      swap2\n      pop\n        /* \"https://raw.githubusercontent.com/OpenZeppelin/openzeppelin-contracts/v3.4.0/contracts/utils/Strings.sol\":593:668  while (temp != 0) {... */\n      jump(tag_245)\n    tag_246:\n        /* \"https://raw.githubusercontent.com/OpenZeppelin/openzeppelin-contracts/v3.4.0/contracts/utils/Strings.sol\":677:696  bytes memory buffer */\n      0x00\n        /* \"https://raw.githubusercontent.com/OpenZeppelin/openzeppelin-contracts/v3.4.0/contracts/utils/Strings.sol\":709:715  digits */\n      dup2\n        /* \"https://raw.githubusercontent.com/OpenZeppelin/openzeppelin-contracts/v3.4.0/contracts/utils/Strings.sol\":699:716  new bytes(digits) */\n      0xffffffffffffffff\n      dup2\n      gt\n      dup1\n      iszero\n      tag_248\n      jumpi\n      0x00\n      dup1\n      revert\n    tag_248:\n      pop\n      mload(0x40)\n      swap1\n      dup1\n      dup3\n      mstore\n      dup1\n      0x1f\n      add\n      not(0x1f)\n      and\n      0x20\n      add\n      dup3\n      add\n      0x40\n      mstore\n      dup1\n      iszero\n      tag_249\n      jumpi\n      0x20\n      dup3\n      add\n      dup2\n      dup1\n      calldatasize\n      dup4\n      calldatacopy\n      add\n      swap1\n      pop\n    tag_249:\n      pop\n        /* \"https://raw.githubusercontent.com/OpenZeppelin/openzeppelin-contracts/v3.4.0/contracts/utils/Strings.sol\":769:774  value */\n      dup6\n      swap4\n      pop\n        /* \"https://raw.githubusercontent.com/OpenZeppelin/openzeppelin-contracts/v3.4.0/contracts/utils/Strings.sol\":677:716  bytes memory buffer = new bytes(digits) */\n      swap1\n      pop\n      not(0x00)\n        /* \"https://raw.githubusercontent.com/OpenZeppelin/openzeppelin-contracts/v3.4.0/contracts/utils/Strings.sol\":742:752  digits - 1 */\n      dup3\n      add\n        /* \"https://raw.githubusercontent.com/OpenZeppelin/openzeppelin-contracts/v3.4.0/contracts/utils/Strings.sol\":784:898  while (temp != 0) {... */\n    tag_250:\n        /* \"https://raw.githubusercontent.com/OpenZeppelin/openzeppelin-contracts/v3.4.0/contracts/utils/Strings.sol\":791:800  temp != 0 */\n      dup4\n      iszero\n        /* \"https://raw.githubusercontent.com/OpenZeppelin/openzeppelin-contracts/v3.4.0/contracts/utils/Strings.sol\":784:898  while (temp != 0) {... */\n      tag_251\n      jumpi\n        /* \"https://raw.githubusercontent.com/OpenZeppelin/openzeppelin-contracts/v3.4.0/contracts/utils/Strings.sol\":859:861  10 */\n      0x0a\n        /* \"https://raw.githubusercontent.com/OpenZeppelin/openzeppelin-contracts/v3.4.0/contracts/utils/Strings.sol\":852:856  temp */\n      dup5\n        /* \"https://raw.githubusercontent.com/OpenZeppelin/openzeppelin-contracts/v3.4.0/contracts/utils/Strings.sol\":852:861  temp % 10 */\n      mod\n        /* \"https://raw.githubusercontent.com/OpenZeppelin/openzeppelin-contracts/v3.4.0/contracts/utils/Strings.sol\":847:849  48 */\n      0x30\n        /* \"https://raw.githubusercontent.com/OpenZeppelin/openzeppelin-contracts/v3.4.0/contracts/utils/Strings.sol\":847:861  48 + temp % 10 */\n      add\n        /* \"https://raw.githubusercontent.com/OpenZeppelin/openzeppelin-contracts/v3.4.0/contracts/utils/Strings.sol\":834:863  bytes1(uint8(48 + temp % 10)) */\n      0xf8\n      shl\n        /* \"https://raw.githubusercontent.com/OpenZeppelin/openzeppelin-contracts/v3.4.0/contracts/utils/Strings.sol\":816:822  buffer */\n      dup3\n        /* \"https://raw.githubusercontent.com/OpenZeppelin/openzeppelin-contracts/v3.4.0/contracts/utils/Strings.sol\":823:830  index-- */\n      dup3\n      dup1\n      0x01\n      swap1\n      sub\n      swap4\n      pop\n        /* \"https://raw.githubusercontent.com/OpenZeppelin/openzeppelin-contracts/v3.4.0/contracts/utils/Strings.sol\":816:831  buffer[index--] */\n      dup2\n      mload\n      dup2\n      lt\n      tag_253\n      jumpi\n      invalid\n    tag_253:\n      0x20\n      add\n      add\n        /* \"https://raw.githubusercontent.com/OpenZeppelin/openzeppelin-contracts/v3.4.0/contracts/utils/Strings.sol\":816:863  buffer[index--] = bytes1(uint8(48 + temp % 10)) */\n      swap1\n      not(sub(shl(0xf8, 0x01), 0x01))\n      and\n      swap1\n      dup2\n      0x00\n      byte\n      swap1\n      mstore8\n      pop\n        /* \"https://raw.githubusercontent.com/OpenZeppelin/openzeppelin-contracts/v3.4.0/contracts/utils/Strings.sol\":885:887  10 */\n      0x0a\n        /* \"https://raw.githubusercontent.com/OpenZeppelin/openzeppelin-contracts/v3.4.0/contracts/utils/Strings.sol\":877:887  temp /= 10 */\n      dup5\n      div\n      swap4\n      pop\n        /* \"https://raw.githubusercontent.com/OpenZeppelin/openzeppelin-contracts/v3.4.0/contracts/utils/Strings.sol\":784:898  while (temp != 0) {... */\n      jump(tag_250)\n    tag_251:\n      pop\n        /* \"https://raw.githubusercontent.com/OpenZeppelin/openzeppelin-contracts/v3.4.0/contracts/utils/Strings.sol\":921:927  buffer */\n      swap5\n        /* \"https://raw.githubusercontent.com/OpenZeppelin/openzeppelin-contracts/v3.4.0/contracts/utils/Strings.sol\":210:935  function toString(uint256 value) internal pure returns (string memory) {... */\n      swap4\n      pop\n      pop\n      pop\n      pop\n      jump\t// out\n        /* \"https://raw.githubusercontent.com/OpenZeppelin/openzeppelin-contracts/v3.4.0/contracts/utils/Counters.sol\":1224:1402  function increment(Counter storage counter) internal {... */\n    tag_189:\n        /* \"https://raw.githubusercontent.com/OpenZeppelin/openzeppelin-contracts/v3.4.0/contracts/utils/Counters.sol\":1376:1395  counter._value += 1 */\n      dup1\n      sload\n        /* \"https://raw.githubusercontent.com/OpenZeppelin/openzeppelin-contracts/v3.4.0/contracts/utils/Counters.sol\":1394:1395  1 */\n      0x01\n        /* \"https://raw.githubusercontent.com/OpenZeppelin/openzeppelin-contracts/v3.4.0/contracts/utils/Counters.sol\":1376:1395  counter._value += 1 */\n      add\n      swap1\n      sstore\n        /* \"https://raw.githubusercontent.com/OpenZeppelin/openzeppelin-contracts/v3.4.0/contracts/utils/Counters.sol\":1224:1402  function increment(Counter storage counter) internal {... */\n      jump\t// out\n        /* \"https://raw.githubusercontent.com/OpenZeppelin/openzeppelin-contracts/v3.4.0/contracts/utils/Counters.sol\":1106:1218  function current(Counter storage counter) internal view returns (uint256) {... */\n    tag_191:\n        /* \"https://raw.githubusercontent.com/OpenZeppelin/openzeppelin-contracts/v3.4.0/contracts/utils/Counters.sol\":1197:1211  counter._value */\n      sload\n      swap1\n        /* \"https://raw.githubusercontent.com/OpenZeppelin/openzeppelin-contracts/v3.4.0/contracts/utils/Counters.sol\":1106:1218  function current(Counter storage counter) internal view returns (uint256) {... */\n      jump\t// out\n        /* \"https://raw.githubusercontent.com/OpenZeppelin/openzeppelin-contracts/v3.4.0/contracts/token/ERC721/ERC721.sol\":12246:12639  function _mint(address to, uint256 tokenId) internal virtual {... */\n    tag_193:\n      sub(shl(0xa0, 0x01), 0x01)\n        /* \"https://raw.githubusercontent.com/OpenZeppelin/openzeppelin-contracts/v3.4.0/contracts/token/ERC721/ERC721.sol\":12325:12341  to != address(0) */\n      dup3\n      and\n        /* \"https://raw.githubusercontent.com/OpenZeppelin/openzeppelin-contracts/v3.4.0/contracts/token/ERC721/ERC721.sol\":12317:12378  require(to != address(0), \"ERC721: mint to the zero address\") */\n      tag_258\n      jumpi\n      0x40\n      dup1\n      mload\n      shl(0xe5, 0x461bcd)\n      dup2\n      mstore\n      0x20\n      0x04\n      dup3\n      add\n      dup2\n      swap1\n      mstore\n      0x24\n      dup3\n      add\n      mstore\n      0x4552433732313a206d696e7420746f20746865207a65726f2061646472657373\n      0x44\n      dup3\n      add\n      mstore\n      swap1\n      mload\n      swap1\n      dup2\n      swap1\n      sub\n      0x64\n      add\n      swap1\n      revert\n    tag_258:\n        /* \"https://raw.githubusercontent.com/OpenZeppelin/openzeppelin-contracts/v3.4.0/contracts/token/ERC721/ERC721.sol\":12397:12413  _exists(tokenId) */\n      tag_259\n        /* \"https://raw.githubusercontent.com/OpenZeppelin/openzeppelin-contracts/v3.4.0/contracts/token/ERC721/ERC721.sol\":12405:12412  tokenId */\n      dup2\n        /* \"https://raw.githubusercontent.com/OpenZeppelin/openzeppelin-contracts/v3.4.0/contracts/token/ERC721/ERC721.sol\":12397:12404  _exists */\n      tag_106\n        /* \"https://raw.githubusercontent.com/OpenZeppelin/openzeppelin-contracts/v3.4.0/contracts/token/ERC721/ERC721.sol\":12397:12413  _exists(tokenId) */\n      jump\t// in\n    tag_259:\n        /* \"https://raw.githubusercontent.com/OpenZeppelin/openzeppelin-contracts/v3.4.0/contracts/token/ERC721/ERC721.sol\":12396:12413  !_exists(tokenId) */\n      iszero\n        /* \"https://raw.githubusercontent.com/OpenZeppelin/openzeppelin-contracts/v3.4.0/contracts/token/ERC721/ERC721.sol\":12388:12446  require(!_exists(tokenId), \"ERC721: token already minted\") */\n      tag_260\n      jumpi\n      0x40\n      dup1\n      mload\n      shl(0xe5, 0x461bcd)\n      dup2\n      mstore\n      0x20\n      0x04\n      dup3\n      add\n      mstore\n      0x1c\n      0x24\n      dup3\n      add\n      mstore\n      0x4552433732313a20746f6b656e20616c7265616479206d696e74656400000000\n      0x44\n      dup3\n      add\n      mstore\n      swap1\n      mload\n      swap1\n      dup2\n      swap1\n      sub\n      0x64\n      add\n      swap1\n      revert\n    tag_260:\n        /* \"https://raw.githubusercontent.com/OpenZeppelin/openzeppelin-contracts/v3.4.0/contracts/token/ERC721/ERC721.sol\":12457:12502  _beforeTokenTransfer(address(0), to, tokenId) */\n      tag_261\n        /* \"https://raw.githubusercontent.com/OpenZeppelin/openzeppelin-contracts/v3.4.0/contracts/token/ERC721/ERC721.sol\":12486:12487  0 */\n      0x00\n        /* \"https://raw.githubusercontent.com/OpenZeppelin/openzeppelin-contracts/v3.4.0/contracts/token/ERC721/ERC721.sol\":12490:12492  to */\n      dup4\n        /* \"https://raw.githubusercontent.com/OpenZeppelin/openzeppelin-contracts/v3.4.0/contracts/token/ERC721/ERC721.sol\":12494:12501  tokenId */\n      dup4\n        /* \"https://raw.githubusercontent.com/OpenZeppelin/openzeppelin-contracts/v3.4.0/contracts/token/ERC721/ERC721.sol\":12457:12477  _beforeTokenTransfer */\n      tag_117\n        /* \"https://raw.githubusercontent.com/OpenZeppelin/openzeppelin-contracts/v3.4.0/contracts/token/ERC721/ERC721.sol\":12457:12502  _beforeTokenTransfer(address(0), to, tokenId) */\n      jump\t// in\n    tag_261:\n      sub(shl(0xa0, 0x01), 0x01)\n        /* \"https://raw.githubusercontent.com/OpenZeppelin/openzeppelin-contracts/v3.4.0/contracts/token/ERC721/ERC721.sol\":12513:12530  _holderTokens[to] */\n      dup3\n      and\n      0x00\n      swap1\n      dup2\n      mstore\n        /* \"https://raw.githubusercontent.com/OpenZeppelin/openzeppelin-contracts/v3.4.0/contracts/token/ERC721/ERC721.sol\":12513:12526  _holderTokens */\n      0x01\n        /* \"https://raw.githubusercontent.com/OpenZeppelin/openzeppelin-contracts/v3.4.0/contracts/token/ERC721/ERC721.sol\":12513:12530  _holderTokens[to] */\n      0x20\n      mstore\n      0x40\n      swap1\n      keccak256\n        /* \"https://raw.githubusercontent.com/OpenZeppelin/openzeppelin-contracts/v3.4.0/contracts/token/ERC721/ERC721.sol\":12513:12543  _holderTokens[to].add(tokenId) */\n      tag_262\n      swap1\n        /* \"https://raw.githubusercontent.com/OpenZeppelin/openzeppelin-contracts/v3.4.0/contracts/token/ERC721/ERC721.sol\":12535:12542  tokenId */\n      dup3\n        /* \"https://raw.githubusercontent.com/OpenZeppelin/openzeppelin-contracts/v3.4.0/contracts/token/ERC721/ERC721.sol\":12513:12534  _holderTokens[to].add */\n      tag_223\n        /* \"https://raw.githubusercontent.com/OpenZeppelin/openzeppelin-contracts/v3.4.0/contracts/token/ERC721/ERC721.sol\":12513:12543  _holderTokens[to].add(tokenId) */\n      jump\t// in\n    tag_262:\n      pop\n        /* \"https://raw.githubusercontent.com/OpenZeppelin/openzeppelin-contracts/v3.4.0/contracts/token/ERC721/ERC721.sol\":12554:12583  _tokenOwners.set(tokenId, to) */\n      tag_263\n        /* \"https://raw.githubusercontent.com/OpenZeppelin/openzeppelin-contracts/v3.4.0/contracts/token/ERC721/ERC721.sol\":12554:12566  _tokenOwners */\n      0x02\n        /* \"https://raw.githubusercontent.com/OpenZeppelin/openzeppelin-contracts/v3.4.0/contracts/token/ERC721/ERC721.sol\":12571:12578  tokenId */\n      dup3\n        /* \"https://raw.githubusercontent.com/OpenZeppelin/openzeppelin-contracts/v3.4.0/contracts/token/ERC721/ERC721.sol\":12580:12582  to */\n      dup5\n        /* \"https://raw.githubusercontent.com/OpenZeppelin/openzeppelin-contracts/v3.4.0/contracts/token/ERC721/ERC721.sol\":12554:12570  _tokenOwners.set */\n      tag_225\n        /* \"https://raw.githubusercontent.com/OpenZeppelin/openzeppelin-contracts/v3.4.0/contracts/token/ERC721/ERC721.sol\":12554:12583  _tokenOwners.set(tokenId, to) */\n      jump\t// in\n    tag_263:\n      pop\n        /* \"https://raw.githubusercontent.com/OpenZeppelin/openzeppelin-contracts/v3.4.0/contracts/token/ERC721/ERC721.sol\":12599:12632  Transfer(address(0), to, tokenId) */\n      mload(0x40)\n        /* \"https://raw.githubusercontent.com/OpenZeppelin/openzeppelin-contracts/v3.4.0/contracts/token/ERC721/ERC721.sol\":12624:12631  tokenId */\n      dup2\n      swap1\n      sub(shl(0xa0, 0x01), 0x01)\n        /* \"https://raw.githubusercontent.com/OpenZeppelin/openzeppelin-contracts/v3.4.0/contracts/token/ERC721/ERC721.sol\":12599:12632  Transfer(address(0), to, tokenId) */\n      dup5\n      and\n      swap1\n        /* \"https://raw.githubusercontent.com/OpenZeppelin/openzeppelin-contracts/v3.4.0/contracts/token/ERC721/ERC721.sol\":12616:12617  0 */\n      0x00\n      swap1\n        /* \"https://raw.githubusercontent.com/OpenZeppelin/openzeppelin-contracts/v3.4.0/contracts/token/ERC721/ERC721.sol\":12599:12632  Transfer(address(0), to, tokenId) */\n      0xddf252ad1be2c89b69c2b068fc378daa952ba7f163c4a11628f55a4df523b3ef\n      swap1\n        /* \"https://raw.githubusercontent.com/OpenZeppelin/openzeppelin-contracts/v3.4.0/contracts/token/ERC721/ERC721.sol\":12616:12617  0 */\n      dup3\n      swap1\n        /* \"https://raw.githubusercontent.com/OpenZeppelin/openzeppelin-contracts/v3.4.0/contracts/token/ERC721/ERC721.sol\":12599:12632  Transfer(address(0), to, tokenId) */\n      log4\n        /* \"https://raw.githubusercontent.com/OpenZeppelin/openzeppelin-contracts/v3.4.0/contracts/token/ERC721/ERC721.sol\":12246:12639  function _mint(address to, uint256 tokenId) internal virtual {... */\n      pop\n      pop\n      jump\t// out\n        /* \"https://raw.githubusercontent.com/OpenZeppelin/openzeppelin-contracts/v3.4.0/contracts/token/ERC721/ERC721.sol\":14438:14650  function _setTokenURI(uint256 tokenId, string memory _tokenURI) internal virtual {... */\n    tag_195:\n        /* \"https://raw.githubusercontent.com/OpenZeppelin/openzeppelin-contracts/v3.4.0/contracts/token/ERC721/ERC721.sol\":14537:14553  _exists(tokenId) */\n      tag_265\n        /* \"https://raw.githubusercontent.com/OpenZeppelin/openzeppelin-contracts/v3.4.0/contracts/token/ERC721/ERC721.sol\":14545:14552  tokenId */\n      dup3\n        /* \"https://raw.githubusercontent.com/OpenZeppelin/openzeppelin-contracts/v3.4.0/contracts/token/ERC721/ERC721.sol\":14537:14544  _exists */\n      tag_106\n        /* \"https://raw.githubusercontent.com/OpenZeppelin/openzeppelin-contracts/v3.4.0/contracts/token/ERC721/ERC721.sol\":14537:14553  _exists(tokenId) */\n      jump\t// in\n    tag_265:\n        /* \"https://raw.githubusercontent.com/OpenZeppelin/openzeppelin-contracts/v3.4.0/contracts/token/ERC721/ERC721.sol\":14529:14602  require(_exists(tokenId), \"ERC721Metadata: URI set of nonexistent token\") */\n      tag_266\n      jumpi\n      mload(0x40)\n      shl(0xe5, 0x461bcd)\n      dup2\n      mstore\n      0x04\n      add\n      dup1\n      dup1\n      0x20\n      add\n      dup3\n      dup2\n      sub\n      dup3\n      mstore\n      0x2c\n      dup2\n      mstore\n      0x20\n      add\n      dup1\n      data_94be4a260caaeac1b145f03ffa2e70bc612b64982d04f24073aaf3a5f9009978\n      0x2c\n      swap2\n      codecopy\n      0x40\n      add\n      swap2\n      pop\n      pop\n      mload(0x40)\n      dup1\n      swap2\n      sub\n      swap1\n      revert\n    tag_266:\n        /* \"https://raw.githubusercontent.com/OpenZeppelin/openzeppelin-contracts/v3.4.0/contracts/token/ERC721/ERC721.sol\":14612:14631  _tokenURIs[tokenId] */\n      0x00\n      dup3\n      dup2\n      mstore\n        /* \"https://raw.githubusercontent.com/OpenZeppelin/openzeppelin-contracts/v3.4.0/contracts/token/ERC721/ERC721.sol\":14612:14622  _tokenURIs */\n      0x08\n        /* \"https://raw.githubusercontent.com/OpenZeppelin/openzeppelin-contracts/v3.4.0/contracts/token/ERC721/ERC721.sol\":14612:14631  _tokenURIs[tokenId] */\n      0x20\n      swap1\n      dup2\n      mstore\n      0x40\n      swap1\n      swap2\n      keccak256\n        /* \"https://raw.githubusercontent.com/OpenZeppelin/openzeppelin-contracts/v3.4.0/contracts/token/ERC721/ERC721.sol\":14612:14643  _tokenURIs[tokenId] = _tokenURI */\n      dup3\n      mload\n      tag_117\n      swap3\n      dup5\n      add\n      swap1\n      tag_268\n      jump\t// in\n        /* \"https://raw.githubusercontent.com/OpenZeppelin/openzeppelin-contracts/v3.4.0/contracts/utils/EnumerableMap.sol\":7588:7737  function contains(UintToAddressMap storage map, uint256 key) internal view returns (bool) {... */\n    tag_198:\n        /* \"https://raw.githubusercontent.com/OpenZeppelin/openzeppelin-contracts/v3.4.0/contracts/utils/EnumerableMap.sol\":7672:7676  bool */\n      0x00\n        /* \"https://raw.githubusercontent.com/OpenZeppelin/openzeppelin-contracts/v3.4.0/contracts/utils/EnumerableMap.sol\":7695:7730  _contains(map._inner, bytes32(key)) */\n      tag_130\n        /* \"https://raw.githubusercontent.com/OpenZeppelin/openzeppelin-contracts/v3.4.0/contracts/utils/EnumerableMap.sol\":7705:7708  map */\n      dup4\n        /* \"https://raw.githubusercontent.com/OpenZeppelin/openzeppelin-contracts/v3.4.0/contracts/utils/EnumerableMap.sol\":7725:7728  key */\n      dup4\n        /* \"https://raw.githubusercontent.com/OpenZeppelin/openzeppelin-contracts/v3.4.0/contracts/utils/EnumerableMap.sol\":7695:7704  _contains */\n      tag_271\n        /* \"https://raw.githubusercontent.com/OpenZeppelin/openzeppelin-contracts/v3.4.0/contracts/utils/EnumerableMap.sol\":7695:7730  _contains(map._inner, bytes32(key)) */\n      jump\t// in\n        /* \"https://raw.githubusercontent.com/OpenZeppelin/openzeppelin-contracts/v3.4.0/contracts/utils/EnumerableSet.sol\":8365:8500  function remove(UintSet storage set, uint256 value) internal returns (bool) {... */\n    tag_221:\n        /* \"https://raw.githubusercontent.com/OpenZeppelin/openzeppelin-contracts/v3.4.0/contracts/utils/EnumerableSet.sol\":8435:8439  bool */\n      0x00\n        /* \"https://raw.githubusercontent.com/OpenZeppelin/openzeppelin-contracts/v3.4.0/contracts/utils/EnumerableSet.sol\":8458:8493  _remove(set._inner, bytes32(value)) */\n      tag_130\n        /* \"https://raw.githubusercontent.com/OpenZeppelin/openzeppelin-contracts/v3.4.0/contracts/utils/EnumerableSet.sol\":8466:8469  set */\n      dup4\n        /* \"https://raw.githubusercontent.com/OpenZeppelin/openzeppelin-contracts/v3.4.0/contracts/utils/EnumerableSet.sol\":8486:8491  value */\n      dup4\n        /* \"https://raw.githubusercontent.com/OpenZeppelin/openzeppelin-contracts/v3.4.0/contracts/utils/EnumerableSet.sol\":8458:8465  _remove */\n      tag_276\n        /* \"https://raw.githubusercontent.com/OpenZeppelin/openzeppelin-contracts/v3.4.0/contracts/utils/EnumerableSet.sol\":8458:8493  _remove(set._inner, bytes32(value)) */\n      jump\t// in\n        /* \"https://raw.githubusercontent.com/OpenZeppelin/openzeppelin-contracts/v3.4.0/contracts/utils/EnumerableSet.sol\":8068:8197  function add(UintSet storage set, uint256 value) internal returns (bool) {... */\n    tag_223:\n        /* \"https://raw.githubusercontent.com/OpenZeppelin/openzeppelin-contracts/v3.4.0/contracts/utils/EnumerableSet.sol\":8135:8139  bool */\n      0x00\n        /* \"https://raw.githubusercontent.com/OpenZeppelin/openzeppelin-contracts/v3.4.0/contracts/utils/EnumerableSet.sol\":8158:8190  _add(set._inner, bytes32(value)) */\n      tag_130\n        /* \"https://raw.githubusercontent.com/OpenZeppelin/openzeppelin-contracts/v3.4.0/contracts/utils/EnumerableSet.sol\":8163:8166  set */\n      dup4\n        /* \"https://raw.githubusercontent.com/OpenZeppelin/openzeppelin-contracts/v3.4.0/contracts/utils/EnumerableSet.sol\":8183:8188  value */\n      dup4\n        /* \"https://raw.githubusercontent.com/OpenZeppelin/openzeppelin-contracts/v3.4.0/contracts/utils/EnumerableSet.sol\":8158:8162  _add */\n      tag_279\n        /* \"https://raw.githubusercontent.com/OpenZeppelin/openzeppelin-contracts/v3.4.0/contracts/utils/EnumerableSet.sol\":8158:8190  _add(set._inner, bytes32(value)) */\n      jump\t// in\n        /* \"https://raw.githubusercontent.com/OpenZeppelin/openzeppelin-contracts/v3.4.0/contracts/utils/EnumerableMap.sol\":7027:7210  function set(UintToAddressMap storage map, uint256 key, address value) internal returns (bool) {... */\n    tag_225:\n        /* \"https://raw.githubusercontent.com/OpenZeppelin/openzeppelin-contracts/v3.4.0/contracts/utils/EnumerableMap.sol\":7116:7120  bool */\n      0x00\n        /* \"https://raw.githubusercontent.com/OpenZeppelin/openzeppelin-contracts/v3.4.0/contracts/utils/EnumerableMap.sol\":7139:7203  _set(map._inner, bytes32(key), bytes32(uint256(uint160(value)))) */\n      tag_194\n        /* \"https://raw.githubusercontent.com/OpenZeppelin/openzeppelin-contracts/v3.4.0/contracts/utils/EnumerableMap.sol\":7144:7147  map */\n      dup5\n        /* \"https://raw.githubusercontent.com/OpenZeppelin/openzeppelin-contracts/v3.4.0/contracts/utils/EnumerableMap.sol\":7164:7167  key */\n      dup5\n      sub(shl(0xa0, 0x01), 0x01)\n        /* \"https://raw.githubusercontent.com/OpenZeppelin/openzeppelin-contracts/v3.4.0/contracts/utils/EnumerableMap.sol\":7178:7201  uint256(uint160(value)) */\n      dup6\n      and\n        /* \"https://raw.githubusercontent.com/OpenZeppelin/openzeppelin-contracts/v3.4.0/contracts/utils/EnumerableMap.sol\":7139:7143  _set */\n      tag_282\n        /* \"https://raw.githubusercontent.com/OpenZeppelin/openzeppelin-contracts/v3.4.0/contracts/utils/EnumerableMap.sol\":7139:7203  _set(map._inner, bytes32(key), bytes32(uint256(uint160(value)))) */\n      jump\t// in\n        /* \"https://raw.githubusercontent.com/OpenZeppelin/openzeppelin-contracts/v3.4.0/contracts/utils/EnumerableSet.sol\":4452:4653  function _at(Set storage set, uint256 index) private view returns (bytes32) {... */\n    tag_228:\n        /* \"https://raw.githubusercontent.com/OpenZeppelin/openzeppelin-contracts/v3.4.0/contracts/utils/EnumerableSet.sol\":4546:4564  set._values.length */\n      dup2\n      sload\n        /* \"https://raw.githubusercontent.com/OpenZeppelin/openzeppelin-contracts/v3.4.0/contracts/utils/EnumerableSet.sol\":4519:4526  bytes32 */\n      0x00\n      swap1\n        /* \"https://raw.githubusercontent.com/OpenZeppelin/openzeppelin-contracts/v3.4.0/contracts/utils/EnumerableSet.sol\":4546:4572  set._values.length > index */\n      dup3\n      lt\n        /* \"https://raw.githubusercontent.com/OpenZeppelin/openzeppelin-contracts/v3.4.0/contracts/utils/EnumerableSet.sol\":4538:4611  require(set._values.length > index, \"EnumerableSet: index out of bounds\") */\n      tag_284\n      jumpi\n      mload(0x40)\n      shl(0xe5, 0x461bcd)\n      dup2\n      mstore\n      0x04\n      add\n      dup1\n      dup1\n      0x20\n      add\n      dup3\n      dup2\n      sub\n      dup3\n      mstore\n      0x22\n      dup2\n      mstore\n      0x20\n      add\n      dup1\n      data_045d6834e6193a687012a3ad777f612279e549b6945364d9d2324f48610d3cbb\n      0x22\n      swap2\n      codecopy\n      0x40\n      add\n      swap2\n      pop\n      pop\n      mload(0x40)\n      dup1\n      swap2\n      sub\n      swap1\n      revert\n    tag_284:\n        /* \"https://raw.githubusercontent.com/OpenZeppelin/openzeppelin-contracts/v3.4.0/contracts/utils/EnumerableSet.sol\":4628:4631  set */\n      dup3\n        /* \"https://raw.githubusercontent.com/OpenZeppelin/openzeppelin-contracts/v3.4.0/contracts/utils/EnumerableSet.sol\":4628:4639  set._values */\n      0x00\n      add\n        /* \"https://raw.githubusercontent.com/OpenZeppelin/openzeppelin-contracts/v3.4.0/contracts/utils/EnumerableSet.sol\":4640:4645  index */\n      dup3\n        /* \"https://raw.githubusercontent.com/OpenZeppelin/openzeppelin-contracts/v3.4.0/contracts/utils/EnumerableSet.sol\":4628:4646  set._values[index] */\n      dup2\n      sload\n      dup2\n      lt\n      tag_285\n      jumpi\n      invalid\n    tag_285:\n      swap1\n      0x00\n      mstore\n      keccak256(0x00, 0x20)\n      add\n      sload\n        /* \"https://raw.githubusercontent.com/OpenZeppelin/openzeppelin-contracts/v3.4.0/contracts/utils/EnumerableSet.sol\":4621:4646  return set._values[index] */\n      swap1\n      pop\n        /* \"https://raw.githubusercontent.com/OpenZeppelin/openzeppelin-contracts/v3.4.0/contracts/utils/EnumerableSet.sol\":4452:4653  function _at(Set storage set, uint256 index) private view returns (bytes32) {... */\n      swap3\n      swap2\n      pop\n      pop\n      jump\t// out\n        /* \"https://raw.githubusercontent.com/OpenZeppelin/openzeppelin-contracts/v3.4.0/contracts/utils/EnumerableMap.sol\":4942:5216  function _at(Map storage map, uint256 index) private view returns (bytes32, bytes32) {... */\n    tag_231:\n        /* \"https://raw.githubusercontent.com/OpenZeppelin/openzeppelin-contracts/v3.4.0/contracts/utils/EnumerableMap.sol\":5045:5064  map._entries.length */\n      dup2\n      sload\n        /* \"https://raw.githubusercontent.com/OpenZeppelin/openzeppelin-contracts/v3.4.0/contracts/utils/EnumerableMap.sol\":5009:5016  bytes32 */\n      0x00\n      swap1\n      dup2\n      swap1\n        /* \"https://raw.githubusercontent.com/OpenZeppelin/openzeppelin-contracts/v3.4.0/contracts/utils/EnumerableMap.sol\":5045:5072  map._entries.length > index */\n      dup4\n      lt\n        /* \"https://raw.githubusercontent.com/OpenZeppelin/openzeppelin-contracts/v3.4.0/contracts/utils/EnumerableMap.sol\":5037:5111  require(map._entries.length > index, \"EnumerableMap: index out of bounds\") */\n      tag_288\n      jumpi\n      mload(0x40)\n      shl(0xe5, 0x461bcd)\n      dup2\n      mstore\n      0x04\n      add\n      dup1\n      dup1\n      0x20\n      add\n      dup3\n      dup2\n      sub\n      dup3\n      mstore\n      0x22\n      dup2\n      mstore\n      0x20\n      add\n      dup1\n      data_86631030b9066a18616a068fc09fce83d18af4765cb1d2166fa475228f4db155\n      0x22\n      swap2\n      codecopy\n      0x40\n      add\n      swap2\n      pop\n      pop\n      mload(0x40)\n      dup1\n      swap2\n      sub\n      swap1\n      revert\n    tag_288:\n        /* \"https://raw.githubusercontent.com/OpenZeppelin/openzeppelin-contracts/v3.4.0/contracts/utils/EnumerableMap.sol\":5122:5144  MapEntry storage entry */\n      0x00\n        /* \"https://raw.githubusercontent.com/OpenZeppelin/openzeppelin-contracts/v3.4.0/contracts/utils/EnumerableMap.sol\":5147:5150  map */\n      dup5\n        /* \"https://raw.githubusercontent.com/OpenZeppelin/openzeppelin-contracts/v3.4.0/contracts/utils/EnumerableMap.sol\":5147:5159  map._entries */\n      0x00\n      add\n        /* \"https://raw.githubusercontent.com/OpenZeppelin/openzeppelin-contracts/v3.4.0/contracts/utils/EnumerableMap.sol\":5160:5165  index */\n      dup5\n        /* \"https://raw.githubusercontent.com/OpenZeppelin/openzeppelin-contracts/v3.4.0/contracts/utils/EnumerableMap.sol\":5147:5166  map._entries[index] */\n      dup2\n      sload\n      dup2\n      lt\n      tag_289\n      jumpi\n      invalid\n    tag_289:\n      swap1\n      0x00\n      mstore\n      keccak256(0x00, 0x20)\n      swap1\n      0x02\n      mul\n      add\n        /* \"https://raw.githubusercontent.com/OpenZeppelin/openzeppelin-contracts/v3.4.0/contracts/utils/EnumerableMap.sol\":5122:5166  MapEntry storage entry = map._entries[index] */\n      swap1\n      pop\n        /* \"https://raw.githubusercontent.com/OpenZeppelin/openzeppelin-contracts/v3.4.0/contracts/utils/EnumerableMap.sol\":5184:5189  entry */\n      dup1\n        /* \"https://raw.githubusercontent.com/OpenZeppelin/openzeppelin-contracts/v3.4.0/contracts/utils/EnumerableMap.sol\":5184:5194  entry._key */\n      0x00\n      add\n      sload\n        /* \"https://raw.githubusercontent.com/OpenZeppelin/openzeppelin-contracts/v3.4.0/contracts/utils/EnumerableMap.sol\":5196:5201  entry */\n      dup2\n        /* \"https://raw.githubusercontent.com/OpenZeppelin/openzeppelin-contracts/v3.4.0/contracts/utils/EnumerableMap.sol\":5196:5208  entry._value */\n      0x01\n      add\n      sload\n        /* \"https://raw.githubusercontent.com/OpenZeppelin/openzeppelin-contracts/v3.4.0/contracts/utils/EnumerableMap.sol\":5176:5209  return (entry._key, entry._value) */\n      swap3\n      pop\n      swap3\n      pop\n      pop\n        /* \"https://raw.githubusercontent.com/OpenZeppelin/openzeppelin-contracts/v3.4.0/contracts/utils/EnumerableMap.sol\":4942:5216  function _at(Map storage map, uint256 index) private view returns (bytes32, bytes32) {... */\n      swap3\n      pop\n      swap3\n      swap1\n      pop\n      jump\t// out\n        /* \"https://raw.githubusercontent.com/OpenZeppelin/openzeppelin-contracts/v3.4.0/contracts/utils/EnumerableMap.sol\":6403:6718  function _get(Map storage map, bytes32 key, string memory errorMessage) private view returns (bytes32) {... */\n    tag_234:\n        /* \"https://raw.githubusercontent.com/OpenZeppelin/openzeppelin-contracts/v3.4.0/contracts/utils/EnumerableMap.sol\":6497:6504  bytes32 */\n      0x00\n        /* \"https://raw.githubusercontent.com/OpenZeppelin/openzeppelin-contracts/v3.4.0/contracts/utils/EnumerableMap.sol\":6535:6552  map._indexes[key] */\n      dup3\n      dup2\n      mstore\n        /* \"https://raw.githubusercontent.com/OpenZeppelin/openzeppelin-contracts/v3.4.0/contracts/utils/EnumerableMap.sol\":6535:6547  map._indexes */\n      0x01\n      dup5\n      add\n        /* \"https://raw.githubusercontent.com/OpenZeppelin/openzeppelin-contracts/v3.4.0/contracts/utils/EnumerableMap.sol\":6535:6552  map._indexes[key] */\n      0x20\n      mstore\n      0x40\n      dup2\n      keccak256\n      sload\n        /* \"https://raw.githubusercontent.com/OpenZeppelin/openzeppelin-contracts/v3.4.0/contracts/utils/EnumerableMap.sol\":6585:6597  errorMessage */\n      dup3\n        /* \"https://raw.githubusercontent.com/OpenZeppelin/openzeppelin-contracts/v3.4.0/contracts/utils/EnumerableMap.sol\":6570:6583  keyIndex != 0 */\n      dup2\n        /* \"https://raw.githubusercontent.com/OpenZeppelin/openzeppelin-contracts/v3.4.0/contracts/utils/EnumerableMap.sol\":6562:6598  require(keyIndex != 0, errorMessage) */\n      tag_292\n      jumpi\n      mload(0x40)\n      shl(0xe5, 0x461bcd)\n      dup2\n      mstore\n      0x04\n      add\n      dup1\n      dup1\n      0x20\n      add\n      dup3\n      dup2\n      sub\n      dup3\n      mstore\n      dup4\n      dup2\n      dup2\n      mload\n      dup2\n      mstore\n      0x20\n      add\n      swap2\n      pop\n      dup1\n      mload\n      swap1\n      0x20\n      add\n      swap1\n      dup1\n      dup4\n      dup4\n      0x00\n    tag_293:\n      dup4\n      dup2\n      lt\n      iszero\n      tag_295\n      jumpi\n      dup2\n      dup2\n      add\n      mload\n      dup4\n      dup3\n      add\n      mstore\n      0x20\n      add\n      jump(tag_293)\n    tag_295:\n      pop\n      pop\n      pop\n      pop\n      swap1\n      pop\n      swap1\n      dup2\n      add\n      swap1\n      0x1f\n      and\n      dup1\n      iszero\n      tag_296\n      jumpi\n      dup1\n      dup3\n      sub\n      dup1\n      mload\n      0x01\n      dup4\n      0x20\n      sub\n      0x0100\n      exp\n      sub\n      not\n      and\n      dup2\n      mstore\n      0x20\n      add\n      swap2\n      pop\n    tag_296:\n      pop\n      swap3\n      pop\n      pop\n      pop\n      mload(0x40)\n      dup1\n      swap2\n      sub\n      swap1\n      revert\n    tag_292:\n      pop\n        /* \"https://raw.githubusercontent.com/OpenZeppelin/openzeppelin-contracts/v3.4.0/contracts/utils/EnumerableMap.sol\":6651:6654  map */\n      dup5\n        /* \"https://raw.githubusercontent.com/OpenZeppelin/openzeppelin-contracts/v3.4.0/contracts/utils/EnumerableMap.sol\":6651:6663  map._entries */\n      0x00\n      add\n        /* \"https://raw.githubusercontent.com/OpenZeppelin/openzeppelin-contracts/v3.4.0/contracts/utils/EnumerableMap.sol\":6675:6676  1 */\n      0x01\n        /* \"https://raw.githubusercontent.com/OpenZeppelin/openzeppelin-contracts/v3.4.0/contracts/utils/EnumerableMap.sol\":6664:6672  keyIndex */\n      dup3\n        /* \"https://raw.githubusercontent.com/OpenZeppelin/openzeppelin-contracts/v3.4.0/contracts/utils/EnumerableMap.sol\":6664:6676  keyIndex - 1 */\n      sub\n        /* \"https://raw.githubusercontent.com/OpenZeppelin/openzeppelin-contracts/v3.4.0/contracts/utils/EnumerableMap.sol\":6651:6677  map._entries[keyIndex - 1] */\n      dup2\n      sload\n      dup2\n      lt\n      tag_297\n      jumpi\n      invalid\n    tag_297:\n      swap1\n      0x00\n      mstore\n      keccak256(0x00, 0x20)\n      swap1\n      0x02\n      mul\n      add\n        /* \"https://raw.githubusercontent.com/OpenZeppelin/openzeppelin-contracts/v3.4.0/contracts/utils/EnumerableMap.sol\":6651:6684  map._entries[keyIndex - 1]._value */\n      0x01\n      add\n      sload\n        /* \"https://raw.githubusercontent.com/OpenZeppelin/openzeppelin-contracts/v3.4.0/contracts/utils/EnumerableMap.sol\":6644:6684  return map._entries[keyIndex - 1]._value */\n      swap2\n      pop\n      pop\n        /* \"https://raw.githubusercontent.com/OpenZeppelin/openzeppelin-contracts/v3.4.0/contracts/utils/EnumerableMap.sol\":6403:6718  function _get(Map storage map, bytes32 key, string memory errorMessage) private view returns (bytes32) {... */\n      swap4\n      swap3\n      pop\n      pop\n      pop\n      jump\t// out\n        /* \"https://raw.githubusercontent.com/OpenZeppelin/openzeppelin-contracts/v3.4.0/contracts/token/ERC721/ERC721.sol\":15524:16113  function _checkOnERC721Received(address from, address to, uint256 tokenId, bytes memory _data)... */\n    tag_241:\n        /* \"https://raw.githubusercontent.com/OpenZeppelin/openzeppelin-contracts/v3.4.0/contracts/token/ERC721/ERC721.sol\":15644:15648  bool */\n      0x00\n        /* \"https://raw.githubusercontent.com/OpenZeppelin/openzeppelin-contracts/v3.4.0/contracts/token/ERC721/ERC721.sol\":15669:15684  to.isContract() */\n      tag_301\n        /* \"https://raw.githubusercontent.com/OpenZeppelin/openzeppelin-contracts/v3.4.0/contracts/token/ERC721/ERC721.sol\":15669:15671  to */\n      dup5\n      sub(shl(0xa0, 0x01), 0x01)\n        /* \"https://raw.githubusercontent.com/OpenZeppelin/openzeppelin-contracts/v3.4.0/contracts/token/ERC721/ERC721.sol\":15669:15682  to.isContract */\n      and\n      tag_302\n        /* \"https://raw.githubusercontent.com/OpenZeppelin/openzeppelin-contracts/v3.4.0/contracts/token/ERC721/ERC721.sol\":15669:15684  to.isContract() */\n      jump\t// in\n    tag_301:\n        /* \"https://raw.githubusercontent.com/OpenZeppelin/openzeppelin-contracts/v3.4.0/contracts/token/ERC721/ERC721.sol\":15664:15722  if (!to.isContract()) {... */\n      tag_303\n      jumpi\n      pop\n        /* \"https://raw.githubusercontent.com/OpenZeppelin/openzeppelin-contracts/v3.4.0/contracts/token/ERC721/ERC721.sol\":15707:15711  true */\n      0x01\n        /* \"https://raw.githubusercontent.com/OpenZeppelin/openzeppelin-contracts/v3.4.0/contracts/token/ERC721/ERC721.sol\":15700:15711  return true */\n      jump(tag_212)\n        /* \"https://raw.githubusercontent.com/OpenZeppelin/openzeppelin-contracts/v3.4.0/contracts/token/ERC721/ERC721.sol\":15664:15722  if (!to.isContract()) {... */\n    tag_303:\n        /* \"https://raw.githubusercontent.com/OpenZeppelin/openzeppelin-contracts/v3.4.0/contracts/token/ERC721/ERC721.sol\":15731:15754  bytes memory returndata */\n      0x00\n        /* \"https://raw.githubusercontent.com/OpenZeppelin/openzeppelin-contracts/v3.4.0/contracts/token/ERC721/ERC721.sol\":15757:16003  to.functionCall(abi.encodeWithSelector(... */\n      tag_304\n      shl(0xe1, 0x0a85bd01)\n        /* \"https://raw.githubusercontent.com/OpenZeppelin/openzeppelin-contracts/v3.4.0/contracts/token/ERC721/ERC721.sol\":15868:15880  _msgSender() */\n      tag_305\n        /* \"https://raw.githubusercontent.com/OpenZeppelin/openzeppelin-contracts/v3.4.0/contracts/token/ERC721/ERC721.sol\":15868:15878  _msgSender */\n      tag_112\n        /* \"https://raw.githubusercontent.com/OpenZeppelin/openzeppelin-contracts/v3.4.0/contracts/token/ERC721/ERC721.sol\":15868:15880  _msgSender() */\n      jump\t// in\n    tag_305:\n        /* \"https://raw.githubusercontent.com/OpenZeppelin/openzeppelin-contracts/v3.4.0/contracts/token/ERC721/ERC721.sol\":15894:15898  from */\n      dup9\n        /* \"https://raw.githubusercontent.com/OpenZeppelin/openzeppelin-contracts/v3.4.0/contracts/token/ERC721/ERC721.sol\":15912:15919  tokenId */\n      dup8\n        /* \"https://raw.githubusercontent.com/OpenZeppelin/openzeppelin-contracts/v3.4.0/contracts/token/ERC721/ERC721.sol\":15933:15938  _data */\n      dup8\n        /* \"https://raw.githubusercontent.com/OpenZeppelin/openzeppelin-contracts/v3.4.0/contracts/token/ERC721/ERC721.sol\":15773:15948  abi.encodeWithSelector(... */\n      add(0x24, mload(0x40))\n      dup1\n      dup6\n      sub(shl(0xa0, 0x01), 0x01)\n      and\n      dup2\n      mstore\n      0x20\n      add\n      dup5\n      sub(shl(0xa0, 0x01), 0x01)\n      and\n      dup2\n      mstore\n      0x20\n      add\n      dup4\n      dup2\n      mstore\n      0x20\n      add\n      dup1\n      0x20\n      add\n      dup3\n      dup2\n      sub\n      dup3\n      mstore\n      dup4\n      dup2\n      dup2\n      mload\n      dup2\n      mstore\n      0x20\n      add\n      swap2\n      pop\n      dup1\n      mload\n      swap1\n      0x20\n      add\n      swap1\n      dup1\n      dup4\n      dup4\n      0x00\n    tag_306:\n      dup4\n      dup2\n      lt\n      iszero\n      tag_308\n      jumpi\n      dup2\n      dup2\n      add\n      mload\n      dup4\n      dup3\n      add\n      mstore\n      0x20\n      add\n      jump(tag_306)\n    tag_308:\n      pop\n      pop\n      pop\n      pop\n      swap1\n      pop\n      swap1\n      dup2\n      add\n      swap1\n      0x1f\n      and\n      dup1\n      iszero\n      tag_309\n      jumpi\n      dup1\n      dup3\n      sub\n      dup1\n      mload\n      0x01\n      dup4\n      0x20\n      sub\n      0x0100\n      exp\n      sub\n      not\n      and\n      dup2\n      mstore\n      0x20\n      add\n      swap2\n      pop\n    tag_309:\n      pop\n      swap6\n      pop\n      pop\n      pop\n      pop\n      pop\n      pop\n      mload(0x40)\n      0x20\n      dup2\n      dup4\n      sub\n      sub\n      dup2\n      mstore\n      swap1\n      0x40\n      mstore\n      swap1\n      not(sub(shl(0xe0, 0x01), 0x01))\n      and\n      0x20\n      dup3\n      add\n      dup1\n      mload\n      sub(shl(0xe0, 0x01), 0x01)\n      dup4\n      dup2\n      dup4\n      and\n      or\n      dup4\n      mstore\n      pop\n      pop\n      pop\n      pop\n        /* \"https://raw.githubusercontent.com/OpenZeppelin/openzeppelin-contracts/v3.4.0/contracts/token/ERC721/ERC721.sol\":15757:16003  to.functionCall(abi.encodeWithSelector(... */\n      mload(0x40)\n      dup1\n      0x60\n      add\n      0x40\n      mstore\n      dup1\n      0x32\n      dup2\n      mstore\n      0x20\n      add\n      data_1e766a06da43a53d0f4c380e06e5a342e14d5af1bf8501996c844905530ca84e\n      0x32\n      swap2\n      codecopy\n      sub(shl(0xa0, 0x01), 0x01)\n        /* \"https://raw.githubusercontent.com/OpenZeppelin/openzeppelin-contracts/v3.4.0/contracts/token/ERC721/ERC721.sol\":15757:15772  to.functionCall */\n      dup9\n      and\n      swap2\n        /* \"https://raw.githubusercontent.com/OpenZeppelin/openzeppelin-contracts/v3.4.0/contracts/token/ERC721/ERC721.sol\":15757:16003  to.functionCall(abi.encodeWithSelector(... */\n      swap1\n        /* \"https://raw.githubusercontent.com/OpenZeppelin/openzeppelin-contracts/v3.4.0/contracts/token/ERC721/ERC721.sol\":15757:15772  to.functionCall */\n      tag_310\n        /* \"https://raw.githubusercontent.com/OpenZeppelin/openzeppelin-contracts/v3.4.0/contracts/token/ERC721/ERC721.sol\":15757:16003  to.functionCall(abi.encodeWithSelector(... */\n      jump\t// in\n    tag_304:\n        /* \"https://raw.githubusercontent.com/OpenZeppelin/openzeppelin-contracts/v3.4.0/contracts/token/ERC721/ERC721.sol\":15731:16003  bytes memory returndata = to.functionCall(abi.encodeWithSelector(... */\n      swap1\n      pop\n        /* \"https://raw.githubusercontent.com/OpenZeppelin/openzeppelin-contracts/v3.4.0/contracts/token/ERC721/ERC721.sol\":16013:16026  bytes4 retval */\n      0x00\n        /* \"https://raw.githubusercontent.com/OpenZeppelin/openzeppelin-contracts/v3.4.0/contracts/token/ERC721/ERC721.sol\":16040:16050  returndata */\n      dup2\n        /* \"https://raw.githubusercontent.com/OpenZeppelin/openzeppelin-contracts/v3.4.0/contracts/token/ERC721/ERC721.sol\":16029:16061  abi.decode(returndata, (bytes4)) */\n      dup1\n      0x20\n      add\n      swap1\n      mload\n      0x20\n      dup2\n      lt\n      iszero\n      tag_311\n      jumpi\n      0x00\n      dup1\n      revert\n    tag_311:\n      pop\n      mload\n      not(sub(shl(0xe0, 0x01), 0x01))\n        /* \"https://raw.githubusercontent.com/OpenZeppelin/openzeppelin-contracts/v3.4.0/contracts/token/ERC721/ERC721.sol\":16079:16105  retval == _ERC721_RECEIVED */\n      and\n      shl(0xe1, 0x0a85bd01)\n      eq\n      swap3\n      pop\n      pop\n      pop\n        /* \"https://raw.githubusercontent.com/OpenZeppelin/openzeppelin-contracts/v3.4.0/contracts/token/ERC721/ERC721.sol\":15524:16113  function _checkOnERC721Received(address from, address to, uint256 tokenId, bytes memory _data)... */\n      swap5\n      swap4\n      pop\n      pop\n      pop\n      pop\n      jump\t// out\n        /* \"https://raw.githubusercontent.com/OpenZeppelin/openzeppelin-contracts/v3.4.0/contracts/utils/EnumerableMap.sol\":4278:4401  function _contains(Map storage map, bytes32 key) private view returns (bool) {... */\n    tag_271:\n        /* \"https://raw.githubusercontent.com/OpenZeppelin/openzeppelin-contracts/v3.4.0/contracts/utils/EnumerableMap.sol\":4349:4353  bool */\n      0x00\n        /* \"https://raw.githubusercontent.com/OpenZeppelin/openzeppelin-contracts/v3.4.0/contracts/utils/EnumerableMap.sol\":4372:4389  map._indexes[key] */\n      swap1\n      dup2\n      mstore\n        /* \"https://raw.githubusercontent.com/OpenZeppelin/openzeppelin-contracts/v3.4.0/contracts/utils/EnumerableMap.sol\":4372:4384  map._indexes */\n      0x01\n      swap2\n      swap1\n      swap2\n      add\n        /* \"https://raw.githubusercontent.com/OpenZeppelin/openzeppelin-contracts/v3.4.0/contracts/utils/EnumerableMap.sol\":4372:4389  map._indexes[key] */\n      0x20\n      mstore\n      0x40\n      swap1\n      keccak256\n      sload\n        /* \"https://raw.githubusercontent.com/OpenZeppelin/openzeppelin-contracts/v3.4.0/contracts/utils/EnumerableMap.sol\":4372:4394  map._indexes[key] != 0 */\n      iszero\n      iszero\n      swap1\n        /* \"https://raw.githubusercontent.com/OpenZeppelin/openzeppelin-contracts/v3.4.0/contracts/utils/EnumerableMap.sol\":4278:4401  function _contains(Map storage map, bytes32 key) private view returns (bool) {... */\n      jump\t// out\n        /* \"https://raw.githubusercontent.com/OpenZeppelin/openzeppelin-contracts/v3.4.0/contracts/utils/EnumerableSet.sol\":2212:3724  function _remove(Set storage set, bytes32 value) private returns (bool) {... */\n    tag_276:\n        /* \"https://raw.githubusercontent.com/OpenZeppelin/openzeppelin-contracts/v3.4.0/contracts/utils/EnumerableSet.sol\":2278:2282  bool */\n      0x00\n        /* \"https://raw.githubusercontent.com/OpenZeppelin/openzeppelin-contracts/v3.4.0/contracts/utils/EnumerableSet.sol\":2415:2434  set._indexes[value] */\n      dup2\n      dup2\n      mstore\n        /* \"https://raw.githubusercontent.com/OpenZeppelin/openzeppelin-contracts/v3.4.0/contracts/utils/EnumerableSet.sol\":2415:2427  set._indexes */\n      0x01\n      dup4\n      add\n        /* \"https://raw.githubusercontent.com/OpenZeppelin/openzeppelin-contracts/v3.4.0/contracts/utils/EnumerableSet.sol\":2415:2434  set._indexes[value] */\n      0x20\n      mstore\n      0x40\n      dup2\n      keccak256\n      sload\n        /* \"https://raw.githubusercontent.com/OpenZeppelin/openzeppelin-contracts/v3.4.0/contracts/utils/EnumerableSet.sol\":2449:2464  valueIndex != 0 */\n      dup1\n      iszero\n        /* \"https://raw.githubusercontent.com/OpenZeppelin/openzeppelin-contracts/v3.4.0/contracts/utils/EnumerableSet.sol\":2445:3718  if (valueIndex != 0) { // Equivalent to contains(set, value)... */\n      tag_314\n      jumpi\n        /* \"https://raw.githubusercontent.com/OpenZeppelin/openzeppelin-contracts/v3.4.0/contracts/utils/EnumerableSet.sol\":2878:2896  set._values.length */\n      dup4\n      sload\n      not(0x00)\n        /* \"https://raw.githubusercontent.com/OpenZeppelin/openzeppelin-contracts/v3.4.0/contracts/utils/EnumerableSet.sol\":2830:2844  valueIndex - 1 */\n      dup1\n      dup4\n      add\n      swap2\n        /* \"https://raw.githubusercontent.com/OpenZeppelin/openzeppelin-contracts/v3.4.0/contracts/utils/EnumerableSet.sol\":2878:2900  set._values.length - 1 */\n      swap1\n      dup2\n      add\n      swap1\n        /* \"https://raw.githubusercontent.com/OpenZeppelin/openzeppelin-contracts/v3.4.0/contracts/utils/EnumerableSet.sol\":2806:2827  uint256 toDeleteIndex */\n      0x00\n      swap1\n        /* \"https://raw.githubusercontent.com/OpenZeppelin/openzeppelin-contracts/v3.4.0/contracts/utils/EnumerableSet.sol\":2878:2881  set */\n      dup8\n      swap1\n        /* \"https://raw.githubusercontent.com/OpenZeppelin/openzeppelin-contracts/v3.4.0/contracts/utils/EnumerableSet.sol\":2878:2900  set._values.length - 1 */\n      dup4\n      swap1\n        /* \"https://raw.githubusercontent.com/OpenZeppelin/openzeppelin-contracts/v3.4.0/contracts/utils/EnumerableSet.sol\":3160:3182  set._values[lastIndex] */\n      dup2\n      lt\n      tag_315\n      jumpi\n      invalid\n    tag_315:\n      swap1\n      0x00\n      mstore\n      keccak256(0x00, 0x20)\n      add\n      sload\n        /* \"https://raw.githubusercontent.com/OpenZeppelin/openzeppelin-contracts/v3.4.0/contracts/utils/EnumerableSet.sol\":3140:3182  bytes32 lastvalue = set._values[lastIndex] */\n      swap1\n      pop\n        /* \"https://raw.githubusercontent.com/OpenZeppelin/openzeppelin-contracts/v3.4.0/contracts/utils/EnumerableSet.sol\":3303:3312  lastvalue */\n      dup1\n        /* \"https://raw.githubusercontent.com/OpenZeppelin/openzeppelin-contracts/v3.4.0/contracts/utils/EnumerableSet.sol\":3274:3277  set */\n      dup8\n        /* \"https://raw.githubusercontent.com/OpenZeppelin/openzeppelin-contracts/v3.4.0/contracts/utils/EnumerableSet.sol\":3274:3285  set._values */\n      0x00\n      add\n        /* \"https://raw.githubusercontent.com/OpenZeppelin/openzeppelin-contracts/v3.4.0/contracts/utils/EnumerableSet.sol\":3286:3299  toDeleteIndex */\n      dup5\n        /* \"https://raw.githubusercontent.com/OpenZeppelin/openzeppelin-contracts/v3.4.0/contracts/utils/EnumerableSet.sol\":3274:3300  set._values[toDeleteIndex] */\n      dup2\n      sload\n      dup2\n      lt\n      tag_317\n      jumpi\n      invalid\n    tag_317:\n      0x00\n      swap2\n      dup3\n      mstore\n      0x20\n      dup1\n      dup4\n      keccak256\n      swap1\n      swap2\n      add\n        /* \"https://raw.githubusercontent.com/OpenZeppelin/openzeppelin-contracts/v3.4.0/contracts/utils/EnumerableSet.sol\":3274:3312  set._values[toDeleteIndex] = lastvalue */\n      swap3\n      swap1\n      swap3\n      sstore\n        /* \"https://raw.githubusercontent.com/OpenZeppelin/openzeppelin-contracts/v3.4.0/contracts/utils/EnumerableSet.sol\":3378:3401  set._indexes[lastvalue] */\n      dup3\n      dup2\n      mstore\n        /* \"https://raw.githubusercontent.com/OpenZeppelin/openzeppelin-contracts/v3.4.0/contracts/utils/EnumerableSet.sol\":3420:3421  1 */\n      0x01\n        /* \"https://raw.githubusercontent.com/OpenZeppelin/openzeppelin-contracts/v3.4.0/contracts/utils/EnumerableSet.sol\":3378:3390  set._indexes */\n      dup10\n      dup2\n      add\n        /* \"https://raw.githubusercontent.com/OpenZeppelin/openzeppelin-contracts/v3.4.0/contracts/utils/EnumerableSet.sol\":3378:3401  set._indexes[lastvalue] */\n      swap1\n      swap3\n      mstore\n      0x40\n      swap1\n      keccak256\n        /* \"https://raw.githubusercontent.com/OpenZeppelin/openzeppelin-contracts/v3.4.0/contracts/utils/EnumerableSet.sol\":3404:3421  toDeleteIndex + 1 */\n      swap1\n      dup5\n      add\n        /* \"https://raw.githubusercontent.com/OpenZeppelin/openzeppelin-contracts/v3.4.0/contracts/utils/EnumerableSet.sol\":3378:3421  set._indexes[lastvalue] = toDeleteIndex + 1 */\n      swap1\n      sstore\n        /* \"https://raw.githubusercontent.com/OpenZeppelin/openzeppelin-contracts/v3.4.0/contracts/utils/EnumerableSet.sol\":3527:3544  set._values.pop() */\n      dup7\n      sload\n        /* \"https://raw.githubusercontent.com/OpenZeppelin/openzeppelin-contracts/v3.4.0/contracts/utils/EnumerableSet.sol\":3378:3381  set */\n      dup8\n      swap1\n        /* \"https://raw.githubusercontent.com/OpenZeppelin/openzeppelin-contracts/v3.4.0/contracts/utils/EnumerableSet.sol\":3527:3544  set._values.pop() */\n      dup1\n      tag_319\n      jumpi\n      invalid\n    tag_319:\n      0x01\n      swap1\n      sub\n      dup2\n      dup2\n      swap1\n      0x00\n      mstore\n      keccak256(0x00, 0x20)\n      add\n      0x00\n      swap1\n      sstore\n      swap1\n      sstore\n        /* \"https://raw.githubusercontent.com/OpenZeppelin/openzeppelin-contracts/v3.4.0/contracts/utils/EnumerableSet.sol\":3619:3622  set */\n      dup7\n        /* \"https://raw.githubusercontent.com/OpenZeppelin/openzeppelin-contracts/v3.4.0/contracts/utils/EnumerableSet.sol\":3619:3631  set._indexes */\n      0x01\n      add\n        /* \"https://raw.githubusercontent.com/OpenZeppelin/openzeppelin-contracts/v3.4.0/contracts/utils/EnumerableSet.sol\":3619:3638  set._indexes[value] */\n      0x00\n        /* \"https://raw.githubusercontent.com/OpenZeppelin/openzeppelin-contracts/v3.4.0/contracts/utils/EnumerableSet.sol\":3632:3637  value */\n      dup8\n        /* \"https://raw.githubusercontent.com/OpenZeppelin/openzeppelin-contracts/v3.4.0/contracts/utils/EnumerableSet.sol\":3619:3638  set._indexes[value] */\n      dup2\n      mstore\n      0x20\n      add\n      swap1\n      dup2\n      mstore\n      0x20\n      add\n      0x00\n      keccak256\n        /* \"https://raw.githubusercontent.com/OpenZeppelin/openzeppelin-contracts/v3.4.0/contracts/utils/EnumerableSet.sol\":3612:3638  delete set._indexes[value] */\n      0x00\n      swap1\n      sstore\n        /* \"https://raw.githubusercontent.com/OpenZeppelin/openzeppelin-contracts/v3.4.0/contracts/utils/EnumerableSet.sol\":3660:3664  true */\n      0x01\n        /* \"https://raw.githubusercontent.com/OpenZeppelin/openzeppelin-contracts/v3.4.0/contracts/utils/EnumerableSet.sol\":3653:3664  return true */\n      swap5\n      pop\n      pop\n      pop\n      pop\n      pop\n      jump(tag_129)\n        /* \"https://raw.githubusercontent.com/OpenZeppelin/openzeppelin-contracts/v3.4.0/contracts/utils/EnumerableSet.sol\":2445:3718  if (valueIndex != 0) { // Equivalent to contains(set, value)... */\n    tag_314:\n        /* \"https://raw.githubusercontent.com/OpenZeppelin/openzeppelin-contracts/v3.4.0/contracts/utils/EnumerableSet.sol\":3702:3707  false */\n      0x00\n        /* \"https://raw.githubusercontent.com/OpenZeppelin/openzeppelin-contracts/v3.4.0/contracts/utils/EnumerableSet.sol\":3695:3707  return false */\n      swap2\n      pop\n      pop\n      jump(tag_129)\n        /* \"https://raw.githubusercontent.com/OpenZeppelin/openzeppelin-contracts/v3.4.0/contracts/utils/EnumerableSet.sol\":1640:2044  function _add(Set storage set, bytes32 value) private returns (bool) {... */\n    tag_279:\n        /* \"https://raw.githubusercontent.com/OpenZeppelin/openzeppelin-contracts/v3.4.0/contracts/utils/EnumerableSet.sol\":1703:1707  bool */\n      0x00\n        /* \"https://raw.githubusercontent.com/OpenZeppelin/openzeppelin-contracts/v3.4.0/contracts/utils/EnumerableSet.sol\":1724:1745  _contains(set, value) */\n      tag_323\n        /* \"https://raw.githubusercontent.com/OpenZeppelin/openzeppelin-contracts/v3.4.0/contracts/utils/EnumerableSet.sol\":1734:1737  set */\n      dup4\n        /* \"https://raw.githubusercontent.com/OpenZeppelin/openzeppelin-contracts/v3.4.0/contracts/utils/EnumerableSet.sol\":1739:1744  value */\n      dup4\n        /* \"https://raw.githubusercontent.com/OpenZeppelin/openzeppelin-contracts/v3.4.0/contracts/utils/EnumerableSet.sol\":1724:1733  _contains */\n      tag_271\n        /* \"https://raw.githubusercontent.com/OpenZeppelin/openzeppelin-contracts/v3.4.0/contracts/utils/EnumerableSet.sol\":1724:1745  _contains(set, value) */\n      jump\t// in\n    tag_323:\n        /* \"https://raw.githubusercontent.com/OpenZeppelin/openzeppelin-contracts/v3.4.0/contracts/utils/EnumerableSet.sol\":1719:2038  if (!_contains(set, value)) {... */\n      tag_325\n      jumpi\n      pop\n        /* \"https://raw.githubusercontent.com/OpenZeppelin/openzeppelin-contracts/v3.4.0/contracts/utils/EnumerableSet.sol\":1761:1784  set._values.push(value) */\n      dup2\n      sload\n      0x01\n      dup2\n      dup2\n      add\n      dup5\n      sstore\n        /* \"https://raw.githubusercontent.com/OpenZeppelin/openzeppelin-contracts/v3.4.0/contracts/utils/EnumerableSet.sol\":1761:1772  set._values */\n      0x00\n        /* \"https://raw.githubusercontent.com/OpenZeppelin/openzeppelin-contracts/v3.4.0/contracts/utils/EnumerableSet.sol\":1761:1784  set._values.push(value) */\n      dup5\n      dup2\n      mstore\n      0x20\n      dup1\n      dup3\n      keccak256\n      swap1\n      swap4\n      add\n      dup5\n      swap1\n      sstore\n        /* \"https://raw.githubusercontent.com/OpenZeppelin/openzeppelin-contracts/v3.4.0/contracts/utils/EnumerableSet.sol\":1941:1959  set._values.length */\n      dup5\n      sload\n        /* \"https://raw.githubusercontent.com/OpenZeppelin/openzeppelin-contracts/v3.4.0/contracts/utils/EnumerableSet.sol\":1919:1938  set._indexes[value] */\n      dup5\n      dup3\n      mstore\n        /* \"https://raw.githubusercontent.com/OpenZeppelin/openzeppelin-contracts/v3.4.0/contracts/utils/EnumerableSet.sol\":1919:1931  set._indexes */\n      dup3\n      dup7\n      add\n        /* \"https://raw.githubusercontent.com/OpenZeppelin/openzeppelin-contracts/v3.4.0/contracts/utils/EnumerableSet.sol\":1919:1938  set._indexes[value] */\n      swap1\n      swap4\n      mstore\n      0x40\n      swap1\n      keccak256\n        /* \"https://raw.githubusercontent.com/OpenZeppelin/openzeppelin-contracts/v3.4.0/contracts/utils/EnumerableSet.sol\":1919:1959  set._indexes[value] = set._values.length */\n      swap2\n      swap1\n      swap2\n      sstore\n        /* \"https://raw.githubusercontent.com/OpenZeppelin/openzeppelin-contracts/v3.4.0/contracts/utils/EnumerableSet.sol\":1973:1984  return true */\n      jump(tag_129)\n        /* \"https://raw.githubusercontent.com/OpenZeppelin/openzeppelin-contracts/v3.4.0/contracts/utils/EnumerableSet.sol\":1719:2038  if (!_contains(set, value)) {... */\n    tag_325:\n      pop\n        /* \"https://raw.githubusercontent.com/OpenZeppelin/openzeppelin-contracts/v3.4.0/contracts/utils/EnumerableSet.sol\":2022:2027  false */\n      0x00\n        /* \"https://raw.githubusercontent.com/OpenZeppelin/openzeppelin-contracts/v3.4.0/contracts/utils/EnumerableSet.sol\":2015:2027  return false */\n      jump(tag_129)\n        /* \"https://raw.githubusercontent.com/OpenZeppelin/openzeppelin-contracts/v3.4.0/contracts/utils/EnumerableMap.sol\":1836:2514  function _set(Map storage map, bytes32 key, bytes32 value) private returns (bool) {... */\n    tag_282:\n        /* \"https://raw.githubusercontent.com/OpenZeppelin/openzeppelin-contracts/v3.4.0/contracts/utils/EnumerableMap.sol\":1912:1916  bool */\n      0x00\n        /* \"https://raw.githubusercontent.com/OpenZeppelin/openzeppelin-contracts/v3.4.0/contracts/utils/EnumerableMap.sol\":2045:2062  map._indexes[key] */\n      dup3\n      dup2\n      mstore\n        /* \"https://raw.githubusercontent.com/OpenZeppelin/openzeppelin-contracts/v3.4.0/contracts/utils/EnumerableMap.sol\":2045:2057  map._indexes */\n      0x01\n      dup5\n      add\n        /* \"https://raw.githubusercontent.com/OpenZeppelin/openzeppelin-contracts/v3.4.0/contracts/utils/EnumerableMap.sol\":2045:2062  map._indexes[key] */\n      0x20\n      mstore\n      0x40\n      dup2\n      keccak256\n      sload\n        /* \"https://raw.githubusercontent.com/OpenZeppelin/openzeppelin-contracts/v3.4.0/contracts/utils/EnumerableMap.sol\":2077:2090  keyIndex == 0 */\n      dup1\n        /* \"https://raw.githubusercontent.com/OpenZeppelin/openzeppelin-contracts/v3.4.0/contracts/utils/EnumerableMap.sol\":2073:2508  if (keyIndex == 0) { // Equivalent to !contains(map, key)... */\n      tag_329\n      jumpi\n      pop\n      pop\n        /* \"https://raw.githubusercontent.com/OpenZeppelin/openzeppelin-contracts/v3.4.0/contracts/utils/EnumerableMap.sol\":2161:2199  MapEntry({ _key: key, _value: value }) */\n      0x40\n      dup1\n      mload\n      dup1\n      dup3\n      add\n      dup3\n      mstore\n      dup4\n      dup2\n      mstore\n      0x20\n      dup1\n      dup3\n      add\n      dup5\n      dup2\n      mstore\n        /* \"https://raw.githubusercontent.com/OpenZeppelin/openzeppelin-contracts/v3.4.0/contracts/utils/EnumerableMap.sol\":2143:2200  map._entries.push(MapEntry({ _key: key, _value: value })) */\n      dup7\n      sload\n      0x01\n      dup2\n      dup2\n      add\n      dup10\n      sstore\n        /* \"https://raw.githubusercontent.com/OpenZeppelin/openzeppelin-contracts/v3.4.0/contracts/utils/EnumerableMap.sol\":2143:2155  map._entries */\n      0x00\n        /* \"https://raw.githubusercontent.com/OpenZeppelin/openzeppelin-contracts/v3.4.0/contracts/utils/EnumerableMap.sol\":2143:2200  map._entries.push(MapEntry({ _key: key, _value: value })) */\n      dup10\n      dup2\n      mstore\n      dup5\n      dup2\n      keccak256\n      swap6\n      mload\n      0x02\n      swap1\n      swap4\n      mul\n      swap1\n      swap6\n      add\n      swap2\n      dup3\n      sstore\n      swap2\n      mload\n      swap1\n      dup3\n      add\n      sstore\n        /* \"https://raw.githubusercontent.com/OpenZeppelin/openzeppelin-contracts/v3.4.0/contracts/utils/EnumerableMap.sol\":2355:2374  map._entries.length */\n      dup7\n      sload\n        /* \"https://raw.githubusercontent.com/OpenZeppelin/openzeppelin-contracts/v3.4.0/contracts/utils/EnumerableMap.sol\":2335:2352  map._indexes[key] */\n      dup7\n      dup5\n      mstore\n        /* \"https://raw.githubusercontent.com/OpenZeppelin/openzeppelin-contracts/v3.4.0/contracts/utils/EnumerableMap.sol\":2335:2347  map._indexes */\n      dup2\n      dup9\n      add\n        /* \"https://raw.githubusercontent.com/OpenZeppelin/openzeppelin-contracts/v3.4.0/contracts/utils/EnumerableMap.sol\":2335:2352  map._indexes[key] */\n      swap1\n      swap3\n      mstore\n      swap3\n      swap1\n      swap2\n      keccak256\n        /* \"https://raw.githubusercontent.com/OpenZeppelin/openzeppelin-contracts/v3.4.0/contracts/utils/EnumerableMap.sol\":2335:2374  map._indexes[key] = map._entries.length */\n      sstore\n        /* \"https://raw.githubusercontent.com/OpenZeppelin/openzeppelin-contracts/v3.4.0/contracts/utils/EnumerableMap.sol\":2388:2399  return true */\n      jump(tag_187)\n        /* \"https://raw.githubusercontent.com/OpenZeppelin/openzeppelin-contracts/v3.4.0/contracts/utils/EnumerableMap.sol\":2073:2508  if (keyIndex == 0) { // Equivalent to !contains(map, key)... */\n    tag_329:\n        /* \"https://raw.githubusercontent.com/OpenZeppelin/openzeppelin-contracts/v3.4.0/contracts/utils/EnumerableMap.sol\":2466:2471  value */\n      dup3\n        /* \"https://raw.githubusercontent.com/OpenZeppelin/openzeppelin-contracts/v3.4.0/contracts/utils/EnumerableMap.sol\":2430:2433  map */\n      dup6\n        /* \"https://raw.githubusercontent.com/OpenZeppelin/openzeppelin-contracts/v3.4.0/contracts/utils/EnumerableMap.sol\":2430:2442  map._entries */\n      0x00\n      add\n        /* \"https://raw.githubusercontent.com/OpenZeppelin/openzeppelin-contracts/v3.4.0/contracts/utils/EnumerableMap.sol\":2454:2455  1 */\n      0x01\n        /* \"https://raw.githubusercontent.com/OpenZeppelin/openzeppelin-contracts/v3.4.0/contracts/utils/EnumerableMap.sol\":2443:2451  keyIndex */\n      dup4\n        /* \"https://raw.githubusercontent.com/OpenZeppelin/openzeppelin-contracts/v3.4.0/contracts/utils/EnumerableMap.sol\":2443:2455  keyIndex - 1 */\n      sub\n        /* \"https://raw.githubusercontent.com/OpenZeppelin/openzeppelin-contracts/v3.4.0/contracts/utils/EnumerableMap.sol\":2430:2456  map._entries[keyIndex - 1] */\n      dup2\n      sload\n      dup2\n      lt\n      tag_332\n      jumpi\n      invalid\n    tag_332:\n      swap1\n      0x00\n      mstore\n      keccak256(0x00, 0x20)\n      swap1\n      0x02\n      mul\n      add\n        /* \"https://raw.githubusercontent.com/OpenZeppelin/openzeppelin-contracts/v3.4.0/contracts/utils/EnumerableMap.sol\":2430:2463  map._entries[keyIndex - 1]._value */\n      0x01\n      add\n        /* \"https://raw.githubusercontent.com/OpenZeppelin/openzeppelin-contracts/v3.4.0/contracts/utils/EnumerableMap.sol\":2430:2471  map._entries[keyIndex - 1]._value = value */\n      dup2\n      swap1\n      sstore\n      pop\n        /* \"https://raw.githubusercontent.com/OpenZeppelin/openzeppelin-contracts/v3.4.0/contracts/utils/EnumerableMap.sol\":2492:2497  false */\n      0x00\n        /* \"https://raw.githubusercontent.com/OpenZeppelin/openzeppelin-contracts/v3.4.0/contracts/utils/EnumerableMap.sol\":2485:2497  return false */\n      swap2\n      pop\n      pop\n      jump(tag_187)\n        /* \"https://raw.githubusercontent.com/OpenZeppelin/openzeppelin-contracts/v3.4.0/contracts/utils/Address.sol\":726:1139  function isContract(address account) internal view returns (bool) {... */\n    tag_302:\n        /* \"https://raw.githubusercontent.com/OpenZeppelin/openzeppelin-contracts/v3.4.0/contracts/utils/Address.sol\":1086:1106  extcodesize(account) */\n      extcodesize\n        /* \"https://raw.githubusercontent.com/OpenZeppelin/openzeppelin-contracts/v3.4.0/contracts/utils/Address.sol\":1124:1132  size > 0 */\n      iszero\n      iszero\n      swap1\n        /* \"https://raw.githubusercontent.com/OpenZeppelin/openzeppelin-contracts/v3.4.0/contracts/utils/Address.sol\":726:1139  function isContract(address account) internal view returns (bool) {... */\n      jump\t// out\n        /* \"https://raw.githubusercontent.com/OpenZeppelin/openzeppelin-contracts/v3.4.0/contracts/utils/Address.sol\":3581:3774  function functionCall(address target, bytes memory data, string memory errorMessage) internal returns (bytes memory) {... */\n    tag_310:\n        /* \"https://raw.githubusercontent.com/OpenZeppelin/openzeppelin-contracts/v3.4.0/contracts/utils/Address.sol\":3684:3696  bytes memory */\n      0x60\n        /* \"https://raw.githubusercontent.com/OpenZeppelin/openzeppelin-contracts/v3.4.0/contracts/utils/Address.sol\":3715:3767  functionCallWithValue(target, data, 0, errorMessage) */\n      tag_194\n        /* \"https://raw.githubusercontent.com/OpenZeppelin/openzeppelin-contracts/v3.4.0/contracts/utils/Address.sol\":3737:3743  target */\n      dup5\n        /* \"https://raw.githubusercontent.com/OpenZeppelin/openzeppelin-contracts/v3.4.0/contracts/utils/Address.sol\":3745:3749  data */\n      dup5\n        /* \"https://raw.githubusercontent.com/OpenZeppelin/openzeppelin-contracts/v3.4.0/contracts/utils/Address.sol\":3751:3752  0 */\n      0x00\n        /* \"https://raw.githubusercontent.com/OpenZeppelin/openzeppelin-contracts/v3.4.0/contracts/utils/Address.sol\":3754:3766  errorMessage */\n      dup6\n        /* \"https://raw.githubusercontent.com/OpenZeppelin/openzeppelin-contracts/v3.4.0/contracts/utils/Address.sol\":3684:3696  bytes memory */\n      dup6\n        /* \"https://raw.githubusercontent.com/OpenZeppelin/openzeppelin-contracts/v3.4.0/contracts/utils/Address.sol\":4858:4876  isContract(target) */\n      tag_341\n        /* \"https://raw.githubusercontent.com/OpenZeppelin/openzeppelin-contracts/v3.4.0/contracts/utils/Address.sol\":4869:4875  target */\n      dup6\n        /* \"https://raw.githubusercontent.com/OpenZeppelin/openzeppelin-contracts/v3.4.0/contracts/utils/Address.sol\":4858:4868  isContract */\n      tag_302\n        /* \"https://raw.githubusercontent.com/OpenZeppelin/openzeppelin-contracts/v3.4.0/contracts/utils/Address.sol\":4858:4876  isContract(target) */\n      jump\t// in\n    tag_341:\n        /* \"https://raw.githubusercontent.com/OpenZeppelin/openzeppelin-contracts/v3.4.0/contracts/utils/Address.sol\":4850:4910  require(isContract(target), \"Address: call to non-contract\") */\n      tag_342\n      jumpi\n      0x40\n      dup1\n      mload\n      shl(0xe5, 0x461bcd)\n      dup2\n      mstore\n      0x20\n      0x04\n      dup3\n      add\n      mstore\n      0x1d\n      0x24\n      dup3\n      add\n      mstore\n      0x416464726573733a2063616c6c20746f206e6f6e2d636f6e7472616374000000\n      0x44\n      dup3\n      add\n      mstore\n      swap1\n      mload\n      swap1\n      dup2\n      swap1\n      sub\n      0x64\n      add\n      swap1\n      revert\n    tag_342:\n        /* \"https://raw.githubusercontent.com/OpenZeppelin/openzeppelin-contracts/v3.4.0/contracts/utils/Address.sol\":4981:4993  bool success */\n      0x00\n        /* \"https://raw.githubusercontent.com/OpenZeppelin/openzeppelin-contracts/v3.4.0/contracts/utils/Address.sol\":4995:5018  bytes memory returndata */\n      dup1\n        /* \"https://raw.githubusercontent.com/OpenZeppelin/openzeppelin-contracts/v3.4.0/contracts/utils/Address.sol\":5022:5028  target */\n      dup7\n      sub(shl(0xa0, 0x01), 0x01)\n        /* \"https://raw.githubusercontent.com/OpenZeppelin/openzeppelin-contracts/v3.4.0/contracts/utils/Address.sol\":5022:5033  target.call */\n      and\n        /* \"https://raw.githubusercontent.com/OpenZeppelin/openzeppelin-contracts/v3.4.0/contracts/utils/Address.sol\":5042:5047  value */\n      dup6\n        /* \"https://raw.githubusercontent.com/OpenZeppelin/openzeppelin-contracts/v3.4.0/contracts/utils/Address.sol\":5050:5054  data */\n      dup8\n        /* \"https://raw.githubusercontent.com/OpenZeppelin/openzeppelin-contracts/v3.4.0/contracts/utils/Address.sol\":5022:5055  target.call{ value: value }(data) */\n      mload(0x40)\n      dup1\n      dup3\n      dup1\n      mload\n      swap1\n      0x20\n      add\n      swap1\n      dup1\n      dup4\n      dup4\n    tag_343:\n      0x20\n      dup4\n      lt\n      tag_345\n      jumpi\n      dup1\n      mload\n      dup3\n      mstore\n      not(0x1f)\n      swap1\n      swap3\n      add\n      swap2\n      0x20\n      swap2\n      dup3\n      add\n      swap2\n      add\n      jump(tag_343)\n    tag_345:\n      0x01\n      dup4\n      0x20\n      sub\n      0x0100\n      exp\n      sub\n      dup1\n      not\n      dup3\n      mload\n      and\n      dup2\n      dup5\n      mload\n      and\n      dup1\n      dup3\n      or\n      dup6\n      mstore\n      pop\n      pop\n      pop\n      pop\n      pop\n      pop\n      swap1\n      pop\n      add\n      swap2\n      pop\n      pop\n      0x00\n      mload(0x40)\n      dup1\n      dup4\n      sub\n      dup2\n      dup6\n      dup8\n      gas\n      call\n      swap3\n      pop\n      pop\n      pop\n      returndatasize\n      dup1\n      0x00\n      dup2\n      eq\n      tag_348\n      jumpi\n      mload(0x40)\n      swap2\n      pop\n      and(add(returndatasize, 0x3f), not(0x1f))\n      dup3\n      add\n      0x40\n      mstore\n      returndatasize\n      dup3\n      mstore\n      returndatasize\n      0x00\n      0x20\n      dup5\n      add\n      returndatacopy\n      jump(tag_347)\n    tag_348:\n      0x60\n      swap2\n      pop\n    tag_347:\n      pop\n        /* \"https://raw.githubusercontent.com/OpenZeppelin/openzeppelin-contracts/v3.4.0/contracts/utils/Address.sol\":4980:5055  (bool success, bytes memory returndata) = target.call{ value: value }(data) */\n      swap2\n      pop\n      swap2\n      pop\n        /* \"https://raw.githubusercontent.com/OpenZeppelin/openzeppelin-contracts/v3.4.0/contracts/utils/Address.sol\":5072:5124  _verifyCallResult(success, returndata, errorMessage) */\n      tag_349\n        /* \"https://raw.githubusercontent.com/OpenZeppelin/openzeppelin-contracts/v3.4.0/contracts/utils/Address.sol\":5090:5097  success */\n      dup3\n        /* \"https://raw.githubusercontent.com/OpenZeppelin/openzeppelin-contracts/v3.4.0/contracts/utils/Address.sol\":5099:5109  returndata */\n      dup3\n        /* \"https://raw.githubusercontent.com/OpenZeppelin/openzeppelin-contracts/v3.4.0/contracts/utils/Address.sol\":5111:5123  errorMessage */\n      dup7\n        /* \"https://raw.githubusercontent.com/OpenZeppelin/openzeppelin-contracts/v3.4.0/contracts/utils/Address.sol\":5072:5089  _verifyCallResult */\n      tag_350\n        /* \"https://raw.githubusercontent.com/OpenZeppelin/openzeppelin-contracts/v3.4.0/contracts/utils/Address.sol\":5072:5124  _verifyCallResult(success, returndata, errorMessage) */\n      jump\t// in\n    tag_349:\n        /* \"https://raw.githubusercontent.com/OpenZeppelin/openzeppelin-contracts/v3.4.0/contracts/utils/Address.sol\":5065:5124  return _verifyCallResult(success, returndata, errorMessage) */\n      swap8\n        /* \"https://raw.githubusercontent.com/OpenZeppelin/openzeppelin-contracts/v3.4.0/contracts/utils/Address.sol\":4608:5131  function functionCallWithValue(address target, bytes memory data, uint256 value, string memory errorMessage) internal returns (bytes memory) {... */\n      swap7\n      pop\n      pop\n      pop\n      pop\n      pop\n      pop\n      pop\n      jump\t// out\n        /* \"https://raw.githubusercontent.com/OpenZeppelin/openzeppelin-contracts/v3.4.0/contracts/utils/Address.sol\":7091:7816  function _verifyCallResult(bool success, bytes memory returndata, string memory errorMessage) private pure returns(bytes memory) {... */\n    tag_350:\n        /* \"https://raw.githubusercontent.com/OpenZeppelin/openzeppelin-contracts/v3.4.0/contracts/utils/Address.sol\":7206:7218  bytes memory */\n      0x60\n        /* \"https://raw.githubusercontent.com/OpenZeppelin/openzeppelin-contracts/v3.4.0/contracts/utils/Address.sol\":7234:7241  success */\n      dup4\n        /* \"https://raw.githubusercontent.com/OpenZeppelin/openzeppelin-contracts/v3.4.0/contracts/utils/Address.sol\":7230:7810  if (success) {... */\n      iszero\n      tag_352\n      jumpi\n      pop\n        /* \"https://raw.githubusercontent.com/OpenZeppelin/openzeppelin-contracts/v3.4.0/contracts/utils/Address.sol\":7264:7274  returndata */\n      dup2\n        /* \"https://raw.githubusercontent.com/OpenZeppelin/openzeppelin-contracts/v3.4.0/contracts/utils/Address.sol\":7257:7274  return returndata */\n      jump(tag_187)\n        /* \"https://raw.githubusercontent.com/OpenZeppelin/openzeppelin-contracts/v3.4.0/contracts/utils/Address.sol\":7230:7810  if (success) {... */\n    tag_352:\n        /* \"https://raw.githubusercontent.com/OpenZeppelin/openzeppelin-contracts/v3.4.0/contracts/utils/Address.sol\":7375:7392  returndata.length */\n      dup3\n      mload\n        /* \"https://raw.githubusercontent.com/OpenZeppelin/openzeppelin-contracts/v3.4.0/contracts/utils/Address.sol\":7375:7396  returndata.length > 0 */\n      iszero\n        /* \"https://raw.githubusercontent.com/OpenZeppelin/openzeppelin-contracts/v3.4.0/contracts/utils/Address.sol\":7371:7800  if (returndata.length > 0) {... */\n      tag_354\n      jumpi\n        /* \"https://raw.githubusercontent.com/OpenZeppelin/openzeppelin-contracts/v3.4.0/contracts/utils/Address.sol\":7633:7643  returndata */\n      dup3\n        /* \"https://raw.githubusercontent.com/OpenZeppelin/openzeppelin-contracts/v3.4.0/contracts/utils/Address.sol\":7627:7644  mload(returndata) */\n      mload\n        /* \"https://raw.githubusercontent.com/OpenZeppelin/openzeppelin-contracts/v3.4.0/contracts/utils/Address.sol\":7693:7708  returndata_size */\n      dup1\n        /* \"https://raw.githubusercontent.com/OpenZeppelin/openzeppelin-contracts/v3.4.0/contracts/utils/Address.sol\":7680:7690  returndata */\n      dup5\n        /* \"https://raw.githubusercontent.com/OpenZeppelin/openzeppelin-contracts/v3.4.0/contracts/utils/Address.sol\":7676:7678  32 */\n      0x20\n        /* \"https://raw.githubusercontent.com/OpenZeppelin/openzeppelin-contracts/v3.4.0/contracts/utils/Address.sol\":7672:7691  add(32, returndata) */\n      add\n        /* \"https://raw.githubusercontent.com/OpenZeppelin/openzeppelin-contracts/v3.4.0/contracts/utils/Address.sol\":7665:7709  revert(add(32, returndata), returndata_size) */\n      revert\n        /* \"https://raw.githubusercontent.com/OpenZeppelin/openzeppelin-contracts/v3.4.0/contracts/utils/Address.sol\":7582:7727  {... */\n    tag_354:\n        /* \"https://raw.githubusercontent.com/OpenZeppelin/openzeppelin-contracts/v3.4.0/contracts/utils/Address.sol\":7765:7785  revert(errorMessage) */\n      mload(0x40)\n      shl(0xe5, 0x461bcd)\n      dup2\n      mstore\n      0x20\n      0x04\n      dup3\n      add\n      dup2\n      dup2\n      mstore\n      dup5\n      mload\n      0x24\n      dup5\n      add\n      mstore\n      dup5\n      mload\n        /* \"https://raw.githubusercontent.com/OpenZeppelin/openzeppelin-contracts/v3.4.0/contracts/utils/Address.sol\":7772:7784  errorMessage */\n      dup6\n      swap4\n        /* \"https://raw.githubusercontent.com/OpenZeppelin/openzeppelin-contracts/v3.4.0/contracts/utils/Address.sol\":7765:7785  revert(errorMessage) */\n      swap2\n      swap3\n      dup4\n      swap3\n      0x44\n      add\n      swap2\n      swap1\n      dup6\n      add\n      swap1\n      dup1\n      dup4\n      dup4\n      0x00\n      dup4\n      iszero\n      tag_295\n      jumpi\n      dup2\n      dup2\n      add\n      mload\n      dup4\n      dup3\n      add\n      mstore\n      0x20\n      add\n      jump(tag_293)\n    tag_268:\n      dup3\n      dup1\n      sload\n      0x01\n      dup2\n      0x01\n      and\n      iszero\n      0x0100\n      mul\n      sub\n      and\n      0x02\n      swap1\n      div\n      swap1\n      0x00\n      mstore\n      keccak256(0x00, 0x20)\n      swap1\n      0x1f\n      add\n      0x20\n      swap1\n      div\n      dup2\n      add\n      swap3\n      dup3\n      tag_361\n      jumpi\n      0x00\n      dup6\n      sstore\n      jump(tag_364)\n    tag_361:\n      dup3\n      0x1f\n      lt\n      tag_362\n      jumpi\n      dup1\n      mload\n      not(0xff)\n      and\n      dup4\n      dup1\n      add\n      or\n      dup6\n      sstore\n      jump(tag_364)\n    tag_362:\n      dup3\n      dup1\n      add\n      0x01\n      add\n      dup6\n      sstore\n      dup3\n      iszero\n      tag_364\n      jumpi\n      swap2\n      dup3\n      add\n    tag_363:\n      dup3\n      dup2\n      gt\n      iszero\n      tag_364\n      jumpi\n      dup3\n      mload\n      dup3\n      sstore\n      swap2\n      0x20\n      add\n      swap2\n      swap1\n      0x01\n      add\n      swap1\n      jump(tag_363)\n    tag_364:\n      pop\n      tag_365\n      swap3\n      swap2\n      pop\n      tag_366\n      jump\t// in\n    tag_365:\n      pop\n      swap1\n      jump\t// out\n    tag_366:\n    tag_367:\n      dup1\n      dup3\n      gt\n      iszero\n      tag_365\n      jumpi\n      0x00\n      dup2\n      sstore\n      0x01\n      add\n      jump(tag_367)\n    stop\n    data_045d6834e6193a687012a3ad777f612279e549b6945364d9d2324f48610d3cbb 456e756d657261626c655365743a20696e646578206f7574206f6620626f756e6473\n    data_1e766a06da43a53d0f4c380e06e5a342e14d5af1bf8501996c844905530ca84e 4552433732313a207472616e7366657220746f206e6f6e20455243373231526563656976657220696d706c656d656e746572\n    data_455fea98ea03c32d7dd1a6f1426917d80529bf47b3ccbde74e7206e889e709f4 4552433732313a207472616e7366657220746f20746865207a65726f2061646472657373\n    data_565f1a77334fc4792800921178c71e4521acffab18ff9e7885b49377ee80ab4c 416464726573733a20696e73756666696369656e742062616c616e636520666f722063616c6c\n    data_5797d1ccb08b83980dd0c07ea40d8f6a64d35fff736a19bdd17522954cb0899c 4552433732313a206f70657261746f7220717565727920666f72206e6f6e6578697374656e7420746f6b656e\n    data_6d83cef3e0cb19b8320a9c5feb26b56bbb08f152a8e61b12eca3302d8d68b23d 4552433732313a20617070726f76652063616c6c6572206973206e6f74206f776e6572206e6f7220617070726f76656420666f7220616c6c\n    data_7395d4d3901c50cdfcab223d072f9aa36241df5d883e62cbf147ee1b05a9e6ba 4552433732313a2062616c616e636520717565727920666f7220746865207a65726f2061646472657373\n    data_7481f3df2a424c0755a1ad2356614e9a5a358d461ea2eae1f89cb21cbad00397 4552433732313a206f776e657220717565727920666f72206e6f6e6578697374656e7420746f6b656e\n    data_86631030b9066a18616a068fc09fce83d18af4765cb1d2166fa475228f4db155 456e756d657261626c654d61703a20696e646578206f7574206f6620626f756e6473\n    data_9291e0f44949204f2e9b40e6be090924979d6047b2365868f4e9f027722eb89d 4552433732313a20617070726f76656420717565727920666f72206e6f6e6578697374656e7420746f6b656e\n    data_94be4a260caaeac1b145f03ffa2e70bc612b64982d04f24073aaf3a5f9009978 4552433732314d657461646174613a2055524920736574206f66206e6f6e6578697374656e7420746f6b656e\n    data_a01073130a885d6c1c1af6ac75fc3b1c4f9403c235362962bbf528e2bd87d950 4552433732313a207472616e73666572206f6620746f6b656e2074686174206973206e6f74206f776e\n    data_a2d45c0fba603d40d82d590051761ca952d1ab9d78cca6d0d464d7b6e961a9cb 4552433732314d657461646174613a2055524920717565727920666f72206e6f6e6578697374656e7420746f6b656e\n    data_b51b4875eede07862961e8f9365c6749f5fe55c6ee5d7a9e42b6912ad0b15942 4552433732313a20617070726f76616c20746f2063757272656e74206f776e6572\n    data_c8682f3ad98807db59a6ec6bb812b72fed0a66e3150fa8239699ee83885247f2 4552433732313a207472616e736665722063616c6c6572206973206e6f74206f776e6572206e6f7220617070726f766564\n\n    auxdata: 0xa2646970667358221220c23674018a7a98a39f2d727ce9e7b76387427fffc00130121cad224a6d25d04164736f6c63430007060033\n}\n",
				"bytecode": {
					"linkReferences": {},
					"object": "60c06040526007608081905266444f474749455360c81b60a09081526200002a91600b91906200028b565b5060408051808201909152600380825262444f4760e81b60209092019182526200005791600c916200028b565b503480156200006557600080fd5b50600b805460408051602060026001851615610100026000190190941693909304601f81018490048402820184019092528181529291830182828015620000f05780601f10620000c457610100808354040283529160200191620000f0565b820191906000526020600020905b815481529060010190602001808311620000d257829003601f168201915b5050600c8054604080516020601f6002600019610100600188161502019095169490940493840181900481028201810190925282815295509193509150830182828015620001825780601f10620001565761010080835404028352916020019162000182565b820191906000526020600020905b8154815290600101906020018083116200016457829003601f168201915b506200019c93506301ffc9a760e01b925050620002069050565b8151620001b19060069060208501906200028b565b508051620001c79060079060208401906200028b565b50620001da6380ac58cd60e01b62000206565b620001ec635b5e139f60e01b62000206565b620001fe63780e9d6360e01b62000206565b505062000337565b6001600160e01b0319808216141562000266576040805162461bcd60e51b815260206004820152601c60248201527f4552433136353a20696e76616c696420696e7465726661636520696400000000604482015290519081900360640190fd5b6001600160e01b0319166000908152602081905260409020805460ff19166001179055565b828054600181600116156101000203166002900490600052602060002090601f016020900481019282620002c357600085556200030e565b82601f10620002de57805160ff19168380011785556200030e565b828001600101855582156200030e579182015b828111156200030e578251825591602001919060010190620002f1565b506200031c92915062000320565b5090565b5b808211156200031c576000815560010162000321565b611cff80620003476000396000f3fe608060405234801561001057600080fd5b50600436106101215760003560e01c80636352211e116100ad578063aa46a40011610071578063aa46a40014610395578063b88d4fde1461039d578063c87b56dd14610463578063e985e9c514610480578063eacabe14146104ae57610121565b80636352211e146103145780636c0360eb1461033157806370a082311461033957806395d89b411461035f578063a22cb4651461036757610121565b806318160ddd116100f457806318160ddd1461024557806323b872dd1461025f5780632f745c591461029557806342842e0e146102c15780634f6ccce7146102f757610121565b806301ffc9a71461012657806306fdde0314610161578063081812fc146101de578063095ea7b314610217575b600080fd5b61014d6004803603602081101561013c57600080fd5b50356001600160e01b03191661052e565b604080519115158252519081900360200190f35b610169610551565b6040805160208082528351818301528351919283929083019185019080838360005b838110156101a357818101518382015260200161018b565b50505050905090810190601f1680156101d05780820380516001836020036101000a031916815260200191505b509250505060405180910390f35b6101fb600480360360208110156101f457600080fd5b50356105e7565b604080516001600160a01b039092168252519081900360200190f35b6102436004803603604081101561022d57600080fd5b506001600160a01b038135169060200135610649565b005b61024d610724565b60408051918252519081900360200190f35b6102436004803603606081101561027557600080fd5b506001600160a01b03813581169160208101359091169060400135610735565b61024d600480360360408110156102ab57600080fd5b506001600160a01b03813516906020013561078c565b610243600480360360608110156102d757600080fd5b506001600160a01b038135811691602081013590911690604001356107b7565b61024d6004803603602081101561030d57600080fd5b50356107d2565b6101fb6004803603602081101561032a57600080fd5b50356107e8565b610169610810565b61024d6004803603602081101561034f57600080fd5b50356001600160a01b0316610871565b6101696108d9565b6102436004803603604081101561037d57600080fd5b506001600160a01b038135169060200135151561093a565b61024d610a3f565b610243600480360360808110156103b357600080fd5b6001600160a01b038235811692602081013590911691604082013591908101906080810160608201356401000000008111156103ee57600080fd5b82018360208201111561040057600080fd5b8035906020019184600183028401116401000000008311171561042257600080fd5b91908080601f016020809104026020016040519081016040528093929190818152602001838380828437600092019190915250929550610a45945050505050565b6101696004803603602081101561047957600080fd5b5035610aa3565b61014d6004803603604081101561049657600080fd5b506001600160a01b0381358116916020013516610d24565b61024d600480360360408110156104c457600080fd5b6001600160a01b0382351691908101906040810160208201356401000000008111156104ef57600080fd5b82018360208201111561050157600080fd5b8035906020019184600183028401116401000000008311171561052357600080fd5b509092509050610d52565b6001600160e01b0319811660009081526020819052604090205460ff165b919050565b60068054604080516020601f60026000196101006001881615020190951694909404938401819004810282018101909252828152606093909290918301828280156105dd5780601f106105b2576101008083540402835291602001916105dd565b820191906000526020600020905b8154815290600101906020018083116105c057829003601f168201915b5050505050905090565b60006105f282610dc0565b61062d5760405162461bcd60e51b815260040180806020018281038252602c815260200180611bc8602c913960400191505060405180910390fd5b506000908152600460205260409020546001600160a01b031690565b6000610654826107e8565b9050806001600160a01b0316836001600160a01b031614156106a75760405162461bcd60e51b8152600401808060200182810382526021815260200180611c786021913960400191505060405180910390fd5b806001600160a01b03166106b9610dcd565b6001600160a01b031614806106da57506106da816106d5610dcd565b610d24565b6107155760405162461bcd60e51b8152600401808060200182810382526038815260200180611b1b6038913960400191505060405180910390fd5b61071f8383610dd1565b505050565b60006107306002610e3f565b905090565b610746610740610dcd565b82610e4a565b6107815760405162461bcd60e51b8152600401808060200182810382526031815260200180611c996031913960400191505060405180910390fd5b61071f838383610eee565b6001600160a01b03821660009081526001602052604081206107ae908361103a565b90505b92915050565b61071f83838360405180602001604052806000815250610a45565b6000806107e0600284611046565b509392505050565b60006107b182604051806060016040528060298152602001611b7d6029913960029190611062565b60098054604080516020601f60026000196101006001881615020190951694909404938401819004810282018101909252828152606093909290918301828280156105dd5780601f106105b2576101008083540402835291602001916105dd565b60006001600160a01b0382166108b85760405162461bcd60e51b815260040180806020018281038252602a815260200180611b53602a913960400191505060405180910390fd5b6001600160a01b03821660009081526001602052604090206107b190610e3f565b60078054604080516020601f60026000196101006001881615020190951694909404938401819004810282018101909252828152606093909290918301828280156105dd5780601f106105b2576101008083540402835291602001916105dd565b610942610dcd565b6001600160a01b0316826001600160a01b031614156109a8576040805162461bcd60e51b815260206004820152601960248201527f4552433732313a20617070726f766520746f2063616c6c657200000000000000604482015290519081900360640190fd5b80600560006109b5610dcd565b6001600160a01b03908116825260208083019390935260409182016000908120918716808252919093529120805460ff1916921515929092179091556109f9610dcd565b6001600160a01b03167f17307eab39ab6107e8899845ad3d59bd9653f200f220920489ca2b5937696c318360405180821515815260200191505060405180910390a35050565b600a5481565b610a56610a50610dcd565b83610e4a565b610a915760405162461bcd60e51b8152600401808060200182810382526031815260200180611c996031913960400191505060405180910390fd5b610a9d8484848461106f565b50505050565b6060610aae82610dc0565b610ae95760405162461bcd60e51b815260040180806020018281038252602f815260200180611c49602f913960400191505060405180910390fd5b60008281526008602090815260408083208054825160026001831615610100026000190190921691909104601f810185900485028201850190935282815292909190830182828015610b7c5780601f10610b5157610100808354040283529160200191610b7c565b820191906000526020600020905b815481529060010190602001808311610b5f57829003601f168201915b505050505090506000610b8d610810565b9050805160001415610ba15750905061054c565b815115610c625780826040516020018083805190602001908083835b60208310610bdc5780518252601f199092019160209182019101610bbd565b51815160209384036101000a600019018019909216911617905285519190930192850191508083835b60208310610c245780518252601f199092019160209182019101610c05565b6001836020036101000a038019825116818451168082178552505050505050905001925050506040516020818303038152906040529250505061054c565b80610c6c856110c1565b6040516020018083805190602001908083835b60208310610c9e5780518252601f199092019160209182019101610c7f565b51815160209384036101000a600019018019909216911617905285519190930192850191508083835b60208310610ce65780518252601f199092019160209182019101610cc7565b6001836020036101000a0380198251168184511680821785525050505050509050019250505060405160208183030381529060405292505050919050565b6001600160a01b03918216600090815260056020908152604080832093909416825291909152205460ff1690565b6000610d5e600a61119c565b6000610d6a600a6111a5565b9050610d7685826111a9565b610db68185858080601f0160208091040260200160405190810160405280939291908181526020018383808284376000920191909152506112d792505050565b90505b9392505050565b60006107b160028361133a565b3390565b600081815260046020526040902080546001600160a01b0319166001600160a01b0384169081179091558190610e06826107e8565b6001600160a01b03167f8c5be1e5ebec7d5bd14f71427d1e84f3dd0314c0f7b2291e5b200ac8c7c3b92560405160405180910390a45050565b60006107b1826111a5565b6000610e5582610dc0565b610e905760405162461bcd60e51b815260040180806020018281038252602c815260200180611aef602c913960400191505060405180910390fd5b6000610e9b836107e8565b9050806001600160a01b0316846001600160a01b03161480610ed65750836001600160a01b0316610ecb846105e7565b6001600160a01b0316145b80610ee65750610ee68185610d24565b949350505050565b826001600160a01b0316610f01826107e8565b6001600160a01b031614610f465760405162461bcd60e51b8152600401808060200182810382526029815260200180611c206029913960400191505060405180910390fd5b6001600160a01b038216610f8b5760405162461bcd60e51b8152600401808060200182810382526024815260200180611acb6024913960400191505060405180910390fd5b610f9683838361071f565b610fa1600082610dd1565b6001600160a01b0383166000908152600160205260409020610fc39082611346565b506001600160a01b0382166000908152600160205260409020610fe69082611352565b50610ff36002828461135e565b5080826001600160a01b0316846001600160a01b03167fddf252ad1be2c89b69c2b068fc378daa952ba7f163c4a11628f55a4df523b3ef60405160405180910390a4505050565b60006107ae8383611374565b600080808061105586866113d8565b9097909650945050505050565b6000610db6848484611453565b61107a848484610eee565b6110868484848461151d565b610a9d5760405162461bcd60e51b8152600401808060200182810382526032815260200180611a996032913960400191505060405180910390fd5b6060816110e657506040805180820190915260018152600360fc1b602082015261054c565b8160005b81156110fe57600101600a820491506110ea565b60008167ffffffffffffffff8111801561111757600080fd5b506040519080825280601f01601f191660200182016040528015611142576020820181803683370190505b50859350905060001982015b831561119357600a840660300160f81b8282806001900393508151811061117157fe5b60200101906001600160f81b031916908160001a905350600a8404935061114e565b50949350505050565b80546001019055565b5490565b6001600160a01b038216611204576040805162461bcd60e51b815260206004820181905260248201527f4552433732313a206d696e7420746f20746865207a65726f2061646472657373604482015290519081900360640190fd5b61120d81610dc0565b1561125f576040805162461bcd60e51b815260206004820152601c60248201527f4552433732313a20746f6b656e20616c7265616479206d696e74656400000000604482015290519081900360640190fd5b61126b6000838361071f565b6001600160a01b038216600090815260016020526040902061128d9082611352565b5061129a6002828461135e565b5060405181906001600160a01b038416906000907fddf252ad1be2c89b69c2b068fc378daa952ba7f163c4a11628f55a4df523b3ef908290a45050565b6112e082610dc0565b61131b5760405162461bcd60e51b815260040180806020018281038252602c815260200180611bf4602c913960400191505060405180910390fd5b6000828152600860209081526040909120825161071f928401906119d5565b60006107ae8383611685565b60006107ae838361169d565b60006107ae8383611763565b6000610db684846001600160a01b0385166117ad565b815460009082106113b65760405162461bcd60e51b8152600401808060200182810382526022815260200180611a776022913960400191505060405180910390fd5b8260000182815481106113c557fe5b9060005260206000200154905092915050565b81546000908190831061141c5760405162461bcd60e51b8152600401808060200182810382526022815260200180611ba66022913960400191505060405180910390fd5b600084600001848154811061142d57fe5b906000526020600020906002020190508060000154816001015492509250509250929050565b600082815260018401602052604081205482816114ee5760405162461bcd60e51b81526004018080602001828103825283818151815260200191508051906020019080838360005b838110156114b357818101518382015260200161149b565b50505050905090810190601f1680156114e05780820380516001836020036101000a031916815260200191505b509250505060405180910390fd5b5084600001600182038154811061150157fe5b9060005260206000209060020201600101549150509392505050565b6000611531846001600160a01b0316611844565b61153d57506001610ee6565b600061164b630a85bd0160e11b611552610dcd565b88878760405160240180856001600160a01b03168152602001846001600160a01b0316815260200183815260200180602001828103825283818151815260200191508051906020019080838360005b838110156115b95781810151838201526020016115a1565b50505050905090810190601f1680156115e65780820380516001836020036101000a031916815260200191505b5095505050505050604051602081830303815290604052906001600160e01b0319166020820180516001600160e01b038381831617835250505050604051806060016040528060328152602001611a99603291396001600160a01b038816919061184a565b9050600081806020019051602081101561166457600080fd5b50516001600160e01b031916630a85bd0160e11b1492505050949350505050565b60009081526001919091016020526040902054151590565b6000818152600183016020526040812054801561175957835460001980830191908101906000908790839081106116d057fe5b90600052602060002001549050808760000184815481106116ed57fe5b60009182526020808320909101929092558281526001898101909252604090209084019055865487908061171d57fe5b600190038181906000526020600020016000905590558660010160008781526020019081526020016000206000905560019450505050506107b1565b60009150506107b1565b600061176f8383611685565b6117a5575081546001818101845560008481526020808220909301849055845484825282860190935260409020919091556107b1565b5060006107b1565b600082815260018401602052604081205480611812575050604080518082018252838152602080820184815286546001818101895560008981528481209551600290930290950191825591519082015586548684528188019092529290912055610db9565b8285600001600183038154811061182557fe5b9060005260206000209060020201600101819055506000915050610db9565b3b151590565b6060610db684846000858561185e85611844565b6118af576040805162461bcd60e51b815260206004820152601d60248201527f416464726573733a2063616c6c20746f206e6f6e2d636f6e7472616374000000604482015290519081900360640190fd5b600080866001600160a01b031685876040518082805190602001908083835b602083106118ed5780518252601f1990920191602091820191016118ce565b6001836020036101000a03801982511681845116808217855250505050505090500191505060006040518083038185875af1925050503d806000811461194f576040519150601f19603f3d011682016040523d82523d6000602084013e611954565b606091505b509150915061196482828661196f565b979650505050505050565b6060831561197e575081610db9565b82511561198e5782518084602001fd5b60405162461bcd60e51b81526020600482018181528451602484015284518593919283926044019190850190808383600083156114b357818101518382015260200161149b565b828054600181600116156101000203166002900490600052602060002090601f016020900481019282611a0b5760008555611a51565b82601f10611a2457805160ff1916838001178555611a51565b82800160010185558215611a51579182015b82811115611a51578251825591602001919060010190611a36565b50611a5d929150611a61565b5090565b5b80821115611a5d5760008155600101611a6256fe456e756d657261626c655365743a20696e646578206f7574206f6620626f756e64734552433732313a207472616e7366657220746f206e6f6e20455243373231526563656976657220696d706c656d656e7465724552433732313a207472616e7366657220746f20746865207a65726f20616464726573734552433732313a206f70657261746f7220717565727920666f72206e6f6e6578697374656e7420746f6b656e4552433732313a20617070726f76652063616c6c6572206973206e6f74206f776e6572206e6f7220617070726f76656420666f7220616c6c4552433732313a2062616c616e636520717565727920666f7220746865207a65726f20616464726573734552433732313a206f776e657220717565727920666f72206e6f6e6578697374656e7420746f6b656e456e756d657261626c654d61703a20696e646578206f7574206f6620626f756e64734552433732313a20617070726f76656420717565727920666f72206e6f6e6578697374656e7420746f6b656e4552433732314d657461646174613a2055524920736574206f66206e6f6e6578697374656e7420746f6b656e4552433732313a207472616e73666572206f6620746f6b656e2074686174206973206e6f74206f776e4552433732314d657461646174613a2055524920717565727920666f72206e6f6e6578697374656e7420746f6b656e4552433732313a20617070726f76616c20746f2063757272656e74206f776e65724552433732313a207472616e736665722063616c6c6572206973206e6f74206f776e6572206e6f7220617070726f766564a2646970667358221220c23674018a7a98a39f2d727ce9e7b76387427fffc00130121cad224a6d25d04164736f6c63430007060033",
					"opcodes": "PUSH1 0xC0 PUSH1 0x40 MSTORE PUSH1 0x7 PUSH1 0x80 DUP2 SWAP1 MSTORE PUSH7 0x444F4747494553 PUSH1 0xC8 SHL PUSH1 0xA0 SWAP1 DUP2 MSTORE PUSH3 0x2A SWAP2 PUSH1 0xB SWAP2 SWAP1 PUSH3 0x28B JUMP JUMPDEST POP PUSH1 0x40 DUP1 MLOAD DUP1 DUP3 ADD SWAP1 SWAP2 MSTORE PUSH1 0x3 DUP1 DUP3 MSTORE PUSH3 0x444F47 PUSH1 0xE8 SHL PUSH1 0x20 SWAP1 SWAP3 ADD SWAP2 DUP3 MSTORE PUSH3 0x57 SWAP2 PUSH1 0xC SWAP2 PUSH3 0x28B JUMP JUMPDEST POP CALLVALUE DUP1 ISZERO PUSH3 0x65 JUMPI PUSH1 0x0 DUP1 REVERT JUMPDEST POP PUSH1 0xB DUP1 SLOAD PUSH1 0x40 DUP1 MLOAD PUSH1 0x20 PUSH1 0x2 PUSH1 0x1 DUP6 AND ISZERO PUSH2 0x100 MUL PUSH1 0x0 NOT ADD SWAP1 SWAP5 AND SWAP4 SWAP1 SWAP4 DIV PUSH1 0x1F DUP2 ADD DUP5 SWAP1 DIV DUP5 MUL DUP3 ADD DUP5 ADD SWAP1 SWAP3 MSTORE DUP2 DUP2 MSTORE SWAP3 SWAP2 DUP4 ADD DUP3 DUP3 DUP1 ISZERO PUSH3 0xF0 JUMPI DUP1 PUSH1 0x1F LT PUSH3 0xC4 JUMPI PUSH2 0x100 DUP1 DUP4 SLOAD DIV MUL DUP4 MSTORE SWAP2 PUSH1 0x20 ADD SWAP2 PUSH3 0xF0 JUMP JUMPDEST DUP3 ADD SWAP2 SWAP1 PUSH1 0x0 MSTORE PUSH1 0x20 PUSH1 0x0 KECCAK256 SWAP1 JUMPDEST DUP2 SLOAD DUP2 MSTORE SWAP1 PUSH1 0x1 ADD SWAP1 PUSH1 0x20 ADD DUP1 DUP4 GT PUSH3 0xD2 JUMPI DUP3 SWAP1 SUB PUSH1 0x1F AND DUP3 ADD SWAP2 JUMPDEST POP POP PUSH1 0xC DUP1 SLOAD PUSH1 0x40 DUP1 MLOAD PUSH1 0x20 PUSH1 0x1F PUSH1 0x2 PUSH1 0x0 NOT PUSH2 0x100 PUSH1 0x1 DUP9 AND ISZERO MUL ADD SWAP1 SWAP6 AND SWAP5 SWAP1 SWAP5 DIV SWAP4 DUP5 ADD DUP2 SWAP1 DIV DUP2 MUL DUP3 ADD DUP2 ADD SWAP1 SWAP3 MSTORE DUP3 DUP2 MSTORE SWAP6 POP SWAP2 SWAP4 POP SWAP2 POP DUP4 ADD DUP3 DUP3 DUP1 ISZERO PUSH3 0x182 JUMPI DUP1 PUSH1 0x1F LT PUSH3 0x156 JUMPI PUSH2 0x100 DUP1 DUP4 SLOAD DIV MUL DUP4 MSTORE SWAP2 PUSH1 0x20 ADD SWAP2 PUSH3 0x182 JUMP JUMPDEST DUP3 ADD SWAP2 SWAP1 PUSH1 0x0 MSTORE PUSH1 0x20 PUSH1 0x0 KECCAK256 SWAP1 JUMPDEST DUP2 SLOAD DUP2 MSTORE SWAP1 PUSH1 0x1 ADD SWAP1 PUSH1 0x20 ADD DUP1 DUP4 GT PUSH3 0x164 JUMPI DUP3 SWAP1 SUB PUSH1 0x1F AND DUP3 ADD SWAP2 JUMPDEST POP PUSH3 0x19C SWAP4 POP PUSH4 0x1FFC9A7 PUSH1 0xE0 SHL SWAP3 POP POP PUSH3 0x206 SWAP1 POP JUMP JUMPDEST DUP2 MLOAD PUSH3 0x1B1 SWAP1 PUSH1 0x6 SWAP1 PUSH1 0x20 DUP6 ADD SWAP1 PUSH3 0x28B JUMP JUMPDEST POP DUP1 MLOAD PUSH3 0x1C7 SWAP1 PUSH1 0x7 SWAP1 PUSH1 0x20 DUP5 ADD SWAP1 PUSH3 0x28B JUMP JUMPDEST POP PUSH3 0x1DA PUSH4 0x80AC58CD PUSH1 0xE0 SHL PUSH3 0x206 JUMP JUMPDEST PUSH3 0x1EC PUSH4 0x5B5E139F PUSH1 0xE0 SHL PUSH3 0x206 JUMP JUMPDEST PUSH3 0x1FE PUSH4 0x780E9D63 PUSH1 0xE0 SHL PUSH3 0x206 JUMP JUMPDEST POP POP PUSH3 0x337 JUMP JUMPDEST PUSH1 0x1 PUSH1 0x1 PUSH1 0xE0 SHL SUB NOT DUP1 DUP3 AND EQ ISZERO PUSH3 0x266 JUMPI PUSH1 0x40 DUP1 MLOAD PUSH3 0x461BCD PUSH1 0xE5 SHL DUP2 MSTORE PUSH1 0x20 PUSH1 0x4 DUP3 ADD MSTORE PUSH1 0x1C PUSH1 0x24 DUP3 ADD MSTORE PUSH32 0x4552433136353A20696E76616C696420696E7465726661636520696400000000 PUSH1 0x44 DUP3 ADD MSTORE SWAP1 MLOAD SWAP1 DUP2 SWAP1 SUB PUSH1 0x64 ADD SWAP1 REVERT JUMPDEST PUSH1 0x1 PUSH1 0x1 PUSH1 0xE0 SHL SUB NOT AND PUSH1 0x0 SWAP1 DUP2 MSTORE PUSH1 0x20 DUP2 SWAP1 MSTORE PUSH1 0x40 SWAP1 KECCAK256 DUP1 SLOAD PUSH1 0xFF NOT AND PUSH1 0x1 OR SWAP1 SSTORE JUMP JUMPDEST DUP3 DUP1 SLOAD PUSH1 0x1 DUP2 PUSH1 0x1 AND ISZERO PUSH2 0x100 MUL SUB AND PUSH1 0x2 SWAP1 DIV SWAP1 PUSH1 0x0 MSTORE PUSH1 0x20 PUSH1 0x0 KECCAK256 SWAP1 PUSH1 0x1F ADD PUSH1 0x20 SWAP1 DIV DUP2 ADD SWAP3 DUP3 PUSH3 0x2C3 JUMPI PUSH1 0x0 DUP6 SSTORE PUSH3 0x30E JUMP JUMPDEST DUP3 PUSH1 0x1F LT PUSH3 0x2DE JUMPI DUP1 MLOAD PUSH1 0xFF NOT AND DUP4 DUP1 ADD OR DUP6 SSTORE PUSH3 0x30E JUMP JUMPDEST DUP3 DUP1 ADD PUSH1 0x1 ADD DUP6 SSTORE DUP3 ISZERO PUSH3 0x30E JUMPI SWAP2 DUP3 ADD JUMPDEST DUP3 DUP2 GT ISZERO PUSH3 0x30E JUMPI DUP3 MLOAD DUP3 SSTORE SWAP2 PUSH1 0x20 ADD SWAP2 SWAP1 PUSH1 0x1 ADD SWAP1 PUSH3 0x2F1 JUMP JUMPDEST POP PUSH3 0x31C SWAP3 SWAP2 POP PUSH3 0x320 JUMP JUMPDEST POP SWAP1 JUMP JUMPDEST JUMPDEST DUP1 DUP3 GT ISZERO PUSH3 0x31C JUMPI PUSH1 0x0 DUP2 SSTORE PUSH1 0x1 ADD PUSH3 0x321 JUMP JUMPDEST PUSH2 0x1CFF DUP1 PUSH3 0x347 PUSH1 0x0 CODECOPY PUSH1 0x0 RETURN INVALID PUSH1 0x80 PUSH1 0x40 MSTORE CALLVALUE DUP1 ISZERO PUSH2 0x10 JUMPI PUSH1 0x0 DUP1 REVERT JUMPDEST POP PUSH1 0x4 CALLDATASIZE LT PUSH2 0x121 JUMPI PUSH1 0x0 CALLDATALOAD PUSH1 0xE0 SHR DUP1 PUSH4 0x6352211E GT PUSH2 0xAD JUMPI DUP1 PUSH4 0xAA46A400 GT PUSH2 0x71 JUMPI DUP1 PUSH4 0xAA46A400 EQ PUSH2 0x395 JUMPI DUP1 PUSH4 0xB88D4FDE EQ PUSH2 0x39D JUMPI DUP1 PUSH4 0xC87B56DD EQ PUSH2 0x463 JUMPI DUP1 PUSH4 0xE985E9C5 EQ PUSH2 0x480 JUMPI DUP1 PUSH4 0xEACABE14 EQ PUSH2 0x4AE JUMPI PUSH2 0x121 JUMP JUMPDEST DUP1 PUSH4 0x6352211E EQ PUSH2 0x314 JUMPI DUP1 PUSH4 0x6C0360EB EQ PUSH2 0x331 JUMPI DUP1 PUSH4 0x70A08231 EQ PUSH2 0x339 JUMPI DUP1 PUSH4 0x95D89B41 EQ PUSH2 0x35F JUMPI DUP1 PUSH4 0xA22CB465 EQ PUSH2 0x367 JUMPI PUSH2 0x121 JUMP JUMPDEST DUP1 PUSH4 0x18160DDD GT PUSH2 0xF4 JUMPI DUP1 PUSH4 0x18160DDD EQ PUSH2 0x245 JUMPI DUP1 PUSH4 0x23B872DD EQ PUSH2 0x25F JUMPI DUP1 PUSH4 0x2F745C59 EQ PUSH2 0x295 JUMPI DUP1 PUSH4 0x42842E0E EQ PUSH2 0x2C1 JUMPI DUP1 PUSH4 0x4F6CCCE7 EQ PUSH2 0x2F7 JUMPI PUSH2 0x121 JUMP JUMPDEST DUP1 PUSH4 0x1FFC9A7 EQ PUSH2 0x126 JUMPI DUP1 PUSH4 0x6FDDE03 EQ PUSH2 0x161 JUMPI DUP1 PUSH4 0x81812FC EQ PUSH2 0x1DE JUMPI DUP1 PUSH4 0x95EA7B3 EQ PUSH2 0x217 JUMPI JUMPDEST PUSH1 0x0 DUP1 REVERT JUMPDEST PUSH2 0x14D PUSH1 0x4 DUP1 CALLDATASIZE SUB PUSH1 0x20 DUP2 LT ISZERO PUSH2 0x13C JUMPI PUSH1 0x0 DUP1 REVERT JUMPDEST POP CALLDATALOAD PUSH1 0x1 PUSH1 0x1 PUSH1 0xE0 SHL SUB NOT AND PUSH2 0x52E JUMP JUMPDEST PUSH1 0x40 DUP1 MLOAD SWAP2 ISZERO ISZERO DUP3 MSTORE MLOAD SWAP1 DUP2 SWAP1 SUB PUSH1 0x20 ADD SWAP1 RETURN JUMPDEST PUSH2 0x169 PUSH2 0x551 JUMP JUMPDEST PUSH1 0x40 DUP1 MLOAD PUSH1 0x20 DUP1 DUP3 MSTORE DUP4 MLOAD DUP2 DUP4 ADD MSTORE DUP4 MLOAD SWAP2 SWAP3 DUP4 SWAP3 SWAP1 DUP4 ADD SWAP2 DUP6 ADD SWAP1 DUP1 DUP4 DUP4 PUSH1 0x0 JUMPDEST DUP4 DUP2 LT ISZERO PUSH2 0x1A3 JUMPI DUP2 DUP2 ADD MLOAD DUP4 DUP3 ADD MSTORE PUSH1 0x20 ADD PUSH2 0x18B JUMP JUMPDEST POP POP POP POP SWAP1 POP SWAP1 DUP2 ADD SWAP1 PUSH1 0x1F AND DUP1 ISZERO PUSH2 0x1D0 JUMPI DUP1 DUP3 SUB DUP1 MLOAD PUSH1 0x1 DUP4 PUSH1 0x20 SUB PUSH2 0x100 EXP SUB NOT AND DUP2 MSTORE PUSH1 0x20 ADD SWAP2 POP JUMPDEST POP SWAP3 POP POP POP PUSH1 0x40 MLOAD DUP1 SWAP2 SUB SWAP1 RETURN JUMPDEST PUSH2 0x1FB PUSH1 0x4 DUP1 CALLDATASIZE SUB PUSH1 0x20 DUP2 LT ISZERO PUSH2 0x1F4 JUMPI PUSH1 0x0 DUP1 REVERT JUMPDEST POP CALLDATALOAD PUSH2 0x5E7 JUMP JUMPDEST PUSH1 0x40 DUP1 MLOAD PUSH1 0x1 PUSH1 0x1 PUSH1 0xA0 SHL SUB SWAP1 SWAP3 AND DUP3 MSTORE MLOAD SWAP1 DUP2 SWAP1 SUB PUSH1 0x20 ADD SWAP1 RETURN JUMPDEST PUSH2 0x243 PUSH1 0x4 DUP1 CALLDATASIZE SUB PUSH1 0x40 DUP2 LT ISZERO PUSH2 0x22D JUMPI PUSH1 0x0 DUP1 REVERT JUMPDEST POP PUSH1 0x1 PUSH1 0x1 PUSH1 0xA0 SHL SUB DUP2 CALLDATALOAD AND SWAP1 PUSH1 0x20 ADD CALLDATALOAD PUSH2 0x649 JUMP JUMPDEST STOP JUMPDEST PUSH2 0x24D PUSH2 0x724 JUMP JUMPDEST PUSH1 0x40 DUP1 MLOAD SWAP2 DUP3 MSTORE MLOAD SWAP1 DUP2 SWAP1 SUB PUSH1 0x20 ADD SWAP1 RETURN JUMPDEST PUSH2 0x243 PUSH1 0x4 DUP1 CALLDATASIZE SUB PUSH1 0x60 DUP2 LT ISZERO PUSH2 0x275 JUMPI PUSH1 0x0 DUP1 REVERT JUMPDEST POP PUSH1 0x1 PUSH1 0x1 PUSH1 0xA0 SHL SUB DUP2 CALLDATALOAD DUP2 AND SWAP2 PUSH1 0x20 DUP2 ADD CALLDATALOAD SWAP1 SWAP2 AND SWAP1 PUSH1 0x40 ADD CALLDATALOAD PUSH2 0x735 JUMP JUMPDEST PUSH2 0x24D PUSH1 0x4 DUP1 CALLDATASIZE SUB PUSH1 0x40 DUP2 LT ISZERO PUSH2 0x2AB JUMPI PUSH1 0x0 DUP1 REVERT JUMPDEST POP PUSH1 0x1 PUSH1 0x1 PUSH1 0xA0 SHL SUB DUP2 CALLDATALOAD AND SWAP1 PUSH1 0x20 ADD CALLDATALOAD PUSH2 0x78C JUMP JUMPDEST PUSH2 0x243 PUSH1 0x4 DUP1 CALLDATASIZE SUB PUSH1 0x60 DUP2 LT ISZERO PUSH2 0x2D7 JUMPI PUSH1 0x0 DUP1 REVERT JUMPDEST POP PUSH1 0x1 PUSH1 0x1 PUSH1 0xA0 SHL SUB DUP2 CALLDATALOAD DUP2 AND SWAP2 PUSH1 0x20 DUP2 ADD CALLDATALOAD SWAP1 SWAP2 AND SWAP1 PUSH1 0x40 ADD CALLDATALOAD PUSH2 0x7B7 JUMP JUMPDEST PUSH2 0x24D PUSH1 0x4 DUP1 CALLDATASIZE SUB PUSH1 0x20 DUP2 LT ISZERO PUSH2 0x30D JUMPI PUSH1 0x0 DUP1 REVERT JUMPDEST POP CALLDATALOAD PUSH2 0x7D2 JUMP JUMPDEST PUSH2 0x1FB PUSH1 0x4 DUP1 CALLDATASIZE SUB PUSH1 0x20 DUP2 LT ISZERO PUSH2 0x32A JUMPI PUSH1 0x0 DUP1 REVERT JUMPDEST POP CALLDATALOAD PUSH2 0x7E8 JUMP JUMPDEST PUSH2 0x169 PUSH2 0x810 JUMP JUMPDEST PUSH2 0x24D PUSH1 0x4 DUP1 CALLDATASIZE SUB PUSH1 0x20 DUP2 LT ISZERO PUSH2 0x34F JUMPI PUSH1 0x0 DUP1 REVERT JUMPDEST POP CALLDATALOAD PUSH1 0x1 PUSH1 0x1 PUSH1 0xA0 SHL SUB AND PUSH2 0x871 JUMP JUMPDEST PUSH2 0x169 PUSH2 0x8D9 JUMP JUMPDEST PUSH2 0x243 PUSH1 0x4 DUP1 CALLDATASIZE SUB PUSH1 0x40 DUP2 LT ISZERO PUSH2 0x37D JUMPI PUSH1 0x0 DUP1 REVERT JUMPDEST POP PUSH1 0x1 PUSH1 0x1 PUSH1 0xA0 SHL SUB DUP2 CALLDATALOAD AND SWAP1 PUSH1 0x20 ADD CALLDATALOAD ISZERO ISZERO PUSH2 0x93A JUMP JUMPDEST PUSH2 0x24D PUSH2 0xA3F JUMP JUMPDEST PUSH2 0x243 PUSH1 0x4 DUP1 CALLDATASIZE SUB PUSH1 0x80 DUP2 LT ISZERO PUSH2 0x3B3 JUMPI PUSH1 0x0 DUP1 REVERT JUMPDEST PUSH1 0x1 PUSH1 0x1 PUSH1 0xA0 SHL SUB DUP3 CALLDATALOAD DUP2 AND SWAP3 PUSH1 0x20 DUP2 ADD CALLDATALOAD SWAP1 SWAP2 AND SWAP2 PUSH1 0x40 DUP3 ADD CALLDATALOAD SWAP2 SWAP1 DUP2 ADD SWAP1 PUSH1 0x80 DUP2 ADD PUSH1 0x60 DUP3 ADD CALLDATALOAD PUSH5 0x100000000 DUP2 GT ISZERO PUSH2 0x3EE JUMPI PUSH1 0x0 DUP1 REVERT JUMPDEST DUP3 ADD DUP4 PUSH1 0x20 DUP3 ADD GT ISZERO PUSH2 0x400 JUMPI PUSH1 0x0 DUP1 REVERT JUMPDEST DUP1 CALLDATALOAD SWAP1 PUSH1 0x20 ADD SWAP2 DUP5 PUSH1 0x1 DUP4 MUL DUP5 ADD GT PUSH5 0x100000000 DUP4 GT OR ISZERO PUSH2 0x422 JUMPI PUSH1 0x0 DUP1 REVERT JUMPDEST SWAP2 SWAP1 DUP1 DUP1 PUSH1 0x1F ADD PUSH1 0x20 DUP1 SWAP2 DIV MUL PUSH1 0x20 ADD PUSH1 0x40 MLOAD SWAP1 DUP2 ADD PUSH1 0x40 MSTORE DUP1 SWAP4 SWAP3 SWAP2 SWAP1 DUP2 DUP2 MSTORE PUSH1 0x20 ADD DUP4 DUP4 DUP1 DUP3 DUP5 CALLDATACOPY PUSH1 0x0 SWAP3 ADD SWAP2 SWAP1 SWAP2 MSTORE POP SWAP3 SWAP6 POP PUSH2 0xA45 SWAP5 POP POP POP POP POP JUMP JUMPDEST PUSH2 0x169 PUSH1 0x4 DUP1 CALLDATASIZE SUB PUSH1 0x20 DUP2 LT ISZERO PUSH2 0x479 JUMPI PUSH1 0x0 DUP1 REVERT JUMPDEST POP CALLDATALOAD PUSH2 0xAA3 JUMP JUMPDEST PUSH2 0x14D PUSH1 0x4 DUP1 CALLDATASIZE SUB PUSH1 0x40 DUP2 LT ISZERO PUSH2 0x496 JUMPI PUSH1 0x0 DUP1 REVERT JUMPDEST POP PUSH1 0x1 PUSH1 0x1 PUSH1 0xA0 SHL SUB DUP2 CALLDATALOAD DUP2 AND SWAP2 PUSH1 0x20 ADD CALLDATALOAD AND PUSH2 0xD24 JUMP JUMPDEST PUSH2 0x24D PUSH1 0x4 DUP1 CALLDATASIZE SUB PUSH1 0x40 DUP2 LT ISZERO PUSH2 0x4C4 JUMPI PUSH1 0x0 DUP1 REVERT JUMPDEST PUSH1 0x1 PUSH1 0x1 PUSH1 0xA0 SHL SUB DUP3 CALLDATALOAD AND SWAP2 SWAP1 DUP2 ADD SWAP1 PUSH1 0x40 DUP2 ADD PUSH1 0x20 DUP3 ADD CALLDATALOAD PUSH5 0x100000000 DUP2 GT ISZERO PUSH2 0x4EF JUMPI PUSH1 0x0 DUP1 REVERT JUMPDEST DUP3 ADD DUP4 PUSH1 0x20 DUP3 ADD GT ISZERO PUSH2 0x501 JUMPI PUSH1 0x0 DUP1 REVERT JUMPDEST DUP1 CALLDATALOAD SWAP1 PUSH1 0x20 ADD SWAP2 DUP5 PUSH1 0x1 DUP4 MUL DUP5 ADD GT PUSH5 0x100000000 DUP4 GT OR ISZERO PUSH2 0x523 JUMPI PUSH1 0x0 DUP1 REVERT JUMPDEST POP SWAP1 SWAP3 POP SWAP1 POP PUSH2 0xD52 JUMP JUMPDEST PUSH1 0x1 PUSH1 0x1 PUSH1 0xE0 SHL SUB NOT DUP2 AND PUSH1 0x0 SWAP1 DUP2 MSTORE PUSH1 0x20 DUP2 SWAP1 MSTORE PUSH1 0x40 SWAP1 KECCAK256 SLOAD PUSH1 0xFF AND JUMPDEST SWAP2 SWAP1 POP JUMP JUMPDEST PUSH1 0x6 DUP1 SLOAD PUSH1 0x40 DUP1 MLOAD PUSH1 0x20 PUSH1 0x1F PUSH1 0x2 PUSH1 0x0 NOT PUSH2 0x100 PUSH1 0x1 DUP9 AND ISZERO MUL ADD SWAP1 SWAP6 AND SWAP5 SWAP1 SWAP5 DIV SWAP4 DUP5 ADD DUP2 SWAP1 DIV DUP2 MUL DUP3 ADD DUP2 ADD SWAP1 SWAP3 MSTORE DUP3 DUP2 MSTORE PUSH1 0x60 SWAP4 SWAP1 SWAP3 SWAP1 SWAP2 DUP4 ADD DUP3 DUP3 DUP1 ISZERO PUSH2 0x5DD JUMPI DUP1 PUSH1 0x1F LT PUSH2 0x5B2 JUMPI PUSH2 0x100 DUP1 DUP4 SLOAD DIV MUL DUP4 MSTORE SWAP2 PUSH1 0x20 ADD SWAP2 PUSH2 0x5DD JUMP JUMPDEST DUP3 ADD SWAP2 SWAP1 PUSH1 0x0 MSTORE PUSH1 0x20 PUSH1 0x0 KECCAK256 SWAP1 JUMPDEST DUP2 SLOAD DUP2 MSTORE SWAP1 PUSH1 0x1 ADD SWAP1 PUSH1 0x20 ADD DUP1 DUP4 GT PUSH2 0x5C0 JUMPI DUP3 SWAP1 SUB PUSH1 0x1F AND DUP3 ADD SWAP2 JUMPDEST POP POP POP POP POP SWAP1 POP SWAP1 JUMP JUMPDEST PUSH1 0x0 PUSH2 0x5F2 DUP3 PUSH2 0xDC0 JUMP JUMPDEST PUSH2 0x62D JUMPI PUSH1 0x40 MLOAD PUSH3 0x461BCD PUSH1 0xE5 SHL DUP2 MSTORE PUSH1 0x4 ADD DUP1 DUP1 PUSH1 0x20 ADD DUP3 DUP2 SUB DUP3 MSTORE PUSH1 0x2C DUP2 MSTORE PUSH1 0x20 ADD DUP1 PUSH2 0x1BC8 PUSH1 0x2C SWAP2 CODECOPY PUSH1 0x40 ADD SWAP2 POP POP PUSH1 0x40 MLOAD DUP1 SWAP2 SUB SWAP1 REVERT JUMPDEST POP PUSH1 0x0 SWAP1 DUP2 MSTORE PUSH1 0x4 PUSH1 0x20 MSTORE PUSH1 0x40 SWAP1 KECCAK256 SLOAD PUSH1 0x1 PUSH1 0x1 PUSH1 0xA0 SHL SUB AND SWAP1 JUMP JUMPDEST PUSH1 0x0 PUSH2 0x654 DUP3 PUSH2 0x7E8 JUMP JUMPDEST SWAP1 POP DUP1 PUSH1 0x1 PUSH1 0x1 PUSH1 0xA0 SHL SUB AND DUP4 PUSH1 0x1 PUSH1 0x1 PUSH1 0xA0 SHL SUB AND EQ ISZERO PUSH2 0x6A7 JUMPI PUSH1 0x40 MLOAD PUSH3 0x461BCD PUSH1 0xE5 SHL DUP2 MSTORE PUSH1 0x4 ADD DUP1 DUP1 PUSH1 0x20 ADD DUP3 DUP2 SUB DUP3 MSTORE PUSH1 0x21 DUP2 MSTORE PUSH1 0x20 ADD DUP1 PUSH2 0x1C78 PUSH1 0x21 SWAP2 CODECOPY PUSH1 0x40 ADD SWAP2 POP POP PUSH1 0x40 MLOAD DUP1 SWAP2 SUB SWAP1 REVERT JUMPDEST DUP1 PUSH1 0x1 PUSH1 0x1 PUSH1 0xA0 SHL SUB AND PUSH2 0x6B9 PUSH2 0xDCD JUMP JUMPDEST PUSH1 0x1 PUSH1 0x1 PUSH1 0xA0 SHL SUB AND EQ DUP1 PUSH2 0x6DA JUMPI POP PUSH2 0x6DA DUP2 PUSH2 0x6D5 PUSH2 0xDCD JUMP JUMPDEST PUSH2 0xD24 JUMP JUMPDEST PUSH2 0x715 JUMPI PUSH1 0x40 MLOAD PUSH3 0x461BCD PUSH1 0xE5 SHL DUP2 MSTORE PUSH1 0x4 ADD DUP1 DUP1 PUSH1 0x20 ADD DUP3 DUP2 SUB DUP3 MSTORE PUSH1 0x38 DUP2 MSTORE PUSH1 0x20 ADD DUP1 PUSH2 0x1B1B PUSH1 0x38 SWAP2 CODECOPY PUSH1 0x40 ADD SWAP2 POP POP PUSH1 0x40 MLOAD DUP1 SWAP2 SUB SWAP1 REVERT JUMPDEST PUSH2 0x71F DUP4 DUP4 PUSH2 0xDD1 JUMP JUMPDEST POP POP POP JUMP JUMPDEST PUSH1 0x0 PUSH2 0x730 PUSH1 0x2 PUSH2 0xE3F JUMP JUMPDEST SWAP1 POP SWAP1 JUMP JUMPDEST PUSH2 0x746 PUSH2 0x740 PUSH2 0xDCD JUMP JUMPDEST DUP3 PUSH2 0xE4A JUMP JUMPDEST PUSH2 0x781 JUMPI PUSH1 0x40 MLOAD PUSH3 0x461BCD PUSH1 0xE5 SHL DUP2 MSTORE PUSH1 0x4 ADD DUP1 DUP1 PUSH1 0x20 ADD DUP3 DUP2 SUB DUP3 MSTORE PUSH1 0x31 DUP2 MSTORE PUSH1 0x20 ADD DUP1 PUSH2 0x1C99 PUSH1 0x31 SWAP2 CODECOPY PUSH1 0x40 ADD SWAP2 POP POP PUSH1 0x40 MLOAD DUP1 SWAP2 SUB SWAP1 REVERT JUMPDEST PUSH2 0x71F DUP4 DUP4 DUP4 PUSH2 0xEEE JUMP JUMPDEST PUSH1 0x1 PUSH1 0x1 PUSH1 0xA0 SHL SUB DUP3 AND PUSH1 0x0 SWAP1 DUP2 MSTORE PUSH1 0x1 PUSH1 0x20 MSTORE PUSH1 0x40 DUP2 KECCAK256 PUSH2 0x7AE SWAP1 DUP4 PUSH2 0x103A JUMP JUMPDEST SWAP1 POP JUMPDEST SWAP3 SWAP2 POP POP JUMP JUMPDEST PUSH2 0x71F DUP4 DUP4 DUP4 PUSH1 0x40 MLOAD DUP1 PUSH1 0x20 ADD PUSH1 0x40 MSTORE DUP1 PUSH1 0x0 DUP2 MSTORE POP PUSH2 0xA45 JUMP JUMPDEST PUSH1 0x0 DUP1 PUSH2 0x7E0 PUSH1 0x2 DUP5 PUSH2 0x1046 JUMP JUMPDEST POP SWAP4 SWAP3 POP POP POP JUMP JUMPDEST PUSH1 0x0 PUSH2 0x7B1 DUP3 PUSH1 0x40 MLOAD DUP1 PUSH1 0x60 ADD PUSH1 0x40 MSTORE DUP1 PUSH1 0x29 DUP2 MSTORE PUSH1 0x20 ADD PUSH2 0x1B7D PUSH1 0x29 SWAP2 CODECOPY PUSH1 0x2 SWAP2 SWAP1 PUSH2 0x1062 JUMP JUMPDEST PUSH1 0x9 DUP1 SLOAD PUSH1 0x40 DUP1 MLOAD PUSH1 0x20 PUSH1 0x1F PUSH1 0x2 PUSH1 0x0 NOT PUSH2 0x100 PUSH1 0x1 DUP9 AND ISZERO MUL ADD SWAP1 SWAP6 AND SWAP5 SWAP1 SWAP5 DIV SWAP4 DUP5 ADD DUP2 SWAP1 DIV DUP2 MUL DUP3 ADD DUP2 ADD SWAP1 SWAP3 MSTORE DUP3 DUP2 MSTORE PUSH1 0x60 SWAP4 SWAP1 SWAP3 SWAP1 SWAP2 DUP4 ADD DUP3 DUP3 DUP1 ISZERO PUSH2 0x5DD JUMPI DUP1 PUSH1 0x1F LT PUSH2 0x5B2 JUMPI PUSH2 0x100 DUP1 DUP4 SLOAD DIV MUL DUP4 MSTORE SWAP2 PUSH1 0x20 ADD SWAP2 PUSH2 0x5DD JUMP JUMPDEST PUSH1 0x0 PUSH1 0x1 PUSH1 0x1 PUSH1 0xA0 SHL SUB DUP3 AND PUSH2 0x8B8 JUMPI PUSH1 0x40 MLOAD PUSH3 0x461BCD PUSH1 0xE5 SHL DUP2 MSTORE PUSH1 0x4 ADD DUP1 DUP1 PUSH1 0x20 ADD DUP3 DUP2 SUB DUP3 MSTORE PUSH1 0x2A DUP2 MSTORE PUSH1 0x20 ADD DUP1 PUSH2 0x1B53 PUSH1 0x2A SWAP2 CODECOPY PUSH1 0x40 ADD SWAP2 POP POP PUSH1 0x40 MLOAD DUP1 SWAP2 SUB SWAP1 REVERT JUMPDEST PUSH1 0x1 PUSH1 0x1 PUSH1 0xA0 SHL SUB DUP3 AND PUSH1 0x0 SWAP1 DUP2 MSTORE PUSH1 0x1 PUSH1 0x20 MSTORE PUSH1 0x40 SWAP1 KECCAK256 PUSH2 0x7B1 SWAP1 PUSH2 0xE3F JUMP JUMPDEST PUSH1 0x7 DUP1 SLOAD PUSH1 0x40 DUP1 MLOAD PUSH1 0x20 PUSH1 0x1F PUSH1 0x2 PUSH1 0x0 NOT PUSH2 0x100 PUSH1 0x1 DUP9 AND ISZERO MUL ADD SWAP1 SWAP6 AND SWAP5 SWAP1 SWAP5 DIV SWAP4 DUP5 ADD DUP2 SWAP1 DIV DUP2 MUL DUP3 ADD DUP2 ADD SWAP1 SWAP3 MSTORE DUP3 DUP2 MSTORE PUSH1 0x60 SWAP4 SWAP1 SWAP3 SWAP1 SWAP2 DUP4 ADD DUP3 DUP3 DUP1 ISZERO PUSH2 0x5DD JUMPI DUP1 PUSH1 0x1F LT PUSH2 0x5B2 JUMPI PUSH2 0x100 DUP1 DUP4 SLOAD DIV MUL DUP4 MSTORE SWAP2 PUSH1 0x20 ADD SWAP2 PUSH2 0x5DD JUMP JUMPDEST PUSH2 0x942 PUSH2 0xDCD JUMP JUMPDEST PUSH1 0x1 PUSH1 0x1 PUSH1 0xA0 SHL SUB AND DUP3 PUSH1 0x1 PUSH1 0x1 PUSH1 0xA0 SHL SUB AND EQ ISZERO PUSH2 0x9A8 JUMPI PUSH1 0x40 DUP1 MLOAD PUSH3 0x461BCD PUSH1 0xE5 SHL DUP2 MSTORE PUSH1 0x20 PUSH1 0x4 DUP3 ADD MSTORE PUSH1 0x19 PUSH1 0x24 DUP3 ADD MSTORE PUSH32 0x4552433732313A20617070726F766520746F2063616C6C657200000000000000 PUSH1 0x44 DUP3 ADD MSTORE SWAP1 MLOAD SWAP1 DUP2 SWAP1 SUB PUSH1 0x64 ADD SWAP1 REVERT JUMPDEST DUP1 PUSH1 0x5 PUSH1 0x0 PUSH2 0x9B5 PUSH2 0xDCD JUMP JUMPDEST PUSH1 0x1 PUSH1 0x1 PUSH1 0xA0 SHL SUB SWAP1 DUP2 AND DUP3 MSTORE PUSH1 0x20 DUP1 DUP4 ADD SWAP4 SWAP1 SWAP4 MSTORE PUSH1 0x40 SWAP2 DUP3 ADD PUSH1 0x0 SWAP1 DUP2 KECCAK256 SWAP2 DUP8 AND DUP1 DUP3 MSTORE SWAP2 SWAP1 SWAP4 MSTORE SWAP2 KECCAK256 DUP1 SLOAD PUSH1 0xFF NOT AND SWAP3 ISZERO ISZERO SWAP3 SWAP1 SWAP3 OR SWAP1 SWAP2 SSTORE PUSH2 0x9F9 PUSH2 0xDCD JUMP JUMPDEST PUSH1 0x1 PUSH1 0x1 PUSH1 0xA0 SHL SUB AND PUSH32 0x17307EAB39AB6107E8899845AD3D59BD9653F200F220920489CA2B5937696C31 DUP4 PUSH1 0x40 MLOAD DUP1 DUP3 ISZERO ISZERO DUP2 MSTORE PUSH1 0x20 ADD SWAP2 POP POP PUSH1 0x40 MLOAD DUP1 SWAP2 SUB SWAP1 LOG3 POP POP JUMP JUMPDEST PUSH1 0xA SLOAD DUP2 JUMP JUMPDEST PUSH2 0xA56 PUSH2 0xA50 PUSH2 0xDCD JUMP JUMPDEST DUP4 PUSH2 0xE4A JUMP JUMPDEST PUSH2 0xA91 JUMPI PUSH1 0x40 MLOAD PUSH3 0x461BCD PUSH1 0xE5 SHL DUP2 MSTORE PUSH1 0x4 ADD DUP1 DUP1 PUSH1 0x20 ADD DUP3 DUP2 SUB DUP3 MSTORE PUSH1 0x31 DUP2 MSTORE PUSH1 0x20 ADD DUP1 PUSH2 0x1C99 PUSH1 0x31 SWAP2 CODECOPY PUSH1 0x40 ADD SWAP2 POP POP PUSH1 0x40 MLOAD DUP1 SWAP2 SUB SWAP1 REVERT JUMPDEST PUSH2 0xA9D DUP5 DUP5 DUP5 DUP5 PUSH2 0x106F JUMP JUMPDEST POP POP POP POP JUMP JUMPDEST PUSH1 0x60 PUSH2 0xAAE DUP3 PUSH2 0xDC0 JUMP JUMPDEST PUSH2 0xAE9 JUMPI PUSH1 0x40 MLOAD PUSH3 0x461BCD PUSH1 0xE5 SHL DUP2 MSTORE PUSH1 0x4 ADD DUP1 DUP1 PUSH1 0x20 ADD DUP3 DUP2 SUB DUP3 MSTORE PUSH1 0x2F DUP2 MSTORE PUSH1 0x20 ADD DUP1 PUSH2 0x1C49 PUSH1 0x2F SWAP2 CODECOPY PUSH1 0x40 ADD SWAP2 POP POP PUSH1 0x40 MLOAD DUP1 SWAP2 SUB SWAP1 REVERT JUMPDEST PUSH1 0x0 DUP3 DUP2 MSTORE PUSH1 0x8 PUSH1 0x20 SWAP1 DUP2 MSTORE PUSH1 0x40 DUP1 DUP4 KECCAK256 DUP1 SLOAD DUP3 MLOAD PUSH1 0x2 PUSH1 0x1 DUP4 AND ISZERO PUSH2 0x100 MUL PUSH1 0x0 NOT ADD SWAP1 SWAP3 AND SWAP2 SWAP1 SWAP2 DIV PUSH1 0x1F DUP2 ADD DUP6 SWAP1 DIV DUP6 MUL DUP3 ADD DUP6 ADD SWAP1 SWAP4 MSTORE DUP3 DUP2 MSTORE SWAP3 SWAP1 SWAP2 SWAP1 DUP4 ADD DUP3 DUP3 DUP1 ISZERO PUSH2 0xB7C JUMPI DUP1 PUSH1 0x1F LT PUSH2 0xB51 JUMPI PUSH2 0x100 DUP1 DUP4 SLOAD DIV MUL DUP4 MSTORE SWAP2 PUSH1 0x20 ADD SWAP2 PUSH2 0xB7C JUMP JUMPDEST DUP3 ADD SWAP2 SWAP1 PUSH1 0x0 MSTORE PUSH1 0x20 PUSH1 0x0 KECCAK256 SWAP1 JUMPDEST DUP2 SLOAD DUP2 MSTORE SWAP1 PUSH1 0x1 ADD SWAP1 PUSH1 0x20 ADD DUP1 DUP4 GT PUSH2 0xB5F JUMPI DUP3 SWAP1 SUB PUSH1 0x1F AND DUP3 ADD SWAP2 JUMPDEST POP POP POP POP POP SWAP1 POP PUSH1 0x0 PUSH2 0xB8D PUSH2 0x810 JUMP JUMPDEST SWAP1 POP DUP1 MLOAD PUSH1 0x0 EQ ISZERO PUSH2 0xBA1 JUMPI POP SWAP1 POP PUSH2 0x54C JUMP JUMPDEST DUP2 MLOAD ISZERO PUSH2 0xC62 JUMPI DUP1 DUP3 PUSH1 0x40 MLOAD PUSH1 0x20 ADD DUP1 DUP4 DUP1 MLOAD SWAP1 PUSH1 0x20 ADD SWAP1 DUP1 DUP4 DUP4 JUMPDEST PUSH1 0x20 DUP4 LT PUSH2 0xBDC JUMPI DUP1 MLOAD DUP3 MSTORE PUSH1 0x1F NOT SWAP1 SWAP3 ADD SWAP2 PUSH1 0x20 SWAP2 DUP3 ADD SWAP2 ADD PUSH2 0xBBD JUMP JUMPDEST MLOAD DUP2 MLOAD PUSH1 0x20 SWAP4 DUP5 SUB PUSH2 0x100 EXP PUSH1 0x0 NOT ADD DUP1 NOT SWAP1 SWAP3 AND SWAP2 AND OR SWAP1 MSTORE DUP6 MLOAD SWAP2 SWAP1 SWAP4 ADD SWAP3 DUP6 ADD SWAP2 POP DUP1 DUP4 DUP4 JUMPDEST PUSH1 0x20 DUP4 LT PUSH2 0xC24 JUMPI DUP1 MLOAD DUP3 MSTORE PUSH1 0x1F NOT SWAP1 SWAP3 ADD SWAP2 PUSH1 0x20 SWAP2 DUP3 ADD SWAP2 ADD PUSH2 0xC05 JUMP JUMPDEST PUSH1 0x1 DUP4 PUSH1 0x20 SUB PUSH2 0x100 EXP SUB DUP1 NOT DUP3 MLOAD AND DUP2 DUP5 MLOAD AND DUP1 DUP3 OR DUP6 MSTORE POP POP POP POP POP POP SWAP1 POP ADD SWAP3 POP POP POP PUSH1 0x40 MLOAD PUSH1 0x20 DUP2 DUP4 SUB SUB DUP2 MSTORE SWAP1 PUSH1 0x40 MSTORE SWAP3 POP POP POP PUSH2 0x54C JUMP JUMPDEST DUP1 PUSH2 0xC6C DUP6 PUSH2 0x10C1 JUMP JUMPDEST PUSH1 0x40 MLOAD PUSH1 0x20 ADD DUP1 DUP4 DUP1 MLOAD SWAP1 PUSH1 0x20 ADD SWAP1 DUP1 DUP4 DUP4 JUMPDEST PUSH1 0x20 DUP4 LT PUSH2 0xC9E JUMPI DUP1 MLOAD DUP3 MSTORE PUSH1 0x1F NOT SWAP1 SWAP3 ADD SWAP2 PUSH1 0x20 SWAP2 DUP3 ADD SWAP2 ADD PUSH2 0xC7F JUMP JUMPDEST MLOAD DUP2 MLOAD PUSH1 0x20 SWAP4 DUP5 SUB PUSH2 0x100 EXP PUSH1 0x0 NOT ADD DUP1 NOT SWAP1 SWAP3 AND SWAP2 AND OR SWAP1 MSTORE DUP6 MLOAD SWAP2 SWAP1 SWAP4 ADD SWAP3 DUP6 ADD SWAP2 POP DUP1 DUP4 DUP4 JUMPDEST PUSH1 0x20 DUP4 LT PUSH2 0xCE6 JUMPI DUP1 MLOAD DUP3 MSTORE PUSH1 0x1F NOT SWAP1 SWAP3 ADD SWAP2 PUSH1 0x20 SWAP2 DUP3 ADD SWAP2 ADD PUSH2 0xCC7 JUMP JUMPDEST PUSH1 0x1 DUP4 PUSH1 0x20 SUB PUSH2 0x100 EXP SUB DUP1 NOT DUP3 MLOAD AND DUP2 DUP5 MLOAD AND DUP1 DUP3 OR DUP6 MSTORE POP POP POP POP POP POP SWAP1 POP ADD SWAP3 POP POP POP PUSH1 0x40 MLOAD PUSH1 0x20 DUP2 DUP4 SUB SUB DUP2 MSTORE SWAP1 PUSH1 0x40 MSTORE SWAP3 POP POP POP SWAP2 SWAP1 POP JUMP JUMPDEST PUSH1 0x1 PUSH1 0x1 PUSH1 0xA0 SHL SUB SWAP2 DUP3 AND PUSH1 0x0 SWAP1 DUP2 MSTORE PUSH1 0x5 PUSH1 0x20 SWAP1 DUP2 MSTORE PUSH1 0x40 DUP1 DUP4 KECCAK256 SWAP4 SWAP1 SWAP5 AND DUP3 MSTORE SWAP2 SWAP1 SWAP2 MSTORE KECCAK256 SLOAD PUSH1 0xFF AND SWAP1 JUMP JUMPDEST PUSH1 0x0 PUSH2 0xD5E PUSH1 0xA PUSH2 0x119C JUMP JUMPDEST PUSH1 0x0 PUSH2 0xD6A PUSH1 0xA PUSH2 0x11A5 JUMP JUMPDEST SWAP1 POP PUSH2 0xD76 DUP6 DUP3 PUSH2 0x11A9 JUMP JUMPDEST PUSH2 0xDB6 DUP2 DUP6 DUP6 DUP1 DUP1 PUSH1 0x1F ADD PUSH1 0x20 DUP1 SWAP2 DIV MUL PUSH1 0x20 ADD PUSH1 0x40 MLOAD SWAP1 DUP2 ADD PUSH1 0x40 MSTORE DUP1 SWAP4 SWAP3 SWAP2 SWAP1 DUP2 DUP2 MSTORE PUSH1 0x20 ADD DUP4 DUP4 DUP1 DUP3 DUP5 CALLDATACOPY PUSH1 0x0 SWAP3 ADD SWAP2 SWAP1 SWAP2 MSTORE POP PUSH2 0x12D7 SWAP3 POP POP POP JUMP JUMPDEST SWAP1 POP JUMPDEST SWAP4 SWAP3 POP POP POP JUMP JUMPDEST PUSH1 0x0 PUSH2 0x7B1 PUSH1 0x2 DUP4 PUSH2 0x133A JUMP JUMPDEST CALLER SWAP1 JUMP JUMPDEST PUSH1 0x0 DUP2 DUP2 MSTORE PUSH1 0x4 PUSH1 0x20 MSTORE PUSH1 0x40 SWAP1 KECCAK256 DUP1 SLOAD PUSH1 0x1 PUSH1 0x1 PUSH1 0xA0 SHL SUB NOT AND PUSH1 0x1 PUSH1 0x1 PUSH1 0xA0 SHL SUB DUP5 AND SWAP1 DUP2 OR SWAP1 SWAP2 SSTORE DUP2 SWAP1 PUSH2 0xE06 DUP3 PUSH2 0x7E8 JUMP JUMPDEST PUSH1 0x1 PUSH1 0x1 PUSH1 0xA0 SHL SUB AND PUSH32 0x8C5BE1E5EBEC7D5BD14F71427D1E84F3DD0314C0F7B2291E5B200AC8C7C3B925 PUSH1 0x40 MLOAD PUSH1 0x40 MLOAD DUP1 SWAP2 SUB SWAP1 LOG4 POP POP JUMP JUMPDEST PUSH1 0x0 PUSH2 0x7B1 DUP3 PUSH2 0x11A5 JUMP JUMPDEST PUSH1 0x0 PUSH2 0xE55 DUP3 PUSH2 0xDC0 JUMP JUMPDEST PUSH2 0xE90 JUMPI PUSH1 0x40 MLOAD PUSH3 0x461BCD PUSH1 0xE5 SHL DUP2 MSTORE PUSH1 0x4 ADD DUP1 DUP1 PUSH1 0x20 ADD DUP3 DUP2 SUB DUP3 MSTORE PUSH1 0x2C DUP2 MSTORE PUSH1 0x20 ADD DUP1 PUSH2 0x1AEF PUSH1 0x2C SWAP2 CODECOPY PUSH1 0x40 ADD SWAP2 POP POP PUSH1 0x40 MLOAD DUP1 SWAP2 SUB SWAP1 REVERT JUMPDEST PUSH1 0x0 PUSH2 0xE9B DUP4 PUSH2 0x7E8 JUMP JUMPDEST SWAP1 POP DUP1 PUSH1 0x1 PUSH1 0x1 PUSH1 0xA0 SHL SUB AND DUP5 PUSH1 0x1 PUSH1 0x1 PUSH1 0xA0 SHL SUB AND EQ DUP1 PUSH2 0xED6 JUMPI POP DUP4 PUSH1 0x1 PUSH1 0x1 PUSH1 0xA0 SHL SUB AND PUSH2 0xECB DUP5 PUSH2 0x5E7 JUMP JUMPDEST PUSH1 0x1 PUSH1 0x1 PUSH1 0xA0 SHL SUB AND EQ JUMPDEST DUP1 PUSH2 0xEE6 JUMPI POP PUSH2 0xEE6 DUP2 DUP6 PUSH2 0xD24 JUMP JUMPDEST SWAP5 SWAP4 POP POP POP POP JUMP JUMPDEST DUP3 PUSH1 0x1 PUSH1 0x1 PUSH1 0xA0 SHL SUB AND PUSH2 0xF01 DUP3 PUSH2 0x7E8 JUMP JUMPDEST PUSH1 0x1 PUSH1 0x1 PUSH1 0xA0 SHL SUB AND EQ PUSH2 0xF46 JUMPI PUSH1 0x40 MLOAD PUSH3 0x461BCD PUSH1 0xE5 SHL DUP2 MSTORE PUSH1 0x4 ADD DUP1 DUP1 PUSH1 0x20 ADD DUP3 DUP2 SUB DUP3 MSTORE PUSH1 0x29 DUP2 MSTORE PUSH1 0x20 ADD DUP1 PUSH2 0x1C20 PUSH1 0x29 SWAP2 CODECOPY PUSH1 0x40 ADD SWAP2 POP POP PUSH1 0x40 MLOAD DUP1 SWAP2 SUB SWAP1 REVERT JUMPDEST PUSH1 0x1 PUSH1 0x1 PUSH1 0xA0 SHL SUB DUP3 AND PUSH2 0xF8B JUMPI PUSH1 0x40 MLOAD PUSH3 0x461BCD PUSH1 0xE5 SHL DUP2 MSTORE PUSH1 0x4 ADD DUP1 DUP1 PUSH1 0x20 ADD DUP3 DUP2 SUB DUP3 MSTORE PUSH1 0x24 DUP2 MSTORE PUSH1 0x20 ADD DUP1 PUSH2 0x1ACB PUSH1 0x24 SWAP2 CODECOPY PUSH1 0x40 ADD SWAP2 POP POP PUSH1 0x40 MLOAD DUP1 SWAP2 SUB SWAP1 REVERT JUMPDEST PUSH2 0xF96 DUP4 DUP4 DUP4 PUSH2 0x71F JUMP JUMPDEST PUSH2 0xFA1 PUSH1 0x0 DUP3 PUSH2 0xDD1 JUMP JUMPDEST PUSH1 0x1 PUSH1 0x1 PUSH1 0xA0 SHL SUB DUP4 AND PUSH1 0x0 SWAP1 DUP2 MSTORE PUSH1 0x1 PUSH1 0x20 MSTORE PUSH1 0x40 SWAP1 KECCAK256 PUSH2 0xFC3 SWAP1 DUP3 PUSH2 0x1346 JUMP JUMPDEST POP PUSH1 0x1 PUSH1 0x1 PUSH1 0xA0 SHL SUB DUP3 AND PUSH1 0x0 SWAP1 DUP2 MSTORE PUSH1 0x1 PUSH1 0x20 MSTORE PUSH1 0x40 SWAP1 KECCAK256 PUSH2 0xFE6 SWAP1 DUP3 PUSH2 0x1352 JUMP JUMPDEST POP PUSH2 0xFF3 PUSH1 0x2 DUP3 DUP5 PUSH2 0x135E JUMP JUMPDEST POP DUP1 DUP3 PUSH1 0x1 PUSH1 0x1 PUSH1 0xA0 SHL SUB AND DUP5 PUSH1 0x1 PUSH1 0x1 PUSH1 0xA0 SHL SUB AND PUSH32 0xDDF252AD1BE2C89B69C2B068FC378DAA952BA7F163C4A11628F55A4DF523B3EF PUSH1 0x40 MLOAD PUSH1 0x40 MLOAD DUP1 SWAP2 SUB SWAP1 LOG4 POP POP POP JUMP JUMPDEST PUSH1 0x0 PUSH2 0x7AE DUP4 DUP4 PUSH2 0x1374 JUMP JUMPDEST PUSH1 0x0 DUP1 DUP1 DUP1 PUSH2 0x1055 DUP7 DUP7 PUSH2 0x13D8 JUMP JUMPDEST SWAP1 SWAP8 SWAP1 SWAP7 POP SWAP5 POP POP POP POP POP JUMP JUMPDEST PUSH1 0x0 PUSH2 0xDB6 DUP5 DUP5 DUP5 PUSH2 0x1453 JUMP JUMPDEST PUSH2 0x107A DUP5 DUP5 DUP5 PUSH2 0xEEE JUMP JUMPDEST PUSH2 0x1086 DUP5 DUP5 DUP5 DUP5 PUSH2 0x151D JUMP JUMPDEST PUSH2 0xA9D JUMPI PUSH1 0x40 MLOAD PUSH3 0x461BCD PUSH1 0xE5 SHL DUP2 MSTORE PUSH1 0x4 ADD DUP1 DUP1 PUSH1 0x20 ADD DUP3 DUP2 SUB DUP3 MSTORE PUSH1 0x32 DUP2 MSTORE PUSH1 0x20 ADD DUP1 PUSH2 0x1A99 PUSH1 0x32 SWAP2 CODECOPY PUSH1 0x40 ADD SWAP2 POP POP PUSH1 0x40 MLOAD DUP1 SWAP2 SUB SWAP1 REVERT JUMPDEST PUSH1 0x60 DUP2 PUSH2 0x10E6 JUMPI POP PUSH1 0x40 DUP1 MLOAD DUP1 DUP3 ADD SWAP1 SWAP2 MSTORE PUSH1 0x1 DUP2 MSTORE PUSH1 0x3 PUSH1 0xFC SHL PUSH1 0x20 DUP3 ADD MSTORE PUSH2 0x54C JUMP JUMPDEST DUP2 PUSH1 0x0 JUMPDEST DUP2 ISZERO PUSH2 0x10FE JUMPI PUSH1 0x1 ADD PUSH1 0xA DUP3 DIV SWAP2 POP PUSH2 0x10EA JUMP JUMPDEST PUSH1 0x0 DUP2 PUSH8 0xFFFFFFFFFFFFFFFF DUP2 GT DUP1 ISZERO PUSH2 0x1117 JUMPI PUSH1 0x0 DUP1 REVERT JUMPDEST POP PUSH1 0x40 MLOAD SWAP1 DUP1 DUP3 MSTORE DUP1 PUSH1 0x1F ADD PUSH1 0x1F NOT AND PUSH1 0x20 ADD DUP3 ADD PUSH1 0x40 MSTORE DUP1 ISZERO PUSH2 0x1142 JUMPI PUSH1 0x20 DUP3 ADD DUP2 DUP1 CALLDATASIZE DUP4 CALLDATACOPY ADD SWAP1 POP JUMPDEST POP DUP6 SWAP4 POP SWAP1 POP PUSH1 0x0 NOT DUP3 ADD JUMPDEST DUP4 ISZERO PUSH2 0x1193 JUMPI PUSH1 0xA DUP5 MOD PUSH1 0x30 ADD PUSH1 0xF8 SHL DUP3 DUP3 DUP1 PUSH1 0x1 SWAP1 SUB SWAP4 POP DUP2 MLOAD DUP2 LT PUSH2 0x1171 JUMPI INVALID JUMPDEST PUSH1 0x20 ADD ADD SWAP1 PUSH1 0x1 PUSH1 0x1 PUSH1 0xF8 SHL SUB NOT AND SWAP1 DUP2 PUSH1 0x0 BYTE SWAP1 MSTORE8 POP PUSH1 0xA DUP5 DIV SWAP4 POP PUSH2 0x114E JUMP JUMPDEST POP SWAP5 SWAP4 POP POP POP POP JUMP JUMPDEST DUP1 SLOAD PUSH1 0x1 ADD SWAP1 SSTORE JUMP JUMPDEST SLOAD SWAP1 JUMP JUMPDEST PUSH1 0x1 PUSH1 0x1 PUSH1 0xA0 SHL SUB DUP3 AND PUSH2 0x1204 JUMPI PUSH1 0x40 DUP1 MLOAD PUSH3 0x461BCD PUSH1 0xE5 SHL DUP2 MSTORE PUSH1 0x20 PUSH1 0x4 DUP3 ADD DUP2 SWAP1 MSTORE PUSH1 0x24 DUP3 ADD MSTORE PUSH32 0x4552433732313A206D696E7420746F20746865207A65726F2061646472657373 PUSH1 0x44 DUP3 ADD MSTORE SWAP1 MLOAD SWAP1 DUP2 SWAP1 SUB PUSH1 0x64 ADD SWAP1 REVERT JUMPDEST PUSH2 0x120D DUP2 PUSH2 0xDC0 JUMP JUMPDEST ISZERO PUSH2 0x125F JUMPI PUSH1 0x40 DUP1 MLOAD PUSH3 0x461BCD PUSH1 0xE5 SHL DUP2 MSTORE PUSH1 0x20 PUSH1 0x4 DUP3 ADD MSTORE PUSH1 0x1C PUSH1 0x24 DUP3 ADD MSTORE PUSH32 0x4552433732313A20746F6B656E20616C7265616479206D696E74656400000000 PUSH1 0x44 DUP3 ADD MSTORE SWAP1 MLOAD SWAP1 DUP2 SWAP1 SUB PUSH1 0x64 ADD SWAP1 REVERT JUMPDEST PUSH2 0x126B PUSH1 0x0 DUP4 DUP4 PUSH2 0x71F JUMP JUMPDEST PUSH1 0x1 PUSH1 0x1 PUSH1 0xA0 SHL SUB DUP3 AND PUSH1 0x0 SWAP1 DUP2 MSTORE PUSH1 0x1 PUSH1 0x20 MSTORE PUSH1 0x40 SWAP1 KECCAK256 PUSH2 0x128D SWAP1 DUP3 PUSH2 0x1352 JUMP JUMPDEST POP PUSH2 0x129A PUSH1 0x2 DUP3 DUP5 PUSH2 0x135E JUMP JUMPDEST POP PUSH1 0x40 MLOAD DUP2 SWAP1 PUSH1 0x1 PUSH1 0x1 PUSH1 0xA0 SHL SUB DUP5 AND SWAP1 PUSH1 0x0 SWAP1 PUSH32 0xDDF252AD1BE2C89B69C2B068FC378DAA952BA7F163C4A11628F55A4DF523B3EF SWAP1 DUP3 SWAP1 LOG4 POP POP JUMP JUMPDEST PUSH2 0x12E0 DUP3 PUSH2 0xDC0 JUMP JUMPDEST PUSH2 0x131B JUMPI PUSH1 0x40 MLOAD PUSH3 0x461BCD PUSH1 0xE5 SHL DUP2 MSTORE PUSH1 0x4 ADD DUP1 DUP1 PUSH1 0x20 ADD DUP3 DUP2 SUB DUP3 MSTORE PUSH1 0x2C DUP2 MSTORE PUSH1 0x20 ADD DUP1 PUSH2 0x1BF4 PUSH1 0x2C SWAP2 CODECOPY PUSH1 0x40 ADD SWAP2 POP POP PUSH1 0x40 MLOAD DUP1 SWAP2 SUB SWAP1 REVERT JUMPDEST PUSH1 0x0 DUP3 DUP2 MSTORE PUSH1 0x8 PUSH1 0x20 SWAP1 DUP2 MSTORE PUSH1 0x40 SWAP1 SWAP2 KECCAK256 DUP3 MLOAD PUSH2 0x71F SWAP3 DUP5 ADD SWAP1 PUSH2 0x19D5 JUMP JUMPDEST PUSH1 0x0 PUSH2 0x7AE DUP4 DUP4 PUSH2 0x1685 JUMP JUMPDEST PUSH1 0x0 PUSH2 0x7AE DUP4 DUP4 PUSH2 0x169D JUMP JUMPDEST PUSH1 0x0 PUSH2 0x7AE DUP4 DUP4 PUSH2 0x1763 JUMP JUMPDEST PUSH1 0x0 PUSH2 0xDB6 DUP5 DUP5 PUSH1 0x1 PUSH1 0x1 PUSH1 0xA0 SHL SUB DUP6 AND PUSH2 0x17AD JUMP JUMPDEST DUP2 SLOAD PUSH1 0x0 SWAP1 DUP3 LT PUSH2 0x13B6 JUMPI PUSH1 0x40 MLOAD PUSH3 0x461BCD PUSH1 0xE5 SHL DUP2 MSTORE PUSH1 0x4 ADD DUP1 DUP1 PUSH1 0x20 ADD DUP3 DUP2 SUB DUP3 MSTORE PUSH1 0x22 DUP2 MSTORE PUSH1 0x20 ADD DUP1 PUSH2 0x1A77 PUSH1 0x22 SWAP2 CODECOPY PUSH1 0x40 ADD SWAP2 POP POP PUSH1 0x40 MLOAD DUP1 SWAP2 SUB SWAP1 REVERT JUMPDEST DUP3 PUSH1 0x0 ADD DUP3 DUP2 SLOAD DUP2 LT PUSH2 0x13C5 JUMPI INVALID JUMPDEST SWAP1 PUSH1 0x0 MSTORE PUSH1 0x20 PUSH1 0x0 KECCAK256 ADD SLOAD SWAP1 POP SWAP3 SWAP2 POP POP JUMP JUMPDEST DUP2 SLOAD PUSH1 0x0 SWAP1 DUP2 SWAP1 DUP4 LT PUSH2 0x141C JUMPI PUSH1 0x40 MLOAD PUSH3 0x461BCD PUSH1 0xE5 SHL DUP2 MSTORE PUSH1 0x4 ADD DUP1 DUP1 PUSH1 0x20 ADD DUP3 DUP2 SUB DUP3 MSTORE PUSH1 0x22 DUP2 MSTORE PUSH1 0x20 ADD DUP1 PUSH2 0x1BA6 PUSH1 0x22 SWAP2 CODECOPY PUSH1 0x40 ADD SWAP2 POP POP PUSH1 0x40 MLOAD DUP1 SWAP2 SUB SWAP1 REVERT JUMPDEST PUSH1 0x0 DUP5 PUSH1 0x0 ADD DUP5 DUP2 SLOAD DUP2 LT PUSH2 0x142D JUMPI INVALID JUMPDEST SWAP1 PUSH1 0x0 MSTORE PUSH1 0x20 PUSH1 0x0 KECCAK256 SWAP1 PUSH1 0x2 MUL ADD SWAP1 POP DUP1 PUSH1 0x0 ADD SLOAD DUP2 PUSH1 0x1 ADD SLOAD SWAP3 POP SWAP3 POP POP SWAP3 POP SWAP3 SWAP1 POP JUMP JUMPDEST PUSH1 0x0 DUP3 DUP2 MSTORE PUSH1 0x1 DUP5 ADD PUSH1 0x20 MSTORE PUSH1 0x40 DUP2 KECCAK256 SLOAD DUP3 DUP2 PUSH2 0x14EE JUMPI PUSH1 0x40 MLOAD PUSH3 0x461BCD PUSH1 0xE5 SHL DUP2 MSTORE PUSH1 0x4 ADD DUP1 DUP1 PUSH1 0x20 ADD DUP3 DUP2 SUB DUP3 MSTORE DUP4 DUP2 DUP2 MLOAD DUP2 MSTORE PUSH1 0x20 ADD SWAP2 POP DUP1 MLOAD SWAP1 PUSH1 0x20 ADD SWAP1 DUP1 DUP4 DUP4 PUSH1 0x0 JUMPDEST DUP4 DUP2 LT ISZERO PUSH2 0x14B3 JUMPI DUP2 DUP2 ADD MLOAD DUP4 DUP3 ADD MSTORE PUSH1 0x20 ADD PUSH2 0x149B JUMP JUMPDEST POP POP POP POP SWAP1 POP SWAP1 DUP2 ADD SWAP1 PUSH1 0x1F AND DUP1 ISZERO PUSH2 0x14E0 JUMPI DUP1 DUP3 SUB DUP1 MLOAD PUSH1 0x1 DUP4 PUSH1 0x20 SUB PUSH2 0x100 EXP SUB NOT AND DUP2 MSTORE PUSH1 0x20 ADD SWAP2 POP JUMPDEST POP SWAP3 POP POP POP PUSH1 0x40 MLOAD DUP1 SWAP2 SUB SWAP1 REVERT JUMPDEST POP DUP5 PUSH1 0x0 ADD PUSH1 0x1 DUP3 SUB DUP2 SLOAD DUP2 LT PUSH2 0x1501 JUMPI INVALID JUMPDEST SWAP1 PUSH1 0x0 MSTORE PUSH1 0x20 PUSH1 0x0 KECCAK256 SWAP1 PUSH1 0x2 MUL ADD PUSH1 0x1 ADD SLOAD SWAP2 POP POP SWAP4 SWAP3 POP POP POP JUMP JUMPDEST PUSH1 0x0 PUSH2 0x1531 DUP5 PUSH1 0x1 PUSH1 0x1 PUSH1 0xA0 SHL SUB AND PUSH2 0x1844 JUMP JUMPDEST PUSH2 0x153D JUMPI POP PUSH1 0x1 PUSH2 0xEE6 JUMP JUMPDEST PUSH1 0x0 PUSH2 0x164B PUSH4 0xA85BD01 PUSH1 0xE1 SHL PUSH2 0x1552 PUSH2 0xDCD JUMP JUMPDEST DUP9 DUP8 DUP8 PUSH1 0x40 MLOAD PUSH1 0x24 ADD DUP1 DUP6 PUSH1 0x1 PUSH1 0x1 PUSH1 0xA0 SHL SUB AND DUP2 MSTORE PUSH1 0x20 ADD DUP5 PUSH1 0x1 PUSH1 0x1 PUSH1 0xA0 SHL SUB AND DUP2 MSTORE PUSH1 0x20 ADD DUP4 DUP2 MSTORE PUSH1 0x20 ADD DUP1 PUSH1 0x20 ADD DUP3 DUP2 SUB DUP3 MSTORE DUP4 DUP2 DUP2 MLOAD DUP2 MSTORE PUSH1 0x20 ADD SWAP2 POP DUP1 MLOAD SWAP1 PUSH1 0x20 ADD SWAP1 DUP1 DUP4 DUP4 PUSH1 0x0 JUMPDEST DUP4 DUP2 LT ISZERO PUSH2 0x15B9 JUMPI DUP2 DUP2 ADD MLOAD DUP4 DUP3 ADD MSTORE PUSH1 0x20 ADD PUSH2 0x15A1 JUMP JUMPDEST POP POP POP POP SWAP1 POP SWAP1 DUP2 ADD SWAP1 PUSH1 0x1F AND DUP1 ISZERO PUSH2 0x15E6 JUMPI DUP1 DUP3 SUB DUP1 MLOAD PUSH1 0x1 DUP4 PUSH1 0x20 SUB PUSH2 0x100 EXP SUB NOT AND DUP2 MSTORE PUSH1 0x20 ADD SWAP2 POP JUMPDEST POP SWAP6 POP POP POP POP POP POP PUSH1 0x40 MLOAD PUSH1 0x20 DUP2 DUP4 SUB SUB DUP2 MSTORE SWAP1 PUSH1 0x40 MSTORE SWAP1 PUSH1 0x1 PUSH1 0x1 PUSH1 0xE0 SHL SUB NOT AND PUSH1 0x20 DUP3 ADD DUP1 MLOAD PUSH1 0x1 PUSH1 0x1 PUSH1 0xE0 SHL SUB DUP4 DUP2 DUP4 AND OR DUP4 MSTORE POP POP POP POP PUSH1 0x40 MLOAD DUP1 PUSH1 0x60 ADD PUSH1 0x40 MSTORE DUP1 PUSH1 0x32 DUP2 MSTORE PUSH1 0x20 ADD PUSH2 0x1A99 PUSH1 0x32 SWAP2 CODECOPY PUSH1 0x1 PUSH1 0x1 PUSH1 0xA0 SHL SUB DUP9 AND SWAP2 SWAP1 PUSH2 0x184A JUMP JUMPDEST SWAP1 POP PUSH1 0x0 DUP2 DUP1 PUSH1 0x20 ADD SWAP1 MLOAD PUSH1 0x20 DUP2 LT ISZERO PUSH2 0x1664 JUMPI PUSH1 0x0 DUP1 REVERT JUMPDEST POP MLOAD PUSH1 0x1 PUSH1 0x1 PUSH1 0xE0 SHL SUB NOT AND PUSH4 0xA85BD01 PUSH1 0xE1 SHL EQ SWAP3 POP POP POP SWAP5 SWAP4 POP POP POP POP JUMP JUMPDEST PUSH1 0x0 SWAP1 DUP2 MSTORE PUSH1 0x1 SWAP2 SWAP1 SWAP2 ADD PUSH1 0x20 MSTORE PUSH1 0x40 SWAP1 KECCAK256 SLOAD ISZERO ISZERO SWAP1 JUMP JUMPDEST PUSH1 0x0 DUP2 DUP2 MSTORE PUSH1 0x1 DUP4 ADD PUSH1 0x20 MSTORE PUSH1 0x40 DUP2 KECCAK256 SLOAD DUP1 ISZERO PUSH2 0x1759 JUMPI DUP4 SLOAD PUSH1 0x0 NOT DUP1 DUP4 ADD SWAP2 SWAP1 DUP2 ADD SWAP1 PUSH1 0x0 SWAP1 DUP8 SWAP1 DUP4 SWAP1 DUP2 LT PUSH2 0x16D0 JUMPI INVALID JUMPDEST SWAP1 PUSH1 0x0 MSTORE PUSH1 0x20 PUSH1 0x0 KECCAK256 ADD SLOAD SWAP1 POP DUP1 DUP8 PUSH1 0x0 ADD DUP5 DUP2 SLOAD DUP2 LT PUSH2 0x16ED JUMPI INVALID JUMPDEST PUSH1 0x0 SWAP2 DUP3 MSTORE PUSH1 0x20 DUP1 DUP4 KECCAK256 SWAP1 SWAP2 ADD SWAP3 SWAP1 SWAP3 SSTORE DUP3 DUP2 MSTORE PUSH1 0x1 DUP10 DUP2 ADD SWAP1 SWAP3 MSTORE PUSH1 0x40 SWAP1 KECCAK256 SWAP1 DUP5 ADD SWAP1 SSTORE DUP7 SLOAD DUP8 SWAP1 DUP1 PUSH2 0x171D JUMPI INVALID JUMPDEST PUSH1 0x1 SWAP1 SUB DUP2 DUP2 SWAP1 PUSH1 0x0 MSTORE PUSH1 0x20 PUSH1 0x0 KECCAK256 ADD PUSH1 0x0 SWAP1 SSTORE SWAP1 SSTORE DUP7 PUSH1 0x1 ADD PUSH1 0x0 DUP8 DUP2 MSTORE PUSH1 0x20 ADD SWAP1 DUP2 MSTORE PUSH1 0x20 ADD PUSH1 0x0 KECCAK256 PUSH1 0x0 SWAP1 SSTORE PUSH1 0x1 SWAP5 POP POP POP POP POP PUSH2 0x7B1 JUMP JUMPDEST PUSH1 0x0 SWAP2 POP POP PUSH2 0x7B1 JUMP JUMPDEST PUSH1 0x0 PUSH2 0x176F DUP4 DUP4 PUSH2 0x1685 JUMP JUMPDEST PUSH2 0x17A5 JUMPI POP DUP2 SLOAD PUSH1 0x1 DUP2 DUP2 ADD DUP5 SSTORE PUSH1 0x0 DUP5 DUP2 MSTORE PUSH1 0x20 DUP1 DUP3 KECCAK256 SWAP1 SWAP4 ADD DUP5 SWAP1 SSTORE DUP5 SLOAD DUP5 DUP3 MSTORE DUP3 DUP7 ADD SWAP1 SWAP4 MSTORE PUSH1 0x40 SWAP1 KECCAK256 SWAP2 SWAP1 SWAP2 SSTORE PUSH2 0x7B1 JUMP JUMPDEST POP PUSH1 0x0 PUSH2 0x7B1 JUMP JUMPDEST PUSH1 0x0 DUP3 DUP2 MSTORE PUSH1 0x1 DUP5 ADD PUSH1 0x20 MSTORE PUSH1 0x40 DUP2 KECCAK256 SLOAD DUP1 PUSH2 0x1812 JUMPI POP POP PUSH1 0x40 DUP1 MLOAD DUP1 DUP3 ADD DUP3 MSTORE DUP4 DUP2 MSTORE PUSH1 0x20 DUP1 DUP3 ADD DUP5 DUP2 MSTORE DUP7 SLOAD PUSH1 0x1 DUP2 DUP2 ADD DUP10 SSTORE PUSH1 0x0 DUP10 DUP2 MSTORE DUP5 DUP2 KECCAK256 SWAP6 MLOAD PUSH1 0x2 SWAP1 SWAP4 MUL SWAP1 SWAP6 ADD SWAP2 DUP3 SSTORE SWAP2 MLOAD SWAP1 DUP3 ADD SSTORE DUP7 SLOAD DUP7 DUP5 MSTORE DUP2 DUP9 ADD SWAP1 SWAP3 MSTORE SWAP3 SWAP1 SWAP2 KECCAK256 SSTORE PUSH2 0xDB9 JUMP JUMPDEST DUP3 DUP6 PUSH1 0x0 ADD PUSH1 0x1 DUP4 SUB DUP2 SLOAD DUP2 LT PUSH2 0x1825 JUMPI INVALID JUMPDEST SWAP1 PUSH1 0x0 MSTORE PUSH1 0x20 PUSH1 0x0 KECCAK256 SWAP1 PUSH1 0x2 MUL ADD PUSH1 0x1 ADD DUP2 SWAP1 SSTORE POP PUSH1 0x0 SWAP2 POP POP PUSH2 0xDB9 JUMP JUMPDEST EXTCODESIZE ISZERO ISZERO SWAP1 JUMP JUMPDEST PUSH1 0x60 PUSH2 0xDB6 DUP5 DUP5 PUSH1 0x0 DUP6 DUP6 PUSH2 0x185E DUP6 PUSH2 0x1844 JUMP JUMPDEST PUSH2 0x18AF JUMPI PUSH1 0x40 DUP1 MLOAD PUSH3 0x461BCD PUSH1 0xE5 SHL DUP2 MSTORE PUSH1 0x20 PUSH1 0x4 DUP3 ADD MSTORE PUSH1 0x1D PUSH1 0x24 DUP3 ADD MSTORE PUSH32 0x416464726573733A2063616C6C20746F206E6F6E2D636F6E7472616374000000 PUSH1 0x44 DUP3 ADD MSTORE SWAP1 MLOAD SWAP1 DUP2 SWAP1 SUB PUSH1 0x64 ADD SWAP1 REVERT JUMPDEST PUSH1 0x0 DUP1 DUP7 PUSH1 0x1 PUSH1 0x1 PUSH1 0xA0 SHL SUB AND DUP6 DUP8 PUSH1 0x40 MLOAD DUP1 DUP3 DUP1 MLOAD SWAP1 PUSH1 0x20 ADD SWAP1 DUP1 DUP4 DUP4 JUMPDEST PUSH1 0x20 DUP4 LT PUSH2 0x18ED JUMPI DUP1 MLOAD DUP3 MSTORE PUSH1 0x1F NOT SWAP1 SWAP3 ADD SWAP2 PUSH1 0x20 SWAP2 DUP3 ADD SWAP2 ADD PUSH2 0x18CE JUMP JUMPDEST PUSH1 0x1 DUP4 PUSH1 0x20 SUB PUSH2 0x100 EXP SUB DUP1 NOT DUP3 MLOAD AND DUP2 DUP5 MLOAD AND DUP1 DUP3 OR DUP6 MSTORE POP POP POP POP POP POP SWAP1 POP ADD SWAP2 POP POP PUSH1 0x0 PUSH1 0x40 MLOAD DUP1 DUP4 SUB DUP2 DUP6 DUP8 GAS CALL SWAP3 POP POP POP RETURNDATASIZE DUP1 PUSH1 0x0 DUP2 EQ PUSH2 0x194F JUMPI PUSH1 0x40 MLOAD SWAP2 POP PUSH1 0x1F NOT PUSH1 0x3F RETURNDATASIZE ADD AND DUP3 ADD PUSH1 0x40 MSTORE RETURNDATASIZE DUP3 MSTORE RETURNDATASIZE PUSH1 0x0 PUSH1 0x20 DUP5 ADD RETURNDATACOPY PUSH2 0x1954 JUMP JUMPDEST PUSH1 0x60 SWAP2 POP JUMPDEST POP SWAP2 POP SWAP2 POP PUSH2 0x1964 DUP3 DUP3 DUP7 PUSH2 0x196F JUMP JUMPDEST SWAP8 SWAP7 POP POP POP POP POP POP POP JUMP JUMPDEST PUSH1 0x60 DUP4 ISZERO PUSH2 0x197E JUMPI POP DUP2 PUSH2 0xDB9 JUMP JUMPDEST DUP3 MLOAD ISZERO PUSH2 0x198E JUMPI DUP3 MLOAD DUP1 DUP5 PUSH1 0x20 ADD REVERT JUMPDEST PUSH1 0x40 MLOAD PUSH3 0x461BCD PUSH1 0xE5 SHL DUP2 MSTORE PUSH1 0x20 PUSH1 0x4 DUP3 ADD DUP2 DUP2 MSTORE DUP5 MLOAD PUSH1 0x24 DUP5 ADD MSTORE DUP5 MLOAD DUP6 SWAP4 SWAP2 SWAP3 DUP4 SWAP3 PUSH1 0x44 ADD SWAP2 SWAP1 DUP6 ADD SWAP1 DUP1 DUP4 DUP4 PUSH1 0x0 DUP4 ISZERO PUSH2 0x14B3 JUMPI DUP2 DUP2 ADD MLOAD DUP4 DUP3 ADD MSTORE PUSH1 0x20 ADD PUSH2 0x149B JUMP JUMPDEST DUP3 DUP1 SLOAD PUSH1 0x1 DUP2 PUSH1 0x1 AND ISZERO PUSH2 0x100 MUL SUB AND PUSH1 0x2 SWAP1 DIV SWAP1 PUSH1 0x0 MSTORE PUSH1 0x20 PUSH1 0x0 KECCAK256 SWAP1 PUSH1 0x1F ADD PUSH1 0x20 SWAP1 DIV DUP2 ADD SWAP3 DUP3 PUSH2 0x1A0B JUMPI PUSH1 0x0 DUP6 SSTORE PUSH2 0x1A51 JUMP JUMPDEST DUP3 PUSH1 0x1F LT PUSH2 0x1A24 JUMPI DUP1 MLOAD PUSH1 0xFF NOT AND DUP4 DUP1 ADD OR DUP6 SSTORE PUSH2 0x1A51 JUMP JUMPDEST DUP3 DUP1 ADD PUSH1 0x1 ADD DUP6 SSTORE DUP3 ISZERO PUSH2 0x1A51 JUMPI SWAP2 DUP3 ADD JUMPDEST DUP3 DUP2 GT ISZERO PUSH2 0x1A51 JUMPI DUP3 MLOAD DUP3 SSTORE SWAP2 PUSH1 0x20 ADD SWAP2 SWAP1 PUSH1 0x1 ADD SWAP1 PUSH2 0x1A36 JUMP JUMPDEST POP PUSH2 0x1A5D SWAP3 SWAP2 POP PUSH2 0x1A61 JUMP JUMPDEST POP SWAP1 JUMP JUMPDEST JUMPDEST DUP1 DUP3 GT ISZERO PUSH2 0x1A5D JUMPI PUSH1 0x0 DUP2 SSTORE PUSH1 0x1 ADD PUSH2 0x1A62 JUMP INVALID GASLIMIT PUSH15 0x756D657261626C655365743A20696E PUSH5 0x6578206F75 PUSH21 0x206F6620626F756E64734552433732313A20747261 PUSH15 0x7366657220746F206E6F6E20455243 CALLDATACOPY ORIGIN BALANCE MSTORE PUSH6 0x636569766572 KECCAK256 PUSH10 0x6D706C656D656E746572 GASLIMIT MSTORE NUMBER CALLDATACOPY ORIGIN BALANCE GASPRICE KECCAK256 PUSH21 0x72616E7366657220746F20746865207A65726F2061 PUSH5 0x6472657373 GASLIMIT MSTORE NUMBER CALLDATACOPY ORIGIN BALANCE GASPRICE KECCAK256 PUSH16 0x70657261746F7220717565727920666F PUSH19 0x206E6F6E6578697374656E7420746F6B656E45 MSTORE NUMBER CALLDATACOPY ORIGIN BALANCE GASPRICE KECCAK256 PUSH2 0x7070 PUSH19 0x6F76652063616C6C6572206973206E6F74206F PUSH24 0x6E6572206E6F7220617070726F76656420666F7220616C6C GASLIMIT MSTORE NUMBER CALLDATACOPY ORIGIN BALANCE GASPRICE KECCAK256 PUSH3 0x616C61 PUSH15 0x636520717565727920666F72207468 PUSH6 0x207A65726F20 PUSH2 0x6464 PUSH19 0x6573734552433732313A206F776E6572207175 PUSH6 0x727920666F72 KECCAK256 PUSH15 0x6F6E6578697374656E7420746F6B65 PUSH15 0x456E756D657261626C654D61703A20 PUSH10 0x6E646578206F7574206F PUSH7 0x20626F756E6473 GASLIMIT MSTORE NUMBER CALLDATACOPY ORIGIN BALANCE GASPRICE KECCAK256 PUSH2 0x7070 PUSH19 0x6F76656420717565727920666F72206E6F6E65 PUSH25 0x697374656E7420746F6B656E4552433732314D657461646174 PUSH2 0x3A20 SSTORE MSTORE 0x49 KECCAK256 PUSH20 0x6574206F66206E6F6E6578697374656E7420746F PUSH12 0x656E4552433732313A207472 PUSH2 0x6E73 PUSH7 0x6572206F662074 PUSH16 0x6B656E2074686174206973206E6F7420 PUSH16 0x776E4552433732314D65746164617461 GASPRICE KECCAK256 SSTORE MSTORE 0x49 KECCAK256 PUSH18 0x7565727920666F72206E6F6E657869737465 PUSH15 0x7420746F6B656E4552433732313A20 PUSH2 0x7070 PUSH19 0x6F76616C20746F2063757272656E74206F776E PUSH6 0x724552433732 BALANCE GASPRICE KECCAK256 PUSH21 0x72616E736665722063616C6C6572206973206E6F74 KECCAK256 PUSH16 0x776E6572206E6F7220617070726F7665 PUSH5 0xA264697066 PUSH20 0x58221220C23674018A7A98A39F2D727CE9E7B763 DUP8 TIMESTAMP PUSH32 0xFFC00130121CAD224A6D25D04164736F6C634300070600330000000000000000 "
				},
				"gasEstimates": {
					"creation": {
						"codeDepositCost": "1484600",
						"executionCost": "infinite",
						"totalCost": "infinite"
					},
					"external": {
						"_tokenIds()": "1020",
						"approve(address,uint256)": "infinite",
						"balanceOf(address)": "infinite",
						"baseURI()": "infinite",
						"getApproved(uint256)": "infinite",
						"isApprovedForAll(address,address)": "1350",
						"mintNFT(address,string)": "infinite",
						"name()": "infinite",
						"ownerOf(uint256)": "infinite",
						"safeTransferFrom(address,address,uint256)": "infinite",
						"safeTransferFrom(address,address,uint256,bytes)": "infinite",
						"setApprovalForAll(address,bool)": "infinite",
						"supportsInterface(bytes4)": "1196",
						"symbol()": "infinite",
						"tokenByIndex(uint256)": "infinite",
						"tokenOfOwnerByIndex(address,uint256)": "infinite",
						"tokenURI(uint256)": "infinite",
						"totalSupply()": "1096",
						"transferFrom(address,address,uint256)": "infinite"
					}
				},
				"methodIdentifiers": {
					"_tokenIds()": "aa46a400",
					"approve(address,uint256)": "095ea7b3",
					"balanceOf(address)": "70a08231",
					"baseURI()": "6c0360eb",
					"getApproved(uint256)": "081812fc",
					"isApprovedForAll(address,address)": "e985e9c5",
					"mintNFT(address,string)": "eacabe14",
					"name()": "06fdde03",
					"ownerOf(uint256)": "6352211e",
					"safeTransferFrom(address,address,uint256)": "42842e0e",
					"safeTransferFrom(address,address,uint256,bytes)": "b88d4fde",
					"setApprovalForAll(address,bool)": "a22cb465",
					"supportsInterface(bytes4)": "01ffc9a7",
					"symbol()": "95d89b41",
					"tokenByIndex(uint256)": "4f6ccce7",
					"tokenOfOwnerByIndex(address,uint256)": "2f745c59",
					"tokenURI(uint256)": "c87b56dd",
					"totalSupply()": "18160ddd",
					"transferFrom(address,address,uint256)": "23b872dd"
				}
			},
			"storageLayout": {
				"storage": [
					{
						"astId": 72,
						"contract": "contracts/DogNFT.sol:DogNFT",
						"label": "_supportedInterfaces",
						"offset": 0,
						"slot": "0",
						"type": "t_mapping(t_bytes4,t_bool)"
					},
					{
						"astId": 528,
						"contract": "contracts/DogNFT.sol:DogNFT",
						"label": "_holderTokens",
						"offset": 0,
						"slot": "1",
						"type": "t_mapping(t_address,t_struct(UintSet)2943_storage)"
					},
					{
						"astId": 530,
						"contract": "contracts/DogNFT.sol:DogNFT",
						"label": "_tokenOwners",
						"offset": 0,
						"slot": "2",
						"type": "t_struct(UintToAddressMap)2320_storage"
					},
					{
						"astId": 534,
						"contract": "contracts/DogNFT.sol:DogNFT",
						"label": "_tokenApprovals",
						"offset": 0,
						"slot": "4",
						"type": "t_mapping(t_uint256,t_address)"
					},
					{
						"astId": 540,
						"contract": "contracts/DogNFT.sol:DogNFT",
						"label": "_operatorApprovals",
						"offset": 0,
						"slot": "5",
						"type": "t_mapping(t_address,t_mapping(t_address,t_bool))"
					},
					{
						"astId": 542,
						"contract": "contracts/DogNFT.sol:DogNFT",
						"label": "_name",
						"offset": 0,
						"slot": "6",
						"type": "t_string_storage"
					},
					{
						"astId": 544,
						"contract": "contracts/DogNFT.sol:DogNFT",
						"label": "_symbol",
						"offset": 0,
						"slot": "7",
						"type": "t_string_storage"
					},
					{
						"astId": 548,
						"contract": "contracts/DogNFT.sol:DogNFT",
						"label": "_tokenURIs",
						"offset": 0,
						"slot": "8",
						"type": "t_mapping(t_uint256,t_string_storage)"
					},
					{
						"astId": 550,
						"contract": "contracts/DogNFT.sol:DogNFT",
						"label": "_baseURI",
						"offset": 0,
						"slot": "9",
						"type": "t_string_storage"
					},
					{
						"astId": 10,
						"contract": "contracts/DogNFT.sol:DogNFT",
						"label": "_tokenIds",
						"offset": 0,
						"slot": "10",
						"type": "t_struct(Counter)1946_storage"
					},
					{
						"astId": 13,
						"contract": "contracts/DogNFT.sol:DogNFT",
						"label": "nftName",
						"offset": 0,
						"slot": "11",
						"type": "t_string_storage"
					},
					{
						"astId": 16,
						"contract": "contracts/DogNFT.sol:DogNFT",
						"label": "nftIdentifier",
						"offset": 0,
						"slot": "12",
						"type": "t_string_storage"
					}
				],
				"types": {
					"t_address": {
						"encoding": "inplace",
						"label": "address",
						"numberOfBytes": "20"
					},
					"t_array(t_bytes32)dyn_storage": {
						"base": "t_bytes32",
						"encoding": "dynamic_array",
						"label": "bytes32[]",
						"numberOfBytes": "32"
					},
					"t_array(t_struct(MapEntry)1994_storage)dyn_storage": {
						"base": "t_struct(MapEntry)1994_storage",
						"encoding": "dynamic_array",
						"label": "struct EnumerableMap.MapEntry[]",
						"numberOfBytes": "32"
					},
					"t_bool": {
						"encoding": "inplace",
						"label": "bool",
						"numberOfBytes": "1"
					},
					"t_bytes32": {
						"encoding": "inplace",
						"label": "bytes32",
						"numberOfBytes": "32"
					},
					"t_bytes4": {
						"encoding": "inplace",
						"label": "bytes4",
						"numberOfBytes": "4"
					},
					"t_mapping(t_address,t_bool)": {
						"encoding": "mapping",
						"key": "t_address",
						"label": "mapping(address => bool)",
						"numberOfBytes": "32",
						"value": "t_bool"
					},
					"t_mapping(t_address,t_mapping(t_address,t_bool))": {
						"encoding": "mapping",
						"key": "t_address",
						"label": "mapping(address => mapping(address => bool))",
						"numberOfBytes": "32",
						"value": "t_mapping(t_address,t_bool)"
					},
					"t_mapping(t_address,t_struct(UintSet)2943_storage)": {
						"encoding": "mapping",
						"key": "t_address",
						"label": "mapping(address => struct EnumerableSet.UintSet)",
						"numberOfBytes": "32",
						"value": "t_struct(UintSet)2943_storage"
					},
					"t_mapping(t_bytes32,t_uint256)": {
						"encoding": "mapping",
						"key": "t_bytes32",
						"label": "mapping(bytes32 => uint256)",
						"numberOfBytes": "32",
						"value": "t_uint256"
					},
					"t_mapping(t_bytes4,t_bool)": {
						"encoding": "mapping",
						"key": "t_bytes4",
						"label": "mapping(bytes4 => bool)",
						"numberOfBytes": "32",
						"value": "t_bool"
					},
					"t_mapping(t_uint256,t_address)": {
						"encoding": "mapping",
						"key": "t_uint256",
						"label": "mapping(uint256 => address)",
						"numberOfBytes": "32",
						"value": "t_address"
					},
					"t_mapping(t_uint256,t_string_storage)": {
						"encoding": "mapping",
						"key": "t_uint256",
						"label": "mapping(uint256 => string)",
						"numberOfBytes": "32",
						"value": "t_string_storage"
					},
					"t_string_storage": {
						"encoding": "bytes",
						"label": "string",
						"numberOfBytes": "32"
					},
					"t_struct(Counter)1946_storage": {
						"encoding": "inplace",
						"label": "struct Counters.Counter",
						"members": [
							{
								"astId": 1945,
								"contract": "contracts/DogNFT.sol:DogNFT",
								"label": "_value",
								"offset": 0,
								"slot": "0",
								"type": "t_uint256"
							}
						],
						"numberOfBytes": "32"
					},
					"t_struct(Map)2002_storage": {
						"encoding": "inplace",
						"label": "struct EnumerableMap.Map",
						"members": [
							{
								"astId": 1997,
								"contract": "contracts/DogNFT.sol:DogNFT",
								"label": "_entries",
								"offset": 0,
								"slot": "0",
								"type": "t_array(t_struct(MapEntry)1994_storage)dyn_storage"
							},
							{
								"astId": 2001,
								"contract": "contracts/DogNFT.sol:DogNFT",
								"label": "_indexes",
								"offset": 0,
								"slot": "1",
								"type": "t_mapping(t_bytes32,t_uint256)"
							}
						],
						"numberOfBytes": "64"
					},
					"t_struct(MapEntry)1994_storage": {
						"encoding": "inplace",
						"label": "struct EnumerableMap.MapEntry",
						"members": [
							{
								"astId": 1991,
								"contract": "contracts/DogNFT.sol:DogNFT",
								"label": "_key",
								"offset": 0,
								"slot": "0",
								"type": "t_bytes32"
							},
							{
								"astId": 1993,
								"contract": "contracts/DogNFT.sol:DogNFT",
								"label": "_value",
								"offset": 0,
								"slot": "1",
								"type": "t_bytes32"
							}
						],
						"numberOfBytes": "64"
					},
					"t_struct(Set)2557_storage": {
						"encoding": "inplace",
						"label": "struct EnumerableSet.Set",
						"members": [
							{
								"astId": 2552,
								"contract": "contracts/DogNFT.sol:DogNFT",
								"label": "_values",
								"offset": 0,
								"slot": "0",
								"type": "t_array(t_bytes32)dyn_storage"
							},
							{
								"astId": 2556,
								"contract": "contracts/DogNFT.sol:DogNFT",
								"label": "_indexes",
								"offset": 0,
								"slot": "1",
								"type": "t_mapping(t_bytes32,t_uint256)"
							}
						],
						"numberOfBytes": "64"
					},
					"t_struct(UintSet)2943_storage": {
						"encoding": "inplace",
						"label": "struct EnumerableSet.UintSet",
						"members": [
							{
								"astId": 2942,
								"contract": "contracts/DogNFT.sol:DogNFT",
								"label": "_inner",
								"offset": 0,
								"slot": "0",
								"type": "t_struct(Set)2557_storage"
							}
						],
						"numberOfBytes": "64"
					},
					"t_struct(UintToAddressMap)2320_storage": {
						"encoding": "inplace",
						"label": "struct EnumerableMap.UintToAddressMap",
						"members": [
							{
								"astId": 2319,
								"contract": "contracts/DogNFT.sol:DogNFT",
								"label": "_inner",
								"offset": 0,
								"slot": "0",
								"type": "t_struct(Map)2002_storage"
							}
						],
						"numberOfBytes": "64"
					},
					"t_uint256": {
						"encoding": "inplace",
						"label": "uint256",
						"numberOfBytes": "32"
					}
				}
			},
			"userdoc": {
				"kind": "user",
				"methods": {},
				"version": 1
			}
		}
	}
}