{
	"contracts/Auction.sol": {
		"Auction": {
			"abi": [
				{
					"inputs": [
						{
							"internalType": "uint256",
							"name": "",
							"type": "uint256"
						}
					],
					"name": "auction",
					"outputs": [
						{
							"internalType": "uint256",
							"name": "loanId",
							"type": "uint256"
						},
						{
							"internalType": "address",
							"name": "pledger",
							"type": "address"
						},
						{
							"internalType": "uint256",
							"name": "tokenId",
							"type": "uint256"
						},
						{
							"internalType": "uint256",
							"name": "auctionId",
							"type": "uint256"
						},
						{
							"internalType": "uint256",
							"name": "auctionStartTime",
							"type": "uint256"
						},
						{
							"internalType": "uint256",
							"name": "repaymentAmount",
							"type": "uint256"
						},
						{
							"internalType": "uint256",
							"name": "bankToWhichItisPledged",
							"type": "uint256"
						},
						{
							"internalType": "address",
							"name": "nftContractAddress",
							"type": "address"
						},
						{
							"internalType": "address",
							"name": "bankAddress",
							"type": "address"
						},
						{
							"internalType": "address",
							"name": "bankAdmin",
							"type": "address"
						},
						{
							"internalType": "enum Auction.AuctionState",
							"name": "auctionState",
							"type": "uint8"
						},
						{
							"internalType": "uint256",
							"name": "highestBindingBid",
							"type": "uint256"
						},
						{
							"internalType": "address payable",
							"name": "highestBidder",
							"type": "address"
						},
						{
							"internalType": "string",
							"name": "symbol",
							"type": "string"
						}
					],
					"stateMutability": "view",
					"type": "function"
				},
				{
					"inputs": [],
					"name": "auctionCounter",
					"outputs": [
						{
							"internalType": "uint256",
							"name": "",
							"type": "uint256"
						}
					],
					"stateMutability": "view",
					"type": "function"
				},
				{
					"inputs": [
						{
							"internalType": "uint256",
							"name": "",
							"type": "uint256"
						},
						{
							"internalType": "uint256",
							"name": "",
							"type": "uint256"
						}
					],
					"name": "bidderList",
					"outputs": [
						{
							"internalType": "address",
							"name": "",
							"type": "address"
						}
					],
					"stateMutability": "view",
					"type": "function"
				},
				{
					"inputs": [
						{
							"internalType": "uint256",
							"name": "",
							"type": "uint256"
						},
						{
							"internalType": "address",
							"name": "",
							"type": "address"
						}
					],
					"name": "bidsForAuction",
					"outputs": [
						{
							"internalType": "uint256",
							"name": "",
							"type": "uint256"
						}
					],
					"stateMutability": "view",
					"type": "function"
				},
				{
					"inputs": [
						{
							"internalType": "uint256",
							"name": "loanId",
							"type": "uint256"
						},
						{
							"internalType": "uint256",
							"name": "auctionId",
							"type": "uint256"
						},
						{
							"internalType": "address[]",
							"name": "list",
							"type": "address[]"
						}
					],
					"name": "blackListUsersFromAuction",
					"outputs": [],
					"stateMutability": "nonpayable",
					"type": "function"
				},
				{
					"inputs": [
						{
							"internalType": "uint256",
							"name": "",
							"type": "uint256"
						},
						{
							"internalType": "address",
							"name": "",
							"type": "address"
						}
					],
					"name": "blackListed",
					"outputs": [
						{
							"internalType": "bool",
							"name": "",
							"type": "bool"
						}
					],
					"stateMutability": "view",
					"type": "function"
				},
				{
					"inputs": [
						{
							"internalType": "uint256",
							"name": "loanId",
							"type": "uint256"
						}
					],
					"name": "cancelAuctionBeforeTime",
					"outputs": [
						{
							"internalType": "uint256",
							"name": "",
							"type": "uint256"
						},
						{
							"internalType": "address",
							"name": "",
							"type": "address"
						}
					],
					"stateMutability": "nonpayable",
					"type": "function"
				},
				{
					"inputs": [
						{
							"internalType": "uint256",
							"name": "loanId",
							"type": "uint256"
						}
					],
					"name": "checkIfAuctionHasExpired",
					"outputs": [
						{
							"internalType": "uint256",
							"name": "",
							"type": "uint256"
						},
						{
							"internalType": "address",
							"name": "",
							"type": "address"
						}
					],
					"stateMutability": "nonpayable",
					"type": "function"
				},
				{
					"inputs": [],
					"name": "daysAfterWhichAuctionShouldEnd",
					"outputs": [
						{
							"internalType": "uint256",
							"name": "",
							"type": "uint256"
						}
					],
					"stateMutability": "view",
					"type": "function"
				},
				{
					"inputs": [
						{
							"internalType": "uint256",
							"name": "loanId",
							"type": "uint256"
						}
					],
					"name": "finalizeAuctionBeforeTime",
					"outputs": [
						{
							"internalType": "uint256",
							"name": "",
							"type": "uint256"
						},
						{
							"internalType": "address",
							"name": "",
							"type": "address"
						}
					],
					"stateMutability": "nonpayable",
					"type": "function"
				},
				{
					"inputs": [
						{
							"internalType": "uint256",
							"name": "loanId",
							"type": "uint256"
						}
					],
					"name": "getAllAuctionIdsForLoanId",
					"outputs": [
						{
							"internalType": "uint256[]",
							"name": "",
							"type": "uint256[]"
						}
					],
					"stateMutability": "view",
					"type": "function"
				},
				{
					"inputs": [
						{
							"internalType": "uint256",
							"name": "auctionId",
							"type": "uint256"
						}
					],
					"name": "getAllBiddersList",
					"outputs": [
						{
							"internalType": "address[]",
							"name": "",
							"type": "address[]"
						}
					],
					"stateMutability": "view",
					"type": "function"
				},
				{
					"inputs": [
						{
							"internalType": "uint256",
							"name": "auctionId",
							"type": "uint256"
						}
					],
					"name": "getUsersBidValueForAuctionId",
					"outputs": [
						{
							"internalType": "uint256",
							"name": "",
							"type": "uint256"
						}
					],
					"stateMutability": "view",
					"type": "function"
				},
				{
					"inputs": [
						{
							"internalType": "uint256",
							"name": "",
							"type": "uint256"
						},
						{
							"internalType": "uint256",
							"name": "",
							"type": "uint256"
						}
					],
					"name": "loanIdToAllAuctionIdMappings",
					"outputs": [
						{
							"internalType": "uint256",
							"name": "",
							"type": "uint256"
						}
					],
					"stateMutability": "view",
					"type": "function"
				},
				{
					"inputs": [],
					"name": "minimumAmountToPlaceABid",
					"outputs": [
						{
							"internalType": "uint256",
							"name": "",
							"type": "uint256"
						}
					],
					"stateMutability": "view",
					"type": "function"
				},
				{
					"inputs": [
						{
							"internalType": "uint256",
							"name": "loanId",
							"type": "uint256"
						}
					],
					"name": "placeBidForAuction",
					"outputs": [],
					"stateMutability": "payable",
					"type": "function"
				},
				{
					"inputs": [
						{
							"internalType": "uint256",
							"name": "bankId",
							"type": "uint256"
						},
						{
							"internalType": "uint256",
							"name": "loanId",
							"type": "uint256"
						},
						{
							"internalType": "address",
							"name": "pledger",
							"type": "address"
						},
						{
							"internalType": "uint256",
							"name": "tokenId",
							"type": "uint256"
						},
						{
							"internalType": "uint256",
							"name": "repaymentAmount",
							"type": "uint256"
						},
						{
							"internalType": "address",
							"name": "nftContractAddress",
							"type": "address"
						},
						{
							"internalType": "address",
							"name": "bankAddress",
							"type": "address"
						},
						{
							"internalType": "address",
							"name": "bankAdmin",
							"type": "address"
						}
					],
					"name": "startAuction",
					"outputs": [
						{
							"internalType": "uint256",
							"name": "",
							"type": "uint256"
						}
					],
					"stateMutability": "nonpayable",
					"type": "function"
				},
				{
					"inputs": [
						{
							"internalType": "uint256",
							"name": "loanId",
							"type": "uint256"
						}
					],
					"name": "withdrawMoney",
					"outputs": [],
					"stateMutability": "payable",
					"type": "function"
				}
			],
			"devdoc": {
				"kind": "dev",
				"methods": {},
				"version": 1
			},
			"evm": {
				"assembly": "    /* \"contracts/Auction.sol\":319:9952  contract Auction {\r... */\n  mstore(0x40, 0x80)\n    /* \"contracts/Auction.sol\":1638:1639  1 */\n  0x01\n    /* \"contracts/Auction.sol\":1606:1639  uint256 public auctionCounter = 1 */\n  0x05\n  sstore\n    /* \"contracts/Auction.sol\":1698:1708  20 minutes */\n  0x04b0\n    /* \"contracts/Auction.sol\":1650:1708  uint256 public daysAfterWhichAuctionShouldEnd = 20 minutes */\n  0x06\n  sstore\n    /* \"contracts/Auction.sol\":1761:1768  1 ether */\n  0x0de0b6b3a7640000\n    /* \"contracts/Auction.sol\":1719:1768  uint256 public minimumAmountToPlaceABid = 1 ether */\n  0x07\n  sstore\n    /* \"contracts/Auction.sol\":319:9952  contract Auction {\r... */\n  callvalue\n  dup1\n  iszero\n  tag_1\n  jumpi\n  0x00\n  dup1\n  revert\ntag_1:\n  pop\n  dataSize(sub_0)\n  dup1\n  dataOffset(sub_0)\n  0x00\n  codecopy\n  0x00\n  return\nstop\n\nsub_0: assembly {\n        /* \"contracts/Auction.sol\":319:9952  contract Auction {\r... */\n      mstore(0x40, 0x80)\n      jumpi(tag_1, lt(calldatasize, 0x04))\n      shr(0xe0, calldataload(0x00))\n      dup1\n      0x8ad3be4e\n      gt\n      tag_20\n      jumpi\n      dup1\n      0xba56e3d8\n      gt\n      tag_21\n      jumpi\n      dup1\n      0xba56e3d8\n      eq\n      tag_15\n      jumpi\n      dup1\n      0xce3845e2\n      eq\n      tag_16\n      jumpi\n      dup1\n      0xde1ba2b5\n      eq\n      tag_17\n      jumpi\n      dup1\n      0xeee94cf3\n      eq\n      tag_18\n      jumpi\n      dup1\n      0xf998a1dd\n      eq\n      tag_19\n      jumpi\n      jump(tag_1)\n    tag_21:\n      dup1\n      0x8ad3be4e\n      eq\n      tag_11\n      jumpi\n      dup1\n      0x9f08dd26\n      eq\n      tag_12\n      jumpi\n      dup1\n      0x9f302aad\n      eq\n      tag_13\n      jumpi\n      dup1\n      0xa7e76644\n      eq\n      tag_14\n      jumpi\n      jump(tag_1)\n    tag_20:\n      dup1\n      0x3dbc78b9\n      gt\n      tag_22\n      jumpi\n      dup1\n      0x3dbc78b9\n      eq\n      tag_6\n      jumpi\n      dup1\n      0x54876921\n      eq\n      tag_7\n      jumpi\n      dup1\n      0x5b1568e2\n      eq\n      tag_8\n      jumpi\n      dup1\n      0x6cdcb78d\n      eq\n      tag_9\n      jumpi\n      dup1\n      0x8962db6a\n      eq\n      tag_10\n      jumpi\n      jump(tag_1)\n    tag_22:\n      dup1\n      0x033be211\n      eq\n      tag_2\n      jumpi\n      dup1\n      0x0ba52d1a\n      eq\n      tag_3\n      jumpi\n      dup1\n      0x1200617f\n      eq\n      tag_4\n      jumpi\n      dup1\n      0x271fef4a\n      eq\n      tag_5\n      jumpi\n    tag_1:\n      0x00\n      dup1\n      revert\n        /* \"contracts/Auction.sol\":1373:1436  mapping(uint256 => mapping(address => bool)) public blackListed */\n    tag_2:\n      callvalue\n      dup1\n      iszero\n      tag_23\n      jumpi\n      0x00\n      dup1\n      revert\n    tag_23:\n      pop\n      tag_24\n      tag_25\n      calldatasize\n      0x04\n      tag_26\n      jump\t// in\n    tag_25:\n      tag_27\n      jump\t// in\n    tag_24:\n      mload(0x40)\n      tag_28\n      swap2\n      swap1\n      tag_29\n      jump\t// in\n    tag_28:\n      mload(0x40)\n      dup1\n      swap2\n      sub\n      swap1\n      return\n        /* \"contracts/Auction.sol\":1232:1301  mapping(uint256 => mapping(address => uint256)) public bidsForAuction */\n    tag_3:\n      callvalue\n      dup1\n      iszero\n      tag_30\n      jumpi\n      0x00\n      dup1\n      revert\n    tag_30:\n      pop\n      tag_31\n      tag_32\n      calldatasize\n      0x04\n      tag_26\n      jump\t// in\n    tag_32:\n      tag_33\n      jump\t// in\n    tag_31:\n      mload(0x40)\n      tag_28\n      swap2\n      swap1\n      tag_35\n      jump\t// in\n        /* \"contracts/Auction.sol\":1006:1052  mapping(uint256 => AuctionItem) public auction */\n    tag_4:\n      callvalue\n      dup1\n      iszero\n      tag_36\n      jumpi\n      0x00\n      dup1\n      revert\n    tag_36:\n      pop\n      tag_37\n      tag_38\n      calldatasize\n      0x04\n      tag_39\n      jump\t// in\n    tag_38:\n      tag_40\n      jump\t// in\n    tag_37:\n      mload(0x40)\n      tag_28\n      swap15\n      swap14\n      swap13\n      swap12\n      swap11\n      swap10\n      swap9\n      swap8\n      swap7\n      swap6\n      swap5\n      swap4\n      swap3\n      swap2\n      swap1\n      tag_42\n      jump\t// in\n        /* \"contracts/Auction.sol\":1719:1768  uint256 public minimumAmountToPlaceABid = 1 ether */\n    tag_5:\n      callvalue\n      dup1\n      iszero\n      tag_43\n      jumpi\n      0x00\n      dup1\n      revert\n    tag_43:\n      pop\n      tag_31\n      tag_45\n      jump\t// in\n        /* \"contracts/Auction.sol\":8303:9592  function placeBidForAuction(uint256 loanId) public payable {\r... */\n    tag_6:\n      tag_47\n      tag_48\n      calldatasize\n      0x04\n      tag_39\n      jump\t// in\n    tag_48:\n      tag_49\n      jump\t// in\n    tag_47:\n      stop\n        /* \"contracts/Auction.sol\":6924:7797  function withdrawMoney(uint256 loanId) public payable {\r... */\n    tag_7:\n      tag_47\n      tag_51\n      calldatasize\n      0x04\n      tag_39\n      jump\t// in\n    tag_51:\n      tag_52\n      jump\t// in\n        /* \"contracts/Auction.sol\":4069:4642  function finalizeAuctionBeforeTime(uint256 loanId) public returns (uint256, address) {\r... */\n    tag_8:\n      callvalue\n      dup1\n      iszero\n      tag_53\n      jumpi\n      0x00\n      dup1\n      revert\n    tag_53:\n      pop\n      tag_54\n      tag_55\n      calldatasize\n      0x04\n      tag_39\n      jump\t// in\n    tag_55:\n      tag_56\n      jump\t// in\n    tag_54:\n      mload(0x40)\n      tag_28\n      swap3\n      swap2\n      swap1\n      tag_58\n      jump\t// in\n        /* \"contracts/Auction.sol\":4654:5226  function cancelAuctionBeforeTime(uint256 loanId) public returns (uint256, address) {\r... */\n    tag_9:\n      callvalue\n      dup1\n      iszero\n      tag_59\n      jumpi\n      0x00\n      dup1\n      revert\n    tag_59:\n      pop\n      tag_54\n      tag_61\n      calldatasize\n      0x04\n      tag_39\n      jump\t// in\n    tag_61:\n      tag_62\n      jump\t// in\n        /* \"contracts/Auction.sol\":1781:3386  function startAuction(uint256 bankId, uint256 loanId, address pledger, uint256 tokenId, uint256 repaymentAmount, address nftContractAddress, address bankAddress, address bankAdmin) public returns (uint256) {\r... */\n    tag_10:\n      callvalue\n      dup1\n      iszero\n      tag_64\n      jumpi\n      0x00\n      dup1\n      revert\n    tag_64:\n      pop\n      tag_31\n      tag_66\n      calldatasize\n      0x04\n      tag_67\n      jump\t// in\n    tag_66:\n      tag_68\n      jump\t// in\n        /* \"contracts/Auction.sol\":8133:8291  function getUsersBidValueForAuctionId(uint256 auctionId) public view returns (uint256) {\r... */\n    tag_11:\n      callvalue\n      dup1\n      iszero\n      tag_70\n      jumpi\n      0x00\n      dup1\n      revert\n    tag_70:\n      pop\n      tag_31\n      tag_72\n      calldatasize\n      0x04\n      tag_39\n      jump\t// in\n    tag_72:\n      tag_73\n      jump\t// in\n        /* \"contracts/Auction.sol\":5238:5834  function checkIfAuctionHasExpired(uint256 loanId) public returns (uint256, address) {\r... */\n    tag_12:\n      callvalue\n      dup1\n      iszero\n      tag_75\n      jumpi\n      0x00\n      dup1\n      revert\n    tag_75:\n      pop\n      tag_54\n      tag_77\n      calldatasize\n      0x04\n      tag_39\n      jump\t// in\n    tag_77:\n      tag_78\n      jump\t// in\n        /* \"contracts/Auction.sol\":1500:1565  mapping(uint256 => uint256[]) public loanIdToAllAuctionIdMappings */\n    tag_13:\n      callvalue\n      dup1\n      iszero\n      tag_80\n      jumpi\n      0x00\n      dup1\n      revert\n    tag_80:\n      pop\n      tag_31\n      tag_82\n      calldatasize\n      0x04\n      tag_83\n      jump\t// in\n    tag_82:\n      tag_84\n      jump\t// in\n        /* \"contracts/Auction.sol\":1606:1639  uint256 public auctionCounter = 1 */\n    tag_14:\n      callvalue\n      dup1\n      iszero\n      tag_86\n      jumpi\n      0x00\n      dup1\n      revert\n    tag_86:\n      pop\n      tag_31\n      tag_88\n      jump\t// in\n        /* \"contracts/Auction.sol\":7981:8121  function getAllBiddersList(uint256 auctionId) public view returns (address[] memory) {\r... */\n    tag_15:\n      callvalue\n      dup1\n      iszero\n      tag_90\n      jumpi\n      0x00\n      dup1\n      revert\n    tag_90:\n      pop\n      tag_91\n      tag_92\n      calldatasize\n      0x04\n      tag_39\n      jump\t// in\n    tag_92:\n      tag_93\n      jump\t// in\n    tag_91:\n      mload(0x40)\n      tag_28\n      swap2\n      swap1\n      tag_95\n      jump\t// in\n        /* \"contracts/Auction.sol\":3398:4057  function blackListUsersFromAuction(uint256 loanId, uint256 auctionId, address[] memory list) public {\r... */\n    tag_16:\n      callvalue\n      dup1\n      iszero\n      tag_96\n      jumpi\n      0x00\n      dup1\n      revert\n    tag_96:\n      pop\n      tag_47\n      tag_98\n      calldatasize\n      0x04\n      tag_99\n      jump\t// in\n    tag_98:\n      tag_100\n      jump\t// in\n        /* \"contracts/Auction.sol\":7809:7969  function getAllAuctionIdsForLoanId(uint256 loanId) public view returns (uint256[] memory) {\r... */\n    tag_17:\n      callvalue\n      dup1\n      iszero\n      tag_101\n      jumpi\n      0x00\n      dup1\n      revert\n    tag_101:\n      pop\n      tag_102\n      tag_103\n      calldatasize\n      0x04\n      tag_39\n      jump\t// in\n    tag_103:\n      tag_104\n      jump\t// in\n    tag_102:\n      mload(0x40)\n      tag_28\n      swap2\n      swap1\n      tag_106\n      jump\t// in\n        /* \"contracts/Auction.sol\":1112:1159  mapping(uint256 => address[]) public bidderList */\n    tag_18:\n      callvalue\n      dup1\n      iszero\n      tag_107\n      jumpi\n      0x00\n      dup1\n      revert\n    tag_107:\n      pop\n      tag_108\n      tag_109\n      calldatasize\n      0x04\n      tag_83\n      jump\t// in\n    tag_109:\n      tag_110\n      jump\t// in\n    tag_108:\n      mload(0x40)\n      tag_28\n      swap2\n      swap1\n      tag_112\n      jump\t// in\n        /* \"contracts/Auction.sol\":1650:1708  uint256 public daysAfterWhichAuctionShouldEnd = 20 minutes */\n    tag_19:\n      callvalue\n      dup1\n      iszero\n      tag_113\n      jumpi\n      0x00\n      dup1\n      revert\n    tag_113:\n      pop\n      tag_31\n      tag_115\n      jump\t// in\n        /* \"contracts/Auction.sol\":1373:1436  mapping(uint256 => mapping(address => bool)) public blackListed */\n    tag_27:\n      0x03\n      0x20\n      swap1\n      dup2\n      mstore\n      0x00\n      swap3\n      dup4\n      mstore\n      0x40\n      dup1\n      dup5\n      keccak256\n      swap1\n      swap2\n      mstore\n      swap1\n      dup3\n      mstore\n      swap1\n      keccak256\n      sload\n      0xff\n      and\n      dup2\n      jump\t// out\n        /* \"contracts/Auction.sol\":1232:1301  mapping(uint256 => mapping(address => uint256)) public bidsForAuction */\n    tag_33:\n      0x02\n      0x20\n      swap1\n      dup2\n      mstore\n      0x00\n      swap3\n      dup4\n      mstore\n      0x40\n      dup1\n      dup5\n      keccak256\n      swap1\n      swap2\n      mstore\n      swap1\n      dup3\n      mstore\n      swap1\n      keccak256\n      sload\n      dup2\n      jump\t// out\n        /* \"contracts/Auction.sol\":1006:1052  mapping(uint256 => AuctionItem) public auction */\n    tag_40:\n      mstore(0x20, 0x00)\n      dup1\n      0x00\n      mstore\n      keccak256(0x00, 0x40)\n      0x00\n      swap2\n      pop\n      swap1\n      pop\n      dup1\n      0x00\n      add\n      sload\n      swap1\n      dup1\n      0x01\n      add\n      0x00\n      swap1\n      sload\n      swap1\n      0x0100\n      exp\n      swap1\n      div\n      sub(shl(0xa0, 0x01), 0x01)\n      and\n      swap1\n      dup1\n      0x02\n      add\n      sload\n      swap1\n      dup1\n      0x03\n      add\n      sload\n      swap1\n      dup1\n      0x04\n      add\n      sload\n      swap1\n      dup1\n      0x05\n      add\n      sload\n      swap1\n      dup1\n      0x06\n      add\n      sload\n      swap1\n      dup1\n      0x07\n      add\n      0x00\n      swap1\n      sload\n      swap1\n      0x0100\n      exp\n      swap1\n      div\n      sub(shl(0xa0, 0x01), 0x01)\n      and\n      swap1\n      dup1\n      0x08\n      add\n      0x00\n      swap1\n      sload\n      swap1\n      0x0100\n      exp\n      swap1\n      div\n      sub(shl(0xa0, 0x01), 0x01)\n      and\n      swap1\n      dup1\n      0x09\n      add\n      0x00\n      swap1\n      sload\n      swap1\n      0x0100\n      exp\n      swap1\n      div\n      sub(shl(0xa0, 0x01), 0x01)\n      and\n      swap1\n      dup1\n      0x09\n      add\n      0x14\n      swap1\n      sload\n      swap1\n      0x0100\n      exp\n      swap1\n      div\n      0xff\n      and\n      swap1\n      dup1\n      0x0a\n      add\n      sload\n      swap1\n      dup1\n      0x0b\n      add\n      0x00\n      swap1\n      sload\n      swap1\n      0x0100\n      exp\n      swap1\n      div\n      sub(shl(0xa0, 0x01), 0x01)\n      and\n      swap1\n      dup1\n      0x0c\n      add\n      dup1\n      sload\n      0x01\n      dup2\n      0x01\n      and\n      iszero\n      0x0100\n      mul\n      sub\n      and\n      0x02\n      swap1\n      div\n      dup1\n      0x1f\n      add\n      0x20\n      dup1\n      swap2\n      div\n      mul\n      0x20\n      add\n      mload(0x40)\n      swap1\n      dup2\n      add\n      0x40\n      mstore\n      dup1\n      swap3\n      swap2\n      swap1\n      dup2\n      dup2\n      mstore\n      0x20\n      add\n      dup3\n      dup1\n      sload\n      0x01\n      dup2\n      0x01\n      and\n      iszero\n      0x0100\n      mul\n      sub\n      and\n      0x02\n      swap1\n      div\n      dup1\n      iszero\n      tag_117\n      jumpi\n      dup1\n      0x1f\n      lt\n      tag_118\n      jumpi\n      0x0100\n      dup1\n      dup4\n      sload\n      div\n      mul\n      dup4\n      mstore\n      swap2\n      0x20\n      add\n      swap2\n      jump(tag_117)\n    tag_118:\n      dup3\n      add\n      swap2\n      swap1\n      0x00\n      mstore\n      keccak256(0x00, 0x20)\n      swap1\n    tag_119:\n      dup2\n      sload\n      dup2\n      mstore\n      swap1\n      0x01\n      add\n      swap1\n      0x20\n      add\n      dup1\n      dup4\n      gt\n      tag_119\n      jumpi\n      dup3\n      swap1\n      sub\n      0x1f\n      and\n      dup3\n      add\n      swap2\n    tag_117:\n      pop\n      pop\n      pop\n      pop\n      pop\n      swap1\n      pop\n      dup15\n      jump\t// out\n        /* \"contracts/Auction.sol\":1719:1768  uint256 public minimumAmountToPlaceABid = 1 ether */\n    tag_45:\n      sload(0x07)\n      dup2\n      jump\t// out\n        /* \"contracts/Auction.sol\":8303:9592  function placeBidForAuction(uint256 loanId) public payable {\r... */\n    tag_49:\n        /* \"contracts/Auction.sol\":8417:8437  AuctionState.RUNNING */\n      0x01\n        /* \"contracts/Auction.sol\":8385:8392  auction */\n      0x00\n        /* \"contracts/Auction.sol\":8385:8400  auction[loanId] */\n      dup3\n      dup2\n      mstore\n      0x20\n      dup2\n      swap1\n      mstore\n      0x40\n      swap1\n      keccak256\n        /* \"contracts/Auction.sol\":8385:8413  auction[loanId].auctionState */\n      0x09\n      add\n      sload\n      shl(0xa0, 0x01)\n      swap1\n      div\n      0xff\n      and\n        /* \"contracts/Auction.sol\":8385:8437  auction[loanId].auctionState == AuctionState.RUNNING */\n      0x04\n      dup2\n      gt\n      iszero\n      tag_122\n      jumpi\n      invalid\n    tag_122:\n      eq\n        /* \"contracts/Auction.sol\":8377:8470  require(auction[loanId].auctionState == AuctionState.RUNNING, \"Auction State is not running\") */\n      tag_123\n      jumpi\n      mload(0x40)\n      shl(0xe5, 0x461bcd)\n      dup2\n      mstore\n      0x04\n      add\n      tag_124\n      swap1\n      tag_125\n      jump\t// in\n    tag_124:\n      mload(0x40)\n      dup1\n      swap2\n      sub\n      swap1\n      revert\n    tag_123:\n        /* \"contracts/Auction.sol\":8485:8503  uint256 cAuctionId */\n      0x00\n        /* \"contracts/Auction.sol\":8506:8521  auction[loanId] */\n      dup2\n      dup2\n      mstore\n      0x20\n      dup2\n      dup2\n      mstore\n      0x40\n      dup1\n      dup4\n      keccak256\n        /* \"contracts/Auction.sol\":8506:8531  auction[loanId].auctionId */\n      0x03\n      swap1\n      dup2\n      add\n      sload\n        /* \"contracts/Auction.sol\":8554:8577  blackListed[cAuctionId] */\n      dup1\n      dup6\n      mstore\n      swap1\n      dup4\n      mstore\n      dup2\n      dup5\n      keccak256\n        /* \"contracts/Auction.sol\":8578:8588  msg.sender */\n      caller\n        /* \"contracts/Auction.sol\":8554:8589  blackListed[cAuctionId][msg.sender] */\n      dup6\n      mstore\n      swap1\n      swap3\n      mstore\n      swap1\n      swap2\n      keccak256\n      sload\n      0xff\n      and\n        /* \"contracts/Auction.sol\":8554:8598  blackListed[cAuctionId][msg.sender] == false */\n      iszero\n        /* \"contracts/Auction.sol\":8546:8622  require(blackListed[cAuctionId][msg.sender] == false, \"you are blacklisted\") */\n      tag_126\n      jumpi\n      mload(0x40)\n      shl(0xe5, 0x461bcd)\n      dup2\n      mstore\n      0x04\n      add\n      tag_124\n      swap1\n      tag_128\n      jump\t// in\n    tag_126:\n        /* \"contracts/Auction.sol\":8698:8728  daysAfterWhichAuctionShouldEnd */\n      sload(0x06)\n        /* \"contracts/Auction.sol\":8663:8670  auction */\n      0x00\n        /* \"contracts/Auction.sol\":8663:8678  auction[loanId] */\n      dup4\n      dup2\n      mstore\n      0x20\n      dup2\n      swap1\n      mstore\n      0x40\n      swap1\n      keccak256\n        /* \"contracts/Auction.sol\":8663:8695  auction[loanId].auctionStartTime */\n      0x04\n      add\n      sload\n        /* \"contracts/Auction.sol\":8663:8728  auction[loanId].auctionStartTime + daysAfterWhichAuctionShouldEnd */\n      add\n        /* \"contracts/Auction.sol\":8645:8660  block.timestamp */\n      timestamp\n        /* \"contracts/Auction.sol\":8645:8728  block.timestamp < auction[loanId].auctionStartTime + daysAfterWhichAuctionShouldEnd */\n      lt\n        /* \"contracts/Auction.sol\":8637:8782  require(block.timestamp < auction[loanId].auctionStartTime + daysAfterWhichAuctionShouldEnd, \"Auction ended, please press end auction button !!\") */\n      tag_129\n      jumpi\n      mload(0x40)\n      shl(0xe5, 0x461bcd)\n      dup2\n      mstore\n      0x04\n      add\n      tag_124\n      swap1\n      tag_131\n      jump\t// in\n    tag_129:\n        /* \"contracts/Auction.sol\":8797:8820  uint256 currentBidValue */\n      0x00\n        /* \"contracts/Auction.sol\":8823:8849  bidsForAuction[cAuctionId] */\n      dup2\n      dup2\n      mstore\n        /* \"contracts/Auction.sol\":8823:8837  bidsForAuction */\n      0x02\n        /* \"contracts/Auction.sol\":8823:8849  bidsForAuction[cAuctionId] */\n      0x20\n      swap1\n      dup2\n      mstore\n      0x40\n      dup1\n      dup4\n      keccak256\n        /* \"contracts/Auction.sol\":8850:8860  msg.sender */\n      caller\n        /* \"contracts/Auction.sol\":8823:8861  bidsForAuction[cAuctionId][msg.sender] */\n      dup5\n      mstore\n      dup3\n      mstore\n      dup1\n      dup4\n      keccak256\n      sload\n        /* \"contracts/Auction.sol\":8955:8979  minimumAmountToPlaceABid */\n      sload(0x07)\n        /* \"contracts/Auction.sol\":8915:8934  auction[cAuctionId] */\n      dup6\n      dup6\n      mstore\n      swap3\n      dup5\n      swap1\n      mstore\n      swap3\n      keccak256\n        /* \"contracts/Auction.sol\":8915:8952  auction[cAuctionId].highestBindingBid */\n      0x0a\n      add\n      sload\n        /* \"contracts/Auction.sol\":8864:8873  msg.value */\n      callvalue\n        /* \"contracts/Auction.sol\":8823:8873  bidsForAuction[cAuctionId][msg.sender] + msg.value */\n      swap1\n      swap3\n      add\n      swap2\n        /* \"contracts/Auction.sol\":8915:8979  auction[cAuctionId].highestBindingBid + minimumAmountToPlaceABid */\n      add\n        /* \"contracts/Auction.sol\":8896:8980  currentBidValue > (auction[cAuctionId].highestBindingBid + minimumAmountToPlaceABid) */\n      dup2\n      gt\n        /* \"contracts/Auction.sol\":8888:9031  require(currentBidValue > (auction[cAuctionId].highestBindingBid + minimumAmountToPlaceABid), \"bid should be greater than highest binding bid\") */\n      tag_132\n      jumpi\n      mload(0x40)\n      shl(0xe5, 0x461bcd)\n      dup2\n      mstore\n      0x04\n      add\n      tag_124\n      swap1\n      tag_134\n      jump\t// in\n    tag_132:\n        /* \"contracts/Auction.sol\":9097:9104  auction */\n      0x00\n        /* \"contracts/Auction.sol\":9097:9112  auction[loanId] */\n      dup4\n      dup2\n      mstore\n      0x20\n      dup2\n      dup2\n      mstore\n      0x40\n      dup1\n      dup4\n      keccak256\n        /* \"contracts/Auction.sol\":9097:9130  auction[loanId].highestBindingBid */\n      0x0a\n      dup2\n      add\n        /* \"contracts/Auction.sol\":9097:9148  auction[loanId].highestBindingBid = currentBidValue */\n      dup6\n      swap1\n      sstore\n        /* \"contracts/Auction.sol\":9163:9192  auction[loanId].highestBidder */\n      0x0b\n      add\n        /* \"contracts/Auction.sol\":9163:9205  auction[loanId].highestBidder = msg.sender */\n      dup1\n      sload\n      not(sub(shl(0xa0, 0x01), 0x01))\n      and\n        /* \"contracts/Auction.sol\":9195:9205  msg.sender */\n      caller\n        /* \"contracts/Auction.sol\":9163:9205  auction[loanId].highestBidder = msg.sender */\n      swap1\n      dup2\n      or\n      swap1\n      swap2\n      sstore\n        /* \"contracts/Auction.sol\":9256:9282  bidsForAuction[cAuctionId] */\n      dup6\n      dup5\n      mstore\n        /* \"contracts/Auction.sol\":9256:9270  bidsForAuction */\n      0x02\n        /* \"contracts/Auction.sol\":9256:9282  bidsForAuction[cAuctionId] */\n      dup4\n      mstore\n      dup2\n      dup5\n      keccak256\n        /* \"contracts/Auction.sol\":9256:9294  bidsForAuction[cAuctionId][msg.sender] */\n      dup2\n      dup6\n      mstore\n      swap1\n      swap3\n      mstore\n      dup3\n      keccak256\n        /* \"contracts/Auction.sol\":9256:9312  bidsForAuction[cAuctionId][msg.sender] = currentBidValue */\n      dup4\n      swap1\n      sstore\n        /* \"contracts/Auction.sol\":9417:9473  bidderAlreadyExistsInBiddersList(cAuctionId, msg.sender) */\n      tag_135\n      swap1\n        /* \"contracts/Auction.sol\":9271:9281  cAuctionId */\n      dup5\n      swap1\n        /* \"contracts/Auction.sol\":9417:9449  bidderAlreadyExistsInBiddersList */\n      tag_136\n        /* \"contracts/Auction.sol\":9417:9473  bidderAlreadyExistsInBiddersList(cAuctionId, msg.sender) */\n      jump\t// in\n    tag_135:\n        /* \"contracts/Auction.sol\":9396:9473  bool alreadyBidded = bidderAlreadyExistsInBiddersList(cAuctionId, msg.sender) */\n      swap1\n      pop\n        /* \"contracts/Auction.sol\":9492:9505  alreadyBidded */\n      dup1\n        /* \"contracts/Auction.sol\":9488:9581  if(!alreadyBidded) {\r... */\n      tag_137\n      jumpi\n        /* \"contracts/Auction.sol\":9526:9548  bidderList[cAuctionId] */\n      0x00\n      dup4\n      dup2\n      mstore\n        /* \"contracts/Auction.sol\":9526:9536  bidderList */\n      0x01\n        /* \"contracts/Auction.sol\":9526:9548  bidderList[cAuctionId] */\n      0x20\n      dup2\n      dup2\n      mstore\n      0x40\n      dup4\n      keccak256\n        /* \"contracts/Auction.sol\":9526:9565  bidderList[cAuctionId].push(msg.sender) */\n      dup1\n      sload\n      swap3\n      dup4\n      add\n      dup2\n      sstore\n      dup4\n      mstore\n      swap1\n      swap2\n      keccak256\n      add\n      dup1\n      sload\n      not(sub(shl(0xa0, 0x01), 0x01))\n      and\n        /* \"contracts/Auction.sol\":9554:9564  msg.sender */\n      caller\n        /* \"contracts/Auction.sol\":9526:9565  bidderList[cAuctionId].push(msg.sender) */\n      or\n      swap1\n      sstore\n        /* \"contracts/Auction.sol\":9488:9581  if(!alreadyBidded) {\r... */\n    tag_137:\n        /* \"contracts/Auction.sol\":8303:9592  function placeBidForAuction(uint256 loanId) public payable {\r... */\n      pop\n      pop\n      pop\n      pop\n      jump\t// out\n        /* \"contracts/Auction.sol\":6924:7797  function withdrawMoney(uint256 loanId) public payable {\r... */\n    tag_52:\n        /* \"contracts/Auction.sol\":6993:7011  uint256 totalMoney */\n      0x00\n        /* \"contracts/Auction.sol\":7034:7043  uint256 i */\n      dup1\n        /* \"contracts/Auction.sol\":7030:7589  for(uint256 i = 0; i < loanIdToAllAuctionIdMappings[loanId].length; i++) {\r... */\n    tag_140:\n        /* \"contracts/Auction.sol\":7053:7089  loanIdToAllAuctionIdMappings[loanId] */\n      0x00\n      dup4\n      dup2\n      mstore\n        /* \"contracts/Auction.sol\":7053:7081  loanIdToAllAuctionIdMappings */\n      0x04\n        /* \"contracts/Auction.sol\":7053:7089  loanIdToAllAuctionIdMappings[loanId] */\n      0x20\n      mstore\n      0x40\n      swap1\n      keccak256\n        /* \"contracts/Auction.sol\":7053:7096  loanIdToAllAuctionIdMappings[loanId].length */\n      sload\n        /* \"contracts/Auction.sol\":7049:7096  i < loanIdToAllAuctionIdMappings[loanId].length */\n      dup2\n      lt\n        /* \"contracts/Auction.sol\":7030:7589  for(uint256 i = 0; i < loanIdToAllAuctionIdMappings[loanId].length; i++) {\r... */\n      iszero\n      tag_141\n      jumpi\n        /* \"contracts/Auction.sol\":7122:7146  uint256 currentAuctionId */\n      0x00\n        /* \"contracts/Auction.sol\":7149:7185  loanIdToAllAuctionIdMappings[loanId] */\n      dup4\n      dup2\n      mstore\n        /* \"contracts/Auction.sol\":7149:7177  loanIdToAllAuctionIdMappings */\n      0x04\n        /* \"contracts/Auction.sol\":7149:7185  loanIdToAllAuctionIdMappings[loanId] */\n      0x20\n      mstore\n      0x40\n      dup2\n      keccak256\n        /* \"contracts/Auction.sol\":7149:7188  loanIdToAllAuctionIdMappings[loanId][i] */\n      dup1\n      sload\n        /* \"contracts/Auction.sol\":7186:7187  i */\n      dup4\n      swap1\n        /* \"contracts/Auction.sol\":7149:7188  loanIdToAllAuctionIdMappings[loanId][i] */\n      dup2\n      lt\n      tag_143\n      jumpi\n      invalid\n    tag_143:\n      0x00\n      swap2\n      dup3\n      mstore\n      0x20\n      swap1\n      swap2\n      keccak256\n      add\n      sload\n      swap1\n      pop\n        /* \"contracts/Auction.sol\":7243:7263  AuctionState.RUNNING */\n      0x01\n        /* \"contracts/Auction.sol\":7211:7218  auction */\n      0x00\n        /* \"contracts/Auction.sol\":7211:7226  auction[loanId] */\n      dup6\n      dup2\n      mstore\n      0x20\n      dup2\n      swap1\n      mstore\n      0x40\n      swap1\n      keccak256\n        /* \"contracts/Auction.sol\":7211:7239  auction[loanId].auctionState */\n      0x09\n      add\n      sload\n      shl(0xa0, 0x01)\n      swap1\n      div\n      0xff\n      and\n        /* \"contracts/Auction.sol\":7211:7263  auction[loanId].auctionState == AuctionState.RUNNING */\n      0x04\n      dup2\n      gt\n      iszero\n      tag_146\n      jumpi\n      invalid\n    tag_146:\n      eq\n        /* \"contracts/Auction.sol\":7211:7312  auction[loanId].auctionState == AuctionState.RUNNING && auction[loanId].auctionId == currentAuctionId */\n      dup1\n      iszero\n      tag_147\n      jumpi\n      pop\n        /* \"contracts/Auction.sol\":7267:7274  auction */\n      0x00\n        /* \"contracts/Auction.sol\":7267:7282  auction[loanId] */\n      dup5\n      dup2\n      mstore\n      0x20\n      dup2\n      swap1\n      mstore\n      0x40\n      swap1\n      keccak256\n        /* \"contracts/Auction.sol\":7267:7292  auction[loanId].auctionId */\n      0x03\n      add\n      sload\n        /* \"contracts/Auction.sol\":7267:7312  auction[loanId].auctionId == currentAuctionId */\n      dup2\n      eq\n        /* \"contracts/Auction.sol\":7211:7312  auction[loanId].auctionState == AuctionState.RUNNING && auction[loanId].auctionId == currentAuctionId */\n    tag_147:\n        /* \"contracts/Auction.sol\":7207:7365  if (auction[loanId].auctionState == AuctionState.RUNNING && auction[loanId].auctionId == currentAuctionId) {\r... */\n      iszero\n      tag_148\n      jumpi\n        /* \"contracts/Auction.sol\":7337:7345  continue */\n      pop\n      jump(tag_142)\n        /* \"contracts/Auction.sol\":7207:7365  if (auction[loanId].auctionState == AuctionState.RUNNING && auction[loanId].auctionId == currentAuctionId) {\r... */\n    tag_148:\n        /* \"contracts/Auction.sol\":7399:7431  bidsForAuction[currentAuctionId] */\n      0x00\n      swap1\n      dup2\n      mstore\n        /* \"contracts/Auction.sol\":7399:7413  bidsForAuction */\n      0x02\n        /* \"contracts/Auction.sol\":7399:7431  bidsForAuction[currentAuctionId] */\n      0x20\n      swap1\n      dup2\n      mstore\n      0x40\n      dup1\n      dup4\n      keccak256\n        /* \"contracts/Auction.sol\":7432:7442  msg.sender */\n      caller\n        /* \"contracts/Auction.sol\":7399:7443  bidsForAuction[currentAuctionId][msg.sender] */\n      dup5\n      mstore\n      swap1\n      swap2\n      mstore\n      dup2\n      keccak256\n      dup1\n      sload\n        /* \"contracts/Auction.sol\":7525:7573  bidsForAuction[currentAuctionId][msg.sender] = 0 */\n      swap2\n      swap1\n      sstore\n        /* \"contracts/Auction.sol\":7385:7443  totalMoney += bidsForAuction[currentAuctionId][msg.sender] */\n      swap2\n      swap1\n      swap2\n      add\n      swap1\n        /* \"contracts/Auction.sol\":7030:7589  for(uint256 i = 0; i < loanIdToAllAuctionIdMappings[loanId].length; i++) {\r... */\n    tag_142:\n        /* \"contracts/Auction.sol\":7098:7101  i++ */\n      0x01\n      add\n        /* \"contracts/Auction.sol\":7030:7589  for(uint256 i = 0; i < loanIdToAllAuctionIdMappings[loanId].length; i++) {\r... */\n      jump(tag_140)\n    tag_141:\n      pop\n        /* \"contracts/Auction.sol\":7627:7634  1 ether */\n      0x0de0b6b3a7640000\n        /* \"contracts/Auction.sol\":7613:7623  totalMoney */\n      dup2\n        /* \"contracts/Auction.sol\":7613:7634  totalMoney >= 1 ether */\n      lt\n      iszero\n        /* \"contracts/Auction.sol\":7605:7683  require(totalMoney >= 1 ether, \"Total claimable balance should be >= 1 ether\") */\n      tag_149\n      jumpi\n      mload(0x40)\n      shl(0xe5, 0x461bcd)\n      dup2\n      mstore\n      0x04\n      add\n      tag_124\n      swap1\n      tag_151\n      jump\t// in\n    tag_149:\n        /* \"contracts/Auction.sol\":7745:7785  payable(msg.sender).transfer(totalMoney) */\n      mload(0x40)\n        /* \"contracts/Auction.sol\":7753:7763  msg.sender */\n      caller\n      swap1\n        /* \"contracts/Auction.sol\":7745:7785  payable(msg.sender).transfer(totalMoney) */\n      dup3\n      iszero\n      0x08fc\n      mul\n      swap1\n        /* \"contracts/Auction.sol\":7774:7784  totalMoney */\n      dup4\n      swap1\n        /* \"contracts/Auction.sol\":7745:7785  payable(msg.sender).transfer(totalMoney) */\n      0x00\n      dup2\n      dup2\n      dup2\n        /* \"contracts/Auction.sol\":7774:7784  totalMoney */\n      dup6\n        /* \"contracts/Auction.sol\":7753:7763  msg.sender */\n      dup9\n        /* \"contracts/Auction.sol\":7745:7785  payable(msg.sender).transfer(totalMoney) */\n      dup9\n      call\n      swap4\n      pop\n      pop\n      pop\n      pop\n      iszero\n      dup1\n      iszero\n      tag_153\n      jumpi\n      returndatasize\n      0x00\n      dup1\n      returndatacopy\n      revert(0x00, returndatasize)\n    tag_153:\n      pop\n        /* \"contracts/Auction.sol\":6924:7797  function withdrawMoney(uint256 loanId) public payable {\r... */\n      pop\n      pop\n      jump\t// out\n        /* \"contracts/Auction.sol\":4069:4642  function finalizeAuctionBeforeTime(uint256 loanId) public returns (uint256, address) {\r... */\n    tag_56:\n        /* \"contracts/Auction.sol\":4136:4143  uint256 */\n      0x00\n      dup1\n        /* \"contracts/Auction.sol\":4209:4229  AuctionState.RUNNING */\n      0x01\n        /* \"contracts/Auction.sol\":4177:4184  auction */\n      0x00\n        /* \"contracts/Auction.sol\":4177:4192  auction[loanId] */\n      dup5\n      dup2\n      mstore\n      0x20\n      dup2\n      swap1\n      mstore\n      0x40\n      swap1\n      keccak256\n        /* \"contracts/Auction.sol\":4177:4205  auction[loanId].auctionState */\n      0x09\n      add\n      sload\n      shl(0xa0, 0x01)\n      swap1\n      div\n      0xff\n      and\n        /* \"contracts/Auction.sol\":4177:4229  auction[loanId].auctionState == AuctionState.RUNNING */\n      0x04\n      dup2\n      gt\n      iszero\n      tag_156\n      jumpi\n      invalid\n    tag_156:\n      eq\n        /* \"contracts/Auction.sol\":4169:4256  require(auction[loanId].auctionState == AuctionState.RUNNING, \"Auction is not running\") */\n      tag_157\n      jumpi\n      mload(0x40)\n      shl(0xe5, 0x461bcd)\n      dup2\n      mstore\n      0x04\n      add\n      tag_124\n      swap1\n      tag_159\n      jump\t// in\n    tag_157:\n        /* \"contracts/Auction.sol\":4293:4300  auction */\n      0x00\n        /* \"contracts/Auction.sol\":4293:4308  auction[loanId] */\n      dup4\n      dup2\n      mstore\n      0x20\n      dup2\n      swap1\n      mstore\n      0x40\n      swap1\n      keccak256\n        /* \"contracts/Auction.sol\":4293:4320  auction[loanId].bankAddress */\n      0x08\n      add\n      sload\n      sub(shl(0xa0, 0x01), 0x01)\n      and\n        /* \"contracts/Auction.sol\":4279:4289  msg.sender */\n      caller\n        /* \"contracts/Auction.sol\":4279:4320  msg.sender == auction[loanId].bankAddress */\n      eq\n        /* \"contracts/Auction.sol\":4271:4363  require(msg.sender == auction[loanId].bankAddress, \"Only contract can finalize the auction\") */\n      tag_160\n      jumpi\n      mload(0x40)\n      shl(0xe5, 0x461bcd)\n      dup2\n      mstore\n      0x04\n      add\n      tag_124\n      swap1\n      tag_162\n      jump\t// in\n    tag_160:\n        /* \"contracts/Auction.sol\":4440:4470  daysAfterWhichAuctionShouldEnd */\n      sload(0x06)\n        /* \"contracts/Auction.sol\":4405:4412  auction */\n      0x00\n        /* \"contracts/Auction.sol\":4405:4420  auction[loanId] */\n      dup5\n      dup2\n      mstore\n      0x20\n      dup2\n      swap1\n      mstore\n      0x40\n      swap1\n      keccak256\n        /* \"contracts/Auction.sol\":4405:4437  auction[loanId].auctionStartTime */\n      0x04\n      add\n      sload\n        /* \"contracts/Auction.sol\":4405:4470  auction[loanId].auctionStartTime + daysAfterWhichAuctionShouldEnd */\n      add\n        /* \"contracts/Auction.sol\":4386:4401  block.timestamp */\n      timestamp\n        /* \"contracts/Auction.sol\":4386:4471  block.timestamp < (auction[loanId].auctionStartTime + daysAfterWhichAuctionShouldEnd) */\n      lt\n        /* \"contracts/Auction.sol\":4378:4511  require(block.timestamp < (auction[loanId].auctionStartTime + daysAfterWhichAuctionShouldEnd), \"Auction has ended ! Cannot finalize\") */\n      tag_163\n      jumpi\n      mload(0x40)\n      shl(0xe5, 0x461bcd)\n      dup2\n      mstore\n      0x04\n      add\n      tag_124\n      swap1\n      tag_165\n      jump\t// in\n    tag_163:\n        /* \"contracts/Auction.sol\":4526:4533  auction */\n      0x00\n        /* \"contracts/Auction.sol\":4526:4541  auction[loanId] */\n      dup4\n      dup2\n      mstore\n      0x20\n      dup2\n      swap1\n      mstore\n      0x40\n      swap1\n      keccak256\n        /* \"contracts/Auction.sol\":4526:4554  auction[loanId].auctionState */\n      0x09\n      add\n        /* \"contracts/Auction.sol\":4526:4579  auction[loanId].auctionState = AuctionState.FINALIZED */\n      dup1\n      sload\n      not(shl(0xa0, 0xff))\n      and\n      shl(0xa1, 0x01)\n      or\n      swap1\n      sstore\n        /* \"contracts/Auction.sol\":4603:4630  takeAuctionDecision(loanId) */\n      tag_167\n        /* \"contracts/Auction.sol\":4526:4541  auction[loanId] */\n      dup4\n        /* \"contracts/Auction.sol\":4603:4622  takeAuctionDecision */\n      tag_168\n        /* \"contracts/Auction.sol\":4603:4630  takeAuctionDecision(loanId) */\n      jump\t// in\n    tag_167:\n        /* \"contracts/Auction.sol\":4596:4630  return takeAuctionDecision(loanId) */\n      swap2\n      pop\n      swap2\n      pop\n        /* \"contracts/Auction.sol\":4069:4642  function finalizeAuctionBeforeTime(uint256 loanId) public returns (uint256, address) {\r... */\n    tag_154:\n      swap2\n      pop\n      swap2\n      jump\t// out\n        /* \"contracts/Auction.sol\":4654:5226  function cancelAuctionBeforeTime(uint256 loanId) public returns (uint256, address) {\r... */\n    tag_62:\n        /* \"contracts/Auction.sol\":4719:4726  uint256 */\n      0x00\n      dup1\n        /* \"contracts/Auction.sol\":4792:4812  AuctionState.RUNNING */\n      0x01\n        /* \"contracts/Auction.sol\":4760:4767  auction */\n      0x00\n        /* \"contracts/Auction.sol\":4760:4775  auction[loanId] */\n      dup5\n      dup2\n      mstore\n      0x20\n      dup2\n      swap1\n      mstore\n      0x40\n      swap1\n      keccak256\n        /* \"contracts/Auction.sol\":4760:4788  auction[loanId].auctionState */\n      0x09\n      add\n      sload\n      shl(0xa0, 0x01)\n      swap1\n      div\n      0xff\n      and\n        /* \"contracts/Auction.sol\":4760:4812  auction[loanId].auctionState == AuctionState.RUNNING */\n      0x04\n      dup2\n      gt\n      iszero\n      tag_171\n      jumpi\n      invalid\n    tag_171:\n      eq\n        /* \"contracts/Auction.sol\":4752:4839  require(auction[loanId].auctionState == AuctionState.RUNNING, \"Auction is not running\") */\n      tag_172\n      jumpi\n      mload(0x40)\n      shl(0xe5, 0x461bcd)\n      dup2\n      mstore\n      0x04\n      add\n      tag_124\n      swap1\n      tag_159\n      jump\t// in\n    tag_172:\n        /* \"contracts/Auction.sol\":4876:4883  auction */\n      0x00\n        /* \"contracts/Auction.sol\":4876:4891  auction[loanId] */\n      dup4\n      dup2\n      mstore\n      0x20\n      dup2\n      swap1\n      mstore\n      0x40\n      swap1\n      keccak256\n        /* \"contracts/Auction.sol\":4876:4903  auction[loanId].bankAddress */\n      0x08\n      add\n      sload\n      sub(shl(0xa0, 0x01), 0x01)\n      and\n        /* \"contracts/Auction.sol\":4862:4872  msg.sender */\n      caller\n        /* \"contracts/Auction.sol\":4862:4903  msg.sender == auction[loanId].bankAddress */\n      eq\n        /* \"contracts/Auction.sol\":4854:4944  require(msg.sender == auction[loanId].bankAddress, \"Only contract can cancel the auction\") */\n      tag_174\n      jumpi\n      mload(0x40)\n      shl(0xe5, 0x461bcd)\n      dup2\n      mstore\n      0x04\n      add\n      tag_124\n      swap1\n      tag_176\n      jump\t// in\n    tag_174:\n        /* \"contracts/Auction.sol\":5021:5051  daysAfterWhichAuctionShouldEnd */\n      sload(0x06)\n        /* \"contracts/Auction.sol\":4986:4993  auction */\n      0x00\n        /* \"contracts/Auction.sol\":4986:5001  auction[loanId] */\n      dup5\n      dup2\n      mstore\n      0x20\n      dup2\n      swap1\n      mstore\n      0x40\n      swap1\n      keccak256\n        /* \"contracts/Auction.sol\":4986:5018  auction[loanId].auctionStartTime */\n      0x04\n      add\n      sload\n        /* \"contracts/Auction.sol\":4986:5051  auction[loanId].auctionStartTime + daysAfterWhichAuctionShouldEnd */\n      add\n        /* \"contracts/Auction.sol\":4967:4982  block.timestamp */\n      timestamp\n        /* \"contracts/Auction.sol\":4967:5052  block.timestamp < (auction[loanId].auctionStartTime + daysAfterWhichAuctionShouldEnd) */\n      lt\n        /* \"contracts/Auction.sol\":4959:5090  require(block.timestamp < (auction[loanId].auctionStartTime + daysAfterWhichAuctionShouldEnd), \"Auction has ended ! Cannot cancel\") */\n      tag_177\n      jumpi\n      mload(0x40)\n      shl(0xe5, 0x461bcd)\n      dup2\n      mstore\n      0x04\n      add\n      tag_124\n      swap1\n      tag_179\n      jump\t// in\n    tag_177:\n      pop\n      pop\n        /* \"contracts/Auction.sol\":5105:5112  auction */\n      0x00\n        /* \"contracts/Auction.sol\":5105:5120  auction[loanId] */\n      swap1\n      dup2\n      mstore\n      0x20\n      dup2\n      swap1\n      mstore\n      0x40\n      dup2\n      keccak256\n        /* \"contracts/Auction.sol\":5105:5133  auction[loanId].auctionState */\n      0x09\n      dup2\n      add\n        /* \"contracts/Auction.sol\":5105:5158  auction[loanId].auctionState = AuctionState.CANCELLED */\n      dup1\n      sload\n      not(shl(0xa0, 0xff))\n      and\n      shl(0xa0, 0x03)\n      or\n      swap1\n      sstore\n        /* \"contracts/Auction.sol\":5186:5213  auction[loanId].bankAddress */\n      0x08\n      add\n      sload\n        /* \"contracts/Auction.sol\":5105:5112  auction */\n      swap1\n      swap2\n      sub(shl(0xa0, 0x01), 0x01)\n        /* \"contracts/Auction.sol\":5186:5213  auction[loanId].bankAddress */\n      swap1\n      swap2\n      and\n      swap1\n        /* \"contracts/Auction.sol\":4654:5226  function cancelAuctionBeforeTime(uint256 loanId) public returns (uint256, address) {\r... */\n      jump\t// out\n        /* \"contracts/Auction.sol\":1781:3386  function startAuction(uint256 bankId, uint256 loanId, address pledger, uint256 tokenId, uint256 repaymentAmount, address nftContractAddress, address bankAddress, address bankAdmin) public returns (uint256) {\r... */\n    tag_68:\n        /* \"contracts/Auction.sol\":1978:1985  uint256 */\n      0x00\n        /* \"contracts/Auction.sol\":2010:2021  loanId != 0 */\n      dup8\n        /* \"contracts/Auction.sol\":2002:2041  require(loanId != 0, \"Invalid loan Id\") */\n      tag_182\n      jumpi\n      mload(0x40)\n      shl(0xe5, 0x461bcd)\n      dup2\n      mstore\n      0x04\n      add\n      tag_124\n      swap1\n      tag_184\n      jump\t// in\n    tag_182:\n        /* \"contracts/Auction.sol\":2064:2075  bankId != 0 */\n      dup9\n        /* \"contracts/Auction.sol\":2056:2095  require(bankId != 0, \"Invalid bank Id\") */\n      tag_185\n      jumpi\n      mload(0x40)\n      shl(0xe5, 0x461bcd)\n      dup2\n      mstore\n      0x04\n      add\n      tag_124\n      swap1\n      tag_187\n      jump\t// in\n    tag_185:\n        /* \"contracts/Auction.sol\":2118:2162  IERC721(nftContractAddress).ownerOf(tokenId) */\n      mload(0x40)\n      shl(0xe1, 0x31a9108f)\n      dup2\n      mstore\n        /* \"contracts/Auction.sol\":2166:2176  msg.sender */\n      caller\n      swap1\n      sub(shl(0xa0, 0x01), 0x01)\n        /* \"contracts/Auction.sol\":2118:2153  IERC721(nftContractAddress).ownerOf */\n      dup7\n      and\n      swap1\n      0x6352211e\n      swap1\n        /* \"contracts/Auction.sol\":2118:2162  IERC721(nftContractAddress).ownerOf(tokenId) */\n      tag_188\n      swap1\n        /* \"contracts/Auction.sol\":2154:2161  tokenId */\n      dup11\n      swap1\n        /* \"contracts/Auction.sol\":2118:2162  IERC721(nftContractAddress).ownerOf(tokenId) */\n      0x04\n      add\n      tag_35\n      jump\t// in\n    tag_188:\n      0x20\n      mload(0x40)\n      dup1\n      dup4\n      sub\n      dup2\n      dup7\n      dup1\n      extcodesize\n      iszero\n      dup1\n      iszero\n      tag_189\n      jumpi\n      0x00\n      dup1\n      revert\n    tag_189:\n      pop\n      gas\n      staticcall\n      iszero\n      dup1\n      iszero\n      tag_191\n      jumpi\n      returndatasize\n      0x00\n      dup1\n      returndatacopy\n      revert(0x00, returndatasize)\n    tag_191:\n      pop\n      pop\n      pop\n      pop\n      mload(0x40)\n      returndatasize\n      not(0x1f)\n      0x1f\n      dup3\n      add\n      and\n      dup3\n      add\n      dup1\n      0x40\n      mstore\n      pop\n      dup2\n      add\n      swap1\n      tag_192\n      swap2\n      swap1\n      tag_193\n      jump\t// in\n    tag_192:\n      sub(shl(0xa0, 0x01), 0x01)\n        /* \"contracts/Auction.sol\":2118:2176  IERC721(nftContractAddress).ownerOf(tokenId) == msg.sender */\n      and\n      eq\n        /* \"contracts/Auction.sol\":2110:2203  require(IERC721(nftContractAddress).ownerOf(tokenId) == msg.sender, \"You do not own the NFT\") */\n      tag_194\n      jumpi\n      mload(0x40)\n      shl(0xe5, 0x461bcd)\n      dup2\n      mstore\n      0x04\n      add\n      tag_124\n      swap1\n      tag_196\n      jump\t// in\n    tag_194:\n        /* \"contracts/Auction.sol\":2258:2278  AuctionState.RUNNING */\n      0x01\n        /* \"contracts/Auction.sol\":2226:2233  auction */\n      0x00\n        /* \"contracts/Auction.sol\":2226:2241  auction[loanId] */\n      dup10\n      dup2\n      mstore\n      0x20\n      dup2\n      swap1\n      mstore\n      0x40\n      swap1\n      keccak256\n        /* \"contracts/Auction.sol\":2226:2254  auction[loanId].auctionState */\n      0x09\n      add\n      sload\n      shl(0xa0, 0x01)\n      swap1\n      div\n      0xff\n      and\n        /* \"contracts/Auction.sol\":2226:2278  auction[loanId].auctionState != AuctionState.RUNNING */\n      0x04\n      dup2\n      gt\n      iszero\n      tag_198\n      jumpi\n      invalid\n    tag_198:\n      eq\n      iszero\n        /* \"contracts/Auction.sol\":2218:2319  require(auction[loanId].auctionState != AuctionState.RUNNING, \"Already an auction is in progress !!\") */\n      tag_199\n      jumpi\n      mload(0x40)\n      shl(0xe5, 0x461bcd)\n      dup2\n      mstore\n      0x04\n      add\n      tag_124\n      swap1\n      tag_201\n      jump\t// in\n    tag_199:\n        /* \"contracts/Auction.sol\":2336:2366  AuctionItem memory auctionItem */\n      tag_202\n      tag_203\n      jump\t// in\n    tag_202:\n        /* \"contracts/Auction.sol\":2381:2408  auctionItem.loanId = loanId */\n      dup9\n      dup2\n      mstore\n      sub(shl(0xa0, 0x01), 0x01)\n        /* \"contracts/Auction.sol\":2423:2452  auctionItem.pledger = pledger */\n      dup9\n      dup2\n      and\n        /* \"contracts/Auction.sol\":2423:2442  auctionItem.pledger */\n      0x20\n      dup4\n      add\n        /* \"contracts/Auction.sol\":2423:2452  auctionItem.pledger = pledger */\n      mstore\n        /* \"contracts/Auction.sol\":2467:2486  auctionItem.tokenId */\n      0x40\n      dup1\n      dup4\n      add\n        /* \"contracts/Auction.sol\":2467:2496  auctionItem.tokenId = tokenId */\n      dup10\n      swap1\n      mstore\n        /* \"contracts/Auction.sol\":2535:2549  auctionCounter */\n      0x05\n      dup1\n      sload\n        /* \"contracts/Auction.sol\":2511:2532  auctionItem.auctionId */\n      0x60\n      dup6\n      add\n        /* \"contracts/Auction.sol\":2511:2549  auctionItem.auctionId = auctionCounter */\n      dup2\n      swap1\n      mstore\n        /* \"contracts/Auction.sol\":2564:2580  auctionCounter++ */\n      0x01\n      swap1\n      dup2\n      add\n      swap1\n      swap2\n      sstore\n        /* \"contracts/Auction.sol\":2626:2641  block.timestamp */\n      timestamp\n        /* \"contracts/Auction.sol\":2595:2623  auctionItem.auctionStartTime */\n      0x80\n      dup6\n      add\n        /* \"contracts/Auction.sol\":2595:2641  auctionItem.auctionStartTime = block.timestamp */\n      mstore\n        /* \"contracts/Auction.sol\":2656:2683  auctionItem.repaymentAmount */\n      0xa0\n      dup5\n      add\n        /* \"contracts/Auction.sol\":2656:2701  auctionItem.repaymentAmount = repaymentAmount */\n      dup10\n      swap1\n      mstore\n        /* \"contracts/Auction.sol\":2716:2750  auctionItem.bankToWhichItisPledged */\n      0xc0\n      dup5\n      add\n        /* \"contracts/Auction.sol\":2716:2759  auctionItem.bankToWhichItisPledged = bankId */\n      dup14\n      swap1\n      mstore\n        /* \"contracts/Auction.sol\":2774:2825  auctionItem.nftContractAddress = nftContractAddress */\n      dup8\n      dup4\n      and\n        /* \"contracts/Auction.sol\":2774:2804  auctionItem.nftContractAddress */\n      0xe0\n      dup6\n      add\n        /* \"contracts/Auction.sol\":2774:2825  auctionItem.nftContractAddress = nftContractAddress */\n      dup2\n      swap1\n      mstore\n        /* \"contracts/Auction.sol\":2840:2877  auctionItem.bankAddress = bankAddress */\n      dup8\n      dup5\n      and\n        /* \"contracts/Auction.sol\":2840:2863  auctionItem.bankAddress */\n      0x0100\n      dup7\n      add\n        /* \"contracts/Auction.sol\":2840:2877  auctionItem.bankAddress = bankAddress */\n      dup2\n      swap1\n      mstore\n        /* \"contracts/Auction.sol\":2892:2925  auctionItem.bankAdmin = bankAdmin */\n      swap4\n      dup8\n      and\n        /* \"contracts/Auction.sol\":2892:2913  auctionItem.bankAdmin */\n      0x0120\n      dup7\n      add\n        /* \"contracts/Auction.sol\":2892:2925  auctionItem.bankAdmin = bankAdmin */\n      mstore\n        /* \"contracts/Auction.sol\":2940:2964  auctionItem.auctionState */\n      0x0140\n      dup6\n      add\n        /* \"contracts/Auction.sol\":2940:2987  auctionItem.auctionState = AuctionState.RUNNING */\n      swap2\n      swap1\n      swap2\n      mstore\n        /* \"contracts/Auction.sol\":3002:3031  auctionItem.highestBindingBid */\n      0x0160\n      dup5\n      add\n        /* \"contracts/Auction.sol\":3002:3049  auctionItem.highestBindingBid = repaymentAmount */\n      dup10\n      swap1\n      mstore\n        /* \"contracts/Auction.sol\":3064:3089  auctionItem.highestBidder */\n      0x0180\n      dup5\n      add\n        /* \"contracts/Auction.sol\":3064:3112  auctionItem.highestBidder = payable(bankAddress) */\n      swap3\n      swap1\n      swap3\n      mstore\n        /* \"contracts/Auction.sol\":3148:3192  IERC721Metadata(nftContractAddress).symbol() */\n      dup1\n      mload\n      shl(0xe0, 0x95d89b41)\n      dup2\n      mstore\n      swap1\n      mload\n        /* \"contracts/Auction.sol\":3148:3190  IERC721Metadata(nftContractAddress).symbol */\n      0x95d89b41\n      swap2\n        /* \"contracts/Auction.sol\":3148:3192  IERC721Metadata(nftContractAddress).symbol() */\n      0x04\n      dup1\n      dup3\n      add\n      swap3\n      0x00\n      swap3\n      swap1\n      swap2\n      swap1\n      dup3\n      swap1\n      sub\n      add\n      dup2\n        /* \"contracts/Auction.sol\":2774:2825  auctionItem.nftContractAddress = nftContractAddress */\n      dup7\n        /* \"contracts/Auction.sol\":3148:3192  IERC721Metadata(nftContractAddress).symbol() */\n      dup1\n      extcodesize\n      iszero\n      dup1\n      iszero\n      tag_206\n      jumpi\n      0x00\n      dup1\n      revert\n    tag_206:\n      pop\n      gas\n      staticcall\n      iszero\n      dup1\n      iszero\n      tag_208\n      jumpi\n      returndatasize\n      0x00\n      dup1\n      returndatacopy\n      revert(0x00, returndatasize)\n    tag_208:\n      pop\n      pop\n      pop\n      pop\n      mload(0x40)\n      returndatasize\n      0x00\n      dup3\n      returndatacopy\n      0x1f\n      returndatasize\n      swap1\n      dup2\n      add\n      not(0x1f)\n      and\n      dup3\n      add\n      0x40\n      mstore\n      tag_209\n      swap2\n      swap1\n      dup2\n      add\n      swap1\n      tag_210\n      jump\t// in\n    tag_209:\n        /* \"contracts/Auction.sol\":3127:3145  auctionItem.symbol */\n      0x01a0\n      dup3\n      add\n        /* \"contracts/Auction.sol\":3127:3192  auctionItem.symbol = IERC721Metadata(nftContractAddress).symbol() */\n      mstore\n        /* \"contracts/Auction.sol\":3217:3235  auctionItem.loanId */\n      dup1\n      mload\n        /* \"contracts/Auction.sol\":3209:3216  auction */\n      0x00\n        /* \"contracts/Auction.sol\":3209:3236  auction[auctionItem.loanId] */\n      swap1\n      dup2\n      mstore\n      0x20\n      dup2\n      dup2\n      mstore\n      0x40\n      swap2\n      dup3\n      swap1\n      keccak256\n        /* \"contracts/Auction.sol\":3209:3250  auction[auctionItem.loanId] = auctionItem */\n      dup4\n      mload\n      dup2\n      sstore\n      swap1\n      dup4\n      add\n      mload\n      0x01\n      dup3\n      add\n      dup1\n      sload\n      not(sub(shl(0xa0, 0x01), 0x01))\n      swap1\n      dup2\n      and\n      sub(shl(0xa0, 0x01), 0x01)\n      swap4\n      dup5\n      and\n      or\n      swap1\n      swap2\n      sstore\n      swap3\n      dup5\n      add\n      mload\n      0x02\n      dup4\n      add\n      sstore\n      0x60\n      dup5\n      add\n      mload\n      0x03\n      dup4\n      add\n      sstore\n      0x80\n      dup5\n      add\n      mload\n      0x04\n      dup1\n      dup5\n      add\n      swap2\n      swap1\n      swap2\n      sstore\n      0xa0\n      dup6\n      add\n      mload\n      0x05\n      dup5\n      add\n      sstore\n      0xc0\n      dup6\n      add\n      mload\n      0x06\n      dup5\n      add\n      sstore\n      0xe0\n      dup6\n      add\n      mload\n      0x07\n      dup5\n      add\n      dup1\n      sload\n      dup7\n      and\n      swap2\n      dup5\n      and\n      swap2\n      swap1\n      swap2\n      or\n      swap1\n      sstore\n      0x0100\n      dup6\n      add\n      mload\n      0x08\n      dup5\n      add\n      dup1\n      sload\n      dup7\n      and\n      swap2\n      dup5\n      and\n      swap2\n      swap1\n      swap2\n      or\n      swap1\n      sstore\n      0x0120\n      dup6\n      add\n      mload\n      0x09\n      dup5\n      add\n      dup1\n      sload\n      swap1\n      swap6\n      and\n      swap3\n      and\n      swap2\n      swap1\n      swap2\n      or\n      dup1\n      dup5\n      sstore\n      0x0140\n      dup6\n      add\n      mload\n        /* \"contracts/Auction.sol\":3127:3145  auctionItem.symbol */\n      dup6\n      swap5\n        /* \"contracts/Auction.sol\":3209:3250  auction[auctionItem.loanId] = auctionItem */\n      swap1\n      swap3\n      swap1\n      swap2\n      not(shl(0xa0, 0xff))\n      and\n      swap1\n      shl(0xa0, 0x01)\n      swap1\n      dup5\n      swap1\n      dup2\n      gt\n      iszero\n      tag_211\n      jumpi\n      invalid\n    tag_211:\n      mul\n      or\n      swap1\n      sstore\n      pop\n      0x0160\n      dup3\n      add\n      mload\n      0x0a\n      dup3\n      add\n      sstore\n      0x0180\n      dup3\n      add\n      mload\n      0x0b\n      dup3\n      add\n      dup1\n      sload\n      not(sub(shl(0xa0, 0x01), 0x01))\n      and\n      sub(shl(0xa0, 0x01), 0x01)\n      swap1\n      swap3\n      and\n      swap2\n      swap1\n      swap2\n      or\n      swap1\n      sstore\n      0x01a0\n      dup3\n      add\n      mload\n      dup1\n      mload\n      tag_212\n      swap2\n      0x0c\n      dup5\n      add\n      swap2\n      0x20\n      swap1\n      swap2\n      add\n      swap1\n      tag_213\n      jump\t// in\n    tag_212:\n      pop\n      pop\n      pop\n        /* \"contracts/Auction.sol\":3265:3301  loanIdToAllAuctionIdMappings[loanId] */\n      0x00\n      swap9\n      dup10\n      mstore\n        /* \"contracts/Auction.sol\":3265:3293  loanIdToAllAuctionIdMappings */\n      0x04\n        /* \"contracts/Auction.sol\":3265:3301  loanIdToAllAuctionIdMappings[loanId] */\n      0x20\n      swap1\n      dup2\n      mstore\n      0x40\n      dup11\n      keccak256\n        /* \"contracts/Auction.sol\":3307:3328  auctionItem.auctionId */\n      0x60\n      swap3\n      swap1\n      swap3\n      add\n      dup1\n      mload\n        /* \"contracts/Auction.sol\":3265:3329  loanIdToAllAuctionIdMappings[loanId].push(auctionItem.auctionId) */\n      dup4\n      sload\n      0x01\n      dup2\n      add\n      dup6\n      sstore\n      swap4\n      dup13\n      mstore\n      swap2\n      swap1\n      swap11\n      keccak256\n      swap1\n      swap2\n      add\n      sstore\n      pop\n      pop\n        /* \"contracts/Auction.sol\":3353:3374  auctionItem.auctionId */\n      swap5\n      mload\n      swap7\n        /* \"contracts/Auction.sol\":1781:3386  function startAuction(uint256 bankId, uint256 loanId, address pledger, uint256 tokenId, uint256 repaymentAmount, address nftContractAddress, address bankAddress, address bankAdmin) public returns (uint256) {\r... */\n      swap6\n      pop\n      pop\n      pop\n      pop\n      pop\n      pop\n      jump\t// out\n        /* \"contracts/Auction.sol\":8133:8291  function getUsersBidValueForAuctionId(uint256 auctionId) public view returns (uint256) {\r... */\n    tag_73:\n        /* \"contracts/Auction.sol\":8211:8218  uint256 */\n      0x00\n        /* \"contracts/Auction.sol\":8242:8267  bidsForAuction[auctionId] */\n      swap1\n      dup2\n      mstore\n        /* \"contracts/Auction.sol\":8242:8256  bidsForAuction */\n      0x02\n        /* \"contracts/Auction.sol\":8242:8267  bidsForAuction[auctionId] */\n      0x20\n      swap1\n      dup2\n      mstore\n      0x40\n      dup1\n      dup4\n      keccak256\n        /* \"contracts/Auction.sol\":8268:8278  msg.sender */\n      caller\n        /* \"contracts/Auction.sol\":8242:8279  bidsForAuction[auctionId][msg.sender] */\n      dup5\n      mstore\n      swap1\n      swap2\n      mstore\n      swap1\n      keccak256\n      sload\n      swap1\n        /* \"contracts/Auction.sol\":8133:8291  function getUsersBidValueForAuctionId(uint256 auctionId) public view returns (uint256) {\r... */\n      jump\t// out\n        /* \"contracts/Auction.sol\":5238:5834  function checkIfAuctionHasExpired(uint256 loanId) public returns (uint256, address) {\r... */\n    tag_78:\n        /* \"contracts/Auction.sol\":5304:5311  uint256 */\n      0x00\n      dup1\n        /* \"contracts/Auction.sol\":5377:5397  AuctionState.RUNNING */\n      0x01\n        /* \"contracts/Auction.sol\":5345:5352  auction */\n      0x00\n        /* \"contracts/Auction.sol\":5345:5360  auction[loanId] */\n      dup5\n      dup2\n      mstore\n      0x20\n      dup2\n      swap1\n      mstore\n      0x40\n      swap1\n      keccak256\n        /* \"contracts/Auction.sol\":5345:5373  auction[loanId].auctionState */\n      0x09\n      add\n      sload\n      shl(0xa0, 0x01)\n      swap1\n      div\n      0xff\n      and\n        /* \"contracts/Auction.sol\":5345:5397  auction[loanId].auctionState == AuctionState.RUNNING */\n      0x04\n      dup2\n      gt\n      iszero\n      tag_218\n      jumpi\n      invalid\n    tag_218:\n      eq\n        /* \"contracts/Auction.sol\":5337:5428  require(auction[loanId].auctionState == AuctionState.RUNNING, \"Auction is in other states\") */\n      tag_219\n      jumpi\n      mload(0x40)\n      shl(0xe5, 0x461bcd)\n      dup2\n      mstore\n      0x04\n      add\n      tag_124\n      swap1\n      tag_221\n      jump\t// in\n    tag_219:\n        /* \"contracts/Auction.sol\":5465:5472  auction */\n      0x00\n        /* \"contracts/Auction.sol\":5465:5480  auction[loanId] */\n      dup4\n      dup2\n      mstore\n      0x20\n      dup2\n      swap1\n      mstore\n      0x40\n      swap1\n      keccak256\n        /* \"contracts/Auction.sol\":5465:5492  auction[loanId].bankAddress */\n      0x08\n      add\n      sload\n      sub(shl(0xa0, 0x01), 0x01)\n      and\n        /* \"contracts/Auction.sol\":5451:5461  msg.sender */\n      caller\n        /* \"contracts/Auction.sol\":5451:5492  msg.sender == auction[loanId].bankAddress */\n      eq\n        /* \"contracts/Auction.sol\":5443:5541  require(msg.sender == auction[loanId].bankAddress, \"Only contract can check if auction has ended\") */\n      tag_222\n      jumpi\n      mload(0x40)\n      shl(0xe5, 0x461bcd)\n      dup2\n      mstore\n      0x04\n      add\n      tag_124\n      swap1\n      tag_224\n      jump\t// in\n    tag_222:\n        /* \"contracts/Auction.sol\":5613:5643  daysAfterWhichAuctionShouldEnd */\n      sload(0x06)\n        /* \"contracts/Auction.sol\":5578:5585  auction */\n      0x00\n        /* \"contracts/Auction.sol\":5578:5593  auction[loanId] */\n      dup5\n      dup2\n      mstore\n      0x20\n      dup2\n      swap1\n      mstore\n      0x40\n      swap1\n      keccak256\n        /* \"contracts/Auction.sol\":5578:5610  auction[loanId].auctionStartTime */\n      0x04\n      add\n      sload\n        /* \"contracts/Auction.sol\":5578:5643  auction[loanId].auctionStartTime + daysAfterWhichAuctionShouldEnd */\n      add\n        /* \"contracts/Auction.sol\":5559:5574  block.timestamp */\n      timestamp\n        /* \"contracts/Auction.sol\":5559:5644  block.timestamp > (auction[loanId].auctionStartTime + daysAfterWhichAuctionShouldEnd) */\n      gt\n        /* \"contracts/Auction.sol\":5556:5784  if(block.timestamp > (auction[loanId].auctionStartTime + daysAfterWhichAuctionShouldEnd) ) {\r... */\n      iszero\n      tag_225\n      jumpi\n        /* \"contracts/Auction.sol\":5666:5673  auction */\n      0x00\n        /* \"contracts/Auction.sol\":5666:5681  auction[loanId] */\n      dup4\n      dup2\n      mstore\n      0x20\n      dup2\n      swap1\n      mstore\n      0x40\n      swap1\n      keccak256\n        /* \"contracts/Auction.sol\":5666:5694  auction[loanId].auctionState */\n      0x09\n      add\n        /* \"contracts/Auction.sol\":5666:5715  auction[loanId].auctionState = AuctionState.ENDED */\n      dup1\n      sload\n      not(shl(0xa0, 0xff))\n      and\n      shl(0xa2, 0x01)\n      or\n      swap1\n      sstore\n        /* \"contracts/Auction.sol\":5741:5768  takeAuctionDecision(loanId) */\n      tag_227\n        /* \"contracts/Auction.sol\":5666:5681  auction[loanId] */\n      dup4\n        /* \"contracts/Auction.sol\":5741:5760  takeAuctionDecision */\n      tag_168\n        /* \"contracts/Auction.sol\":5741:5768  takeAuctionDecision(loanId) */\n      jump\t// in\n    tag_227:\n        /* \"contracts/Auction.sol\":5734:5768  return takeAuctionDecision(loanId) */\n      swap2\n      pop\n      swap2\n      pop\n      jump(tag_154)\n        /* \"contracts/Auction.sol\":5556:5784  if(block.timestamp > (auction[loanId].auctionStartTime + daysAfterWhichAuctionShouldEnd) ) {\r... */\n    tag_225:\n      pop\n        /* \"contracts/Auction.sol\":5808:5809  0 */\n      0x00\n      swap1\n      pop\n      dup1\n        /* \"contracts/Auction.sol\":5238:5834  function checkIfAuctionHasExpired(uint256 loanId) public returns (uint256, address) {\r... */\n      swap2\n      pop\n      swap2\n      jump\t// out\n        /* \"contracts/Auction.sol\":1500:1565  mapping(uint256 => uint256[]) public loanIdToAllAuctionIdMappings */\n    tag_84:\n      mstore(0x20, 0x04)\n      dup2\n      0x00\n      mstore\n      keccak256(0x00, 0x40)\n      dup2\n      dup2\n      sload\n      dup2\n      lt\n      tag_228\n      jumpi\n      0x00\n      dup1\n      revert\n    tag_228:\n      swap1\n      0x00\n      mstore\n      keccak256(0x00, 0x20)\n      add\n      0x00\n      swap2\n      pop\n      swap2\n      pop\n      pop\n      sload\n      dup2\n      jump\t// out\n        /* \"contracts/Auction.sol\":1606:1639  uint256 public auctionCounter = 1 */\n    tag_88:\n      sload(0x05)\n      dup2\n      jump\t// out\n        /* \"contracts/Auction.sol\":7981:8121  function getAllBiddersList(uint256 auctionId) public view returns (address[] memory) {\r... */\n    tag_93:\n        /* \"contracts/Auction.sol\":8088:8109  bidderList[auctionId] */\n      0x00\n      dup2\n      dup2\n      mstore\n        /* \"contracts/Auction.sol\":8088:8098  bidderList */\n      0x01\n        /* \"contracts/Auction.sol\":8088:8109  bidderList[auctionId] */\n      0x20\n      swap1\n      dup2\n      mstore\n      0x40\n      swap2\n      dup3\n      swap1\n      keccak256\n        /* \"contracts/Auction.sol\":8081:8109  return bidderList[auctionId] */\n      dup1\n      sload\n      dup4\n      mload\n      dup2\n      dup5\n      mul\n      dup2\n      add\n      dup5\n      add\n      swap1\n      swap5\n      mstore\n      dup1\n      dup5\n      mstore\n        /* \"contracts/Auction.sol\":8048:8064  address[] memory */\n      0x60\n      swap4\n        /* \"contracts/Auction.sol\":8081:8109  return bidderList[auctionId] */\n      swap3\n      dup4\n      add\n        /* \"contracts/Auction.sol\":8088:8109  bidderList[auctionId] */\n      dup3\n        /* \"contracts/Auction.sol\":8081:8109  return bidderList[auctionId] */\n      dup3\n      dup1\n      iszero\n      tag_231\n      jumpi\n      0x20\n      mul\n      dup3\n      add\n      swap2\n      swap1\n      0x00\n      mstore\n      keccak256(0x00, 0x20)\n      swap1\n    tag_232:\n      dup2\n      sload\n      sub(shl(0xa0, 0x01), 0x01)\n      and\n      dup2\n      mstore\n      0x01\n      swap1\n      swap2\n      add\n      swap1\n      0x20\n      add\n      dup1\n      dup4\n      gt\n      tag_232\n      jumpi\n    tag_231:\n      pop\n      pop\n      pop\n      pop\n      pop\n      swap1\n      pop\n        /* \"contracts/Auction.sol\":7981:8121  function getAllBiddersList(uint256 auctionId) public view returns (address[] memory) {\r... */\n      swap2\n      swap1\n      pop\n      jump\t// out\n        /* \"contracts/Auction.sol\":3398:4057  function blackListUsersFromAuction(uint256 loanId, uint256 auctionId, address[] memory list) public {\r... */\n    tag_100:\n        /* \"contracts/Auction.sol\":3521:3532  loanId != 0 */\n      dup3\n        /* \"contracts/Auction.sol\":3513:3552  require(loanId != 0, \"Loan Id invalid\") */\n      tag_234\n      jumpi\n      mload(0x40)\n      shl(0xe5, 0x461bcd)\n      dup2\n      mstore\n      0x04\n      add\n      tag_124\n      swap1\n      tag_236\n      jump\t// in\n    tag_234:\n        /* \"contracts/Auction.sol\":3607:3627  AuctionState.RUNNING */\n      0x01\n        /* \"contracts/Auction.sol\":3575:3582  auction */\n      0x00\n        /* \"contracts/Auction.sol\":3575:3590  auction[loanId] */\n      dup5\n      dup2\n      mstore\n      0x20\n      dup2\n      swap1\n      mstore\n      0x40\n      swap1\n      keccak256\n        /* \"contracts/Auction.sol\":3575:3603  auction[loanId].auctionState */\n      0x09\n      add\n      sload\n      shl(0xa0, 0x01)\n      swap1\n      div\n      0xff\n      and\n        /* \"contracts/Auction.sol\":3575:3627  auction[loanId].auctionState == AuctionState.RUNNING */\n      0x04\n      dup2\n      gt\n      iszero\n      tag_238\n      jumpi\n      invalid\n    tag_238:\n      eq\n        /* \"contracts/Auction.sol\":3567:3654  require(auction[loanId].auctionState == AuctionState.RUNNING, \"Auction is not running\") */\n      tag_239\n      jumpi\n      mload(0x40)\n      shl(0xe5, 0x461bcd)\n      dup2\n      mstore\n      0x04\n      add\n      tag_124\n      swap1\n      tag_159\n      jump\t// in\n    tag_239:\n        /* \"contracts/Auction.sol\":3691:3698  auction */\n      0x00\n        /* \"contracts/Auction.sol\":3691:3706  auction[loanId] */\n      dup4\n      dup2\n      mstore\n      0x20\n      dup2\n      swap1\n      mstore\n      0x40\n      swap1\n      keccak256\n        /* \"contracts/Auction.sol\":3691:3718  auction[loanId].bankAddress */\n      0x08\n      add\n      sload\n      sub(shl(0xa0, 0x01), 0x01)\n      and\n        /* \"contracts/Auction.sol\":3677:3687  msg.sender */\n      caller\n        /* \"contracts/Auction.sol\":3677:3718  msg.sender == auction[loanId].bankAddress */\n      eq\n        /* \"contracts/Auction.sol\":3669:3745  require(msg.sender == auction[loanId].bankAddress, \"Contract can blacklist\") */\n      tag_241\n      jumpi\n      mload(0x40)\n      shl(0xe5, 0x461bcd)\n      dup2\n      mstore\n      0x04\n      add\n      tag_124\n      swap1\n      tag_243\n      jump\t// in\n    tag_241:\n        /* \"contracts/Auction.sol\":3768:3775  auction */\n      0x00\n        /* \"contracts/Auction.sol\":3768:3783  auction[loanId] */\n      dup4\n      dup2\n      mstore\n      0x20\n      dup2\n      swap1\n      mstore\n      0x40\n      swap1\n      keccak256\n        /* \"contracts/Auction.sol\":3768:3793  auction[loanId].auctionId */\n      0x03\n      add\n      sload\n        /* \"contracts/Auction.sol\":3768:3806  auction[loanId].auctionId == auctionId */\n      dup3\n      eq\n        /* \"contracts/Auction.sol\":3760:3807  require(auction[loanId].auctionId == auctionId) */\n      tag_244\n      jumpi\n      0x00\n      dup1\n      revert\n    tag_244:\n        /* \"contracts/Auction.sol\":3934:3943  uint256 i */\n      0x00\n        /* \"contracts/Auction.sol\":3930:4044  for(uint256 i = 0; i < list.length; i++) {\r... */\n    tag_245:\n        /* \"contracts/Auction.sol\":3953:3957  list */\n      dup2\n        /* \"contracts/Auction.sol\":3953:3964  list.length */\n      mload\n        /* \"contracts/Auction.sol\":3949:3950  i */\n      dup2\n        /* \"contracts/Auction.sol\":3949:3964  i < list.length */\n      lt\n        /* \"contracts/Auction.sol\":3930:4044  for(uint256 i = 0; i < list.length; i++) {\r... */\n      iszero\n      tag_137\n      jumpi\n        /* \"contracts/Auction.sol\":3990:4012  blackListed[auctionId] */\n      0x00\n      dup4\n      dup2\n      mstore\n        /* \"contracts/Auction.sol\":3990:4001  blackListed */\n      0x03\n        /* \"contracts/Auction.sol\":3990:4012  blackListed[auctionId] */\n      0x20\n      mstore\n      0x40\n      dup2\n      keccak256\n        /* \"contracts/Auction.sol\":4013:4020  list[i] */\n      dup4\n      mload\n        /* \"contracts/Auction.sol\":4024:4028  true */\n      0x01\n      swap3\n        /* \"contracts/Auction.sol\":3990:4012  blackListed[auctionId] */\n      swap1\n        /* \"contracts/Auction.sol\":4013:4017  list */\n      dup6\n      swap1\n        /* \"contracts/Auction.sol\":4018:4019  i */\n      dup6\n      swap1\n        /* \"contracts/Auction.sol\":4013:4020  list[i] */\n      dup2\n      lt\n      tag_248\n      jumpi\n      invalid\n    tag_248:\n      0x20\n      swap1\n      dup2\n      mul\n      swap2\n      swap1\n      swap2\n      add\n      dup2\n      add\n      mload\n      sub(shl(0xa0, 0x01), 0x01)\n        /* \"contracts/Auction.sol\":3990:4021  blackListed[auctionId][list[i]] */\n      and\n      dup3\n      mstore\n      dup2\n      add\n      swap2\n      swap1\n      swap2\n      mstore\n      0x40\n      add\n      0x00\n      keccak256\n        /* \"contracts/Auction.sol\":3990:4028  blackListed[auctionId][list[i]] = true */\n      dup1\n      sload\n      not(0xff)\n      and\n      swap2\n      iszero\n      iszero\n      swap2\n      swap1\n      swap2\n      or\n      swap1\n      sstore\n      0x01\n        /* \"contracts/Auction.sol\":3966:3969  i++ */\n      add\n        /* \"contracts/Auction.sol\":3930:4044  for(uint256 i = 0; i < list.length; i++) {\r... */\n      jump(tag_245)\n        /* \"contracts/Auction.sol\":7809:7969  function getAllAuctionIdsForLoanId(uint256 loanId) public view returns (uint256[] memory) {\r... */\n    tag_104:\n        /* \"contracts/Auction.sol\":7921:7957  loanIdToAllAuctionIdMappings[loanId] */\n      0x00\n      dup2\n      dup2\n      mstore\n        /* \"contracts/Auction.sol\":7921:7949  loanIdToAllAuctionIdMappings */\n      0x04\n        /* \"contracts/Auction.sol\":7921:7957  loanIdToAllAuctionIdMappings[loanId] */\n      0x20\n      swap1\n      dup2\n      mstore\n      0x40\n      swap2\n      dup3\n      swap1\n      keccak256\n        /* \"contracts/Auction.sol\":7914:7957  return loanIdToAllAuctionIdMappings[loanId] */\n      dup1\n      sload\n      dup4\n      mload\n      dup2\n      dup5\n      mul\n      dup2\n      add\n      dup5\n      add\n      swap1\n      swap5\n      mstore\n      dup1\n      dup5\n      mstore\n        /* \"contracts/Auction.sol\":7881:7897  uint256[] memory */\n      0x60\n      swap4\n        /* \"contracts/Auction.sol\":7914:7957  return loanIdToAllAuctionIdMappings[loanId] */\n      swap3\n      dup4\n      add\n        /* \"contracts/Auction.sol\":7921:7957  loanIdToAllAuctionIdMappings[loanId] */\n      dup3\n        /* \"contracts/Auction.sol\":7914:7957  return loanIdToAllAuctionIdMappings[loanId] */\n      dup3\n      dup1\n      iszero\n      tag_231\n      jumpi\n      0x20\n      mul\n      dup3\n      add\n      swap2\n      swap1\n      0x00\n      mstore\n      keccak256(0x00, 0x20)\n      swap1\n    tag_251:\n      dup2\n      sload\n      dup2\n      mstore\n      0x20\n      add\n      swap1\n      0x01\n      add\n      swap1\n      dup1\n      dup4\n      gt\n      tag_251\n      jumpi\n      pop\n      pop\n      pop\n      pop\n      pop\n      swap1\n      pop\n        /* \"contracts/Auction.sol\":7809:7969  function getAllAuctionIdsForLoanId(uint256 loanId) public view returns (uint256[] memory) {\r... */\n      swap2\n      swap1\n      pop\n      jump\t// out\n        /* \"contracts/Auction.sol\":1112:1159  mapping(uint256 => address[]) public bidderList */\n    tag_110:\n      mstore(0x20, 0x01)\n      dup2\n      0x00\n      mstore\n      keccak256(0x00, 0x40)\n      dup2\n      dup2\n      sload\n      dup2\n      lt\n      tag_252\n      jumpi\n      0x00\n      dup1\n      revert\n    tag_252:\n      0x00\n      swap2\n      dup3\n      mstore\n      0x20\n      swap1\n      swap2\n      keccak256\n      add\n      sload\n      sub(shl(0xa0, 0x01), 0x01)\n      and\n      swap2\n      pop\n      dup3\n      swap1\n      pop\n      jump\t// out\n        /* \"contracts/Auction.sol\":1650:1708  uint256 public daysAfterWhichAuctionShouldEnd = 20 minutes */\n    tag_115:\n      sload(0x06)\n      dup2\n      jump\t// out\n        /* \"contracts/Auction.sol\":9604:9949  function bidderAlreadyExistsInBiddersList(uint256 auctionId, address bidder) private view returns (bool) {\r... */\n    tag_136:\n        /* \"contracts/Auction.sol\":9703:9707  bool */\n      0x00\n      dup1\n        /* \"contracts/Auction.sol\":9724:9909  for(uint256 i = 0; i < bidderList[auctionId].length; i++) {\r... */\n    tag_255:\n        /* \"contracts/Auction.sol\":9747:9768  bidderList[auctionId] */\n      0x00\n      dup5\n      dup2\n      mstore\n        /* \"contracts/Auction.sol\":9747:9757  bidderList */\n      0x01\n        /* \"contracts/Auction.sol\":9747:9768  bidderList[auctionId] */\n      0x20\n      mstore\n      0x40\n      swap1\n      keccak256\n        /* \"contracts/Auction.sol\":9747:9775  bidderList[auctionId].length */\n      sload\n        /* \"contracts/Auction.sol\":9743:9775  i < bidderList[auctionId].length */\n      dup2\n      lt\n        /* \"contracts/Auction.sol\":9724:9909  for(uint256 i = 0; i < bidderList[auctionId].length; i++) {\r... */\n      iszero\n      tag_256\n      jumpi\n        /* \"contracts/Auction.sol\":9804:9825  bidderList[auctionId] */\n      0x00\n      dup5\n      dup2\n      mstore\n        /* \"contracts/Auction.sol\":9804:9814  bidderList */\n      0x01\n        /* \"contracts/Auction.sol\":9804:9825  bidderList[auctionId] */\n      0x20\n      mstore\n      0x40\n      swap1\n      keccak256\n        /* \"contracts/Auction.sol\":9804:9828  bidderList[auctionId][i] */\n      dup1\n      sload\n      sub(shl(0xa0, 0x01), 0x01)\n        /* \"contracts/Auction.sol\":9804:9838  bidderList[auctionId][i] == bidder */\n      dup6\n      and\n      swap2\n        /* \"contracts/Auction.sol\":9804:9825  bidderList[auctionId] */\n      swap1\n        /* \"contracts/Auction.sol\":9826:9827  i */\n      dup4\n      swap1\n        /* \"contracts/Auction.sol\":9804:9828  bidderList[auctionId][i] */\n      dup2\n      lt\n      tag_258\n      jumpi\n      invalid\n    tag_258:\n      0x00\n      swap2\n      dup3\n      mstore\n      0x20\n      swap1\n      swap2\n      keccak256\n      add\n      sload\n      sub(shl(0xa0, 0x01), 0x01)\n      and\n        /* \"contracts/Auction.sol\":9804:9838  bidderList[auctionId][i] == bidder */\n      eq\n        /* \"contracts/Auction.sol\":9801:9894  if(bidderList[auctionId][i] == bidder) {\r... */\n      iszero\n      tag_260\n      jumpi\n        /* \"contracts/Auction.sol\":9870:9874  true */\n      0x01\n        /* \"contracts/Auction.sol\":9863:9874  return true */\n      swap2\n      pop\n      pop\n      jump(tag_254)\n        /* \"contracts/Auction.sol\":9801:9894  if(bidderList[auctionId][i] == bidder) {\r... */\n    tag_260:\n        /* \"contracts/Auction.sol\":9777:9780  i++ */\n      0x01\n      add\n        /* \"contracts/Auction.sol\":9724:9909  for(uint256 i = 0; i < bidderList[auctionId].length; i++) {\r... */\n      jump(tag_255)\n    tag_256:\n      pop\n        /* \"contracts/Auction.sol\":9932:9937  false */\n      0x00\n        /* \"contracts/Auction.sol\":9925:9937  return false */\n      swap1\n      pop\n        /* \"contracts/Auction.sol\":9604:9949  function bidderAlreadyExistsInBiddersList(uint256 auctionId, address bidder) private view returns (bool) {\r... */\n    tag_254:\n      swap3\n      swap2\n      pop\n      pop\n      jump\t// out\n        /* \"contracts/Auction.sol\":5848:6912  function takeAuctionDecision(uint256 loanId) private returns (uint256, address) {\r... */\n    tag_168:\n        /* \"contracts/Auction.sol\":5910:5917  uint256 */\n      0x00\n        /* \"contracts/Auction.sol\":5979:5994  auction[loanId] */\n      dup2\n      dup2\n      mstore\n      0x20\n      dup2\n      swap1\n      mstore\n      0x40\n      dup2\n      keccak256\n        /* \"contracts/Auction.sol\":5979:6006  auction[loanId].bankAddress */\n      0x08\n      dup2\n      add\n      sload\n        /* \"contracts/Auction.sol\":5946:5975  auction[loanId].highestBidder */\n      0x0b\n      swap1\n      swap2\n      add\n      sload\n        /* \"contracts/Auction.sol\":5910:5917  uint256 */\n      dup3\n      swap2\n      sub(shl(0xa0, 0x01), 0x01)\n        /* \"contracts/Auction.sol\":5946:5975  auction[loanId].highestBidder */\n      swap2\n      dup3\n      and\n        /* \"contracts/Auction.sol\":5979:6006  auction[loanId].bankAddress */\n      swap2\n      and\n        /* \"contracts/Auction.sol\":5946:6006  auction[loanId].highestBidder == auction[loanId].bankAddress */\n      eq\n        /* \"contracts/Auction.sol\":5943:6901  if(auction[loanId].highestBidder == auction[loanId].bankAddress) {\r... */\n      iszero\n      tag_262\n      jumpi\n      pop\n      pop\n        /* \"contracts/Auction.sol\":6132:6133  0 */\n      0x00\n        /* \"contracts/Auction.sol\":6135:6150  auction[loanId] */\n      dup2\n      dup2\n      mstore\n      0x20\n      dup2\n      swap1\n      mstore\n      0x40\n      dup2\n      keccak256\n        /* \"contracts/Auction.sol\":6135:6162  auction[loanId].bankAddress */\n      0x08\n      add\n      sload\n      sub(shl(0xa0, 0x01), 0x01)\n      and\n        /* \"contracts/Auction.sol\":6124:6163  return (0, auction[loanId].bankAddress) */\n      jump(tag_154)\n        /* \"contracts/Auction.sol\":5943:6901  if(auction[loanId].highestBidder == auction[loanId].bankAddress) {\r... */\n    tag_262:\n        /* \"contracts/Auction.sol\":6269:6276  auction */\n      0x00\n        /* \"contracts/Auction.sol\":6269:6284  auction[loanId] */\n      dup4\n      dup2\n      mstore\n      0x20\n      dup2\n      swap1\n      mstore\n      0x40\n      swap1\n      dup2\n      swap1\n      keccak256\n        /* \"contracts/Auction.sol\":6269:6303  auction[loanId].nftContractAddress */\n      0x07\n      dup2\n      add\n      sload\n        /* \"contracts/Auction.sol\":6318:6345  auction[loanId].bankAddress */\n      0x08\n      dup3\n      add\n      sload\n        /* \"contracts/Auction.sol\":6347:6376  auction[loanId].highestBidder */\n      0x0b\n      dup4\n      add\n      sload\n        /* \"contracts/Auction.sol\":6378:6401  auction[loanId].tokenId */\n      0x02\n      swap1\n      swap4\n      add\n      sload\n        /* \"contracts/Auction.sol\":6261:6402  IERC721(auction[loanId].nftContractAddress).transferFrom(auction[loanId].bankAddress, auction[loanId].highestBidder, auction[loanId].tokenId) */\n      swap4\n      mload\n      shl(0xe0, 0x23b872dd)\n      dup2\n      mstore\n      sub(shl(0xa0, 0x01), 0x01)\n        /* \"contracts/Auction.sol\":6269:6303  auction[loanId].nftContractAddress */\n      swap3\n      dup4\n      and\n      swap5\n        /* \"contracts/Auction.sol\":6261:6317  IERC721(auction[loanId].nftContractAddress).transferFrom */\n      0x23b872dd\n      swap5\n        /* \"contracts/Auction.sol\":6261:6402  IERC721(auction[loanId].nftContractAddress).transferFrom(auction[loanId].bankAddress, auction[loanId].highestBidder, auction[loanId].tokenId) */\n      tag_264\n      swap5\n        /* \"contracts/Auction.sol\":6318:6345  auction[loanId].bankAddress */\n      swap4\n      dup5\n      and\n      swap4\n        /* \"contracts/Auction.sol\":6347:6376  auction[loanId].highestBidder */\n      and\n      swap2\n        /* \"contracts/Auction.sol\":6261:6402  IERC721(auction[loanId].nftContractAddress).transferFrom(auction[loanId].bankAddress, auction[loanId].highestBidder, auction[loanId].tokenId) */\n      0x04\n      add\n      tag_265\n      jump\t// in\n    tag_264:\n      0x00\n      mload(0x40)\n      dup1\n      dup4\n      sub\n      dup2\n      0x00\n      dup8\n      dup1\n      extcodesize\n      iszero\n      dup1\n      iszero\n      tag_266\n      jumpi\n      0x00\n      dup1\n      revert\n    tag_266:\n      pop\n      gas\n      call\n      iszero\n      dup1\n      iszero\n      tag_268\n      jumpi\n      returndatasize\n      0x00\n      dup1\n      returndatacopy\n      revert(0x00, returndatasize)\n    tag_268:\n      pop\n      pop\n      pop\n        /* \"contracts/Auction.sol\":6564:6565  0 */\n      0x00\n        /* \"contracts/Auction.sol\":6504:6519  auction[loanId] */\n      dup5\n      dup2\n      mstore\n      0x20\n      dup2\n      dup2\n      mstore\n      0x40\n      dup1\n      dup4\n      keccak256\n        /* \"contracts/Auction.sol\":6504:6529  auction[loanId].auctionId */\n      0x03\n      dup2\n      add\n      sload\n        /* \"contracts/Auction.sol\":6489:6530  bidsForAuction[auction[loanId].auctionId] */\n      dup5\n      mstore\n        /* \"contracts/Auction.sol\":6489:6503  bidsForAuction */\n      0x02\n        /* \"contracts/Auction.sol\":6489:6530  bidsForAuction[auction[loanId].auctionId] */\n      dup4\n      mstore\n      dup2\n      dup5\n      keccak256\n        /* \"contracts/Auction.sol\":6531:6560  auction[loanId].highestBidder */\n      0x0b\n      dup3\n      add\n      sload\n      sub(shl(0xa0, 0x01), 0x01)\n      swap1\n      dup2\n      and\n        /* \"contracts/Auction.sol\":6489:6561  bidsForAuction[auction[loanId].auctionId][auction[loanId].highestBidder] */\n      dup7\n      mstore\n      swap1\n      dup5\n      mstore\n      dup3\n      dup6\n      keccak256\n        /* \"contracts/Auction.sol\":6489:6565  bidsForAuction[auction[loanId].auctionId][auction[loanId].highestBidder] = 0 */\n      dup6\n      swap1\n      sstore\n        /* \"contracts/Auction.sol\":6643:6658  auction[loanId] */\n      dup9\n      dup6\n      mstore\n      swap3\n      dup5\n      swap1\n      mstore\n        /* \"contracts/Auction.sol\":6643:6670  auction[loanId].bankAddress */\n      0x08\n      dup2\n      add\n      sload\n        /* \"contracts/Auction.sol\":6681:6714  auction[loanId].highestBindingBid */\n      0x0a\n      swap1\n      swap2\n      add\n      sload\n        /* \"contracts/Auction.sol\":6635:6715  payable(auction[loanId].bankAddress).transfer(auction[loanId].highestBindingBid) */\n      swap2\n      mload\n        /* \"contracts/Auction.sol\":6643:6670  auction[loanId].bankAddress */\n      swap3\n      and\n      swap4\n      pop\n        /* \"contracts/Auction.sol\":6635:6715  payable(auction[loanId].bankAddress).transfer(auction[loanId].highestBindingBid) */\n      dup1\n      iszero\n      0x08fc\n      mul\n      swap3\n        /* \"contracts/Auction.sol\":6681:6714  auction[loanId].highestBindingBid */\n      swap1\n      swap2\n        /* \"contracts/Auction.sol\":6635:6715  payable(auction[loanId].bankAddress).transfer(auction[loanId].highestBindingBid) */\n      swap1\n      dup2\n        /* \"contracts/Auction.sol\":6564:6565  0 */\n      dup2\n        /* \"contracts/Auction.sol\":6635:6715  payable(auction[loanId].bankAddress).transfer(auction[loanId].highestBindingBid) */\n      dup2\n        /* \"contracts/Auction.sol\":6681:6714  auction[loanId].highestBindingBid */\n      dup6\n        /* \"contracts/Auction.sol\":6643:6670  auction[loanId].bankAddress */\n      dup9\n        /* \"contracts/Auction.sol\":6635:6715  payable(auction[loanId].bankAddress).transfer(auction[loanId].highestBindingBid) */\n      dup9\n      call\n      swap4\n      pop\n      pop\n      pop\n      pop\n      iszero\n      dup1\n      iszero\n      tag_270\n      jumpi\n      returndatasize\n      0x00\n      dup1\n      returndatacopy\n      revert(0x00, returndatasize)\n    tag_270:\n      pop\n      pop\n      pop\n        /* \"contracts/Auction.sol\":6818:6825  auction */\n      0x00\n        /* \"contracts/Auction.sol\":6818:6833  auction[loanId] */\n      dup2\n      dup2\n      mstore\n      0x20\n      dup2\n      swap1\n      mstore\n      0x40\n      swap1\n      keccak256\n        /* \"contracts/Auction.sol\":6818:6851  auction[loanId].highestBindingBid */\n      0x0a\n      dup2\n      add\n      sload\n        /* \"contracts/Auction.sol\":6853:6882  auction[loanId].highestBidder */\n      0x0b\n      swap1\n      swap2\n      add\n      sload\n      sub(shl(0xa0, 0x01), 0x01)\n      and\n        /* \"contracts/Auction.sol\":6810:6883  return (auction[loanId].highestBindingBid, auction[loanId].highestBidder) */\n      jump(tag_154)\n    tag_203:\n      mload(0x40)\n      dup1\n      0x01c0\n      add\n      0x40\n      mstore\n      dup1\n      0x00\n      dup2\n      mstore\n      0x20\n      add\n      and(sub(shl(0xa0, 0x01), 0x01), 0x00)\n      dup2\n      mstore\n      0x20\n      add\n      0x00\n      dup2\n      mstore\n      0x20\n      add\n      0x00\n      dup2\n      mstore\n      0x20\n      add\n      0x00\n      dup2\n      mstore\n      0x20\n      add\n      0x00\n      dup2\n      mstore\n      0x20\n      add\n      0x00\n      dup2\n      mstore\n      0x20\n      add\n      and(sub(shl(0xa0, 0x01), 0x01), 0x00)\n      dup2\n      mstore\n      0x20\n      add\n      and(sub(shl(0xa0, 0x01), 0x01), 0x00)\n      dup2\n      mstore\n      0x20\n      add\n      and(sub(shl(0xa0, 0x01), 0x01), 0x00)\n      dup2\n      mstore\n      0x20\n      add\n      0x00\n      0x04\n      dup2\n      gt\n      iszero\n      tag_271\n      jumpi\n      invalid\n    tag_271:\n      dup2\n      mstore\n      0x00\n      0x20\n      dup3\n      add\n      dup2\n      swap1\n      mstore\n      0x40\n      dup3\n      add\n      mstore\n      0x60\n      swap1\n      dup2\n      add\n      mstore\n      swap1\n      jump\t// out\n    tag_213:\n      dup3\n      dup1\n      sload\n      0x01\n      dup2\n      0x01\n      and\n      iszero\n      0x0100\n      mul\n      sub\n      and\n      0x02\n      swap1\n      div\n      swap1\n      0x00\n      mstore\n      keccak256(0x00, 0x20)\n      swap1\n      0x1f\n      add\n      0x20\n      swap1\n      div\n      dup2\n      add\n      swap3\n      dup3\n      tag_273\n      jumpi\n      0x00\n      dup6\n      sstore\n      jump(tag_276)\n    tag_273:\n      dup3\n      0x1f\n      lt\n      tag_274\n      jumpi\n      dup1\n      mload\n      not(0xff)\n      and\n      dup4\n      dup1\n      add\n      or\n      dup6\n      sstore\n      jump(tag_276)\n    tag_274:\n      dup3\n      dup1\n      add\n      0x01\n      add\n      dup6\n      sstore\n      dup3\n      iszero\n      tag_276\n      jumpi\n      swap2\n      dup3\n      add\n    tag_275:\n      dup3\n      dup2\n      gt\n      iszero\n      tag_276\n      jumpi\n      dup3\n      mload\n      dup3\n      sstore\n      swap2\n      0x20\n      add\n      swap2\n      swap1\n      0x01\n      add\n      swap1\n      jump(tag_275)\n    tag_276:\n      pop\n      tag_277\n      swap3\n      swap2\n      pop\n      tag_278\n      jump\t// in\n    tag_277:\n      pop\n      swap1\n      jump\t// out\n    tag_278:\n    tag_279:\n      dup1\n      dup3\n      gt\n      iszero\n      tag_277\n      jumpi\n      0x00\n      dup2\n      sstore\n      0x01\n      add\n      jump(tag_279)\n        /* \"#utility.yul\":14:277   */\n    tag_193:\n      0x00\n        /* \"#utility.yul\":137:139   */\n      0x20\n        /* \"#utility.yul\":125:134   */\n      dup3\n        /* \"#utility.yul\":116:123   */\n      dup5\n        /* \"#utility.yul\":112:135   */\n      sub\n        /* \"#utility.yul\":108:140   */\n      slt\n        /* \"#utility.yul\":105:107   */\n      iszero\n      tag_283\n      jumpi\n        /* \"#utility.yul\":158:164   */\n      dup1\n        /* \"#utility.yul\":150:156   */\n      dup2\n        /* \"#utility.yul\":143:165   */\n      revert\n        /* \"#utility.yul\":105:107   */\n    tag_283:\n        /* \"#utility.yul\":195:204   */\n      dup2\n        /* \"#utility.yul\":189:205   */\n      mload\n        /* \"#utility.yul\":214:247   */\n      tag_284\n        /* \"#utility.yul\":241:246   */\n      dup2\n        /* \"#utility.yul\":214:247   */\n      tag_285\n      jump\t// in\n    tag_284:\n        /* \"#utility.yul\":266:271   */\n      swap4\n        /* \"#utility.yul\":95:277   */\n      swap3\n      pop\n      pop\n      pop\n      jump\t// out\n        /* \"#utility.yul\":282:1018   */\n    tag_210:\n      0x00\n        /* \"#utility.yul\":415:417   */\n      0x20\n        /* \"#utility.yul\":403:412   */\n      dup3\n        /* \"#utility.yul\":394:401   */\n      dup5\n        /* \"#utility.yul\":390:413   */\n      sub\n        /* \"#utility.yul\":386:418   */\n      slt\n        /* \"#utility.yul\":383:385   */\n      iszero\n      tag_287\n      jumpi\n        /* \"#utility.yul\":436:442   */\n      dup1\n        /* \"#utility.yul\":428:434   */\n      dup2\n        /* \"#utility.yul\":421:443   */\n      revert\n        /* \"#utility.yul\":383:385   */\n    tag_287:\n        /* \"#utility.yul\":474:483   */\n      dup2\n        /* \"#utility.yul\":468:484   */\n      mload\n        /* \"#utility.yul\":503:521   */\n      0xffffffffffffffff\n        /* \"#utility.yul\":544:546   */\n      dup1\n        /* \"#utility.yul\":536:542   */\n      dup3\n        /* \"#utility.yul\":533:547   */\n      gt\n        /* \"#utility.yul\":530:532   */\n      iszero\n      tag_288\n      jumpi\n        /* \"#utility.yul\":565:571   */\n      dup3\n        /* \"#utility.yul\":557:563   */\n      dup4\n        /* \"#utility.yul\":550:572   */\n      revert\n        /* \"#utility.yul\":530:532   */\n    tag_288:\n        /* \"#utility.yul\":608:614   */\n      dup2\n        /* \"#utility.yul\":597:606   */\n      dup5\n        /* \"#utility.yul\":593:615   */\n      add\n        /* \"#utility.yul\":583:615   */\n      swap2\n      pop\n        /* \"#utility.yul\":653:660   */\n      dup5\n        /* \"#utility.yul\":646:650   */\n      0x1f\n        /* \"#utility.yul\":642:644   */\n      dup4\n        /* \"#utility.yul\":638:651   */\n      add\n        /* \"#utility.yul\":634:661   */\n      slt\n        /* \"#utility.yul\":624:626   */\n      tag_289\n      jumpi\n        /* \"#utility.yul\":680:686   */\n      dup3\n        /* \"#utility.yul\":672:678   */\n      dup4\n        /* \"#utility.yul\":665:687   */\n      revert\n        /* \"#utility.yul\":624:626   */\n    tag_289:\n        /* \"#utility.yul\":714:716   */\n      dup2\n        /* \"#utility.yul\":708:717   */\n      mload\n        /* \"#utility.yul\":736:738   */\n      dup2\n        /* \"#utility.yul\":732:734   */\n      dup2\n        /* \"#utility.yul\":729:739   */\n      gt\n        /* \"#utility.yul\":726:728   */\n      iszero\n      tag_290\n      jumpi\n        /* \"#utility.yul\":742:751   */\n      invalid\n        /* \"#utility.yul\":726:728   */\n    tag_290:\n        /* \"#utility.yul\":775:827   */\n      tag_291\n        /* \"#utility.yul\":817:819   */\n      0x1f\n        /* \"#utility.yul\":798:811   */\n      dup3\n      add\n      not(0x1f)\n        /* \"#utility.yul\":794:821   */\n      and\n        /* \"#utility.yul\":823:825   */\n      0x20\n        /* \"#utility.yul\":790:826   */\n      add\n        /* \"#utility.yul\":775:827   */\n      tag_292\n      jump\t// in\n    tag_291:\n        /* \"#utility.yul\":762:827   */\n      swap2\n      pop\n        /* \"#utility.yul\":850:852   */\n      dup1\n        /* \"#utility.yul\":843:848   */\n      dup3\n        /* \"#utility.yul\":836:853   */\n      mstore\n        /* \"#utility.yul\":890:897   */\n      dup6\n        /* \"#utility.yul\":885:887   */\n      0x20\n        /* \"#utility.yul\":880:882   */\n      dup3\n        /* \"#utility.yul\":876:878   */\n      dup6\n        /* \"#utility.yul\":872:883   */\n      add\n        /* \"#utility.yul\":868:888   */\n      add\n        /* \"#utility.yul\":865:898   */\n      gt\n        /* \"#utility.yul\":862:864   */\n      iszero\n      tag_293\n      jumpi\n        /* \"#utility.yul\":916:922   */\n      dup4\n        /* \"#utility.yul\":908:914   */\n      dup5\n        /* \"#utility.yul\":901:923   */\n      revert\n        /* \"#utility.yul\":862:864   */\n    tag_293:\n        /* \"#utility.yul\":934:988   */\n      tag_294\n        /* \"#utility.yul\":985:987   */\n      dup2\n        /* \"#utility.yul\":980:982   */\n      0x20\n        /* \"#utility.yul\":973:978   */\n      dup5\n        /* \"#utility.yul\":969:983   */\n      add\n        /* \"#utility.yul\":964:966   */\n      0x20\n        /* \"#utility.yul\":960:962   */\n      dup7\n        /* \"#utility.yul\":956:967   */\n      add\n        /* \"#utility.yul\":934:988   */\n      tag_295\n      jump\t// in\n    tag_294:\n      pop\n        /* \"#utility.yul\":1007:1012   */\n      swap5\n        /* \"#utility.yul\":373:1018   */\n      swap4\n      pop\n      pop\n      pop\n      pop\n      jump\t// out\n        /* \"#utility.yul\":1023:1213   */\n    tag_39:\n      0x00\n        /* \"#utility.yul\":1135:1137   */\n      0x20\n        /* \"#utility.yul\":1123:1132   */\n      dup3\n        /* \"#utility.yul\":1114:1121   */\n      dup5\n        /* \"#utility.yul\":1110:1133   */\n      sub\n        /* \"#utility.yul\":1106:1138   */\n      slt\n        /* \"#utility.yul\":1103:1105   */\n      iszero\n      tag_297\n      jumpi\n        /* \"#utility.yul\":1156:1162   */\n      dup1\n        /* \"#utility.yul\":1148:1154   */\n      dup2\n        /* \"#utility.yul\":1141:1163   */\n      revert\n        /* \"#utility.yul\":1103:1105   */\n    tag_297:\n      pop\n        /* \"#utility.yul\":1184:1207   */\n      calldataload\n      swap2\n        /* \"#utility.yul\":1093:1213   */\n      swap1\n      pop\n      jump\t// out\n        /* \"#utility.yul\":1218:1545   */\n    tag_26:\n      0x00\n      dup1\n        /* \"#utility.yul\":1347:1349   */\n      0x40\n        /* \"#utility.yul\":1335:1344   */\n      dup4\n        /* \"#utility.yul\":1326:1333   */\n      dup6\n        /* \"#utility.yul\":1322:1345   */\n      sub\n        /* \"#utility.yul\":1318:1350   */\n      slt\n        /* \"#utility.yul\":1315:1317   */\n      iszero\n      tag_299\n      jumpi\n        /* \"#utility.yul\":1368:1374   */\n      dup1\n        /* \"#utility.yul\":1360:1366   */\n      dup2\n        /* \"#utility.yul\":1353:1375   */\n      revert\n        /* \"#utility.yul\":1315:1317   */\n    tag_299:\n        /* \"#utility.yul\":1409:1418   */\n      dup3\n        /* \"#utility.yul\":1396:1419   */\n      calldataload\n        /* \"#utility.yul\":1386:1419   */\n      swap2\n      pop\n        /* \"#utility.yul\":1469:1471   */\n      0x20\n        /* \"#utility.yul\":1458:1467   */\n      dup4\n        /* \"#utility.yul\":1454:1472   */\n      add\n        /* \"#utility.yul\":1441:1473   */\n      calldataload\n        /* \"#utility.yul\":1482:1515   */\n      tag_300\n        /* \"#utility.yul\":1509:1514   */\n      dup2\n        /* \"#utility.yul\":1482:1515   */\n      tag_285\n      jump\t// in\n    tag_300:\n        /* \"#utility.yul\":1534:1539   */\n      dup1\n        /* \"#utility.yul\":1524:1539   */\n      swap2\n      pop\n      pop\n        /* \"#utility.yul\":1305:1545   */\n      swap3\n      pop\n      swap3\n      swap1\n      pop\n      jump\t// out\n        /* \"#utility.yul\":1550:1808   */\n    tag_83:\n      0x00\n      dup1\n        /* \"#utility.yul\":1679:1681   */\n      0x40\n        /* \"#utility.yul\":1667:1676   */\n      dup4\n        /* \"#utility.yul\":1658:1665   */\n      dup6\n        /* \"#utility.yul\":1654:1677   */\n      sub\n        /* \"#utility.yul\":1650:1682   */\n      slt\n        /* \"#utility.yul\":1647:1649   */\n      iszero\n      tag_302\n      jumpi\n        /* \"#utility.yul\":1700:1706   */\n      dup2\n        /* \"#utility.yul\":1692:1698   */\n      dup3\n        /* \"#utility.yul\":1685:1707   */\n      revert\n        /* \"#utility.yul\":1647:1649   */\n    tag_302:\n      pop\n      pop\n        /* \"#utility.yul\":1728:1751   */\n      dup1\n      calldataload\n      swap3\n        /* \"#utility.yul\":1798:1800   */\n      0x20\n        /* \"#utility.yul\":1783:1801   */\n      swap1\n      swap2\n      add\n        /* \"#utility.yul\":1770:1802   */\n      calldataload\n      swap2\n      pop\n        /* \"#utility.yul\":1637:1808   */\n      jump\t// out\n        /* \"#utility.yul\":1813:2778   */\n    tag_67:\n      0x00\n      dup1\n      0x00\n      dup1\n      0x00\n      dup1\n      0x00\n      dup1\n        /* \"#utility.yul\":2044:2047   */\n      0x0100\n        /* \"#utility.yul\":2032:2041   */\n      dup10\n        /* \"#utility.yul\":2023:2030   */\n      dup12\n        /* \"#utility.yul\":2019:2042   */\n      sub\n        /* \"#utility.yul\":2015:2048   */\n      slt\n        /* \"#utility.yul\":2012:2014   */\n      iszero\n      tag_304\n      jumpi\n        /* \"#utility.yul\":2066:2072   */\n      dup4\n        /* \"#utility.yul\":2058:2064   */\n      dup5\n        /* \"#utility.yul\":2051:2073   */\n      revert\n        /* \"#utility.yul\":2012:2014   */\n    tag_304:\n        /* \"#utility.yul\":2107:2116   */\n      dup9\n        /* \"#utility.yul\":2094:2117   */\n      calldataload\n        /* \"#utility.yul\":2084:2117   */\n      swap8\n      pop\n        /* \"#utility.yul\":2164:2166   */\n      0x20\n        /* \"#utility.yul\":2153:2162   */\n      dup10\n        /* \"#utility.yul\":2149:2167   */\n      add\n        /* \"#utility.yul\":2136:2168   */\n      calldataload\n        /* \"#utility.yul\":2126:2168   */\n      swap7\n      pop\n        /* \"#utility.yul\":2218:2220   */\n      0x40\n        /* \"#utility.yul\":2207:2216   */\n      dup10\n        /* \"#utility.yul\":2203:2221   */\n      add\n        /* \"#utility.yul\":2190:2222   */\n      calldataload\n        /* \"#utility.yul\":2231:2264   */\n      tag_305\n        /* \"#utility.yul\":2258:2263   */\n      dup2\n        /* \"#utility.yul\":2231:2264   */\n      tag_285\n      jump\t// in\n    tag_305:\n        /* \"#utility.yul\":2283:2288   */\n      swap6\n      pop\n        /* \"#utility.yul\":2335:2337   */\n      0x60\n        /* \"#utility.yul\":2320:2338   */\n      dup10\n      add\n        /* \"#utility.yul\":2307:2339   */\n      calldataload\n      swap5\n      pop\n        /* \"#utility.yul\":2386:2389   */\n      0x80\n        /* \"#utility.yul\":2371:2390   */\n      dup10\n      add\n        /* \"#utility.yul\":2358:2391   */\n      calldataload\n      swap4\n      pop\n        /* \"#utility.yul\":2443:2446   */\n      0xa0\n        /* \"#utility.yul\":2428:2447   */\n      dup10\n      add\n        /* \"#utility.yul\":2415:2448   */\n      calldataload\n        /* \"#utility.yul\":2457:2492   */\n      tag_306\n        /* \"#utility.yul\":2415:2448   */\n      dup2\n        /* \"#utility.yul\":2457:2492   */\n      tag_285\n      jump\t// in\n    tag_306:\n        /* \"#utility.yul\":2511:2518   */\n      swap3\n      pop\n        /* \"#utility.yul\":2570:2573   */\n      0xc0\n        /* \"#utility.yul\":2555:2574   */\n      dup10\n      add\n        /* \"#utility.yul\":2542:2575   */\n      calldataload\n        /* \"#utility.yul\":2584:2619   */\n      tag_307\n        /* \"#utility.yul\":2542:2575   */\n      dup2\n        /* \"#utility.yul\":2584:2619   */\n      tag_285\n      jump\t// in\n    tag_307:\n        /* \"#utility.yul\":2638:2645   */\n      swap2\n      pop\n        /* \"#utility.yul\":2697:2700   */\n      0xe0\n        /* \"#utility.yul\":2682:2701   */\n      dup10\n      add\n        /* \"#utility.yul\":2669:2702   */\n      calldataload\n        /* \"#utility.yul\":2711:2746   */\n      tag_308\n        /* \"#utility.yul\":2669:2702   */\n      dup2\n        /* \"#utility.yul\":2711:2746   */\n      tag_285\n      jump\t// in\n    tag_308:\n        /* \"#utility.yul\":2765:2772   */\n      dup1\n        /* \"#utility.yul\":2755:2772   */\n      swap2\n      pop\n      pop\n        /* \"#utility.yul\":2002:2778   */\n      swap3\n      swap6\n      swap9\n      pop\n      swap3\n      swap6\n      swap9\n      swap1\n      swap4\n      swap7\n      pop\n      jump\t// out\n        /* \"#utility.yul\":2783:3989   */\n    tag_99:\n      0x00\n      dup1\n      0x00\n        /* \"#utility.yul\":2954:2956   */\n      0x60\n        /* \"#utility.yul\":2942:2951   */\n      dup5\n        /* \"#utility.yul\":2933:2940   */\n      dup7\n        /* \"#utility.yul\":2929:2952   */\n      sub\n        /* \"#utility.yul\":2925:2957   */\n      slt\n        /* \"#utility.yul\":2922:2924   */\n      iszero\n      tag_310\n      jumpi\n        /* \"#utility.yul\":2975:2981   */\n      dup3\n        /* \"#utility.yul\":2967:2973   */\n      dup4\n        /* \"#utility.yul\":2960:2982   */\n      revert\n        /* \"#utility.yul\":2922:2924   */\n    tag_310:\n        /* \"#utility.yul\":3016:3025   */\n      dup4\n        /* \"#utility.yul\":3003:3026   */\n      calldataload\n        /* \"#utility.yul\":2993:3026   */\n      swap3\n      pop\n        /* \"#utility.yul\":3045:3047   */\n      0x20\n        /* \"#utility.yul\":3094:3096   */\n      dup1\n        /* \"#utility.yul\":3083:3092   */\n      dup6\n        /* \"#utility.yul\":3079:3097   */\n      add\n        /* \"#utility.yul\":3066:3098   */\n      calldataload\n        /* \"#utility.yul\":3056:3098   */\n      swap3\n      pop\n        /* \"#utility.yul\":3149:3151   */\n      0x40\n        /* \"#utility.yul\":3138:3147   */\n      dup6\n        /* \"#utility.yul\":3134:3152   */\n      add\n        /* \"#utility.yul\":3121:3153   */\n      calldataload\n        /* \"#utility.yul\":3172:3190   */\n      0xffffffffffffffff\n        /* \"#utility.yul\":3213:3215   */\n      dup1\n        /* \"#utility.yul\":3205:3211   */\n      dup3\n        /* \"#utility.yul\":3202:3216   */\n      gt\n        /* \"#utility.yul\":3199:3201   */\n      iszero\n      tag_311\n      jumpi\n        /* \"#utility.yul\":3234:3240   */\n      dup4\n        /* \"#utility.yul\":3226:3232   */\n      dup5\n        /* \"#utility.yul\":3219:3241   */\n      revert\n        /* \"#utility.yul\":3199:3201   */\n    tag_311:\n        /* \"#utility.yul\":3277:3283   */\n      dup2\n        /* \"#utility.yul\":3266:3275   */\n      dup8\n        /* \"#utility.yul\":3262:3284   */\n      add\n        /* \"#utility.yul\":3252:3284   */\n      swap2\n      pop\n        /* \"#utility.yul\":3322:3329   */\n      dup8\n        /* \"#utility.yul\":3315:3319   */\n      0x1f\n        /* \"#utility.yul\":3311:3313   */\n      dup4\n        /* \"#utility.yul\":3307:3320   */\n      add\n        /* \"#utility.yul\":3303:3330   */\n      slt\n        /* \"#utility.yul\":3293:3295   */\n      tag_312\n      jumpi\n        /* \"#utility.yul\":3349:3355   */\n      dup4\n        /* \"#utility.yul\":3341:3347   */\n      dup5\n        /* \"#utility.yul\":3334:3356   */\n      revert\n        /* \"#utility.yul\":3293:3295   */\n    tag_312:\n        /* \"#utility.yul\":3390:3392   */\n      dup2\n        /* \"#utility.yul\":3377:3393   */\n      calldataload\n        /* \"#utility.yul\":3412:3414   */\n      dup2\n        /* \"#utility.yul\":3408:3410   */\n      dup2\n        /* \"#utility.yul\":3405:3415   */\n      gt\n        /* \"#utility.yul\":3402:3404   */\n      iszero\n      tag_313\n      jumpi\n        /* \"#utility.yul\":3418:3427   */\n      invalid\n        /* \"#utility.yul\":3402:3404   */\n    tag_313:\n        /* \"#utility.yul\":3456:3458   */\n      dup4\n        /* \"#utility.yul\":3452:3454   */\n      dup2\n        /* \"#utility.yul\":3448:3459   */\n      mul\n        /* \"#utility.yul\":3438:3459   */\n      swap2\n      pop\n        /* \"#utility.yul\":3479:3506   */\n      tag_314\n        /* \"#utility.yul\":3502:3504   */\n      dup5\n        /* \"#utility.yul\":3498:3500   */\n      dup4\n        /* \"#utility.yul\":3494:3505   */\n      add\n        /* \"#utility.yul\":3479:3506   */\n      tag_292\n      jump\t// in\n    tag_314:\n        /* \"#utility.yul\":3540:3555   */\n      dup2\n      dup2\n      mstore\n        /* \"#utility.yul\":3571:3583   */\n      dup5\n      dup2\n      add\n      swap1\n        /* \"#utility.yul\":3603:3614   */\n      dup5\n      dup7\n      add\n        /* \"#utility.yul\":3633:3644   */\n      dup5\n      dup7\n      add\n        /* \"#utility.yul\":3629:3649   */\n      dup8\n      add\n        /* \"#utility.yul\":3626:3659   */\n      dup13\n      lt\n        /* \"#utility.yul\":3623:3625   */\n      iszero\n      tag_315\n      jumpi\n        /* \"#utility.yul\":3677:3683   */\n      dup8\n        /* \"#utility.yul\":3669:3675   */\n      dup9\n        /* \"#utility.yul\":3662:3684   */\n      revert\n        /* \"#utility.yul\":3623:3625   */\n    tag_315:\n        /* \"#utility.yul\":3704:3710   */\n      dup8\n        /* \"#utility.yul\":3695:3710   */\n      swap6\n      pop\n        /* \"#utility.yul\":3719:3959   */\n    tag_316:\n        /* \"#utility.yul\":3733:3735   */\n      dup4\n        /* \"#utility.yul\":3730:3731   */\n      dup7\n        /* \"#utility.yul\":3727:3736   */\n      lt\n        /* \"#utility.yul\":3719:3959   */\n      iszero\n      tag_318\n      jumpi\n        /* \"#utility.yul\":3804:3807   */\n      dup1\n        /* \"#utility.yul\":3791:3808   */\n      calldataload\n        /* \"#utility.yul\":3778:3808   */\n      swap5\n      pop\n        /* \"#utility.yul\":3821:3854   */\n      tag_319\n        /* \"#utility.yul\":3848:3853   */\n      dup6\n        /* \"#utility.yul\":3821:3854   */\n      tag_285\n      jump\t// in\n    tag_319:\n        /* \"#utility.yul\":3867:3885   */\n      dup5\n      dup4\n      mstore\n        /* \"#utility.yul\":3751:3752   */\n      0x01\n        /* \"#utility.yul\":3744:3753   */\n      swap6\n      swap1\n      swap6\n      add\n      swap5\n        /* \"#utility.yul\":3905:3917   */\n      swap2\n      dup7\n      add\n      swap2\n        /* \"#utility.yul\":3937:3949   */\n      dup7\n      add\n        /* \"#utility.yul\":3719:3959   */\n      jump(tag_316)\n    tag_318:\n        /* \"#utility.yul\":3723:3726   */\n      pop\n        /* \"#utility.yul\":3978:3983   */\n      dup1\n        /* \"#utility.yul\":3968:3983   */\n      swap7\n      pop\n      pop\n      pop\n      pop\n      pop\n      pop\n      pop\n        /* \"#utility.yul\":2912:3989   */\n      swap3\n      pop\n      swap3\n      pop\n      swap3\n      jump\t// out\n        /* \"#utility.yul\":3994:4108   */\n    tag_320:\n      sub(shl(0xa0, 0x01), 0x01)\n        /* \"#utility.yul\":4070:4101   */\n      and\n        /* \"#utility.yul\":4058:4102   */\n      swap1\n      mstore\n        /* \"#utility.yul\":4048:4108   */\n      jump\t// out\n        /* \"#utility.yul\":4113:4250   */\n    tag_322:\n        /* \"#utility.yul\":4200:4201   */\n      0x05\n        /* \"#utility.yul\":4193:4198   */\n      dup2\n        /* \"#utility.yul\":4190:4202   */\n      lt\n        /* \"#utility.yul\":4180:4182   */\n      tag_324\n      jumpi\n        /* \"#utility.yul\":4206:4215   */\n      invalid\n        /* \"#utility.yul\":4180:4182   */\n    tag_324:\n        /* \"#utility.yul\":4226:4244   */\n      swap1\n      mstore\n        /* \"#utility.yul\":4170:4250   */\n      jump\t// out\n        /* \"#utility.yul\":4255:4515   */\n    tag_325:\n      0x00\n        /* \"#utility.yul\":4337:4342   */\n      dup2\n        /* \"#utility.yul\":4331:4343   */\n      mload\n        /* \"#utility.yul\":4364:4370   */\n      dup1\n        /* \"#utility.yul\":4359:4362   */\n      dup5\n        /* \"#utility.yul\":4352:4371   */\n      mstore\n        /* \"#utility.yul\":4380:4443   */\n      tag_327\n        /* \"#utility.yul\":4436:4442   */\n      dup2\n        /* \"#utility.yul\":4429:4433   */\n      0x20\n        /* \"#utility.yul\":4424:4427   */\n      dup7\n        /* \"#utility.yul\":4420:4434   */\n      add\n        /* \"#utility.yul\":4413:4417   */\n      0x20\n        /* \"#utility.yul\":4406:4411   */\n      dup7\n        /* \"#utility.yul\":4402:4418   */\n      add\n        /* \"#utility.yul\":4380:4443   */\n      tag_295\n      jump\t// in\n    tag_327:\n        /* \"#utility.yul\":4497:4499   */\n      0x1f\n        /* \"#utility.yul\":4476:4491   */\n      add\n      not(0x1f)\n        /* \"#utility.yul\":4472:4501   */\n      and\n        /* \"#utility.yul\":4463:4502   */\n      swap3\n      swap1\n      swap3\n      add\n        /* \"#utility.yul\":4504:4508   */\n      0x20\n        /* \"#utility.yul\":4459:4509   */\n      add\n      swap3\n        /* \"#utility.yul\":4307:4515   */\n      swap2\n      pop\n      pop\n      jump\t// out\n        /* \"#utility.yul\":4520:4723   */\n    tag_112:\n      sub(shl(0xa0, 0x01), 0x01)\n        /* \"#utility.yul\":4684:4716   */\n      swap2\n      swap1\n      swap2\n      and\n        /* \"#utility.yul\":4666:4717   */\n      dup2\n      mstore\n        /* \"#utility.yul\":4654:4656   */\n      0x20\n        /* \"#utility.yul\":4639:4657   */\n      add\n      swap1\n        /* \"#utility.yul\":4621:4723   */\n      jump\t// out\n        /* \"#utility.yul\":4728:5111   */\n    tag_265:\n      sub(shl(0xa0, 0x01), 0x01)\n        /* \"#utility.yul\":4994:5009   */\n      swap4\n      dup5\n      and\n        /* \"#utility.yul\":4976:5010   */\n      dup2\n      mstore\n        /* \"#utility.yul\":5046:5061   */\n      swap2\n      swap1\n      swap3\n      and\n        /* \"#utility.yul\":5041:5043   */\n      0x20\n        /* \"#utility.yul\":5026:5044   */\n      dup3\n      add\n        /* \"#utility.yul\":5019:5062   */\n      mstore\n        /* \"#utility.yul\":5093:5095   */\n      0x40\n        /* \"#utility.yul\":5078:5096   */\n      dup2\n      add\n        /* \"#utility.yul\":5071:5105   */\n      swap2\n      swap1\n      swap2\n      mstore\n        /* \"#utility.yul\":4926:4928   */\n      0x60\n        /* \"#utility.yul\":4911:4929   */\n      add\n      swap1\n        /* \"#utility.yul\":4893:5111   */\n      jump\t// out\n        /* \"#utility.yul\":5116:5777   */\n    tag_95:\n        /* \"#utility.yul\":5287:5289   */\n      0x20\n        /* \"#utility.yul\":5339:5360   */\n      dup1\n      dup3\n      mstore\n        /* \"#utility.yul\":5409:5422   */\n      dup3\n      mload\n        /* \"#utility.yul\":5312:5330   */\n      dup3\n      dup3\n      add\n        /* \"#utility.yul\":5431:5453   */\n      dup2\n      swap1\n      mstore\n        /* \"#utility.yul\":5116:5777   */\n      0x00\n      swap2\n        /* \"#utility.yul\":5287:5289   */\n      swap1\n        /* \"#utility.yul\":5510:5525   */\n      dup5\n      dup3\n      add\n      swap1\n        /* \"#utility.yul\":5484:5486   */\n      0x40\n        /* \"#utility.yul\":5469:5487   */\n      dup6\n      add\n      swap1\n        /* \"#utility.yul\":5116:5777   */\n      dup5\n        /* \"#utility.yul\":5556:5751   */\n    tag_331:\n        /* \"#utility.yul\":5570:5576   */\n      dup2\n        /* \"#utility.yul\":5567:5568   */\n      dup2\n        /* \"#utility.yul\":5564:5577   */\n      lt\n        /* \"#utility.yul\":5556:5751   */\n      iszero\n      tag_333\n      jumpi\n        /* \"#utility.yul\":5635:5648   */\n      dup4\n      mload\n      sub(shl(0xa0, 0x01), 0x01)\n        /* \"#utility.yul\":5631:5670   */\n      and\n        /* \"#utility.yul\":5619:5671   */\n      dup4\n      mstore\n        /* \"#utility.yul\":5726:5741   */\n      swap3\n      dup5\n      add\n      swap3\n        /* \"#utility.yul\":5691:5703   */\n      swap2\n      dup5\n      add\n      swap2\n        /* \"#utility.yul\":5667:5668   */\n      0x01\n        /* \"#utility.yul\":5585:5594   */\n      add\n        /* \"#utility.yul\":5556:5751   */\n      jump(tag_331)\n    tag_333:\n      pop\n        /* \"#utility.yul\":5768:5771   */\n      swap1\n      swap7\n        /* \"#utility.yul\":5267:5777   */\n      swap6\n      pop\n      pop\n      pop\n      pop\n      pop\n      pop\n      jump\t// out\n        /* \"#utility.yul\":5782:6417   */\n    tag_106:\n        /* \"#utility.yul\":5953:5955   */\n      0x20\n        /* \"#utility.yul\":6005:6026   */\n      dup1\n      dup3\n      mstore\n        /* \"#utility.yul\":6075:6088   */\n      dup3\n      mload\n        /* \"#utility.yul\":5978:5996   */\n      dup3\n      dup3\n      add\n        /* \"#utility.yul\":6097:6119   */\n      dup2\n      swap1\n      mstore\n        /* \"#utility.yul\":5782:6417   */\n      0x00\n      swap2\n        /* \"#utility.yul\":5953:5955   */\n      swap1\n        /* \"#utility.yul\":6176:6191   */\n      dup5\n      dup3\n      add\n      swap1\n        /* \"#utility.yul\":6150:6152   */\n      0x40\n        /* \"#utility.yul\":6135:6153   */\n      dup6\n      add\n      swap1\n        /* \"#utility.yul\":5782:6417   */\n      dup5\n        /* \"#utility.yul\":6222:6391   */\n    tag_335:\n        /* \"#utility.yul\":6236:6242   */\n      dup2\n        /* \"#utility.yul\":6233:6234   */\n      dup2\n        /* \"#utility.yul\":6230:6243   */\n      lt\n        /* \"#utility.yul\":6222:6391   */\n      iszero\n      tag_333\n      jumpi\n        /* \"#utility.yul\":6297:6310   */\n      dup4\n      mload\n        /* \"#utility.yul\":6285:6311   */\n      dup4\n      mstore\n        /* \"#utility.yul\":6366:6381   */\n      swap3\n      dup5\n      add\n      swap3\n        /* \"#utility.yul\":6331:6343   */\n      swap2\n      dup5\n      add\n      swap2\n        /* \"#utility.yul\":6258:6259   */\n      0x01\n        /* \"#utility.yul\":6251:6260   */\n      add\n        /* \"#utility.yul\":6222:6391   */\n      jump(tag_335)\n        /* \"#utility.yul\":6422:6609   */\n    tag_29:\n        /* \"#utility.yul\":6587:6601   */\n      swap1\n      iszero\n        /* \"#utility.yul\":6580:6602   */\n      iszero\n        /* \"#utility.yul\":6562:6603   */\n      dup2\n      mstore\n        /* \"#utility.yul\":6550:6552   */\n      0x20\n        /* \"#utility.yul\":6535:6553   */\n      add\n      swap1\n        /* \"#utility.yul\":6517:6609   */\n      jump\t// out\n        /* \"#utility.yul\":6614:6960   */\n    tag_159:\n        /* \"#utility.yul\":6816:6818   */\n      0x20\n        /* \"#utility.yul\":6798:6819   */\n      dup1\n      dup3\n      mstore\n        /* \"#utility.yul\":6855:6857   */\n      0x16\n        /* \"#utility.yul\":6835:6853   */\n      swap1\n      dup3\n      add\n        /* \"#utility.yul\":6828:6858   */\n      mstore\n      shl(0x50, 0x41756374696f6e206973206e6f742072756e6e696e67)\n        /* \"#utility.yul\":6889:6891   */\n      0x40\n        /* \"#utility.yul\":6874:6892   */\n      dup3\n      add\n        /* \"#utility.yul\":6867:6919   */\n      mstore\n        /* \"#utility.yul\":6951:6953   */\n      0x60\n        /* \"#utility.yul\":6936:6954   */\n      add\n      swap1\n        /* \"#utility.yul\":6788:6960   */\n      jump\t// out\n        /* \"#utility.yul\":6965:7364   */\n    tag_165:\n        /* \"#utility.yul\":7167:7169   */\n      0x20\n        /* \"#utility.yul\":7149:7170   */\n      dup1\n      dup3\n      mstore\n        /* \"#utility.yul\":7206:7208   */\n      0x23\n        /* \"#utility.yul\":7186:7204   */\n      swap1\n      dup3\n      add\n        /* \"#utility.yul\":7179:7209   */\n      mstore\n        /* \"#utility.yul\":7245:7279   */\n      0x41756374696f6e2068617320656e64656420212043616e6e6f742066696e616c\n        /* \"#utility.yul\":7240:7242   */\n      0x40\n        /* \"#utility.yul\":7225:7243   */\n      dup3\n      add\n        /* \"#utility.yul\":7218:7280   */\n      mstore\n      shl(0xe8, 0x697a65)\n        /* \"#utility.yul\":7311:7313   */\n      0x60\n        /* \"#utility.yul\":7296:7314   */\n      dup3\n      add\n        /* \"#utility.yul\":7289:7322   */\n      mstore\n        /* \"#utility.yul\":7354:7357   */\n      0x80\n        /* \"#utility.yul\":7339:7358   */\n      add\n      swap1\n        /* \"#utility.yul\":7139:7364   */\n      jump\t// out\n        /* \"#utility.yul\":7369:7712   */\n    tag_128:\n        /* \"#utility.yul\":7571:7573   */\n      0x20\n        /* \"#utility.yul\":7553:7574   */\n      dup1\n      dup3\n      mstore\n        /* \"#utility.yul\":7610:7612   */\n      0x13\n        /* \"#utility.yul\":7590:7608   */\n      swap1\n      dup3\n      add\n        /* \"#utility.yul\":7583:7613   */\n      mstore\n      shl(0x6a, 0x1e5bdd48185c9948189b1858dadb1a5cdd1959)\n        /* \"#utility.yul\":7644:7646   */\n      0x40\n        /* \"#utility.yul\":7629:7647   */\n      dup3\n      add\n        /* \"#utility.yul\":7622:7671   */\n      mstore\n        /* \"#utility.yul\":7703:7705   */\n      0x60\n        /* \"#utility.yul\":7688:7706   */\n      add\n      swap1\n        /* \"#utility.yul\":7543:7712   */\n      jump\t// out\n        /* \"#utility.yul\":7717:8056   */\n    tag_236:\n        /* \"#utility.yul\":7919:7921   */\n      0x20\n        /* \"#utility.yul\":7901:7922   */\n      dup1\n      dup3\n      mstore\n        /* \"#utility.yul\":7958:7960   */\n      0x0f\n        /* \"#utility.yul\":7938:7956   */\n      swap1\n      dup3\n      add\n        /* \"#utility.yul\":7931:7961   */\n      mstore\n      shl(0x8a, 0x131bd85b881259081a5b9d985b1a59)\n        /* \"#utility.yul\":7992:7994   */\n      0x40\n        /* \"#utility.yul\":7977:7995   */\n      dup3\n      add\n        /* \"#utility.yul\":7970:8015   */\n      mstore\n        /* \"#utility.yul\":8047:8049   */\n      0x60\n        /* \"#utility.yul\":8032:8050   */\n      add\n      swap1\n        /* \"#utility.yul\":7891:8056   */\n      jump\t// out\n        /* \"#utility.yul\":8061:8469   */\n    tag_151:\n        /* \"#utility.yul\":8263:8265   */\n      0x20\n        /* \"#utility.yul\":8245:8266   */\n      dup1\n      dup3\n      mstore\n        /* \"#utility.yul\":8302:8304   */\n      0x2c\n        /* \"#utility.yul\":8282:8300   */\n      swap1\n      dup3\n      add\n        /* \"#utility.yul\":8275:8305   */\n      mstore\n        /* \"#utility.yul\":8341:8375   */\n      0x546f74616c20636c61696d61626c652062616c616e63652073686f756c642062\n        /* \"#utility.yul\":8336:8338   */\n      0x40\n        /* \"#utility.yul\":8321:8339   */\n      dup3\n      add\n        /* \"#utility.yul\":8314:8376   */\n      mstore\n      shl(0xa1, 0x32901f1e90189032ba3432b9)\n        /* \"#utility.yul\":8407:8409   */\n      0x60\n        /* \"#utility.yul\":8392:8410   */\n      dup3\n      add\n        /* \"#utility.yul\":8385:8427   */\n      mstore\n        /* \"#utility.yul\":8459:8462   */\n      0x80\n        /* \"#utility.yul\":8444:8463   */\n      add\n      swap1\n        /* \"#utility.yul\":8235:8469   */\n      jump\t// out\n        /* \"#utility.yul\":8474:8882   */\n    tag_224:\n        /* \"#utility.yul\":8676:8678   */\n      0x20\n        /* \"#utility.yul\":8658:8679   */\n      dup1\n      dup3\n      mstore\n        /* \"#utility.yul\":8715:8717   */\n      0x2c\n        /* \"#utility.yul\":8695:8713   */\n      swap1\n      dup3\n      add\n        /* \"#utility.yul\":8688:8718   */\n      mstore\n        /* \"#utility.yul\":8754:8788   */\n      0x4f6e6c7920636f6e74726163742063616e20636865636b206966206175637469\n        /* \"#utility.yul\":8749:8751   */\n      0x40\n        /* \"#utility.yul\":8734:8752   */\n      dup3\n      add\n        /* \"#utility.yul\":8727:8789   */\n      mstore\n      shl(0xa2, 0x1bdb881a185cc8195b991959)\n        /* \"#utility.yul\":8820:8822   */\n      0x60\n        /* \"#utility.yul\":8805:8823   */\n      dup3\n      add\n        /* \"#utility.yul\":8798:8840   */\n      mstore\n        /* \"#utility.yul\":8872:8875   */\n      0x80\n        /* \"#utility.yul\":8857:8876   */\n      add\n      swap1\n        /* \"#utility.yul\":8648:8882   */\n      jump\t// out\n        /* \"#utility.yul\":8887:9233   */\n    tag_243:\n        /* \"#utility.yul\":9089:9091   */\n      0x20\n        /* \"#utility.yul\":9071:9092   */\n      dup1\n      dup3\n      mstore\n        /* \"#utility.yul\":9128:9130   */\n      0x16\n        /* \"#utility.yul\":9108:9126   */\n      swap1\n      dup3\n      add\n        /* \"#utility.yul\":9101:9131   */\n      mstore\n      shl(0x52, 0x10dbdb9d1c9858dd0818d85b88189b1858dadb1a5cdd)\n        /* \"#utility.yul\":9162:9164   */\n      0x40\n        /* \"#utility.yul\":9147:9165   */\n      dup3\n      add\n        /* \"#utility.yul\":9140:9192   */\n      mstore\n        /* \"#utility.yul\":9224:9226   */\n      0x60\n        /* \"#utility.yul\":9209:9227   */\n      add\n      swap1\n        /* \"#utility.yul\":9061:9233   */\n      jump\t// out\n        /* \"#utility.yul\":9238:9648   */\n    tag_134:\n        /* \"#utility.yul\":9440:9442   */\n      0x20\n        /* \"#utility.yul\":9422:9443   */\n      dup1\n      dup3\n      mstore\n        /* \"#utility.yul\":9479:9481   */\n      0x2e\n        /* \"#utility.yul\":9459:9477   */\n      swap1\n      dup3\n      add\n        /* \"#utility.yul\":9452:9482   */\n      mstore\n        /* \"#utility.yul\":9518:9552   */\n      0x6269642073686f756c642062652067726561746572207468616e206869676865\n        /* \"#utility.yul\":9513:9515   */\n      0x40\n        /* \"#utility.yul\":9498:9516   */\n      dup3\n      add\n        /* \"#utility.yul\":9491:9553   */\n      mstore\n      shl(0x92, 0x1cdd08189a5b991a5b99c8189a59)\n        /* \"#utility.yul\":9584:9586   */\n      0x60\n        /* \"#utility.yul\":9569:9587   */\n      dup3\n      add\n        /* \"#utility.yul\":9562:9606   */\n      mstore\n        /* \"#utility.yul\":9638:9641   */\n      0x80\n        /* \"#utility.yul\":9623:9642   */\n      add\n      swap1\n        /* \"#utility.yul\":9412:9648   */\n      jump\t// out\n        /* \"#utility.yul\":9653:9992   */\n    tag_187:\n        /* \"#utility.yul\":9855:9857   */\n      0x20\n        /* \"#utility.yul\":9837:9858   */\n      dup1\n      dup3\n      mstore\n        /* \"#utility.yul\":9894:9896   */\n      0x0f\n        /* \"#utility.yul\":9874:9892   */\n      swap1\n      dup3\n      add\n        /* \"#utility.yul\":9867:9897   */\n      mstore\n      shl(0x8a, 0x125b9d985b1a590818985b9ac81259)\n        /* \"#utility.yul\":9928:9930   */\n      0x40\n        /* \"#utility.yul\":9913:9931   */\n      dup3\n      add\n        /* \"#utility.yul\":9906:9951   */\n      mstore\n        /* \"#utility.yul\":9983:9985   */\n      0x60\n        /* \"#utility.yul\":9968:9986   */\n      add\n      swap1\n        /* \"#utility.yul\":9827:9992   */\n      jump\t// out\n        /* \"#utility.yul\":9997:10394   */\n    tag_179:\n        /* \"#utility.yul\":10199:10201   */\n      0x20\n        /* \"#utility.yul\":10181:10202   */\n      dup1\n      dup3\n      mstore\n        /* \"#utility.yul\":10238:10240   */\n      0x21\n        /* \"#utility.yul\":10218:10236   */\n      swap1\n      dup3\n      add\n        /* \"#utility.yul\":10211:10241   */\n      mstore\n        /* \"#utility.yul\":10277:10311   */\n      0x41756374696f6e2068617320656e64656420212043616e6e6f742063616e6365\n        /* \"#utility.yul\":10272:10274   */\n      0x40\n        /* \"#utility.yul\":10257:10275   */\n      dup3\n      add\n        /* \"#utility.yul\":10250:10312   */\n      mstore\n      shl(0xfa, 0x1b)\n        /* \"#utility.yul\":10343:10345   */\n      0x60\n        /* \"#utility.yul\":10328:10346   */\n      dup3\n      add\n        /* \"#utility.yul\":10321:10352   */\n      mstore\n        /* \"#utility.yul\":10384:10387   */\n      0x80\n        /* \"#utility.yul\":10369:10388   */\n      add\n      swap1\n        /* \"#utility.yul\":10171:10394   */\n      jump\t// out\n        /* \"#utility.yul\":10399:10799   */\n    tag_201:\n        /* \"#utility.yul\":10601:10603   */\n      0x20\n        /* \"#utility.yul\":10583:10604   */\n      dup1\n      dup3\n      mstore\n        /* \"#utility.yul\":10640:10642   */\n      0x24\n        /* \"#utility.yul\":10620:10638   */\n      swap1\n      dup3\n      add\n        /* \"#utility.yul\":10613:10643   */\n      mstore\n        /* \"#utility.yul\":10679:10713   */\n      0x416c726561647920616e2061756374696f6e20697320696e2070726f67726573\n        /* \"#utility.yul\":10674:10676   */\n      0x40\n        /* \"#utility.yul\":10659:10677   */\n      dup3\n      add\n        /* \"#utility.yul\":10652:10714   */\n      mstore\n      shl(0xe0, 0x73202121)\n        /* \"#utility.yul\":10745:10747   */\n      0x60\n        /* \"#utility.yul\":10730:10748   */\n      dup3\n      add\n        /* \"#utility.yul\":10723:10757   */\n      mstore\n        /* \"#utility.yul\":10789:10792   */\n      0x80\n        /* \"#utility.yul\":10774:10793   */\n      add\n      swap1\n        /* \"#utility.yul\":10573:10799   */\n      jump\t// out\n        /* \"#utility.yul\":10804:11150   */\n    tag_196:\n        /* \"#utility.yul\":11006:11008   */\n      0x20\n        /* \"#utility.yul\":10988:11009   */\n      dup1\n      dup3\n      mstore\n        /* \"#utility.yul\":11045:11047   */\n      0x16\n        /* \"#utility.yul\":11025:11043   */\n      swap1\n      dup3\n      add\n        /* \"#utility.yul\":11018:11048   */\n      mstore\n      shl(0x52, 0x165bdd48191bc81b9bdd081bdddb881d1a1948139195)\n        /* \"#utility.yul\":11079:11081   */\n      0x40\n        /* \"#utility.yul\":11064:11082   */\n      dup3\n      add\n        /* \"#utility.yul\":11057:11109   */\n      mstore\n        /* \"#utility.yul\":11141:11143   */\n      0x60\n        /* \"#utility.yul\":11126:11144   */\n      add\n      swap1\n        /* \"#utility.yul\":10978:11150   */\n      jump\t// out\n        /* \"#utility.yul\":11155:11505   */\n    tag_221:\n        /* \"#utility.yul\":11357:11359   */\n      0x20\n        /* \"#utility.yul\":11339:11360   */\n      dup1\n      dup3\n      mstore\n        /* \"#utility.yul\":11396:11398   */\n      0x1a\n        /* \"#utility.yul\":11376:11394   */\n      swap1\n      dup3\n      add\n        /* \"#utility.yul\":11369:11399   */\n      mstore\n        /* \"#utility.yul\":11435:11463   */\n      0x41756374696f6e20697320696e206f7468657220737461746573000000000000\n        /* \"#utility.yul\":11430:11432   */\n      0x40\n        /* \"#utility.yul\":11415:11433   */\n      dup3\n      add\n        /* \"#utility.yul\":11408:11464   */\n      mstore\n        /* \"#utility.yul\":11496:11498   */\n      0x60\n        /* \"#utility.yul\":11481:11499   */\n      add\n      swap1\n        /* \"#utility.yul\":11329:11505   */\n      jump\t// out\n        /* \"#utility.yul\":11510:11849   */\n    tag_184:\n        /* \"#utility.yul\":11712:11714   */\n      0x20\n        /* \"#utility.yul\":11694:11715   */\n      dup1\n      dup3\n      mstore\n        /* \"#utility.yul\":11751:11753   */\n      0x0f\n        /* \"#utility.yul\":11731:11749   */\n      swap1\n      dup3\n      add\n        /* \"#utility.yul\":11724:11754   */\n      mstore\n      shl(0x8a, 0x125b9d985b1a59081b1bd85b881259)\n        /* \"#utility.yul\":11785:11787   */\n      0x40\n        /* \"#utility.yul\":11770:11788   */\n      dup3\n      add\n        /* \"#utility.yul\":11763:11808   */\n      mstore\n        /* \"#utility.yul\":11840:11842   */\n      0x60\n        /* \"#utility.yul\":11825:11843   */\n      add\n      swap1\n        /* \"#utility.yul\":11684:11849   */\n      jump\t// out\n        /* \"#utility.yul\":11854:12254   */\n    tag_176:\n        /* \"#utility.yul\":12056:12058   */\n      0x20\n        /* \"#utility.yul\":12038:12059   */\n      dup1\n      dup3\n      mstore\n        /* \"#utility.yul\":12095:12097   */\n      0x24\n        /* \"#utility.yul\":12075:12093   */\n      swap1\n      dup3\n      add\n        /* \"#utility.yul\":12068:12098   */\n      mstore\n        /* \"#utility.yul\":12134:12168   */\n      0x4f6e6c7920636f6e74726163742063616e2063616e63656c2074686520617563\n        /* \"#utility.yul\":12129:12131   */\n      0x40\n        /* \"#utility.yul\":12114:12132   */\n      dup3\n      add\n        /* \"#utility.yul\":12107:12169   */\n      mstore\n      shl(0xe1, 0x3a34b7b7)\n        /* \"#utility.yul\":12200:12202   */\n      0x60\n        /* \"#utility.yul\":12185:12203   */\n      dup3\n      add\n        /* \"#utility.yul\":12178:12212   */\n      mstore\n        /* \"#utility.yul\":12244:12247   */\n      0x80\n        /* \"#utility.yul\":12229:12248   */\n      add\n      swap1\n        /* \"#utility.yul\":12028:12254   */\n      jump\t// out\n        /* \"#utility.yul\":12259:12672   */\n    tag_131:\n        /* \"#utility.yul\":12461:12463   */\n      0x20\n        /* \"#utility.yul\":12443:12464   */\n      dup1\n      dup3\n      mstore\n        /* \"#utility.yul\":12500:12502   */\n      0x31\n        /* \"#utility.yul\":12480:12498   */\n      swap1\n      dup3\n      add\n        /* \"#utility.yul\":12473:12503   */\n      mstore\n        /* \"#utility.yul\":12539:12573   */\n      0x41756374696f6e20656e6465642c20706c6561736520707265737320656e6420\n        /* \"#utility.yul\":12534:12536   */\n      0x40\n        /* \"#utility.yul\":12519:12537   */\n      dup3\n      add\n        /* \"#utility.yul\":12512:12574   */\n      mstore\n      shl(0x78, 0x61756374696f6e20627574746f6e202121)\n        /* \"#utility.yul\":12605:12607   */\n      0x60\n        /* \"#utility.yul\":12590:12608   */\n      dup3\n      add\n        /* \"#utility.yul\":12583:12630   */\n      mstore\n        /* \"#utility.yul\":12662:12665   */\n      0x80\n        /* \"#utility.yul\":12647:12666   */\n      add\n      swap1\n        /* \"#utility.yul\":12433:12672   */\n      jump\t// out\n        /* \"#utility.yul\":12677:13029   */\n    tag_125:\n        /* \"#utility.yul\":12879:12881   */\n      0x20\n        /* \"#utility.yul\":12861:12882   */\n      dup1\n      dup3\n      mstore\n        /* \"#utility.yul\":12918:12920   */\n      0x1c\n        /* \"#utility.yul\":12898:12916   */\n      swap1\n      dup3\n      add\n        /* \"#utility.yul\":12891:12921   */\n      mstore\n        /* \"#utility.yul\":12957:12987   */\n      0x41756374696f6e205374617465206973206e6f742072756e6e696e6700000000\n        /* \"#utility.yul\":12952:12954   */\n      0x40\n        /* \"#utility.yul\":12937:12955   */\n      dup3\n      add\n        /* \"#utility.yul\":12930:12988   */\n      mstore\n        /* \"#utility.yul\":13020:13022   */\n      0x60\n        /* \"#utility.yul\":13005:13023   */\n      add\n      swap1\n        /* \"#utility.yul\":12851:13029   */\n      jump\t// out\n        /* \"#utility.yul\":13034:13436   */\n    tag_162:\n        /* \"#utility.yul\":13236:13238   */\n      0x20\n        /* \"#utility.yul\":13218:13239   */\n      dup1\n      dup3\n      mstore\n        /* \"#utility.yul\":13275:13277   */\n      0x26\n        /* \"#utility.yul\":13255:13273   */\n      swap1\n      dup3\n      add\n        /* \"#utility.yul\":13248:13278   */\n      mstore\n        /* \"#utility.yul\":13314:13348   */\n      0x4f6e6c7920636f6e74726163742063616e2066696e616c697a65207468652061\n        /* \"#utility.yul\":13309:13311   */\n      0x40\n        /* \"#utility.yul\":13294:13312   */\n      dup3\n      add\n        /* \"#utility.yul\":13287:13349   */\n      mstore\n      shl(0xd1, 0x3ab1ba34b7b7)\n        /* \"#utility.yul\":13380:13382   */\n      0x60\n        /* \"#utility.yul\":13365:13383   */\n      dup3\n      add\n        /* \"#utility.yul\":13358:13394   */\n      mstore\n        /* \"#utility.yul\":13426:13429   */\n      0x80\n        /* \"#utility.yul\":13411:13430   */\n      add\n      swap1\n        /* \"#utility.yul\":13208:13436   */\n      jump\t// out\n        /* \"#utility.yul\":13441:13618   */\n    tag_35:\n        /* \"#utility.yul\":13587:13612   */\n      swap1\n      dup2\n      mstore\n        /* \"#utility.yul\":13575:13577   */\n      0x20\n        /* \"#utility.yul\":13560:13578   */\n      add\n      swap1\n        /* \"#utility.yul\":13542:13618   */\n      jump\t// out\n        /* \"#utility.yul\":13623:13897   */\n    tag_58:\n        /* \"#utility.yul\":13797:13822   */\n      swap2\n      dup3\n      mstore\n      sub(shl(0xa0, 0x01), 0x01)\n        /* \"#utility.yul\":13858:13890   */\n      and\n        /* \"#utility.yul\":13853:13855   */\n      0x20\n        /* \"#utility.yul\":13838:13856   */\n      dup3\n      add\n        /* \"#utility.yul\":13831:13891   */\n      mstore\n        /* \"#utility.yul\":13785:13787   */\n      0x40\n        /* \"#utility.yul\":13770:13788   */\n      add\n      swap1\n        /* \"#utility.yul\":13752:13897   */\n      jump\t// out\n        /* \"#utility.yul\":13902:15239   */\n    tag_42:\n        /* \"#utility.yul\":14430:14455   */\n      dup15\n      dup2\n      mstore\n      sub(shl(0xa0, 0x01), 0x01)\n        /* \"#utility.yul\":14491:14523   */\n      dup15\n      dup2\n      and\n        /* \"#utility.yul\":14486:14488   */\n      0x20\n        /* \"#utility.yul\":14471:14489   */\n      dup4\n      add\n        /* \"#utility.yul\":14464:14524   */\n      mstore\n        /* \"#utility.yul\":14555:14557   */\n      0x40\n        /* \"#utility.yul\":14540:14558   */\n      dup3\n      add\n        /* \"#utility.yul\":14533:14567   */\n      dup15\n      swap1\n      mstore\n        /* \"#utility.yul\":14598:14600   */\n      0x60\n        /* \"#utility.yul\":14583:14601   */\n      dup3\n      add\n        /* \"#utility.yul\":14576:14610   */\n      dup14\n      swap1\n      mstore\n        /* \"#utility.yul\":14641:14644   */\n      0x80\n        /* \"#utility.yul\":14626:14645   */\n      dup3\n      add\n        /* \"#utility.yul\":14619:14654   */\n      dup13\n      swap1\n      mstore\n        /* \"#utility.yul\":14511:14514   */\n      0xa0\n        /* \"#utility.yul\":14670:14689   */\n      dup3\n      add\n        /* \"#utility.yul\":14663:14698   */\n      dup12\n      swap1\n      mstore\n        /* \"#utility.yul\":14729:14732   */\n      0xc0\n        /* \"#utility.yul\":14714:14733   */\n      dup3\n      add\n        /* \"#utility.yul\":14707:14742   */\n      dup11\n      swap1\n      mstore\n        /* \"#utility.yul\":14779:14811   */\n      dup9\n      and\n        /* \"#utility.yul\":14773:14776   */\n      0xe0\n        /* \"#utility.yul\":14758:14777   */\n      dup3\n      add\n        /* \"#utility.yul\":14751:14812   */\n      mstore\n        /* \"#utility.yul\":13902:15239   */\n      0x00\n        /* \"#utility.yul\":14821:14878   */\n      tag_360\n        /* \"#utility.yul\":14873:14876   */\n      0x0100\n        /* \"#utility.yul\":14858:14877   */\n      dup4\n      add\n        /* \"#utility.yul\":14850:14856   */\n      dup10\n        /* \"#utility.yul\":14821:14878   */\n      tag_320\n      jump\t// in\n    tag_360:\n        /* \"#utility.yul\":14887:14944   */\n      tag_361\n        /* \"#utility.yul\":14939:14942   */\n      0x0120\n        /* \"#utility.yul\":14928:14937   */\n      dup4\n        /* \"#utility.yul\":14924:14943   */\n      add\n        /* \"#utility.yul\":14916:14922   */\n      dup9\n        /* \"#utility.yul\":14887:14944   */\n      tag_320\n      jump\t// in\n    tag_361:\n        /* \"#utility.yul\":14953:15014   */\n      tag_362\n        /* \"#utility.yul\":15009:15012   */\n      0x0140\n        /* \"#utility.yul\":14998:15007   */\n      dup4\n        /* \"#utility.yul\":14994:15013   */\n      add\n        /* \"#utility.yul\":14985:14992   */\n      dup8\n        /* \"#utility.yul\":14953:15014   */\n      tag_322\n      jump\t// in\n    tag_362:\n        /* \"#utility.yul\":15051:15058   */\n      dup5\n        /* \"#utility.yul\":15045:15048   */\n      0x0160\n        /* \"#utility.yul\":15034:15043   */\n      dup4\n        /* \"#utility.yul\":15030:15049   */\n      add\n        /* \"#utility.yul\":15023:15059   */\n      mstore\n        /* \"#utility.yul\":15068:15126   */\n      tag_363\n        /* \"#utility.yul\":15121:15124   */\n      0x0180\n        /* \"#utility.yul\":15110:15119   */\n      dup4\n        /* \"#utility.yul\":15106:15125   */\n      add\n        /* \"#utility.yul\":15097:15104   */\n      dup6\n        /* \"#utility.yul\":15068:15126   */\n      tag_320\n      jump\t// in\n    tag_363:\n        /* \"#utility.yul\":15163:15166   */\n      0x01c0\n        /* \"#utility.yul\":15157:15160   */\n      0x01a0\n        /* \"#utility.yul\":15146:15155   */\n      dup4\n        /* \"#utility.yul\":15142:15161   */\n      add\n        /* \"#utility.yul\":15135:15167   */\n      mstore\n        /* \"#utility.yul\":15184:15233   */\n      tag_364\n        /* \"#utility.yul\":15228:15231   */\n      0x01c0\n        /* \"#utility.yul\":15217:15226   */\n      dup4\n        /* \"#utility.yul\":15213:15232   */\n      add\n        /* \"#utility.yul\":15204:15211   */\n      dup5\n        /* \"#utility.yul\":15184:15233   */\n      tag_325\n      jump\t// in\n    tag_364:\n        /* \"#utility.yul\":15176:15233   */\n      swap1\n      pop\n        /* \"#utility.yul\":14420:15239   */\n      swap16\n      swap15\n      pop\n      pop\n      pop\n      pop\n      pop\n      pop\n      pop\n      pop\n      pop\n      pop\n      pop\n      pop\n      pop\n      pop\n      pop\n      jump\t// out\n        /* \"#utility.yul\":15244:15486   */\n    tag_292:\n        /* \"#utility.yul\":15314:15316   */\n      0x40\n        /* \"#utility.yul\":15308:15317   */\n      mload\n        /* \"#utility.yul\":15344:15361   */\n      dup2\n      dup2\n      add\n        /* \"#utility.yul\":15391:15409   */\n      0xffffffffffffffff\n        /* \"#utility.yul\":15376:15410   */\n      dup2\n      gt\n        /* \"#utility.yul\":15412:15434   */\n      dup3\n      dup3\n      lt\n        /* \"#utility.yul\":15373:15435   */\n      or\n        /* \"#utility.yul\":15370:15372   */\n      iszero\n      tag_366\n      jumpi\n        /* \"#utility.yul\":15438:15447   */\n      invalid\n        /* \"#utility.yul\":15370:15372   */\n    tag_366:\n        /* \"#utility.yul\":15465:15467   */\n      0x40\n        /* \"#utility.yul\":15458:15480   */\n      mstore\n        /* \"#utility.yul\":15288:15486   */\n      swap2\n      swap1\n      pop\n      jump\t// out\n        /* \"#utility.yul\":15491:15749   */\n    tag_295:\n        /* \"#utility.yul\":15563:15564   */\n      0x00\n        /* \"#utility.yul\":15573:15686   */\n    tag_368:\n        /* \"#utility.yul\":15587:15593   */\n      dup4\n        /* \"#utility.yul\":15584:15585   */\n      dup2\n        /* \"#utility.yul\":15581:15594   */\n      lt\n        /* \"#utility.yul\":15573:15686   */\n      iszero\n      tag_370\n      jumpi\n        /* \"#utility.yul\":15663:15674   */\n      dup2\n      dup2\n      add\n        /* \"#utility.yul\":15657:15675   */\n      mload\n        /* \"#utility.yul\":15644:15655   */\n      dup4\n      dup3\n      add\n        /* \"#utility.yul\":15637:15676   */\n      mstore\n        /* \"#utility.yul\":15609:15611   */\n      0x20\n        /* \"#utility.yul\":15602:15612   */\n      add\n        /* \"#utility.yul\":15573:15686   */\n      jump(tag_368)\n    tag_370:\n        /* \"#utility.yul\":15704:15710   */\n      dup4\n        /* \"#utility.yul\":15701:15702   */\n      dup2\n        /* \"#utility.yul\":15698:15711   */\n      gt\n        /* \"#utility.yul\":15695:15697   */\n      iszero\n      tag_137\n      jumpi\n      pop\n      pop\n        /* \"#utility.yul\":15739:15740   */\n      0x00\n        /* \"#utility.yul\":15721:15737   */\n      swap2\n      add\n        /* \"#utility.yul\":15714:15741   */\n      mstore\n        /* \"#utility.yul\":15544:15749   */\n      jump\t// out\n        /* \"#utility.yul\":15754:15887   */\n    tag_285:\n      sub(shl(0xa0, 0x01), 0x01)\n        /* \"#utility.yul\":15831:15862   */\n      dup2\n      and\n        /* \"#utility.yul\":15821:15863   */\n      dup2\n      eq\n        /* \"#utility.yul\":15811:15813   */\n      tag_373\n      jumpi\n        /* \"#utility.yul\":15877:15878   */\n      0x00\n        /* \"#utility.yul\":15874:15875   */\n      dup1\n        /* \"#utility.yul\":15867:15879   */\n      revert\n        /* \"#utility.yul\":15811:15813   */\n    tag_373:\n        /* \"#utility.yul\":15801:15887   */\n      pop\n      jump\t// out\n\n    auxdata: 0xa26469706673582212203e88a7dcffbfb8260ff205e9c17b5f0d04bcdf79bc2330d89d3efb6d4f9b041b64736f6c63430007060033\n}\n",
				"bytecode": {
					"linkReferences": {},
					"object": "608060405260016005556104b0600655670de0b6b3a764000060075534801561002757600080fd5b50611ce0806100376000396000f3fe6080604052600436106101095760003560e01c80638ad3be4e11610095578063ba56e3d811610064578063ba56e3d8146102cb578063ce3845e2146102f8578063de1ba2b514610318578063eee94cf314610345578063f998a1dd1461037257610109565b80638ad3be4e146102565780639f08dd26146102765780639f302aad14610296578063a7e76644146102b657610109565b80633dbc78b9116100dc5780633dbc78b9146101c057806354876921146101d55780635b1568e2146101e85780636cdcb78d146102165780638962db6a1461023657610109565b8063033be2111461010e5780630ba52d1a146101445780631200617f14610171578063271fef4a146101ab575b600080fd5b34801561011a57600080fd5b5061012e6101293660046114a4565b610387565b60405161013b919061173e565b60405180910390f35b34801561015057600080fd5b5061016461015f3660046114a4565b6103a7565b60405161013b9190611b78565b34801561017d57600080fd5b5061019161018c36600461148c565b6103c4565b60405161013b9e9d9c9b9a99989796959493929190611b98565b3480156101b757600080fd5b50610164610534565b6101d36101ce36600461148c565b61053a565b005b6101d36101e336600461148c565b6106da565b3480156101f457600080fd5b5061020861020336600461148c565b6107f4565b60405161013b929190611b81565b34801561022257600080fd5b5061020861023136600461148c565b6108df565b34801561024257600080fd5b506101646102513660046114f4565b6109ce565b34801561026257600080fd5b5061016461027136600461148c565b610d56565b34801561028257600080fd5b5061020861029136600461148c565b610d73565b3480156102a257600080fd5b506101646102b13660046114d3565b610e51565b3480156102c257600080fd5b50610164610e82565b3480156102d757600080fd5b506102eb6102e636600461148c565b610e88565b60405161013b91906116b9565b34801561030457600080fd5b506101d3610313366004611578565b610ef4565b34801561032457600080fd5b5061033861033336600461148c565b611013565b60405161013b9190611706565b34801561035157600080fd5b506103656103603660046114d3565b611074565b60405161013b9190611681565b34801561037e57600080fd5b506101646110ac565b600360209081526000928352604080842090915290825290205460ff1681565b600260209081526000928352604080842090915290825290205481565b60006020528060005260406000206000915090508060000154908060010160009054906101000a90046001600160a01b0316908060020154908060030154908060040154908060050154908060060154908060070160009054906101000a90046001600160a01b0316908060080160009054906101000a90046001600160a01b0316908060090160009054906101000a90046001600160a01b0316908060090160149054906101000a900460ff169080600a01549080600b0160009054906101000a90046001600160a01b03169080600c018054600181600116156101000203166002900480601f01602080910402602001604051908101604052809291908181526020018280546001816001161561010002031660029004801561052a5780601f106104ff5761010080835404028352916020019161052a565b820191906000526020600020905b81548152906001019060200180831161050d57829003601f168201915b505050505090508e565b60075481565b6001600082815260208190526040902060090154600160a01b900460ff16600481111561056357fe5b146105895760405162461bcd60e51b815260040161058090611afb565b60405180910390fd5b6000818152602081815260408083206003908101548085529083528184203385529092529091205460ff16156105d15760405162461bcd60e51b8152600401610580906117bc565b6006546000838152602081905260409020600401540142106106055760405162461bcd60e51b815260040161058090611aaa565b6000818152600260209081526040808320338452825280832054600754858552928490529220600a015434909201910181116106535760405162461bcd60e51b8152600401610580906118da565b600083815260208181526040808320600a8101859055600b0180546001600160a01b0319163390811790915585845260028352818420818552909252822083905561069f9084906110b2565b9050806106d457600083815260016020818152604083208054928301815583529091200180546001600160a01b031916331790555b50505050565b6000805b60008381526004602052604090205481101561079957600083815260046020526040812080548390811061070e57fe5b60009182526020909120015490506001600085815260208190526040902060090154600160a01b900460ff16600481111561074557fe5b148015610762575060008481526020819052604090206003015481145b1561076d5750610791565b60009081526002602090815260408083203384529091528120805491905591909101905b6001016106de565b50670de0b6b3a76400008110156107c25760405162461bcd60e51b815260040161058090611812565b604051339082156108fc029083906000818181858888f193505050501580156107ef573d6000803e3d6000fd5b505050565b6000806001600084815260208190526040902060090154600160a01b900460ff16600481111561082057fe5b1461083d5760405162461bcd60e51b815260040161058090611749565b6000838152602081905260409020600801546001600160a01b031633146108765760405162461bcd60e51b815260040161058090611b32565b6006546000848152602081905260409020600401540142106108aa5760405162461bcd60e51b815260040161058090611779565b6000838152602081905260409020600901805460ff60a01b1916600160a11b1790556108d58361112b565b915091505b915091565b6000806001600084815260208190526040902060090154600160a01b900460ff16600481111561090b57fe5b146109285760405162461bcd60e51b815260040161058090611749565b6000838152602081905260409020600801546001600160a01b031633146109615760405162461bcd60e51b815260040161058090611a66565b6006546000848152602081905260409020600401540142106109955760405162461bcd60e51b815260040161058090611951565b5050600090815260208190526040812060098101805460ff60a01b1916600360a01b1790556008015490916001600160a01b0390911690565b6000876109ed5760405162461bcd60e51b815260040161058090611a3d565b88610a0a5760405162461bcd60e51b815260040161058090611928565b6040516331a9108f60e11b815233906001600160a01b03861690636352211e90610a38908a90600401611b78565b60206040518083038186803b158015610a5057600080fd5b505afa158015610a64573d6000803e3d6000fd5b505050506040513d601f19601f82011682018060405250810190610a8891906113df565b6001600160a01b031614610aae5760405162461bcd60e51b8152600401610580906119d6565b6001600089815260208190526040902060090154600160a01b900460ff166004811115610ad757fe5b1415610af55760405162461bcd60e51b815260040161058090611992565b610afd6112a2565b8881526001600160a01b03888116602083015260408083018990526005805460608501819052600190810190915542608085015260a0840189905260c084018d905287831660e085018190528784166101008601819052938716610120860152610140850191909152610160840189905261018084019290925280516395d89b4160e01b815290516395d89b4191600480820192600092909190829003018186803b158015610bab57600080fd5b505afa158015610bbf573d6000803e3d6000fd5b505050506040513d6000823e601f3d908101601f19168201604052610be79190810190611402565b6101a082015280516000908152602081815260409182902083518155908301516001820180546001600160a01b03199081166001600160a01b039384161790915592840151600283015560608401516003830155608084015160048084019190915560a0850151600584015560c0850151600684015560e08501516007840180548616918416919091179055610100850151600884018054861691841691909117905561012085015160098401805490951692169190911780845561014085015185949092909160ff60a01b191690600160a01b908490811115610cc757fe5b0217905550610160820151600a820155610180820151600b820180546001600160a01b0319166001600160a01b039092169190911790556101a08201518051610d1a91600c84019160209091019061133e565b50505060009889526004602090815260408a2060609290920180518354600181018555938c5291909a2090910155505094519695505050505050565b600090815260026020908152604080832033845290915290205490565b6000806001600084815260208190526040902060090154600160a01b900460ff166004811115610d9f57fe5b14610dbc5760405162461bcd60e51b815260040161058090611a06565b6000838152602081905260409020600801546001600160a01b03163314610df55760405162461bcd60e51b81526004016105809061185e565b60065460008481526020819052604090206004015401421115610e46576000838152602081905260409020600901805460ff60a01b1916600160a21b179055610e3d8361112b565b915091506108da565b506000905080915091565b60046020528160005260406000208181548110610e6d57600080fd5b90600052602060002001600091509150505481565b60055481565b600081815260016020908152604091829020805483518184028101840190945280845260609392830182828015610ee857602002820191906000526020600020905b81546001600160a01b03168152600190910190602001808311610eca575b50505050509050919050565b82610f115760405162461bcd60e51b8152600401610580906117e9565b6001600084815260208190526040902060090154600160a01b900460ff166004811115610f3a57fe5b14610f575760405162461bcd60e51b815260040161058090611749565b6000838152602081905260409020600801546001600160a01b03163314610f905760405162461bcd60e51b8152600401610580906118aa565b6000838152602081905260409020600301548214610fad57600080fd5b60005b81518110156106d4576000838152600360205260408120835160019290859085908110610fd957fe5b6020908102919091018101516001600160a01b03168252810191909152604001600020805460ff1916911515919091179055600101610fb0565b600081815260046020908152604091829020805483518184028101840190945280845260609392830182828015610ee857602002820191906000526020600020905b8154815260200190600101908083116110555750505050509050919050565b6001602052816000526040600020818154811061109057600080fd5b6000918252602090912001546001600160a01b03169150829050565b60065481565b6000805b60008481526001602052604090205481101561111f57600084815260016020526040902080546001600160a01b0385169190839081106110f257fe5b6000918252602090912001546001600160a01b03161415611117576001915050611125565b6001016110b6565b50600090505b92915050565b60008181526020819052604081206008810154600b9091015482916001600160a01b039182169116141561117b5750506000818152602081905260408120600801546001600160a01b03166108da565b6000838152602081905260409081902060078101546008820154600b83015460029093015493516323b872dd60e01b81526001600160a01b03928316946323b872dd946111d094938416931691600401611695565b600060405180830381600087803b1580156111ea57600080fd5b505af11580156111fe573d6000803e3d6000fd5b5050506000848152602081815260408083206003810154845260028352818420600b8201546001600160a01b039081168652908452828520859055888552928490526008810154600a9091015491519216935080156108fc0292909190818181858888f19350505050158015611278573d6000803e3d6000fd5b5050506000818152602081905260409020600a810154600b909101546001600160a01b03166108da565b604051806101c001604052806000815260200160006001600160a01b03168152602001600081526020016000815260200160008152602001600081526020016000815260200160006001600160a01b0316815260200160006001600160a01b0316815260200160006001600160a01b031681526020016000600481111561132557fe5b8152600060208201819052604082015260609081015290565b828054600181600116156101000203166002900490600052602060002090601f01602090048101928261137457600085556113ba565b82601f1061138d57805160ff19168380011785556113ba565b828001600101855582156113ba579182015b828111156113ba57825182559160200191906001019061139f565b506113c69291506113ca565b5090565b5b808211156113c657600081556001016113cb565b6000602082840312156113f0578081fd5b81516113fb81611c92565b9392505050565b600060208284031215611413578081fd5b815167ffffffffffffffff8082111561142a578283fd5b818401915084601f83011261143d578283fd5b81518181111561144957fe5b61145c601f8201601f1916602001611c42565b9150808252856020828501011115611472578384fd5b611483816020840160208601611c66565b50949350505050565b60006020828403121561149d578081fd5b5035919050565b600080604083850312156114b6578081fd5b8235915060208301356114c881611c92565b809150509250929050565b600080604083850312156114e5578182fd5b50508035926020909101359150565b600080600080600080600080610100898b031215611510578384fd5b8835975060208901359650604089013561152981611c92565b9550606089013594506080890135935060a089013561154781611c92565b925060c089013561155781611c92565b915060e089013561156781611c92565b809150509295985092959890939650565b60008060006060848603121561158c578283fd5b833592506020808501359250604085013567ffffffffffffffff808211156115b2578384fd5b818701915087601f8301126115c5578384fd5b8135818111156115d157fe5b83810291506115e1848301611c42565b8181528481019084860184860187018c10156115fb578788fd5b8795505b83861015611629578035945061161485611c92565b848352600195909501949186019186016115ff565b508096505050505050509250925092565b6001600160a01b03169052565b6005811061165157fe5b9052565b6000815180845261166d816020860160208601611c66565b601f01601f19169290920160200192915050565b6001600160a01b0391909116815260200190565b6001600160a01b039384168152919092166020820152604081019190915260600190565b6020808252825182820181905260009190848201906040850190845b818110156116fa5783516001600160a01b0316835292840192918401916001016116d5565b50909695505050505050565b6020808252825182820181905260009190848201906040850190845b818110156116fa57835183529284019291840191600101611722565b901515815260200190565b60208082526016908201527541756374696f6e206973206e6f742072756e6e696e6760501b604082015260600190565b60208082526023908201527f41756374696f6e2068617320656e64656420212043616e6e6f742066696e616c604082015262697a6560e81b606082015260800190565b6020808252601390820152721e5bdd48185c9948189b1858dadb1a5cdd1959606a1b604082015260600190565b6020808252600f908201526e131bd85b881259081a5b9d985b1a59608a1b604082015260600190565b6020808252602c908201527f546f74616c20636c61696d61626c652062616c616e63652073686f756c64206260408201526b32901f1e90189032ba3432b960a11b606082015260800190565b6020808252602c908201527f4f6e6c7920636f6e74726163742063616e20636865636b20696620617563746960408201526b1bdb881a185cc8195b99195960a21b606082015260800190565b60208082526016908201527510dbdb9d1c9858dd0818d85b88189b1858dadb1a5cdd60521b604082015260600190565b6020808252602e908201527f6269642073686f756c642062652067726561746572207468616e20686967686560408201526d1cdd08189a5b991a5b99c8189a5960921b606082015260800190565b6020808252600f908201526e125b9d985b1a590818985b9ac81259608a1b604082015260600190565b60208082526021908201527f41756374696f6e2068617320656e64656420212043616e6e6f742063616e63656040820152601b60fa1b606082015260800190565b60208082526024908201527f416c726561647920616e2061756374696f6e20697320696e2070726f677265736040820152637320212160e01b606082015260800190565b602080825260169082015275165bdd48191bc81b9bdd081bdddb881d1a194813919560521b604082015260600190565b6020808252601a908201527f41756374696f6e20697320696e206f7468657220737461746573000000000000604082015260600190565b6020808252600f908201526e125b9d985b1a59081b1bd85b881259608a1b604082015260600190565b60208082526024908201527f4f6e6c7920636f6e74726163742063616e2063616e63656c20746865206175636040820152633a34b7b760e11b606082015260800190565b60208082526031908201527f41756374696f6e20656e6465642c20706c6561736520707265737320656e642060408201527061756374696f6e20627574746f6e20212160781b606082015260800190565b6020808252601c908201527f41756374696f6e205374617465206973206e6f742072756e6e696e6700000000604082015260600190565b60208082526026908201527f4f6e6c7920636f6e74726163742063616e2066696e616c697a652074686520616040820152653ab1ba34b7b760d11b606082015260800190565b90815260200190565b9182526001600160a01b0316602082015260400190565b8e81526001600160a01b038e81166020830152604082018e9052606082018d9052608082018c905260a082018b905260c082018a9052881660e08201526000611be561010083018961163a565b611bf361012083018861163a565b611c01610140830187611647565b84610160830152611c1661018083018561163a565b6101c06101a0830152611c2d6101c0830184611655565b90509f9e505050505050505050505050505050565b60405181810167ffffffffffffffff81118282101715611c5e57fe5b604052919050565b60005b83811015611c81578181015183820152602001611c69565b838111156106d45750506000910152565b6001600160a01b0381168114611ca757600080fd5b5056fea26469706673582212203e88a7dcffbfb8260ff205e9c17b5f0d04bcdf79bc2330d89d3efb6d4f9b041b64736f6c63430007060033",
					"opcodes": "PUSH1 0x80 PUSH1 0x40 MSTORE PUSH1 0x1 PUSH1 0x5 SSTORE PUSH2 0x4B0 PUSH1 0x6 SSTORE PUSH8 0xDE0B6B3A7640000 PUSH1 0x7 SSTORE CALLVALUE DUP1 ISZERO PUSH2 0x27 JUMPI PUSH1 0x0 DUP1 REVERT JUMPDEST POP PUSH2 0x1CE0 DUP1 PUSH2 0x37 PUSH1 0x0 CODECOPY PUSH1 0x0 RETURN INVALID PUSH1 0x80 PUSH1 0x40 MSTORE PUSH1 0x4 CALLDATASIZE LT PUSH2 0x109 JUMPI PUSH1 0x0 CALLDATALOAD PUSH1 0xE0 SHR DUP1 PUSH4 0x8AD3BE4E GT PUSH2 0x95 JUMPI DUP1 PUSH4 0xBA56E3D8 GT PUSH2 0x64 JUMPI DUP1 PUSH4 0xBA56E3D8 EQ PUSH2 0x2CB JUMPI DUP1 PUSH4 0xCE3845E2 EQ PUSH2 0x2F8 JUMPI DUP1 PUSH4 0xDE1BA2B5 EQ PUSH2 0x318 JUMPI DUP1 PUSH4 0xEEE94CF3 EQ PUSH2 0x345 JUMPI DUP1 PUSH4 0xF998A1DD EQ PUSH2 0x372 JUMPI PUSH2 0x109 JUMP JUMPDEST DUP1 PUSH4 0x8AD3BE4E EQ PUSH2 0x256 JUMPI DUP1 PUSH4 0x9F08DD26 EQ PUSH2 0x276 JUMPI DUP1 PUSH4 0x9F302AAD EQ PUSH2 0x296 JUMPI DUP1 PUSH4 0xA7E76644 EQ PUSH2 0x2B6 JUMPI PUSH2 0x109 JUMP JUMPDEST DUP1 PUSH4 0x3DBC78B9 GT PUSH2 0xDC JUMPI DUP1 PUSH4 0x3DBC78B9 EQ PUSH2 0x1C0 JUMPI DUP1 PUSH4 0x54876921 EQ PUSH2 0x1D5 JUMPI DUP1 PUSH4 0x5B1568E2 EQ PUSH2 0x1E8 JUMPI DUP1 PUSH4 0x6CDCB78D EQ PUSH2 0x216 JUMPI DUP1 PUSH4 0x8962DB6A EQ PUSH2 0x236 JUMPI PUSH2 0x109 JUMP JUMPDEST DUP1 PUSH4 0x33BE211 EQ PUSH2 0x10E JUMPI DUP1 PUSH4 0xBA52D1A EQ PUSH2 0x144 JUMPI DUP1 PUSH4 0x1200617F EQ PUSH2 0x171 JUMPI DUP1 PUSH4 0x271FEF4A EQ PUSH2 0x1AB JUMPI JUMPDEST PUSH1 0x0 DUP1 REVERT JUMPDEST CALLVALUE DUP1 ISZERO PUSH2 0x11A JUMPI PUSH1 0x0 DUP1 REVERT JUMPDEST POP PUSH2 0x12E PUSH2 0x129 CALLDATASIZE PUSH1 0x4 PUSH2 0x14A4 JUMP JUMPDEST PUSH2 0x387 JUMP JUMPDEST PUSH1 0x40 MLOAD PUSH2 0x13B SWAP2 SWAP1 PUSH2 0x173E JUMP JUMPDEST PUSH1 0x40 MLOAD DUP1 SWAP2 SUB SWAP1 RETURN JUMPDEST CALLVALUE DUP1 ISZERO PUSH2 0x150 JUMPI PUSH1 0x0 DUP1 REVERT JUMPDEST POP PUSH2 0x164 PUSH2 0x15F CALLDATASIZE PUSH1 0x4 PUSH2 0x14A4 JUMP JUMPDEST PUSH2 0x3A7 JUMP JUMPDEST PUSH1 0x40 MLOAD PUSH2 0x13B SWAP2 SWAP1 PUSH2 0x1B78 JUMP JUMPDEST CALLVALUE DUP1 ISZERO PUSH2 0x17D JUMPI PUSH1 0x0 DUP1 REVERT JUMPDEST POP PUSH2 0x191 PUSH2 0x18C CALLDATASIZE PUSH1 0x4 PUSH2 0x148C JUMP JUMPDEST PUSH2 0x3C4 JUMP JUMPDEST PUSH1 0x40 MLOAD PUSH2 0x13B SWAP15 SWAP14 SWAP13 SWAP12 SWAP11 SWAP10 SWAP9 SWAP8 SWAP7 SWAP6 SWAP5 SWAP4 SWAP3 SWAP2 SWAP1 PUSH2 0x1B98 JUMP JUMPDEST CALLVALUE DUP1 ISZERO PUSH2 0x1B7 JUMPI PUSH1 0x0 DUP1 REVERT JUMPDEST POP PUSH2 0x164 PUSH2 0x534 JUMP JUMPDEST PUSH2 0x1D3 PUSH2 0x1CE CALLDATASIZE PUSH1 0x4 PUSH2 0x148C JUMP JUMPDEST PUSH2 0x53A JUMP JUMPDEST STOP JUMPDEST PUSH2 0x1D3 PUSH2 0x1E3 CALLDATASIZE PUSH1 0x4 PUSH2 0x148C JUMP JUMPDEST PUSH2 0x6DA JUMP JUMPDEST CALLVALUE DUP1 ISZERO PUSH2 0x1F4 JUMPI PUSH1 0x0 DUP1 REVERT JUMPDEST POP PUSH2 0x208 PUSH2 0x203 CALLDATASIZE PUSH1 0x4 PUSH2 0x148C JUMP JUMPDEST PUSH2 0x7F4 JUMP JUMPDEST PUSH1 0x40 MLOAD PUSH2 0x13B SWAP3 SWAP2 SWAP1 PUSH2 0x1B81 JUMP JUMPDEST CALLVALUE DUP1 ISZERO PUSH2 0x222 JUMPI PUSH1 0x0 DUP1 REVERT JUMPDEST POP PUSH2 0x208 PUSH2 0x231 CALLDATASIZE PUSH1 0x4 PUSH2 0x148C JUMP JUMPDEST PUSH2 0x8DF JUMP JUMPDEST CALLVALUE DUP1 ISZERO PUSH2 0x242 JUMPI PUSH1 0x0 DUP1 REVERT JUMPDEST POP PUSH2 0x164 PUSH2 0x251 CALLDATASIZE PUSH1 0x4 PUSH2 0x14F4 JUMP JUMPDEST PUSH2 0x9CE JUMP JUMPDEST CALLVALUE DUP1 ISZERO PUSH2 0x262 JUMPI PUSH1 0x0 DUP1 REVERT JUMPDEST POP PUSH2 0x164 PUSH2 0x271 CALLDATASIZE PUSH1 0x4 PUSH2 0x148C JUMP JUMPDEST PUSH2 0xD56 JUMP JUMPDEST CALLVALUE DUP1 ISZERO PUSH2 0x282 JUMPI PUSH1 0x0 DUP1 REVERT JUMPDEST POP PUSH2 0x208 PUSH2 0x291 CALLDATASIZE PUSH1 0x4 PUSH2 0x148C JUMP JUMPDEST PUSH2 0xD73 JUMP JUMPDEST CALLVALUE DUP1 ISZERO PUSH2 0x2A2 JUMPI PUSH1 0x0 DUP1 REVERT JUMPDEST POP PUSH2 0x164 PUSH2 0x2B1 CALLDATASIZE PUSH1 0x4 PUSH2 0x14D3 JUMP JUMPDEST PUSH2 0xE51 JUMP JUMPDEST CALLVALUE DUP1 ISZERO PUSH2 0x2C2 JUMPI PUSH1 0x0 DUP1 REVERT JUMPDEST POP PUSH2 0x164 PUSH2 0xE82 JUMP JUMPDEST CALLVALUE DUP1 ISZERO PUSH2 0x2D7 JUMPI PUSH1 0x0 DUP1 REVERT JUMPDEST POP PUSH2 0x2EB PUSH2 0x2E6 CALLDATASIZE PUSH1 0x4 PUSH2 0x148C JUMP JUMPDEST PUSH2 0xE88 JUMP JUMPDEST PUSH1 0x40 MLOAD PUSH2 0x13B SWAP2 SWAP1 PUSH2 0x16B9 JUMP JUMPDEST CALLVALUE DUP1 ISZERO PUSH2 0x304 JUMPI PUSH1 0x0 DUP1 REVERT JUMPDEST POP PUSH2 0x1D3 PUSH2 0x313 CALLDATASIZE PUSH1 0x4 PUSH2 0x1578 JUMP JUMPDEST PUSH2 0xEF4 JUMP JUMPDEST CALLVALUE DUP1 ISZERO PUSH2 0x324 JUMPI PUSH1 0x0 DUP1 REVERT JUMPDEST POP PUSH2 0x338 PUSH2 0x333 CALLDATASIZE PUSH1 0x4 PUSH2 0x148C JUMP JUMPDEST PUSH2 0x1013 JUMP JUMPDEST PUSH1 0x40 MLOAD PUSH2 0x13B SWAP2 SWAP1 PUSH2 0x1706 JUMP JUMPDEST CALLVALUE DUP1 ISZERO PUSH2 0x351 JUMPI PUSH1 0x0 DUP1 REVERT JUMPDEST POP PUSH2 0x365 PUSH2 0x360 CALLDATASIZE PUSH1 0x4 PUSH2 0x14D3 JUMP JUMPDEST PUSH2 0x1074 JUMP JUMPDEST PUSH1 0x40 MLOAD PUSH2 0x13B SWAP2 SWAP1 PUSH2 0x1681 JUMP JUMPDEST CALLVALUE DUP1 ISZERO PUSH2 0x37E JUMPI PUSH1 0x0 DUP1 REVERT JUMPDEST POP PUSH2 0x164 PUSH2 0x10AC JUMP JUMPDEST PUSH1 0x3 PUSH1 0x20 SWAP1 DUP2 MSTORE PUSH1 0x0 SWAP3 DUP4 MSTORE PUSH1 0x40 DUP1 DUP5 KECCAK256 SWAP1 SWAP2 MSTORE SWAP1 DUP3 MSTORE SWAP1 KECCAK256 SLOAD PUSH1 0xFF AND DUP2 JUMP JUMPDEST PUSH1 0x2 PUSH1 0x20 SWAP1 DUP2 MSTORE PUSH1 0x0 SWAP3 DUP4 MSTORE PUSH1 0x40 DUP1 DUP5 KECCAK256 SWAP1 SWAP2 MSTORE SWAP1 DUP3 MSTORE SWAP1 KECCAK256 SLOAD DUP2 JUMP JUMPDEST PUSH1 0x0 PUSH1 0x20 MSTORE DUP1 PUSH1 0x0 MSTORE PUSH1 0x40 PUSH1 0x0 KECCAK256 PUSH1 0x0 SWAP2 POP SWAP1 POP DUP1 PUSH1 0x0 ADD SLOAD SWAP1 DUP1 PUSH1 0x1 ADD PUSH1 0x0 SWAP1 SLOAD SWAP1 PUSH2 0x100 EXP SWAP1 DIV PUSH1 0x1 PUSH1 0x1 PUSH1 0xA0 SHL SUB AND SWAP1 DUP1 PUSH1 0x2 ADD SLOAD SWAP1 DUP1 PUSH1 0x3 ADD SLOAD SWAP1 DUP1 PUSH1 0x4 ADD SLOAD SWAP1 DUP1 PUSH1 0x5 ADD SLOAD SWAP1 DUP1 PUSH1 0x6 ADD SLOAD SWAP1 DUP1 PUSH1 0x7 ADD PUSH1 0x0 SWAP1 SLOAD SWAP1 PUSH2 0x100 EXP SWAP1 DIV PUSH1 0x1 PUSH1 0x1 PUSH1 0xA0 SHL SUB AND SWAP1 DUP1 PUSH1 0x8 ADD PUSH1 0x0 SWAP1 SLOAD SWAP1 PUSH2 0x100 EXP SWAP1 DIV PUSH1 0x1 PUSH1 0x1 PUSH1 0xA0 SHL SUB AND SWAP1 DUP1 PUSH1 0x9 ADD PUSH1 0x0 SWAP1 SLOAD SWAP1 PUSH2 0x100 EXP SWAP1 DIV PUSH1 0x1 PUSH1 0x1 PUSH1 0xA0 SHL SUB AND SWAP1 DUP1 PUSH1 0x9 ADD PUSH1 0x14 SWAP1 SLOAD SWAP1 PUSH2 0x100 EXP SWAP1 DIV PUSH1 0xFF AND SWAP1 DUP1 PUSH1 0xA ADD SLOAD SWAP1 DUP1 PUSH1 0xB ADD PUSH1 0x0 SWAP1 SLOAD SWAP1 PUSH2 0x100 EXP SWAP1 DIV PUSH1 0x1 PUSH1 0x1 PUSH1 0xA0 SHL SUB AND SWAP1 DUP1 PUSH1 0xC ADD DUP1 SLOAD PUSH1 0x1 DUP2 PUSH1 0x1 AND ISZERO PUSH2 0x100 MUL SUB AND PUSH1 0x2 SWAP1 DIV DUP1 PUSH1 0x1F ADD PUSH1 0x20 DUP1 SWAP2 DIV MUL PUSH1 0x20 ADD PUSH1 0x40 MLOAD SWAP1 DUP2 ADD PUSH1 0x40 MSTORE DUP1 SWAP3 SWAP2 SWAP1 DUP2 DUP2 MSTORE PUSH1 0x20 ADD DUP3 DUP1 SLOAD PUSH1 0x1 DUP2 PUSH1 0x1 AND ISZERO PUSH2 0x100 MUL SUB AND PUSH1 0x2 SWAP1 DIV DUP1 ISZERO PUSH2 0x52A JUMPI DUP1 PUSH1 0x1F LT PUSH2 0x4FF JUMPI PUSH2 0x100 DUP1 DUP4 SLOAD DIV MUL DUP4 MSTORE SWAP2 PUSH1 0x20 ADD SWAP2 PUSH2 0x52A JUMP JUMPDEST DUP3 ADD SWAP2 SWAP1 PUSH1 0x0 MSTORE PUSH1 0x20 PUSH1 0x0 KECCAK256 SWAP1 JUMPDEST DUP2 SLOAD DUP2 MSTORE SWAP1 PUSH1 0x1 ADD SWAP1 PUSH1 0x20 ADD DUP1 DUP4 GT PUSH2 0x50D JUMPI DUP3 SWAP1 SUB PUSH1 0x1F AND DUP3 ADD SWAP2 JUMPDEST POP POP POP POP POP SWAP1 POP DUP15 JUMP JUMPDEST PUSH1 0x7 SLOAD DUP2 JUMP JUMPDEST PUSH1 0x1 PUSH1 0x0 DUP3 DUP2 MSTORE PUSH1 0x20 DUP2 SWAP1 MSTORE PUSH1 0x40 SWAP1 KECCAK256 PUSH1 0x9 ADD SLOAD PUSH1 0x1 PUSH1 0xA0 SHL SWAP1 DIV PUSH1 0xFF AND PUSH1 0x4 DUP2 GT ISZERO PUSH2 0x563 JUMPI INVALID JUMPDEST EQ PUSH2 0x589 JUMPI PUSH1 0x40 MLOAD PUSH3 0x461BCD PUSH1 0xE5 SHL DUP2 MSTORE PUSH1 0x4 ADD PUSH2 0x580 SWAP1 PUSH2 0x1AFB JUMP JUMPDEST PUSH1 0x40 MLOAD DUP1 SWAP2 SUB SWAP1 REVERT JUMPDEST PUSH1 0x0 DUP2 DUP2 MSTORE PUSH1 0x20 DUP2 DUP2 MSTORE PUSH1 0x40 DUP1 DUP4 KECCAK256 PUSH1 0x3 SWAP1 DUP2 ADD SLOAD DUP1 DUP6 MSTORE SWAP1 DUP4 MSTORE DUP2 DUP5 KECCAK256 CALLER DUP6 MSTORE SWAP1 SWAP3 MSTORE SWAP1 SWAP2 KECCAK256 SLOAD PUSH1 0xFF AND ISZERO PUSH2 0x5D1 JUMPI PUSH1 0x40 MLOAD PUSH3 0x461BCD PUSH1 0xE5 SHL DUP2 MSTORE PUSH1 0x4 ADD PUSH2 0x580 SWAP1 PUSH2 0x17BC JUMP JUMPDEST PUSH1 0x6 SLOAD PUSH1 0x0 DUP4 DUP2 MSTORE PUSH1 0x20 DUP2 SWAP1 MSTORE PUSH1 0x40 SWAP1 KECCAK256 PUSH1 0x4 ADD SLOAD ADD TIMESTAMP LT PUSH2 0x605 JUMPI PUSH1 0x40 MLOAD PUSH3 0x461BCD PUSH1 0xE5 SHL DUP2 MSTORE PUSH1 0x4 ADD PUSH2 0x580 SWAP1 PUSH2 0x1AAA JUMP JUMPDEST PUSH1 0x0 DUP2 DUP2 MSTORE PUSH1 0x2 PUSH1 0x20 SWAP1 DUP2 MSTORE PUSH1 0x40 DUP1 DUP4 KECCAK256 CALLER DUP5 MSTORE DUP3 MSTORE DUP1 DUP4 KECCAK256 SLOAD PUSH1 0x7 SLOAD DUP6 DUP6 MSTORE SWAP3 DUP5 SWAP1 MSTORE SWAP3 KECCAK256 PUSH1 0xA ADD SLOAD CALLVALUE SWAP1 SWAP3 ADD SWAP2 ADD DUP2 GT PUSH2 0x653 JUMPI PUSH1 0x40 MLOAD PUSH3 0x461BCD PUSH1 0xE5 SHL DUP2 MSTORE PUSH1 0x4 ADD PUSH2 0x580 SWAP1 PUSH2 0x18DA JUMP JUMPDEST PUSH1 0x0 DUP4 DUP2 MSTORE PUSH1 0x20 DUP2 DUP2 MSTORE PUSH1 0x40 DUP1 DUP4 KECCAK256 PUSH1 0xA DUP2 ADD DUP6 SWAP1 SSTORE PUSH1 0xB ADD DUP1 SLOAD PUSH1 0x1 PUSH1 0x1 PUSH1 0xA0 SHL SUB NOT AND CALLER SWAP1 DUP2 OR SWAP1 SWAP2 SSTORE DUP6 DUP5 MSTORE PUSH1 0x2 DUP4 MSTORE DUP2 DUP5 KECCAK256 DUP2 DUP6 MSTORE SWAP1 SWAP3 MSTORE DUP3 KECCAK256 DUP4 SWAP1 SSTORE PUSH2 0x69F SWAP1 DUP5 SWAP1 PUSH2 0x10B2 JUMP JUMPDEST SWAP1 POP DUP1 PUSH2 0x6D4 JUMPI PUSH1 0x0 DUP4 DUP2 MSTORE PUSH1 0x1 PUSH1 0x20 DUP2 DUP2 MSTORE PUSH1 0x40 DUP4 KECCAK256 DUP1 SLOAD SWAP3 DUP4 ADD DUP2 SSTORE DUP4 MSTORE SWAP1 SWAP2 KECCAK256 ADD DUP1 SLOAD PUSH1 0x1 PUSH1 0x1 PUSH1 0xA0 SHL SUB NOT AND CALLER OR SWAP1 SSTORE JUMPDEST POP POP POP POP JUMP JUMPDEST PUSH1 0x0 DUP1 JUMPDEST PUSH1 0x0 DUP4 DUP2 MSTORE PUSH1 0x4 PUSH1 0x20 MSTORE PUSH1 0x40 SWAP1 KECCAK256 SLOAD DUP2 LT ISZERO PUSH2 0x799 JUMPI PUSH1 0x0 DUP4 DUP2 MSTORE PUSH1 0x4 PUSH1 0x20 MSTORE PUSH1 0x40 DUP2 KECCAK256 DUP1 SLOAD DUP4 SWAP1 DUP2 LT PUSH2 0x70E JUMPI INVALID JUMPDEST PUSH1 0x0 SWAP2 DUP3 MSTORE PUSH1 0x20 SWAP1 SWAP2 KECCAK256 ADD SLOAD SWAP1 POP PUSH1 0x1 PUSH1 0x0 DUP6 DUP2 MSTORE PUSH1 0x20 DUP2 SWAP1 MSTORE PUSH1 0x40 SWAP1 KECCAK256 PUSH1 0x9 ADD SLOAD PUSH1 0x1 PUSH1 0xA0 SHL SWAP1 DIV PUSH1 0xFF AND PUSH1 0x4 DUP2 GT ISZERO PUSH2 0x745 JUMPI INVALID JUMPDEST EQ DUP1 ISZERO PUSH2 0x762 JUMPI POP PUSH1 0x0 DUP5 DUP2 MSTORE PUSH1 0x20 DUP2 SWAP1 MSTORE PUSH1 0x40 SWAP1 KECCAK256 PUSH1 0x3 ADD SLOAD DUP2 EQ JUMPDEST ISZERO PUSH2 0x76D JUMPI POP PUSH2 0x791 JUMP JUMPDEST PUSH1 0x0 SWAP1 DUP2 MSTORE PUSH1 0x2 PUSH1 0x20 SWAP1 DUP2 MSTORE PUSH1 0x40 DUP1 DUP4 KECCAK256 CALLER DUP5 MSTORE SWAP1 SWAP2 MSTORE DUP2 KECCAK256 DUP1 SLOAD SWAP2 SWAP1 SSTORE SWAP2 SWAP1 SWAP2 ADD SWAP1 JUMPDEST PUSH1 0x1 ADD PUSH2 0x6DE JUMP JUMPDEST POP PUSH8 0xDE0B6B3A7640000 DUP2 LT ISZERO PUSH2 0x7C2 JUMPI PUSH1 0x40 MLOAD PUSH3 0x461BCD PUSH1 0xE5 SHL DUP2 MSTORE PUSH1 0x4 ADD PUSH2 0x580 SWAP1 PUSH2 0x1812 JUMP JUMPDEST PUSH1 0x40 MLOAD CALLER SWAP1 DUP3 ISZERO PUSH2 0x8FC MUL SWAP1 DUP4 SWAP1 PUSH1 0x0 DUP2 DUP2 DUP2 DUP6 DUP9 DUP9 CALL SWAP4 POP POP POP POP ISZERO DUP1 ISZERO PUSH2 0x7EF JUMPI RETURNDATASIZE PUSH1 0x0 DUP1 RETURNDATACOPY RETURNDATASIZE PUSH1 0x0 REVERT JUMPDEST POP POP POP JUMP JUMPDEST PUSH1 0x0 DUP1 PUSH1 0x1 PUSH1 0x0 DUP5 DUP2 MSTORE PUSH1 0x20 DUP2 SWAP1 MSTORE PUSH1 0x40 SWAP1 KECCAK256 PUSH1 0x9 ADD SLOAD PUSH1 0x1 PUSH1 0xA0 SHL SWAP1 DIV PUSH1 0xFF AND PUSH1 0x4 DUP2 GT ISZERO PUSH2 0x820 JUMPI INVALID JUMPDEST EQ PUSH2 0x83D JUMPI PUSH1 0x40 MLOAD PUSH3 0x461BCD PUSH1 0xE5 SHL DUP2 MSTORE PUSH1 0x4 ADD PUSH2 0x580 SWAP1 PUSH2 0x1749 JUMP JUMPDEST PUSH1 0x0 DUP4 DUP2 MSTORE PUSH1 0x20 DUP2 SWAP1 MSTORE PUSH1 0x40 SWAP1 KECCAK256 PUSH1 0x8 ADD SLOAD PUSH1 0x1 PUSH1 0x1 PUSH1 0xA0 SHL SUB AND CALLER EQ PUSH2 0x876 JUMPI PUSH1 0x40 MLOAD PUSH3 0x461BCD PUSH1 0xE5 SHL DUP2 MSTORE PUSH1 0x4 ADD PUSH2 0x580 SWAP1 PUSH2 0x1B32 JUMP JUMPDEST PUSH1 0x6 SLOAD PUSH1 0x0 DUP5 DUP2 MSTORE PUSH1 0x20 DUP2 SWAP1 MSTORE PUSH1 0x40 SWAP1 KECCAK256 PUSH1 0x4 ADD SLOAD ADD TIMESTAMP LT PUSH2 0x8AA JUMPI PUSH1 0x40 MLOAD PUSH3 0x461BCD PUSH1 0xE5 SHL DUP2 MSTORE PUSH1 0x4 ADD PUSH2 0x580 SWAP1 PUSH2 0x1779 JUMP JUMPDEST PUSH1 0x0 DUP4 DUP2 MSTORE PUSH1 0x20 DUP2 SWAP1 MSTORE PUSH1 0x40 SWAP1 KECCAK256 PUSH1 0x9 ADD DUP1 SLOAD PUSH1 0xFF PUSH1 0xA0 SHL NOT AND PUSH1 0x1 PUSH1 0xA1 SHL OR SWAP1 SSTORE PUSH2 0x8D5 DUP4 PUSH2 0x112B JUMP JUMPDEST SWAP2 POP SWAP2 POP JUMPDEST SWAP2 POP SWAP2 JUMP JUMPDEST PUSH1 0x0 DUP1 PUSH1 0x1 PUSH1 0x0 DUP5 DUP2 MSTORE PUSH1 0x20 DUP2 SWAP1 MSTORE PUSH1 0x40 SWAP1 KECCAK256 PUSH1 0x9 ADD SLOAD PUSH1 0x1 PUSH1 0xA0 SHL SWAP1 DIV PUSH1 0xFF AND PUSH1 0x4 DUP2 GT ISZERO PUSH2 0x90B JUMPI INVALID JUMPDEST EQ PUSH2 0x928 JUMPI PUSH1 0x40 MLOAD PUSH3 0x461BCD PUSH1 0xE5 SHL DUP2 MSTORE PUSH1 0x4 ADD PUSH2 0x580 SWAP1 PUSH2 0x1749 JUMP JUMPDEST PUSH1 0x0 DUP4 DUP2 MSTORE PUSH1 0x20 DUP2 SWAP1 MSTORE PUSH1 0x40 SWAP1 KECCAK256 PUSH1 0x8 ADD SLOAD PUSH1 0x1 PUSH1 0x1 PUSH1 0xA0 SHL SUB AND CALLER EQ PUSH2 0x961 JUMPI PUSH1 0x40 MLOAD PUSH3 0x461BCD PUSH1 0xE5 SHL DUP2 MSTORE PUSH1 0x4 ADD PUSH2 0x580 SWAP1 PUSH2 0x1A66 JUMP JUMPDEST PUSH1 0x6 SLOAD PUSH1 0x0 DUP5 DUP2 MSTORE PUSH1 0x20 DUP2 SWAP1 MSTORE PUSH1 0x40 SWAP1 KECCAK256 PUSH1 0x4 ADD SLOAD ADD TIMESTAMP LT PUSH2 0x995 JUMPI PUSH1 0x40 MLOAD PUSH3 0x461BCD PUSH1 0xE5 SHL DUP2 MSTORE PUSH1 0x4 ADD PUSH2 0x580 SWAP1 PUSH2 0x1951 JUMP JUMPDEST POP POP PUSH1 0x0 SWAP1 DUP2 MSTORE PUSH1 0x20 DUP2 SWAP1 MSTORE PUSH1 0x40 DUP2 KECCAK256 PUSH1 0x9 DUP2 ADD DUP1 SLOAD PUSH1 0xFF PUSH1 0xA0 SHL NOT AND PUSH1 0x3 PUSH1 0xA0 SHL OR SWAP1 SSTORE PUSH1 0x8 ADD SLOAD SWAP1 SWAP2 PUSH1 0x1 PUSH1 0x1 PUSH1 0xA0 SHL SUB SWAP1 SWAP2 AND SWAP1 JUMP JUMPDEST PUSH1 0x0 DUP8 PUSH2 0x9ED JUMPI PUSH1 0x40 MLOAD PUSH3 0x461BCD PUSH1 0xE5 SHL DUP2 MSTORE PUSH1 0x4 ADD PUSH2 0x580 SWAP1 PUSH2 0x1A3D JUMP JUMPDEST DUP9 PUSH2 0xA0A JUMPI PUSH1 0x40 MLOAD PUSH3 0x461BCD PUSH1 0xE5 SHL DUP2 MSTORE PUSH1 0x4 ADD PUSH2 0x580 SWAP1 PUSH2 0x1928 JUMP JUMPDEST PUSH1 0x40 MLOAD PUSH4 0x31A9108F PUSH1 0xE1 SHL DUP2 MSTORE CALLER SWAP1 PUSH1 0x1 PUSH1 0x1 PUSH1 0xA0 SHL SUB DUP7 AND SWAP1 PUSH4 0x6352211E SWAP1 PUSH2 0xA38 SWAP1 DUP11 SWAP1 PUSH1 0x4 ADD PUSH2 0x1B78 JUMP JUMPDEST PUSH1 0x20 PUSH1 0x40 MLOAD DUP1 DUP4 SUB DUP2 DUP7 DUP1 EXTCODESIZE ISZERO DUP1 ISZERO PUSH2 0xA50 JUMPI PUSH1 0x0 DUP1 REVERT JUMPDEST POP GAS STATICCALL ISZERO DUP1 ISZERO PUSH2 0xA64 JUMPI RETURNDATASIZE PUSH1 0x0 DUP1 RETURNDATACOPY RETURNDATASIZE PUSH1 0x0 REVERT JUMPDEST POP POP POP POP PUSH1 0x40 MLOAD RETURNDATASIZE PUSH1 0x1F NOT PUSH1 0x1F DUP3 ADD AND DUP3 ADD DUP1 PUSH1 0x40 MSTORE POP DUP2 ADD SWAP1 PUSH2 0xA88 SWAP2 SWAP1 PUSH2 0x13DF JUMP JUMPDEST PUSH1 0x1 PUSH1 0x1 PUSH1 0xA0 SHL SUB AND EQ PUSH2 0xAAE JUMPI PUSH1 0x40 MLOAD PUSH3 0x461BCD PUSH1 0xE5 SHL DUP2 MSTORE PUSH1 0x4 ADD PUSH2 0x580 SWAP1 PUSH2 0x19D6 JUMP JUMPDEST PUSH1 0x1 PUSH1 0x0 DUP10 DUP2 MSTORE PUSH1 0x20 DUP2 SWAP1 MSTORE PUSH1 0x40 SWAP1 KECCAK256 PUSH1 0x9 ADD SLOAD PUSH1 0x1 PUSH1 0xA0 SHL SWAP1 DIV PUSH1 0xFF AND PUSH1 0x4 DUP2 GT ISZERO PUSH2 0xAD7 JUMPI INVALID JUMPDEST EQ ISZERO PUSH2 0xAF5 JUMPI PUSH1 0x40 MLOAD PUSH3 0x461BCD PUSH1 0xE5 SHL DUP2 MSTORE PUSH1 0x4 ADD PUSH2 0x580 SWAP1 PUSH2 0x1992 JUMP JUMPDEST PUSH2 0xAFD PUSH2 0x12A2 JUMP JUMPDEST DUP9 DUP2 MSTORE PUSH1 0x1 PUSH1 0x1 PUSH1 0xA0 SHL SUB DUP9 DUP2 AND PUSH1 0x20 DUP4 ADD MSTORE PUSH1 0x40 DUP1 DUP4 ADD DUP10 SWAP1 MSTORE PUSH1 0x5 DUP1 SLOAD PUSH1 0x60 DUP6 ADD DUP2 SWAP1 MSTORE PUSH1 0x1 SWAP1 DUP2 ADD SWAP1 SWAP2 SSTORE TIMESTAMP PUSH1 0x80 DUP6 ADD MSTORE PUSH1 0xA0 DUP5 ADD DUP10 SWAP1 MSTORE PUSH1 0xC0 DUP5 ADD DUP14 SWAP1 MSTORE DUP8 DUP4 AND PUSH1 0xE0 DUP6 ADD DUP2 SWAP1 MSTORE DUP8 DUP5 AND PUSH2 0x100 DUP7 ADD DUP2 SWAP1 MSTORE SWAP4 DUP8 AND PUSH2 0x120 DUP7 ADD MSTORE PUSH2 0x140 DUP6 ADD SWAP2 SWAP1 SWAP2 MSTORE PUSH2 0x160 DUP5 ADD DUP10 SWAP1 MSTORE PUSH2 0x180 DUP5 ADD SWAP3 SWAP1 SWAP3 MSTORE DUP1 MLOAD PUSH4 0x95D89B41 PUSH1 0xE0 SHL DUP2 MSTORE SWAP1 MLOAD PUSH4 0x95D89B41 SWAP2 PUSH1 0x4 DUP1 DUP3 ADD SWAP3 PUSH1 0x0 SWAP3 SWAP1 SWAP2 SWAP1 DUP3 SWAP1 SUB ADD DUP2 DUP7 DUP1 EXTCODESIZE ISZERO DUP1 ISZERO PUSH2 0xBAB JUMPI PUSH1 0x0 DUP1 REVERT JUMPDEST POP GAS STATICCALL ISZERO DUP1 ISZERO PUSH2 0xBBF JUMPI RETURNDATASIZE PUSH1 0x0 DUP1 RETURNDATACOPY RETURNDATASIZE PUSH1 0x0 REVERT JUMPDEST POP POP POP POP PUSH1 0x40 MLOAD RETURNDATASIZE PUSH1 0x0 DUP3 RETURNDATACOPY PUSH1 0x1F RETURNDATASIZE SWAP1 DUP2 ADD PUSH1 0x1F NOT AND DUP3 ADD PUSH1 0x40 MSTORE PUSH2 0xBE7 SWAP2 SWAP1 DUP2 ADD SWAP1 PUSH2 0x1402 JUMP JUMPDEST PUSH2 0x1A0 DUP3 ADD MSTORE DUP1 MLOAD PUSH1 0x0 SWAP1 DUP2 MSTORE PUSH1 0x20 DUP2 DUP2 MSTORE PUSH1 0x40 SWAP2 DUP3 SWAP1 KECCAK256 DUP4 MLOAD DUP2 SSTORE SWAP1 DUP4 ADD MLOAD PUSH1 0x1 DUP3 ADD DUP1 SLOAD PUSH1 0x1 PUSH1 0x1 PUSH1 0xA0 SHL SUB NOT SWAP1 DUP2 AND PUSH1 0x1 PUSH1 0x1 PUSH1 0xA0 SHL SUB SWAP4 DUP5 AND OR SWAP1 SWAP2 SSTORE SWAP3 DUP5 ADD MLOAD PUSH1 0x2 DUP4 ADD SSTORE PUSH1 0x60 DUP5 ADD MLOAD PUSH1 0x3 DUP4 ADD SSTORE PUSH1 0x80 DUP5 ADD MLOAD PUSH1 0x4 DUP1 DUP5 ADD SWAP2 SWAP1 SWAP2 SSTORE PUSH1 0xA0 DUP6 ADD MLOAD PUSH1 0x5 DUP5 ADD SSTORE PUSH1 0xC0 DUP6 ADD MLOAD PUSH1 0x6 DUP5 ADD SSTORE PUSH1 0xE0 DUP6 ADD MLOAD PUSH1 0x7 DUP5 ADD DUP1 SLOAD DUP7 AND SWAP2 DUP5 AND SWAP2 SWAP1 SWAP2 OR SWAP1 SSTORE PUSH2 0x100 DUP6 ADD MLOAD PUSH1 0x8 DUP5 ADD DUP1 SLOAD DUP7 AND SWAP2 DUP5 AND SWAP2 SWAP1 SWAP2 OR SWAP1 SSTORE PUSH2 0x120 DUP6 ADD MLOAD PUSH1 0x9 DUP5 ADD DUP1 SLOAD SWAP1 SWAP6 AND SWAP3 AND SWAP2 SWAP1 SWAP2 OR DUP1 DUP5 SSTORE PUSH2 0x140 DUP6 ADD MLOAD DUP6 SWAP5 SWAP1 SWAP3 SWAP1 SWAP2 PUSH1 0xFF PUSH1 0xA0 SHL NOT AND SWAP1 PUSH1 0x1 PUSH1 0xA0 SHL SWAP1 DUP5 SWAP1 DUP2 GT ISZERO PUSH2 0xCC7 JUMPI INVALID JUMPDEST MUL OR SWAP1 SSTORE POP PUSH2 0x160 DUP3 ADD MLOAD PUSH1 0xA DUP3 ADD SSTORE PUSH2 0x180 DUP3 ADD MLOAD PUSH1 0xB DUP3 ADD DUP1 SLOAD PUSH1 0x1 PUSH1 0x1 PUSH1 0xA0 SHL SUB NOT AND PUSH1 0x1 PUSH1 0x1 PUSH1 0xA0 SHL SUB SWAP1 SWAP3 AND SWAP2 SWAP1 SWAP2 OR SWAP1 SSTORE PUSH2 0x1A0 DUP3 ADD MLOAD DUP1 MLOAD PUSH2 0xD1A SWAP2 PUSH1 0xC DUP5 ADD SWAP2 PUSH1 0x20 SWAP1 SWAP2 ADD SWAP1 PUSH2 0x133E JUMP JUMPDEST POP POP POP PUSH1 0x0 SWAP9 DUP10 MSTORE PUSH1 0x4 PUSH1 0x20 SWAP1 DUP2 MSTORE PUSH1 0x40 DUP11 KECCAK256 PUSH1 0x60 SWAP3 SWAP1 SWAP3 ADD DUP1 MLOAD DUP4 SLOAD PUSH1 0x1 DUP2 ADD DUP6 SSTORE SWAP4 DUP13 MSTORE SWAP2 SWAP1 SWAP11 KECCAK256 SWAP1 SWAP2 ADD SSTORE POP POP SWAP5 MLOAD SWAP7 SWAP6 POP POP POP POP POP POP JUMP JUMPDEST PUSH1 0x0 SWAP1 DUP2 MSTORE PUSH1 0x2 PUSH1 0x20 SWAP1 DUP2 MSTORE PUSH1 0x40 DUP1 DUP4 KECCAK256 CALLER DUP5 MSTORE SWAP1 SWAP2 MSTORE SWAP1 KECCAK256 SLOAD SWAP1 JUMP JUMPDEST PUSH1 0x0 DUP1 PUSH1 0x1 PUSH1 0x0 DUP5 DUP2 MSTORE PUSH1 0x20 DUP2 SWAP1 MSTORE PUSH1 0x40 SWAP1 KECCAK256 PUSH1 0x9 ADD SLOAD PUSH1 0x1 PUSH1 0xA0 SHL SWAP1 DIV PUSH1 0xFF AND PUSH1 0x4 DUP2 GT ISZERO PUSH2 0xD9F JUMPI INVALID JUMPDEST EQ PUSH2 0xDBC JUMPI PUSH1 0x40 MLOAD PUSH3 0x461BCD PUSH1 0xE5 SHL DUP2 MSTORE PUSH1 0x4 ADD PUSH2 0x580 SWAP1 PUSH2 0x1A06 JUMP JUMPDEST PUSH1 0x0 DUP4 DUP2 MSTORE PUSH1 0x20 DUP2 SWAP1 MSTORE PUSH1 0x40 SWAP1 KECCAK256 PUSH1 0x8 ADD SLOAD PUSH1 0x1 PUSH1 0x1 PUSH1 0xA0 SHL SUB AND CALLER EQ PUSH2 0xDF5 JUMPI PUSH1 0x40 MLOAD PUSH3 0x461BCD PUSH1 0xE5 SHL DUP2 MSTORE PUSH1 0x4 ADD PUSH2 0x580 SWAP1 PUSH2 0x185E JUMP JUMPDEST PUSH1 0x6 SLOAD PUSH1 0x0 DUP5 DUP2 MSTORE PUSH1 0x20 DUP2 SWAP1 MSTORE PUSH1 0x40 SWAP1 KECCAK256 PUSH1 0x4 ADD SLOAD ADD TIMESTAMP GT ISZERO PUSH2 0xE46 JUMPI PUSH1 0x0 DUP4 DUP2 MSTORE PUSH1 0x20 DUP2 SWAP1 MSTORE PUSH1 0x40 SWAP1 KECCAK256 PUSH1 0x9 ADD DUP1 SLOAD PUSH1 0xFF PUSH1 0xA0 SHL NOT AND PUSH1 0x1 PUSH1 0xA2 SHL OR SWAP1 SSTORE PUSH2 0xE3D DUP4 PUSH2 0x112B JUMP JUMPDEST SWAP2 POP SWAP2 POP PUSH2 0x8DA JUMP JUMPDEST POP PUSH1 0x0 SWAP1 POP DUP1 SWAP2 POP SWAP2 JUMP JUMPDEST PUSH1 0x4 PUSH1 0x20 MSTORE DUP2 PUSH1 0x0 MSTORE PUSH1 0x40 PUSH1 0x0 KECCAK256 DUP2 DUP2 SLOAD DUP2 LT PUSH2 0xE6D JUMPI PUSH1 0x0 DUP1 REVERT JUMPDEST SWAP1 PUSH1 0x0 MSTORE PUSH1 0x20 PUSH1 0x0 KECCAK256 ADD PUSH1 0x0 SWAP2 POP SWAP2 POP POP SLOAD DUP2 JUMP JUMPDEST PUSH1 0x5 SLOAD DUP2 JUMP JUMPDEST PUSH1 0x0 DUP2 DUP2 MSTORE PUSH1 0x1 PUSH1 0x20 SWAP1 DUP2 MSTORE PUSH1 0x40 SWAP2 DUP3 SWAP1 KECCAK256 DUP1 SLOAD DUP4 MLOAD DUP2 DUP5 MUL DUP2 ADD DUP5 ADD SWAP1 SWAP5 MSTORE DUP1 DUP5 MSTORE PUSH1 0x60 SWAP4 SWAP3 DUP4 ADD DUP3 DUP3 DUP1 ISZERO PUSH2 0xEE8 JUMPI PUSH1 0x20 MUL DUP3 ADD SWAP2 SWAP1 PUSH1 0x0 MSTORE PUSH1 0x20 PUSH1 0x0 KECCAK256 SWAP1 JUMPDEST DUP2 SLOAD PUSH1 0x1 PUSH1 0x1 PUSH1 0xA0 SHL SUB AND DUP2 MSTORE PUSH1 0x1 SWAP1 SWAP2 ADD SWAP1 PUSH1 0x20 ADD DUP1 DUP4 GT PUSH2 0xECA JUMPI JUMPDEST POP POP POP POP POP SWAP1 POP SWAP2 SWAP1 POP JUMP JUMPDEST DUP3 PUSH2 0xF11 JUMPI PUSH1 0x40 MLOAD PUSH3 0x461BCD PUSH1 0xE5 SHL DUP2 MSTORE PUSH1 0x4 ADD PUSH2 0x580 SWAP1 PUSH2 0x17E9 JUMP JUMPDEST PUSH1 0x1 PUSH1 0x0 DUP5 DUP2 MSTORE PUSH1 0x20 DUP2 SWAP1 MSTORE PUSH1 0x40 SWAP1 KECCAK256 PUSH1 0x9 ADD SLOAD PUSH1 0x1 PUSH1 0xA0 SHL SWAP1 DIV PUSH1 0xFF AND PUSH1 0x4 DUP2 GT ISZERO PUSH2 0xF3A JUMPI INVALID JUMPDEST EQ PUSH2 0xF57 JUMPI PUSH1 0x40 MLOAD PUSH3 0x461BCD PUSH1 0xE5 SHL DUP2 MSTORE PUSH1 0x4 ADD PUSH2 0x580 SWAP1 PUSH2 0x1749 JUMP JUMPDEST PUSH1 0x0 DUP4 DUP2 MSTORE PUSH1 0x20 DUP2 SWAP1 MSTORE PUSH1 0x40 SWAP1 KECCAK256 PUSH1 0x8 ADD SLOAD PUSH1 0x1 PUSH1 0x1 PUSH1 0xA0 SHL SUB AND CALLER EQ PUSH2 0xF90 JUMPI PUSH1 0x40 MLOAD PUSH3 0x461BCD PUSH1 0xE5 SHL DUP2 MSTORE PUSH1 0x4 ADD PUSH2 0x580 SWAP1 PUSH2 0x18AA JUMP JUMPDEST PUSH1 0x0 DUP4 DUP2 MSTORE PUSH1 0x20 DUP2 SWAP1 MSTORE PUSH1 0x40 SWAP1 KECCAK256 PUSH1 0x3 ADD SLOAD DUP3 EQ PUSH2 0xFAD JUMPI PUSH1 0x0 DUP1 REVERT JUMPDEST PUSH1 0x0 JUMPDEST DUP2 MLOAD DUP2 LT ISZERO PUSH2 0x6D4 JUMPI PUSH1 0x0 DUP4 DUP2 MSTORE PUSH1 0x3 PUSH1 0x20 MSTORE PUSH1 0x40 DUP2 KECCAK256 DUP4 MLOAD PUSH1 0x1 SWAP3 SWAP1 DUP6 SWAP1 DUP6 SWAP1 DUP2 LT PUSH2 0xFD9 JUMPI INVALID JUMPDEST PUSH1 0x20 SWAP1 DUP2 MUL SWAP2 SWAP1 SWAP2 ADD DUP2 ADD MLOAD PUSH1 0x1 PUSH1 0x1 PUSH1 0xA0 SHL SUB AND DUP3 MSTORE DUP2 ADD SWAP2 SWAP1 SWAP2 MSTORE PUSH1 0x40 ADD PUSH1 0x0 KECCAK256 DUP1 SLOAD PUSH1 0xFF NOT AND SWAP2 ISZERO ISZERO SWAP2 SWAP1 SWAP2 OR SWAP1 SSTORE PUSH1 0x1 ADD PUSH2 0xFB0 JUMP JUMPDEST PUSH1 0x0 DUP2 DUP2 MSTORE PUSH1 0x4 PUSH1 0x20 SWAP1 DUP2 MSTORE PUSH1 0x40 SWAP2 DUP3 SWAP1 KECCAK256 DUP1 SLOAD DUP4 MLOAD DUP2 DUP5 MUL DUP2 ADD DUP5 ADD SWAP1 SWAP5 MSTORE DUP1 DUP5 MSTORE PUSH1 0x60 SWAP4 SWAP3 DUP4 ADD DUP3 DUP3 DUP1 ISZERO PUSH2 0xEE8 JUMPI PUSH1 0x20 MUL DUP3 ADD SWAP2 SWAP1 PUSH1 0x0 MSTORE PUSH1 0x20 PUSH1 0x0 KECCAK256 SWAP1 JUMPDEST DUP2 SLOAD DUP2 MSTORE PUSH1 0x20 ADD SWAP1 PUSH1 0x1 ADD SWAP1 DUP1 DUP4 GT PUSH2 0x1055 JUMPI POP POP POP POP POP SWAP1 POP SWAP2 SWAP1 POP JUMP JUMPDEST PUSH1 0x1 PUSH1 0x20 MSTORE DUP2 PUSH1 0x0 MSTORE PUSH1 0x40 PUSH1 0x0 KECCAK256 DUP2 DUP2 SLOAD DUP2 LT PUSH2 0x1090 JUMPI PUSH1 0x0 DUP1 REVERT JUMPDEST PUSH1 0x0 SWAP2 DUP3 MSTORE PUSH1 0x20 SWAP1 SWAP2 KECCAK256 ADD SLOAD PUSH1 0x1 PUSH1 0x1 PUSH1 0xA0 SHL SUB AND SWAP2 POP DUP3 SWAP1 POP JUMP JUMPDEST PUSH1 0x6 SLOAD DUP2 JUMP JUMPDEST PUSH1 0x0 DUP1 JUMPDEST PUSH1 0x0 DUP5 DUP2 MSTORE PUSH1 0x1 PUSH1 0x20 MSTORE PUSH1 0x40 SWAP1 KECCAK256 SLOAD DUP2 LT ISZERO PUSH2 0x111F JUMPI PUSH1 0x0 DUP5 DUP2 MSTORE PUSH1 0x1 PUSH1 0x20 MSTORE PUSH1 0x40 SWAP1 KECCAK256 DUP1 SLOAD PUSH1 0x1 PUSH1 0x1 PUSH1 0xA0 SHL SUB DUP6 AND SWAP2 SWAP1 DUP4 SWAP1 DUP2 LT PUSH2 0x10F2 JUMPI INVALID JUMPDEST PUSH1 0x0 SWAP2 DUP3 MSTORE PUSH1 0x20 SWAP1 SWAP2 KECCAK256 ADD SLOAD PUSH1 0x1 PUSH1 0x1 PUSH1 0xA0 SHL SUB AND EQ ISZERO PUSH2 0x1117 JUMPI PUSH1 0x1 SWAP2 POP POP PUSH2 0x1125 JUMP JUMPDEST PUSH1 0x1 ADD PUSH2 0x10B6 JUMP JUMPDEST POP PUSH1 0x0 SWAP1 POP JUMPDEST SWAP3 SWAP2 POP POP JUMP JUMPDEST PUSH1 0x0 DUP2 DUP2 MSTORE PUSH1 0x20 DUP2 SWAP1 MSTORE PUSH1 0x40 DUP2 KECCAK256 PUSH1 0x8 DUP2 ADD SLOAD PUSH1 0xB SWAP1 SWAP2 ADD SLOAD DUP3 SWAP2 PUSH1 0x1 PUSH1 0x1 PUSH1 0xA0 SHL SUB SWAP2 DUP3 AND SWAP2 AND EQ ISZERO PUSH2 0x117B JUMPI POP POP PUSH1 0x0 DUP2 DUP2 MSTORE PUSH1 0x20 DUP2 SWAP1 MSTORE PUSH1 0x40 DUP2 KECCAK256 PUSH1 0x8 ADD SLOAD PUSH1 0x1 PUSH1 0x1 PUSH1 0xA0 SHL SUB AND PUSH2 0x8DA JUMP JUMPDEST PUSH1 0x0 DUP4 DUP2 MSTORE PUSH1 0x20 DUP2 SWAP1 MSTORE PUSH1 0x40 SWAP1 DUP2 SWAP1 KECCAK256 PUSH1 0x7 DUP2 ADD SLOAD PUSH1 0x8 DUP3 ADD SLOAD PUSH1 0xB DUP4 ADD SLOAD PUSH1 0x2 SWAP1 SWAP4 ADD SLOAD SWAP4 MLOAD PUSH4 0x23B872DD PUSH1 0xE0 SHL DUP2 MSTORE PUSH1 0x1 PUSH1 0x1 PUSH1 0xA0 SHL SUB SWAP3 DUP4 AND SWAP5 PUSH4 0x23B872DD SWAP5 PUSH2 0x11D0 SWAP5 SWAP4 DUP5 AND SWAP4 AND SWAP2 PUSH1 0x4 ADD PUSH2 0x1695 JUMP JUMPDEST PUSH1 0x0 PUSH1 0x40 MLOAD DUP1 DUP4 SUB DUP2 PUSH1 0x0 DUP8 DUP1 EXTCODESIZE ISZERO DUP1 ISZERO PUSH2 0x11EA JUMPI PUSH1 0x0 DUP1 REVERT JUMPDEST POP GAS CALL ISZERO DUP1 ISZERO PUSH2 0x11FE JUMPI RETURNDATASIZE PUSH1 0x0 DUP1 RETURNDATACOPY RETURNDATASIZE PUSH1 0x0 REVERT JUMPDEST POP POP POP PUSH1 0x0 DUP5 DUP2 MSTORE PUSH1 0x20 DUP2 DUP2 MSTORE PUSH1 0x40 DUP1 DUP4 KECCAK256 PUSH1 0x3 DUP2 ADD SLOAD DUP5 MSTORE PUSH1 0x2 DUP4 MSTORE DUP2 DUP5 KECCAK256 PUSH1 0xB DUP3 ADD SLOAD PUSH1 0x1 PUSH1 0x1 PUSH1 0xA0 SHL SUB SWAP1 DUP2 AND DUP7 MSTORE SWAP1 DUP5 MSTORE DUP3 DUP6 KECCAK256 DUP6 SWAP1 SSTORE DUP9 DUP6 MSTORE SWAP3 DUP5 SWAP1 MSTORE PUSH1 0x8 DUP2 ADD SLOAD PUSH1 0xA SWAP1 SWAP2 ADD SLOAD SWAP2 MLOAD SWAP3 AND SWAP4 POP DUP1 ISZERO PUSH2 0x8FC MUL SWAP3 SWAP1 SWAP2 SWAP1 DUP2 DUP2 DUP2 DUP6 DUP9 DUP9 CALL SWAP4 POP POP POP POP ISZERO DUP1 ISZERO PUSH2 0x1278 JUMPI RETURNDATASIZE PUSH1 0x0 DUP1 RETURNDATACOPY RETURNDATASIZE PUSH1 0x0 REVERT JUMPDEST POP POP POP PUSH1 0x0 DUP2 DUP2 MSTORE PUSH1 0x20 DUP2 SWAP1 MSTORE PUSH1 0x40 SWAP1 KECCAK256 PUSH1 0xA DUP2 ADD SLOAD PUSH1 0xB SWAP1 SWAP2 ADD SLOAD PUSH1 0x1 PUSH1 0x1 PUSH1 0xA0 SHL SUB AND PUSH2 0x8DA JUMP JUMPDEST PUSH1 0x40 MLOAD DUP1 PUSH2 0x1C0 ADD PUSH1 0x40 MSTORE DUP1 PUSH1 0x0 DUP2 MSTORE PUSH1 0x20 ADD PUSH1 0x0 PUSH1 0x1 PUSH1 0x1 PUSH1 0xA0 SHL SUB AND DUP2 MSTORE PUSH1 0x20 ADD PUSH1 0x0 DUP2 MSTORE PUSH1 0x20 ADD PUSH1 0x0 DUP2 MSTORE PUSH1 0x20 ADD PUSH1 0x0 DUP2 MSTORE PUSH1 0x20 ADD PUSH1 0x0 DUP2 MSTORE PUSH1 0x20 ADD PUSH1 0x0 DUP2 MSTORE PUSH1 0x20 ADD PUSH1 0x0 PUSH1 0x1 PUSH1 0x1 PUSH1 0xA0 SHL SUB AND DUP2 MSTORE PUSH1 0x20 ADD PUSH1 0x0 PUSH1 0x1 PUSH1 0x1 PUSH1 0xA0 SHL SUB AND DUP2 MSTORE PUSH1 0x20 ADD PUSH1 0x0 PUSH1 0x1 PUSH1 0x1 PUSH1 0xA0 SHL SUB AND DUP2 MSTORE PUSH1 0x20 ADD PUSH1 0x0 PUSH1 0x4 DUP2 GT ISZERO PUSH2 0x1325 JUMPI INVALID JUMPDEST DUP2 MSTORE PUSH1 0x0 PUSH1 0x20 DUP3 ADD DUP2 SWAP1 MSTORE PUSH1 0x40 DUP3 ADD MSTORE PUSH1 0x60 SWAP1 DUP2 ADD MSTORE SWAP1 JUMP JUMPDEST DUP3 DUP1 SLOAD PUSH1 0x1 DUP2 PUSH1 0x1 AND ISZERO PUSH2 0x100 MUL SUB AND PUSH1 0x2 SWAP1 DIV SWAP1 PUSH1 0x0 MSTORE PUSH1 0x20 PUSH1 0x0 KECCAK256 SWAP1 PUSH1 0x1F ADD PUSH1 0x20 SWAP1 DIV DUP2 ADD SWAP3 DUP3 PUSH2 0x1374 JUMPI PUSH1 0x0 DUP6 SSTORE PUSH2 0x13BA JUMP JUMPDEST DUP3 PUSH1 0x1F LT PUSH2 0x138D JUMPI DUP1 MLOAD PUSH1 0xFF NOT AND DUP4 DUP1 ADD OR DUP6 SSTORE PUSH2 0x13BA JUMP JUMPDEST DUP3 DUP1 ADD PUSH1 0x1 ADD DUP6 SSTORE DUP3 ISZERO PUSH2 0x13BA JUMPI SWAP2 DUP3 ADD JUMPDEST DUP3 DUP2 GT ISZERO PUSH2 0x13BA JUMPI DUP3 MLOAD DUP3 SSTORE SWAP2 PUSH1 0x20 ADD SWAP2 SWAP1 PUSH1 0x1 ADD SWAP1 PUSH2 0x139F JUMP JUMPDEST POP PUSH2 0x13C6 SWAP3 SWAP2 POP PUSH2 0x13CA JUMP JUMPDEST POP SWAP1 JUMP JUMPDEST JUMPDEST DUP1 DUP3 GT ISZERO PUSH2 0x13C6 JUMPI PUSH1 0x0 DUP2 SSTORE PUSH1 0x1 ADD PUSH2 0x13CB JUMP JUMPDEST PUSH1 0x0 PUSH1 0x20 DUP3 DUP5 SUB SLT ISZERO PUSH2 0x13F0 JUMPI DUP1 DUP2 REVERT JUMPDEST DUP2 MLOAD PUSH2 0x13FB DUP2 PUSH2 0x1C92 JUMP JUMPDEST SWAP4 SWAP3 POP POP POP JUMP JUMPDEST PUSH1 0x0 PUSH1 0x20 DUP3 DUP5 SUB SLT ISZERO PUSH2 0x1413 JUMPI DUP1 DUP2 REVERT JUMPDEST DUP2 MLOAD PUSH8 0xFFFFFFFFFFFFFFFF DUP1 DUP3 GT ISZERO PUSH2 0x142A JUMPI DUP3 DUP4 REVERT JUMPDEST DUP2 DUP5 ADD SWAP2 POP DUP5 PUSH1 0x1F DUP4 ADD SLT PUSH2 0x143D JUMPI DUP3 DUP4 REVERT JUMPDEST DUP2 MLOAD DUP2 DUP2 GT ISZERO PUSH2 0x1449 JUMPI INVALID JUMPDEST PUSH2 0x145C PUSH1 0x1F DUP3 ADD PUSH1 0x1F NOT AND PUSH1 0x20 ADD PUSH2 0x1C42 JUMP JUMPDEST SWAP2 POP DUP1 DUP3 MSTORE DUP6 PUSH1 0x20 DUP3 DUP6 ADD ADD GT ISZERO PUSH2 0x1472 JUMPI DUP4 DUP5 REVERT JUMPDEST PUSH2 0x1483 DUP2 PUSH1 0x20 DUP5 ADD PUSH1 0x20 DUP7 ADD PUSH2 0x1C66 JUMP JUMPDEST POP SWAP5 SWAP4 POP POP POP POP JUMP JUMPDEST PUSH1 0x0 PUSH1 0x20 DUP3 DUP5 SUB SLT ISZERO PUSH2 0x149D JUMPI DUP1 DUP2 REVERT JUMPDEST POP CALLDATALOAD SWAP2 SWAP1 POP JUMP JUMPDEST PUSH1 0x0 DUP1 PUSH1 0x40 DUP4 DUP6 SUB SLT ISZERO PUSH2 0x14B6 JUMPI DUP1 DUP2 REVERT JUMPDEST DUP3 CALLDATALOAD SWAP2 POP PUSH1 0x20 DUP4 ADD CALLDATALOAD PUSH2 0x14C8 DUP2 PUSH2 0x1C92 JUMP JUMPDEST DUP1 SWAP2 POP POP SWAP3 POP SWAP3 SWAP1 POP JUMP JUMPDEST PUSH1 0x0 DUP1 PUSH1 0x40 DUP4 DUP6 SUB SLT ISZERO PUSH2 0x14E5 JUMPI DUP2 DUP3 REVERT JUMPDEST POP POP DUP1 CALLDATALOAD SWAP3 PUSH1 0x20 SWAP1 SWAP2 ADD CALLDATALOAD SWAP2 POP JUMP JUMPDEST PUSH1 0x0 DUP1 PUSH1 0x0 DUP1 PUSH1 0x0 DUP1 PUSH1 0x0 DUP1 PUSH2 0x100 DUP10 DUP12 SUB SLT ISZERO PUSH2 0x1510 JUMPI DUP4 DUP5 REVERT JUMPDEST DUP9 CALLDATALOAD SWAP8 POP PUSH1 0x20 DUP10 ADD CALLDATALOAD SWAP7 POP PUSH1 0x40 DUP10 ADD CALLDATALOAD PUSH2 0x1529 DUP2 PUSH2 0x1C92 JUMP JUMPDEST SWAP6 POP PUSH1 0x60 DUP10 ADD CALLDATALOAD SWAP5 POP PUSH1 0x80 DUP10 ADD CALLDATALOAD SWAP4 POP PUSH1 0xA0 DUP10 ADD CALLDATALOAD PUSH2 0x1547 DUP2 PUSH2 0x1C92 JUMP JUMPDEST SWAP3 POP PUSH1 0xC0 DUP10 ADD CALLDATALOAD PUSH2 0x1557 DUP2 PUSH2 0x1C92 JUMP JUMPDEST SWAP2 POP PUSH1 0xE0 DUP10 ADD CALLDATALOAD PUSH2 0x1567 DUP2 PUSH2 0x1C92 JUMP JUMPDEST DUP1 SWAP2 POP POP SWAP3 SWAP6 SWAP9 POP SWAP3 SWAP6 SWAP9 SWAP1 SWAP4 SWAP7 POP JUMP JUMPDEST PUSH1 0x0 DUP1 PUSH1 0x0 PUSH1 0x60 DUP5 DUP7 SUB SLT ISZERO PUSH2 0x158C JUMPI DUP3 DUP4 REVERT JUMPDEST DUP4 CALLDATALOAD SWAP3 POP PUSH1 0x20 DUP1 DUP6 ADD CALLDATALOAD SWAP3 POP PUSH1 0x40 DUP6 ADD CALLDATALOAD PUSH8 0xFFFFFFFFFFFFFFFF DUP1 DUP3 GT ISZERO PUSH2 0x15B2 JUMPI DUP4 DUP5 REVERT JUMPDEST DUP2 DUP8 ADD SWAP2 POP DUP8 PUSH1 0x1F DUP4 ADD SLT PUSH2 0x15C5 JUMPI DUP4 DUP5 REVERT JUMPDEST DUP2 CALLDATALOAD DUP2 DUP2 GT ISZERO PUSH2 0x15D1 JUMPI INVALID JUMPDEST DUP4 DUP2 MUL SWAP2 POP PUSH2 0x15E1 DUP5 DUP4 ADD PUSH2 0x1C42 JUMP JUMPDEST DUP2 DUP2 MSTORE DUP5 DUP2 ADD SWAP1 DUP5 DUP7 ADD DUP5 DUP7 ADD DUP8 ADD DUP13 LT ISZERO PUSH2 0x15FB JUMPI DUP8 DUP9 REVERT JUMPDEST DUP8 SWAP6 POP JUMPDEST DUP4 DUP7 LT ISZERO PUSH2 0x1629 JUMPI DUP1 CALLDATALOAD SWAP5 POP PUSH2 0x1614 DUP6 PUSH2 0x1C92 JUMP JUMPDEST DUP5 DUP4 MSTORE PUSH1 0x1 SWAP6 SWAP1 SWAP6 ADD SWAP5 SWAP2 DUP7 ADD SWAP2 DUP7 ADD PUSH2 0x15FF JUMP JUMPDEST POP DUP1 SWAP7 POP POP POP POP POP POP POP SWAP3 POP SWAP3 POP SWAP3 JUMP JUMPDEST PUSH1 0x1 PUSH1 0x1 PUSH1 0xA0 SHL SUB AND SWAP1 MSTORE JUMP JUMPDEST PUSH1 0x5 DUP2 LT PUSH2 0x1651 JUMPI INVALID JUMPDEST SWAP1 MSTORE JUMP JUMPDEST PUSH1 0x0 DUP2 MLOAD DUP1 DUP5 MSTORE PUSH2 0x166D DUP2 PUSH1 0x20 DUP7 ADD PUSH1 0x20 DUP7 ADD PUSH2 0x1C66 JUMP JUMPDEST PUSH1 0x1F ADD PUSH1 0x1F NOT AND SWAP3 SWAP1 SWAP3 ADD PUSH1 0x20 ADD SWAP3 SWAP2 POP POP JUMP JUMPDEST PUSH1 0x1 PUSH1 0x1 PUSH1 0xA0 SHL SUB SWAP2 SWAP1 SWAP2 AND DUP2 MSTORE PUSH1 0x20 ADD SWAP1 JUMP JUMPDEST PUSH1 0x1 PUSH1 0x1 PUSH1 0xA0 SHL SUB SWAP4 DUP5 AND DUP2 MSTORE SWAP2 SWAP1 SWAP3 AND PUSH1 0x20 DUP3 ADD MSTORE PUSH1 0x40 DUP2 ADD SWAP2 SWAP1 SWAP2 MSTORE PUSH1 0x60 ADD SWAP1 JUMP JUMPDEST PUSH1 0x20 DUP1 DUP3 MSTORE DUP3 MLOAD DUP3 DUP3 ADD DUP2 SWAP1 MSTORE PUSH1 0x0 SWAP2 SWAP1 DUP5 DUP3 ADD SWAP1 PUSH1 0x40 DUP6 ADD SWAP1 DUP5 JUMPDEST DUP2 DUP2 LT ISZERO PUSH2 0x16FA JUMPI DUP4 MLOAD PUSH1 0x1 PUSH1 0x1 PUSH1 0xA0 SHL SUB AND DUP4 MSTORE SWAP3 DUP5 ADD SWAP3 SWAP2 DUP5 ADD SWAP2 PUSH1 0x1 ADD PUSH2 0x16D5 JUMP JUMPDEST POP SWAP1 SWAP7 SWAP6 POP POP POP POP POP POP JUMP JUMPDEST PUSH1 0x20 DUP1 DUP3 MSTORE DUP3 MLOAD DUP3 DUP3 ADD DUP2 SWAP1 MSTORE PUSH1 0x0 SWAP2 SWAP1 DUP5 DUP3 ADD SWAP1 PUSH1 0x40 DUP6 ADD SWAP1 DUP5 JUMPDEST DUP2 DUP2 LT ISZERO PUSH2 0x16FA JUMPI DUP4 MLOAD DUP4 MSTORE SWAP3 DUP5 ADD SWAP3 SWAP2 DUP5 ADD SWAP2 PUSH1 0x1 ADD PUSH2 0x1722 JUMP JUMPDEST SWAP1 ISZERO ISZERO DUP2 MSTORE PUSH1 0x20 ADD SWAP1 JUMP JUMPDEST PUSH1 0x20 DUP1 DUP3 MSTORE PUSH1 0x16 SWAP1 DUP3 ADD MSTORE PUSH22 0x41756374696F6E206973206E6F742072756E6E696E67 PUSH1 0x50 SHL PUSH1 0x40 DUP3 ADD MSTORE PUSH1 0x60 ADD SWAP1 JUMP JUMPDEST PUSH1 0x20 DUP1 DUP3 MSTORE PUSH1 0x23 SWAP1 DUP3 ADD MSTORE PUSH32 0x41756374696F6E2068617320656E64656420212043616E6E6F742066696E616C PUSH1 0x40 DUP3 ADD MSTORE PUSH3 0x697A65 PUSH1 0xE8 SHL PUSH1 0x60 DUP3 ADD MSTORE PUSH1 0x80 ADD SWAP1 JUMP JUMPDEST PUSH1 0x20 DUP1 DUP3 MSTORE PUSH1 0x13 SWAP1 DUP3 ADD MSTORE PUSH19 0x1E5BDD48185C9948189B1858DADB1A5CDD1959 PUSH1 0x6A SHL PUSH1 0x40 DUP3 ADD MSTORE PUSH1 0x60 ADD SWAP1 JUMP JUMPDEST PUSH1 0x20 DUP1 DUP3 MSTORE PUSH1 0xF SWAP1 DUP3 ADD MSTORE PUSH15 0x131BD85B881259081A5B9D985B1A59 PUSH1 0x8A SHL PUSH1 0x40 DUP3 ADD MSTORE PUSH1 0x60 ADD SWAP1 JUMP JUMPDEST PUSH1 0x20 DUP1 DUP3 MSTORE PUSH1 0x2C SWAP1 DUP3 ADD MSTORE PUSH32 0x546F74616C20636C61696D61626C652062616C616E63652073686F756C642062 PUSH1 0x40 DUP3 ADD MSTORE PUSH12 0x32901F1E90189032BA3432B9 PUSH1 0xA1 SHL PUSH1 0x60 DUP3 ADD MSTORE PUSH1 0x80 ADD SWAP1 JUMP JUMPDEST PUSH1 0x20 DUP1 DUP3 MSTORE PUSH1 0x2C SWAP1 DUP3 ADD MSTORE PUSH32 0x4F6E6C7920636F6E74726163742063616E20636865636B206966206175637469 PUSH1 0x40 DUP3 ADD MSTORE PUSH12 0x1BDB881A185CC8195B991959 PUSH1 0xA2 SHL PUSH1 0x60 DUP3 ADD MSTORE PUSH1 0x80 ADD SWAP1 JUMP JUMPDEST PUSH1 0x20 DUP1 DUP3 MSTORE PUSH1 0x16 SWAP1 DUP3 ADD MSTORE PUSH22 0x10DBDB9D1C9858DD0818D85B88189B1858DADB1A5CDD PUSH1 0x52 SHL PUSH1 0x40 DUP3 ADD MSTORE PUSH1 0x60 ADD SWAP1 JUMP JUMPDEST PUSH1 0x20 DUP1 DUP3 MSTORE PUSH1 0x2E SWAP1 DUP3 ADD MSTORE PUSH32 0x6269642073686F756C642062652067726561746572207468616E206869676865 PUSH1 0x40 DUP3 ADD MSTORE PUSH14 0x1CDD08189A5B991A5B99C8189A59 PUSH1 0x92 SHL PUSH1 0x60 DUP3 ADD MSTORE PUSH1 0x80 ADD SWAP1 JUMP JUMPDEST PUSH1 0x20 DUP1 DUP3 MSTORE PUSH1 0xF SWAP1 DUP3 ADD MSTORE PUSH15 0x125B9D985B1A590818985B9AC81259 PUSH1 0x8A SHL PUSH1 0x40 DUP3 ADD MSTORE PUSH1 0x60 ADD SWAP1 JUMP JUMPDEST PUSH1 0x20 DUP1 DUP3 MSTORE PUSH1 0x21 SWAP1 DUP3 ADD MSTORE PUSH32 0x41756374696F6E2068617320656E64656420212043616E6E6F742063616E6365 PUSH1 0x40 DUP3 ADD MSTORE PUSH1 0x1B PUSH1 0xFA SHL PUSH1 0x60 DUP3 ADD MSTORE PUSH1 0x80 ADD SWAP1 JUMP JUMPDEST PUSH1 0x20 DUP1 DUP3 MSTORE PUSH1 0x24 SWAP1 DUP3 ADD MSTORE PUSH32 0x416C726561647920616E2061756374696F6E20697320696E2070726F67726573 PUSH1 0x40 DUP3 ADD MSTORE PUSH4 0x73202121 PUSH1 0xE0 SHL PUSH1 0x60 DUP3 ADD MSTORE PUSH1 0x80 ADD SWAP1 JUMP JUMPDEST PUSH1 0x20 DUP1 DUP3 MSTORE PUSH1 0x16 SWAP1 DUP3 ADD MSTORE PUSH22 0x165BDD48191BC81B9BDD081BDDDB881D1A1948139195 PUSH1 0x52 SHL PUSH1 0x40 DUP3 ADD MSTORE PUSH1 0x60 ADD SWAP1 JUMP JUMPDEST PUSH1 0x20 DUP1 DUP3 MSTORE PUSH1 0x1A SWAP1 DUP3 ADD MSTORE PUSH32 0x41756374696F6E20697320696E206F7468657220737461746573000000000000 PUSH1 0x40 DUP3 ADD MSTORE PUSH1 0x60 ADD SWAP1 JUMP JUMPDEST PUSH1 0x20 DUP1 DUP3 MSTORE PUSH1 0xF SWAP1 DUP3 ADD MSTORE PUSH15 0x125B9D985B1A59081B1BD85B881259 PUSH1 0x8A SHL PUSH1 0x40 DUP3 ADD MSTORE PUSH1 0x60 ADD SWAP1 JUMP JUMPDEST PUSH1 0x20 DUP1 DUP3 MSTORE PUSH1 0x24 SWAP1 DUP3 ADD MSTORE PUSH32 0x4F6E6C7920636F6E74726163742063616E2063616E63656C2074686520617563 PUSH1 0x40 DUP3 ADD MSTORE PUSH4 0x3A34B7B7 PUSH1 0xE1 SHL PUSH1 0x60 DUP3 ADD MSTORE PUSH1 0x80 ADD SWAP1 JUMP JUMPDEST PUSH1 0x20 DUP1 DUP3 MSTORE PUSH1 0x31 SWAP1 DUP3 ADD MSTORE PUSH32 0x41756374696F6E20656E6465642C20706C6561736520707265737320656E6420 PUSH1 0x40 DUP3 ADD MSTORE PUSH17 0x61756374696F6E20627574746F6E202121 PUSH1 0x78 SHL PUSH1 0x60 DUP3 ADD MSTORE PUSH1 0x80 ADD SWAP1 JUMP JUMPDEST PUSH1 0x20 DUP1 DUP3 MSTORE PUSH1 0x1C SWAP1 DUP3 ADD MSTORE PUSH32 0x41756374696F6E205374617465206973206E6F742072756E6E696E6700000000 PUSH1 0x40 DUP3 ADD MSTORE PUSH1 0x60 ADD SWAP1 JUMP JUMPDEST PUSH1 0x20 DUP1 DUP3 MSTORE PUSH1 0x26 SWAP1 DUP3 ADD MSTORE PUSH32 0x4F6E6C7920636F6E74726163742063616E2066696E616C697A65207468652061 PUSH1 0x40 DUP3 ADD MSTORE PUSH6 0x3AB1BA34B7B7 PUSH1 0xD1 SHL PUSH1 0x60 DUP3 ADD MSTORE PUSH1 0x80 ADD SWAP1 JUMP JUMPDEST SWAP1 DUP2 MSTORE PUSH1 0x20 ADD SWAP1 JUMP JUMPDEST SWAP2 DUP3 MSTORE PUSH1 0x1 PUSH1 0x1 PUSH1 0xA0 SHL SUB AND PUSH1 0x20 DUP3 ADD MSTORE PUSH1 0x40 ADD SWAP1 JUMP JUMPDEST DUP15 DUP2 MSTORE PUSH1 0x1 PUSH1 0x1 PUSH1 0xA0 SHL SUB DUP15 DUP2 AND PUSH1 0x20 DUP4 ADD MSTORE PUSH1 0x40 DUP3 ADD DUP15 SWAP1 MSTORE PUSH1 0x60 DUP3 ADD DUP14 SWAP1 MSTORE PUSH1 0x80 DUP3 ADD DUP13 SWAP1 MSTORE PUSH1 0xA0 DUP3 ADD DUP12 SWAP1 MSTORE PUSH1 0xC0 DUP3 ADD DUP11 SWAP1 MSTORE DUP9 AND PUSH1 0xE0 DUP3 ADD MSTORE PUSH1 0x0 PUSH2 0x1BE5 PUSH2 0x100 DUP4 ADD DUP10 PUSH2 0x163A JUMP JUMPDEST PUSH2 0x1BF3 PUSH2 0x120 DUP4 ADD DUP9 PUSH2 0x163A JUMP JUMPDEST PUSH2 0x1C01 PUSH2 0x140 DUP4 ADD DUP8 PUSH2 0x1647 JUMP JUMPDEST DUP5 PUSH2 0x160 DUP4 ADD MSTORE PUSH2 0x1C16 PUSH2 0x180 DUP4 ADD DUP6 PUSH2 0x163A JUMP JUMPDEST PUSH2 0x1C0 PUSH2 0x1A0 DUP4 ADD MSTORE PUSH2 0x1C2D PUSH2 0x1C0 DUP4 ADD DUP5 PUSH2 0x1655 JUMP JUMPDEST SWAP1 POP SWAP16 SWAP15 POP POP POP POP POP POP POP POP POP POP POP POP POP POP POP JUMP JUMPDEST PUSH1 0x40 MLOAD DUP2 DUP2 ADD PUSH8 0xFFFFFFFFFFFFFFFF DUP2 GT DUP3 DUP3 LT OR ISZERO PUSH2 0x1C5E JUMPI INVALID JUMPDEST PUSH1 0x40 MSTORE SWAP2 SWAP1 POP JUMP JUMPDEST PUSH1 0x0 JUMPDEST DUP4 DUP2 LT ISZERO PUSH2 0x1C81 JUMPI DUP2 DUP2 ADD MLOAD DUP4 DUP3 ADD MSTORE PUSH1 0x20 ADD PUSH2 0x1C69 JUMP JUMPDEST DUP4 DUP2 GT ISZERO PUSH2 0x6D4 JUMPI POP POP PUSH1 0x0 SWAP2 ADD MSTORE JUMP JUMPDEST PUSH1 0x1 PUSH1 0x1 PUSH1 0xA0 SHL SUB DUP2 AND DUP2 EQ PUSH2 0x1CA7 JUMPI PUSH1 0x0 DUP1 REVERT JUMPDEST POP JUMP INVALID LOG2 PUSH5 0x6970667358 0x22 SLT KECCAK256 RETURNDATACOPY DUP9 0xA7 0xDC SELFDESTRUCT 0xBF 0xB8 0x26 0xF CALLCODE SDIV 0xE9 0xC1 PUSH28 0x5F0D04BCDF79BC2330D89D3EFB6D4F9B041B64736F6C634300070600 CALLER "
				},
				"gasEstimates": {
					"creation": {
						"codeDepositCost": "1478400",
						"executionCost": "61559",
						"totalCost": "1539959"
					},
					"external": {
						"auction(uint256)": "infinite",
						"auctionCounter()": "1117",
						"bidderList(uint256,uint256)": "2217",
						"bidsForAuction(uint256,address)": "1395",
						"blackListUsersFromAuction(uint256,uint256,address[])": "infinite",
						"blackListed(uint256,address)": "1385",
						"cancelAuctionBeforeTime(uint256)": "25752",
						"checkIfAuctionHasExpired(uint256)": "infinite",
						"daysAfterWhichAuctionShouldEnd()": "1138",
						"finalizeAuctionBeforeTime(uint256)": "infinite",
						"getAllAuctionIdsForLoanId(uint256)": "infinite",
						"getAllBiddersList(uint256)": "infinite",
						"getUsersBidValueForAuctionId(uint256)": "1265",
						"loanIdToAllAuctionIdMappings(uint256,uint256)": "2153",
						"minimumAmountToPlaceABid()": "1118",
						"placeBidForAuction(uint256)": "infinite",
						"startAuction(uint256,uint256,address,uint256,uint256,address,address,address)": "infinite",
						"withdrawMoney(uint256)": "infinite"
					},
					"internal": {
						"bidderAlreadyExistsInBiddersList(uint256,address)": "infinite",
						"takeAuctionDecision(uint256)": "infinite"
					}
				},
				"methodIdentifiers": {
					"auction(uint256)": "1200617f",
					"auctionCounter()": "a7e76644",
					"bidderList(uint256,uint256)": "eee94cf3",
					"bidsForAuction(uint256,address)": "0ba52d1a",
					"blackListUsersFromAuction(uint256,uint256,address[])": "ce3845e2",
					"blackListed(uint256,address)": "033be211",
					"cancelAuctionBeforeTime(uint256)": "6cdcb78d",
					"checkIfAuctionHasExpired(uint256)": "9f08dd26",
					"daysAfterWhichAuctionShouldEnd()": "f998a1dd",
					"finalizeAuctionBeforeTime(uint256)": "5b1568e2",
					"getAllAuctionIdsForLoanId(uint256)": "de1ba2b5",
					"getAllBiddersList(uint256)": "ba56e3d8",
					"getUsersBidValueForAuctionId(uint256)": "8ad3be4e",
					"loanIdToAllAuctionIdMappings(uint256,uint256)": "9f302aad",
					"minimumAmountToPlaceABid()": "271fef4a",
					"placeBidForAuction(uint256)": "3dbc78b9",
					"startAuction(uint256,uint256,address,uint256,uint256,address,address,address)": "8962db6a",
					"withdrawMoney(uint256)": "54876921"
				}
			},
			"storageLayout": {
				"storage": [
					{
						"astId": 43,
						"contract": "contracts/Auction.sol:Auction",
						"label": "auction",
						"offset": 0,
						"slot": "0",
						"type": "t_mapping(t_uint256,t_struct(AuctionItem)39_storage)"
					},
					{
						"astId": 48,
						"contract": "contracts/Auction.sol:Auction",
						"label": "bidderList",
						"offset": 0,
						"slot": "1",
						"type": "t_mapping(t_uint256,t_array(t_address)dyn_storage)"
					},
					{
						"astId": 54,
						"contract": "contracts/Auction.sol:Auction",
						"label": "bidsForAuction",
						"offset": 0,
						"slot": "2",
						"type": "t_mapping(t_uint256,t_mapping(t_address,t_uint256))"
					},
					{
						"astId": 60,
						"contract": "contracts/Auction.sol:Auction",
						"label": "blackListed",
						"offset": 0,
						"slot": "3",
						"type": "t_mapping(t_uint256,t_mapping(t_address,t_bool))"
					},
					{
						"astId": 65,
						"contract": "contracts/Auction.sol:Auction",
						"label": "loanIdToAllAuctionIdMappings",
						"offset": 0,
						"slot": "4",
						"type": "t_mapping(t_uint256,t_array(t_uint256)dyn_storage)"
					},
					{
						"astId": 68,
						"contract": "contracts/Auction.sol:Auction",
						"label": "auctionCounter",
						"offset": 0,
						"slot": "5",
						"type": "t_uint256"
					},
					{
						"astId": 71,
						"contract": "contracts/Auction.sol:Auction",
						"label": "daysAfterWhichAuctionShouldEnd",
						"offset": 0,
						"slot": "6",
						"type": "t_uint256"
					},
					{
						"astId": 74,
						"contract": "contracts/Auction.sol:Auction",
						"label": "minimumAmountToPlaceABid",
						"offset": 0,
						"slot": "7",
						"type": "t_uint256"
					}
				],
				"types": {
					"t_address": {
						"encoding": "inplace",
						"label": "address",
						"numberOfBytes": "20"
					},
					"t_address_payable": {
						"encoding": "inplace",
						"label": "address payable",
						"numberOfBytes": "20"
					},
					"t_array(t_address)dyn_storage": {
						"base": "t_address",
						"encoding": "dynamic_array",
						"label": "address[]",
						"numberOfBytes": "32"
					},
					"t_array(t_uint256)dyn_storage": {
						"base": "t_uint256",
						"encoding": "dynamic_array",
						"label": "uint256[]",
						"numberOfBytes": "32"
					},
					"t_bool": {
						"encoding": "inplace",
						"label": "bool",
						"numberOfBytes": "1"
					},
					"t_enum(AuctionState)10": {
						"encoding": "inplace",
						"label": "enum Auction.AuctionState",
						"numberOfBytes": "1"
					},
					"t_mapping(t_address,t_bool)": {
						"encoding": "mapping",
						"key": "t_address",
						"label": "mapping(address => bool)",
						"numberOfBytes": "32",
						"value": "t_bool"
					},
					"t_mapping(t_address,t_uint256)": {
						"encoding": "mapping",
						"key": "t_address",
						"label": "mapping(address => uint256)",
						"numberOfBytes": "32",
						"value": "t_uint256"
					},
					"t_mapping(t_uint256,t_array(t_address)dyn_storage)": {
						"encoding": "mapping",
						"key": "t_uint256",
						"label": "mapping(uint256 => address[])",
						"numberOfBytes": "32",
						"value": "t_array(t_address)dyn_storage"
					},
					"t_mapping(t_uint256,t_array(t_uint256)dyn_storage)": {
						"encoding": "mapping",
						"key": "t_uint256",
						"label": "mapping(uint256 => uint256[])",
						"numberOfBytes": "32",
						"value": "t_array(t_uint256)dyn_storage"
					},
					"t_mapping(t_uint256,t_mapping(t_address,t_bool))": {
						"encoding": "mapping",
						"key": "t_uint256",
						"label": "mapping(uint256 => mapping(address => bool))",
						"numberOfBytes": "32",
						"value": "t_mapping(t_address,t_bool)"
					},
					"t_mapping(t_uint256,t_mapping(t_address,t_uint256))": {
						"encoding": "mapping",
						"key": "t_uint256",
						"label": "mapping(uint256 => mapping(address => uint256))",
						"numberOfBytes": "32",
						"value": "t_mapping(t_address,t_uint256)"
					},
					"t_mapping(t_uint256,t_struct(AuctionItem)39_storage)": {
						"encoding": "mapping",
						"key": "t_uint256",
						"label": "mapping(uint256 => struct Auction.AuctionItem)",
						"numberOfBytes": "32",
						"value": "t_struct(AuctionItem)39_storage"
					},
					"t_string_storage": {
						"encoding": "bytes",
						"label": "string",
						"numberOfBytes": "32"
					},
					"t_struct(AuctionItem)39_storage": {
						"encoding": "inplace",
						"label": "struct Auction.AuctionItem",
						"members": [
							{
								"astId": 12,
								"contract": "contracts/Auction.sol:Auction",
								"label": "loanId",
								"offset": 0,
								"slot": "0",
								"type": "t_uint256"
							},
							{
								"astId": 14,
								"contract": "contracts/Auction.sol:Auction",
								"label": "pledger",
								"offset": 0,
								"slot": "1",
								"type": "t_address"
							},
							{
								"astId": 16,
								"contract": "contracts/Auction.sol:Auction",
								"label": "tokenId",
								"offset": 0,
								"slot": "2",
								"type": "t_uint256"
							},
							{
								"astId": 18,
								"contract": "contracts/Auction.sol:Auction",
								"label": "auctionId",
								"offset": 0,
								"slot": "3",
								"type": "t_uint256"
							},
							{
								"astId": 20,
								"contract": "contracts/Auction.sol:Auction",
								"label": "auctionStartTime",
								"offset": 0,
								"slot": "4",
								"type": "t_uint256"
							},
							{
								"astId": 22,
								"contract": "contracts/Auction.sol:Auction",
								"label": "repaymentAmount",
								"offset": 0,
								"slot": "5",
								"type": "t_uint256"
							},
							{
								"astId": 24,
								"contract": "contracts/Auction.sol:Auction",
								"label": "bankToWhichItisPledged",
								"offset": 0,
								"slot": "6",
								"type": "t_uint256"
							},
							{
								"astId": 26,
								"contract": "contracts/Auction.sol:Auction",
								"label": "nftContractAddress",
								"offset": 0,
								"slot": "7",
								"type": "t_address"
							},
							{
								"astId": 28,
								"contract": "contracts/Auction.sol:Auction",
								"label": "bankAddress",
								"offset": 0,
								"slot": "8",
								"type": "t_address"
							},
							{
								"astId": 30,
								"contract": "contracts/Auction.sol:Auction",
								"label": "bankAdmin",
								"offset": 0,
								"slot": "9",
								"type": "t_address"
							},
							{
								"astId": 32,
								"contract": "contracts/Auction.sol:Auction",
								"label": "auctionState",
								"offset": 20,
								"slot": "9",
								"type": "t_enum(AuctionState)10"
							},
							{
								"astId": 34,
								"contract": "contracts/Auction.sol:Auction",
								"label": "highestBindingBid",
								"offset": 0,
								"slot": "10",
								"type": "t_uint256"
							},
							{
								"astId": 36,
								"contract": "contracts/Auction.sol:Auction",
								"label": "highestBidder",
								"offset": 0,
								"slot": "11",
								"type": "t_address_payable"
							},
							{
								"astId": 38,
								"contract": "contracts/Auction.sol:Auction",
								"label": "symbol",
								"offset": 0,
								"slot": "12",
								"type": "t_string_storage"
							}
						],
						"numberOfBytes": "416"
					},
					"t_uint256": {
						"encoding": "inplace",
						"label": "uint256",
						"numberOfBytes": "32"
					}
				}
			},
			"userdoc": {
				"kind": "user",
				"methods": {},
				"version": 1
			}
		}
	}
}